:020000040800F2
:1000000000500020CD9F0008B59F0008B79F000852
:10001000B99F0008BB9F0008BD9F000800000000BA
:10002000000000000000000000000000BF9F00086A
:10003000C19F000800000000C39F0008C59F000882
:1000400015A0000815A0000815A0000815A00008BC
:1000500015A0000815A0000815A0000815A00008AC
:1000600015A0000815A0000815A0000815A000089C
:1000700015A0000815A0000815A0000815A000088C
:1000800015A0000815A0000815A0000815A000087C
:1000900015A0000815A0000815A00008BD840008E0
:1000A00015A0000815A0000815A0000815A000085C
:1000B000952F000815A0000815A0000815A000083D
:1000C00015A0000815A0000815A0000815A000083C
:1000D00015A0000815A000083D2A000841490008A5
:1000E00015A0000815A0000815A0000800000000D9
:1000F0000000000000000000000000000000000000
:0C01000000000000000000005FF808F1A3
:1001100010B5054C237833B9044B13B10448AFF341
:1001200000800123237010BD480000200000000063
:1001300020B7000808B5034B1BB103490348AFF3D0
:10014000008008BD000000004C00002020B700081F
:1001500010F8012B11F8013B012A28BF9A42F7D071
:10016000D01A7047034613F8012B002AFBD1181A46
:100170000138704781F0004102E000BF83F0004386
:1001800030B54FEA41044FEA430594EA050F08BF32
:1001900090EA020F1FBF54EA000C55EA020C7FEAF6
:1001A000645C7FEA655C00F0E2804FEA5454D4EB73
:1001B0005555B8BF6D420CDD2C4480EA020281EA3D
:1001C000030382EA000083EA010180EA020281EA75
:1001D0000303362D88BF30BD11F0004F4FEA0131C7
:1001E0004FF4801C4CEA113102D0404261EB4101D6
:1001F00013F0004F4FEA03334CEA133302D052425C
:1002000063EB430394EA050F00F0A780A4F1010417
:10021000D5F1200E0DDB02FA0EFC22FA05F2801851
:1002200041F1000103FA0EF2801843FA05F3594137
:100230000EE0A5F120050EF1200E012A03FA0EFCB6
:1002400028BF4CF0020C43FA05F3C01851EBE371E0
:1002500001F0004507D54FF0000EDCF1000C7EEBFD
:1002600000006EEB0101B1F5801F1BD3B1F5001F3B
:100270000CD349085FEA30004FEA3C0C04F101045A
:100280004FEA445212F5800F80F09A80BCF1004F83
:1002900008BF5FEA500C50F1000041EB045141EA05
:1002A000050130BD5FEA4C0C404141EB0101013CCE
:1002B00028BFB1F5801FE9D291F0000F04BF0146BD
:1002C0000020B1FA81F308BF2033A3F10B03B3F18F
:1002D00020020CDA0C3208DD02F1140CC2F10C021F
:1002E00001FA0CF021FA02F10CE002F11402D8BF7D
:1002F000C2F1200C01FA02F120FA0CFCDCBF41EA49
:100300000C019040E41AA2BF01EB0451294330BD17
:100310006FEA04041F3C1CDA0C340EDC04F11404F4
:10032000C4F1200220FA04F001FA02F340EA0300CB
:1003300021FA04F345EA030130BDC4F10C04C4F111
:10034000200220FA02F001FA04F340EA03002946F1
:1003500030BD21FA04F0294630BD94F0000F83F43B
:10036000801306BF81F480110134013D4EE77FEA1E
:10037000645C18BF7FEA655C29D094EA050F08BF6A
:1003800090EA020F05D054EA000C04BF194610464B
:1003900030BD91EA030F1EBF0021002030BD5FEA8F
:1003A000545C05D14000494128BF41F0004130BDB7
:1003B00014F580043CBF01F5801130BD01F000450B
:1003C00045F0FE4141F470014FF0000030BD7FEA7E
:1003D000645C1ABF194610467FEA655C1CBF0B4679
:1003E000024650EA013406BF52EA033591EA030F90
:1003F00041F4002130BD00BF90F0000F04BF002188
:10040000704730B54FF4806404F132044FF00005BA
:100410004FF0000150E700BF90F0000F04BF002133
:10042000704730B54FF4806404F1320410F0004599
:1004300048BF40424FF000013EE700BF42004FEA94
:10044000E2014FEA31014FEA02701FBF12F07F4311
:1004500093F07F4F81F06051704732F07F4208BFC8
:10046000704793F07F4F04BF41F40021704730B5CF
:100470004FF4607401F0004521F000411CE700BF1B
:1004800050EA010208BF704730B54FF000050AE09E
:1004900050EA010208BF704730B511F0004502D59F
:1004A000404261EB41014FF4806404F132045FEAA1
:1004B000915C3FF4D8AE4FF003025FEADC0C18BF4A
:1004C00003325FEADC0C18BF033202EBDC02C2F13C
:1004D000200300FA03FC20FA02F001FA03FE40EACE
:1004E0000E0021FA02F11444BDE600BF70B54FF0D2
:1004F000FF0C4CF4E06C1CEA11541DBF1CEA1355B0
:1005000094EA0C0F95EA0C0F00F0DEF82C4481EA17
:10051000030621EA4C5123EA4C5350EA013518BF37
:1005200052EA033541F4801143F4801338D0A0FB24
:1005300002CE4FF00005E1FB02E506F00042E0FBD1
:1005400003E54FF00006E1FB03569CF0000F18BFD7
:100550004EF0010EA4F1FF04B6F5007F64F540747F
:1005600004D25FEA4E0E6D4146EB060642EAC62112
:1005700041EA55514FEAC52040EA5E504FEACE2E7F
:10058000B4F1FD0C88BFBCF5E06F1ED8BEF1004F82
:1005900008BF5FEA500E50F1000041EB045170BDFE
:1005A00006F0004646EA010140EA020081EA030142
:1005B000B4EB5C04C2BFD4EB0C0541EA045170BD3E
:1005C00041F480114FF0000E013C00F3AB8014F1B8
:1005D000360FDEBF002001F0004170BDC4F1000401
:1005E000203C35DA0C341BDC04F11404C4F1200582
:1005F00000FA05F320FA04F001FA05F240EA0200DD
:1006000001F0004221F0004110EBD37021FA04F612
:1006100042EB06015EEA430E08BF20EAD37070BDCC
:10062000C4F10C04C4F1200500FA04F320FA05F02B
:1006300001FA04F240EA020001F0004110EBD3702D
:1006400041F100015EEA430E08BF20EAD37070BD9D
:10065000C4F1200500FA05F24EEA020E20FA04F376
:1006600001FA05F243EA020321FA04F001F0004125
:1006700021FA04F220EA020000EBD3705EEA430E96
:1006800008BF20EAD37070BD94F0000F0FD101F0C5
:100690000046400041EB010111F4801F08BF013CFE
:1006A000F7D041EA060195F0000F18BF704703F03C
:1006B0000046520043EB030313F4801F08BF013DC3
:1006C000F7D043EA0603704794EA0C0F0CEA13557F
:1006D00018BF95EA0C0F0CD050EA410618BF52EA39
:1006E0004306D1D181EA030101F000414FF000003F
:1006F00070BD50EA410606BF1046194652EA43064D
:1007000019D094EA0C0F02D150EA013613D195EAC0
:100710000C0F05D152EA03361CBF104619460AD108
:1007200081EA030101F0004141F0FE4141F4700112
:100730004FF0000070BD41F0FE4141F4780170BD02
:1007400070B54FF0FF0C4CF4E06C1CEA11541DBF67
:100750001CEA135594EA0C0F95EA0C0F00F0A7F869
:10076000A4EB050481EA030E52EA03354FEA013196
:1007700000F088804FEA03334FF0805545EA1313A9
:1007800043EA12634FEA022245EA111545EA106571
:100790004FEA00260EF000419D4208BF964244F108
:1007A000FD0404F5407402D25B084FEA3202B61A27
:1007B00065EB03055B084FEA32024FF480104FF4FB
:1007C000002CB6EB020E75EB030E22BFB61A75466F
:1007D00040EA0C005B084FEA3202B6EB020E75EB02
:1007E000030E22BFB61A754640EA5C005B084FEA6A
:1007F0003202B6EB020E75EB030E22BFB61A754637
:1008000040EA9C005B084FEA3202B6EB020E75EB41
:10081000030E22BFB61A754640EADC0055EA060E02
:1008200018D04FEA051545EA16754FEA06164FEA45
:10083000C30343EA52734FEAC2025FEA1C1CC0D1F1
:1008400011F4801F0BD141EA00014FF000004FF07E
:10085000004CB6E711F4801F04BF01430020B4F13F
:10086000FD0C88BFBCF5E06F3FF6AFAEB5EB030CF7
:1008700004BFB6EB020C5FEA500C50F1000041EBF4
:10088000045170BD0EF0004E4EEA113114EB5C04C1
:10089000C2BFD4EB0C0541EA045170BD41F4801194
:1008A0004FF0000E013C90E645EA060E8DE60CEA9C
:1008B000135594EA0C0F08BF95EA0C0F3FF43BAFB9
:1008C00094EA0C0F0AD150EA01347FF434AF95EA70
:1008D0000C0F7FF425AF104619462CE795EA0C0F54
:1008E00006D152EA03353FF4FDAE1046194622E721
:1008F00050EA410618BF52EA43067FF4C5AE50EAFB
:1009000041047FF40DAF52EA43057FF4EBAE12E7EA
:100910004A0011D212F5001211D20DD56FF478737E
:10092000B3EB62520ED44FEAC12343F0004343EAD3
:10093000505323FA02F070474FF00000704750EA1E
:10094000013002D14FF0FF3070474FF00000704788
:1009500080F0004002E000BF81F0004142001FBF74
:100960005FEA410392EA030F7FEA226C7FEA236C7D
:100970006AD04FEA1262D2EB1363C1BFD218414072
:1009800048404140B8BF5B42192B88BF704710F008
:10099000004F40F4000020F07F4018BF404211F0AB
:1009A000004F41F4000121F07F4118BF494292EA13
:1009B000030F3FD0A2F1010241FA03FC10EB0C003F
:1009C000C3F1200301FA03F100F0004302D54942CC
:1009D00060EB4000B0F5000F13D3B0F1807F06D379
:1009E00040084FEA310102F10102FE2A51D2B1F171
:1009F000004F40EBC25008BF20F0010040EA030066
:100A00007047490040EB0000013A28BFB0F5000FE5
:100A1000EDD2B0FA80FCACF1080CB2EB0C0200FA9B
:100A20000CF0AABF00EBC25052421843BCBFD040EA
:100A30001843704792F0000F81F4000106BF80F464
:100A400000000132013BB5E74FEA41037FEA226C27
:100A500018BF7FEA236C21D092EA030F04D092F0F2
:100A6000000F08BF0846704790EA010F1CBF002026
:100A7000704712F07F4F04D1400028BF40F0004083
:100A8000704712F100723CBF00F50000704700F0A3
:100A9000004343F0FE4040F4000070477FEA2262CA
:100AA00016BF08467FEA23630146420206BF5FEA9B
:100AB000412390EA010F40F4800070474FF000039B
:100AC00004E000BF10F0004348BF40425FEA000C62
:100AD00008BF704743F0964301464FF000001CE00A
:100AE00050EA010208BF70474FF000030AE000BF60
:100AF00050EA010208BF704711F0004302D540429E
:100B000061EB41015FEA010C02BF8446014600200F
:100B100043F0B64308BFA3F18053A3F50003BCFA2A
:100B20008CF2083AA3EBC25310DB01FA02FC6344D7
:100B300000FA02FCC2F12002BCF1004F20FA02F2DE
:100B400043EB020008BF20F00100704702F12002D1
:100B500001FA02FCC2F1200250EA4C0021FA02F232
:100B600043EB020008BF20EADC7070474FF0FF0C37
:100B70001CEAD0521EBF1CEAD15392EA0C0F93EA32
:100B80000C0F6FD01A4480EA010C400218BF5FEAD4
:100B900041211ED04FF0006343EA501043EA511147
:100BA000A0FB01310CF00040B1F5000F3EBF490041
:100BB00041EAD3715B0040EA010062F17F02FD2A45
:100BC0001DD8B3F1004F40EBC25008BF20F0010028
:100BD000704790F0000F0CF0004C08BF49024CEA3F
:100BE000502040EA51207F3AC2BFD2F1FF0340EAD1
:100BF000C250704740F400004FF00003013A5DDC42
:100C000012F1190FDCBF00F000407047C2F1000282
:100C1000410021FA02F1C2F1200200FA02FC5FEA6F
:100C2000310040F1000053EA4C0308BF20EADC70B9
:100C3000704792F0000F00F0004C02BF400010F42B
:100C4000000F013AF9D040EA0C0093F0000F01F0D8
:100C5000004C02BF490011F4000F013BF9D041EAFA
:100C60000C018FE70CEAD15392EA0C0F18BF93EAFC
:100C70000C0F0AD030F0004C18BF31F0004CD8D126
:100C800080EA010000F00040704790F0000F17BFAD
:100C900090F0004F084691F0000F91F0004F14D0F3
:100CA00092EA0C0F01D142020FD193EA0C0F03D14B
:100CB0004B0218BF084608D180EA010000F000404E
:100CC00040F0FE4040F40000704740F0FE4040F429
:100CD000400070474FF0FF0C1CEAD0521EBF1CEAC8
:100CE000D15392EA0C0F93EA0C0F69D0A2EB0302E6
:100CF00080EA010C49024FEA402037D04FF0805380
:100D000043EA111143EA10130CF000408B4238BF44
:100D10005B0042F17D024FF4000C8B4224BF5B1A52
:100D200040EA0C00B3EB510F24BFA3EB510340EAA0
:100D30005C00B3EB910F24BFA3EB910340EA9C004E
:100D4000B3EBD10F24BFA3EBD10340EADC001B01BE
:100D500018BF5FEA1C1CE0D1FD2A3FF650AF8B4262
:100D600040EBC25008BF20F0010070470CF0004C6F
:100D70004CEA50207F32C2BFD2F1FF0340EAC2509A
:100D8000704740F400004FF00003013A37E792F05B
:100D9000000F00F0004C02BF400010F4000F013AB9
:100DA000F9D040EA0C0093F0000F01F0004C02BFB4
:100DB000490011F4000F013BF9D041EA0C0195E71D
:100DC0000CEAD15392EA0C0F08D142027FF47DAFB6
:100DD00093EA0C0F7FF470AF084676E793EA0C0FA6
:100DE00004D14B023FF44CAF08466EE730F0004CA4
:100DF00018BF31F0004CCAD130F000427FF45CAF34
:100E000031F000437FF43CAF5FE700BF4FF0FF3CA1
:100E100006E000BF4FF0010C02E000BF4FF0010CF4
:100E20004DF804CD4FEA40024FEA41037FEA226CBD
:100E300018BF7FEA236C11D001B052EA530C18BFDF
:100E400090EA010F58BFB2EB030088BFC81738BF44
:100E50006FEAE17018BF40F0010070477FEA226C32
:100E600002D15FEA402C05D17FEA236CE4D15FEA2E
:100E7000412CE1D05DF8040B704700BF8446084662
:100E80006146FFE70FB5FFF7C9FF002848BF10F123
:100E9000000F0FBD4DF808EDFFF7F4FF0CBF012068
:100EA00000205DF808FB00BF4DF808EDFFF7EAFFF2
:100EB00034BF012000205DF808FB00BF4DF808EDAD
:100EC000FFF7E0FF94BF012000205DF808FB00BFA2
:100ED0004DF808EDFFF7D2FF94BF012000205DF828
:100EE00008FB00BF4DF808EDFFF7C8FF34BF012035
:100EF00000205DF808FB00BF4FEA4002B2F1FE4F50
:100F00000FD34FF09E03B3EB12620DD94FEA0023CB
:100F100043F0004310F0004F23FA02F018BF4042A4
:100F200070474FF00000704712F1610F01D142028B
:100F300005D110F0004008BF6FF0004070474FF03F
:100F40000000704742000ED2B2F1FE4F0BD34FF0BB
:100F50009E03B3EB126209D44FEA002343F000432F
:100F600023FA02F070474FF00000704712F1610F52
:100F700001D1420202D14FF0FF3070474FF0000024
:100F8000704700BF0022427082700122C2700222AC
:100F9000B1FA81F10271032249090170427170476F
:100FA00043788B421FD0012941700AD0022910D00A
:100FB000C1B90123C37002238170037103234371FC
:100FC0007047037843B1012383700223C370002369
:100FD000F3E70378002BF6D0022383700023C3705D
:100FE0000123EAE7FEE770470B8882B0ADF80030D6
:100FF0004B880239ADF80230CB88ADF804300B894C
:10100000ADF80630431C053013F8012F0DF1080C24
:101010000CEB420232F8082C834221F8022FF3D164
:1010200002B0704708448078704738B54FF07F337E
:101030007F22C0F8A03000254FF6FF730446A0F8C9
:10104000A43080F8A62080F8A950A0F8AA30AC30CF
:1010500000F0B2FC84F8B85038BD70B515460446AF
:101060001E46114600F04FFC294604F1140000F022
:101070004AFC294604F1280000F045FC294604F109
:101080003C0000F040FC294604F1500000F03BFC1D
:10109000294604F1640000F036FC294604F178008A
:1010A00000F031FC294604F18C0000F02CFC04F126
:1010B000AC0032464FF4FA734FF4FA6100F062FC70
:1010C0002046BDE87040FFF7B0BF704700F022BC7B
:1010D000143000F01FBC283000F01CBC90F8A43085
:1010E00013B990F9A000704790F9A100704790F8EB
:1010F000A43013B990F9A200704790F9A30070478B
:1011000010B5044607F016FC38B104F1140000F0E5
:1011100005FC012838BF0120C0B210BD10B504463F
:1011200007F008FC38B104F1500000F0F7FB01288B
:1011300038BF0120C0B210BD4FF47A71AC3000F05E
:1011400042BC0021AC3000F03EBC08B5AC3000F031
:101150004BFCB0F57A7FA8BF4FF47A7020EAE070BC
:1011600008BD10B5044600F0AFFB04F1140000F018
:10117000ABFB04F1280000F0A7FB04F13C0000F0F9
:10118000A3FB04F1500000F09FFB04F1640000F0A9
:10119000A7FB04F17800BDE8104000F0A1BB7F2858
:1011A00007D0002807DA10F1800F06D04042C0B205
:1011B000704700207047012070477F20704710B1B2
:1011C000404240B270477F2070477F280FD010F117
:1011D000310F0EDA10F1780F0DDBFE23783040B2BC
:1011E000584346232330B0FBF3F0C0B27047FF20D2
:1011F0007047FE207047002070477F2805D031B12E
:10120000002806DA4042C0B27047FF207047FE2037
:101210007047002070477F2811D010F1310F10DA8D
:1012200010F1780F10DB40F2A963783040B25843D8
:1012300046232330B0FBF3F0AC3080B2704700207F
:10124000704740F255707047AC20704763289FBFCD
:1012500040F2A9635843642332309DBFB0FBF3F0E2
:10126000AC3080B240F2557070474FF4F063A0F597
:101270008060584340F2FF7390FBF3F000F5787004
:1012800080B27047FFF7F1BF4FF49663A0F580601E
:10129000584340F2FF7390FBF3F000F2DC5080B251
:1012A0007047A0F58060D0EB001048BF033040F3DA
:1012B0008F007047032812DD0C2812DD0F2812DD85
:1012C000122812DD162812DD192812DD1C2812DD65
:1012D0001F2812DD2128CCBFFF20062070470020E8
:1012E0007047012070470220704708207047032094
:1012F00070470720704704207047052070470000A2
:1013000005289ABF014B185CFF20704797B700086B
:101310007F281ABF4042C0B2002070477F2811D0FA
:1013200010F1320F10DA884210DD6423401A58435E
:10133000C1F1FF2101F57F01CE31313090FBF1F099
:10134000C0B27047FF20704764207047002070478C
:10135000014B4840185C7047A0B7000852B110B468
:10136000054C0A4411F8013B58408A42205CF9D1EF
:1013700010BC7047704700BFA0B70008002805DB0D
:10138000212805DC044B33F810007047002070471B
:101390004FF4FA60704700BFCAB80008392808D86F
:1013A00022280ED9094B2338C0B2C34003F00100F4
:1013B00070475F2807D0613819288CBF00200120B2
:1013C0007047002070470120704700BF01EC7F008C
:1013D000F8B5024600245F27451E461D15F8010F8B
:1013E000FF2804BF0134E4B2FFF7D8FF00B92F7023
:1013F000AE42F3D1062C04D119B10B6813608B886F
:10140000938000239371F8BD2DE9F8430125002650
:101410004FF02808DFF82C90471E441D17F8011FD5
:1014200008480AF024F9034610B1A0EB0903DBB227
:10143000A3FB05329E19A742A5FB0853EED1304607
:10144000BDE8F883A0B8000810B54179A1F13000DB
:10145000C3B2092B07D80523B0FBF3F303EB8303D7
:10146000C01AC0B210BD044C20460AF000F9002892
:10147000F1D0001BC0B2EEE7A0B8000870B504467A
:10148000FEF770FE002582B2501EABB2834204EB21
:10149000030103DAE65C0135302EF6D0D21A20467D
:1014A000BDE8704001320AF0B1B800002DE9F04FFC
:1014B0000D4699B0164600211A461F4680460AF08E
:1014C000BFF800212A2201A800910AF0B9F8DFF83C
:1014D000CC90DFF8CCA0DFF8CCB005EB4606AE42EE
:1014E00011D16846FEF73EFE30B100F160030DEB0E
:1014F0000300002300F8613C694640460AF0FAF810
:1015000019B0BDE8F08F47F6FF7335F9020B98422A
:10151000E7D0002812DC59460CA80AF0EBF8684620
:10152000FEF720FE04460CA8FEF71CFE0444A7426A
:10153000D5D368460CA90AF08BF8D0E7B0F57A7FCE
:101540000BDA0CA980B209F079FC0CA8FFF796FF22
:1015500051460CA80AF07CF8E1E764233230B0FB76
:10156000F3F00CA980B209F069FC0CA8FFF786FF24
:101570000CA8FEF7F7FD00F15F036B4413F8302C65
:1015800000F160010DEB010000F8302C2E2203F871
:10159000302C0023494600F82F3CDAE754B7000806
:1015A0004FB700084AB70008F0B589B06D4600246F
:1015B0002F468E1CE1B28A4204D83946FFF776FFE7
:1015C00009B0F0BD36F82410013425F8021BF1E70C
:1015D00042F21073B0FBF3F2642103FB1200B0FB84
:1015E000F1F301FB130000EB023000EB831080B23B
:1015F000704770B50E460021054614460AF020F8E3
:1016000000239AB2944200D870BDF25C002AFBD04D
:10161000EA540133F5E70000052911D8DFE801F0AD
:101620000306080A0C0E0749FFF7E3BF0649FBE76C
:101630000649F9E70649F7E70649F5E70649F3E7FA
:101640000649F1E758B700085DB7000862B700081F
:1016500067B700086CB7000871B7000876B70008D4
:10166000052911D8DFE801F00306080A0C0E074926
:10167000FFF7BFBF0649FBE70649F9E70649F7E769
:101680000649F5E70649F3E70649F1E778B70008A8
:101690007DB7000882B7000887B700088CB700083C
:1016A00090B7000876B7000870B50E4614460021C2
:1016B0000132054609F0C4FF00239AB2944200D8D3
:1016C00070BDF25C002AFBD0EA540133F5E77D23BC
:1016D000438043F23903C360002309B20180818053
:1016E000C38003727047000002680449044B01FB89
:1016F000023323F000430360180C7047FD430300DE
:10170000C39E2600F0B5002597B001608580044691
:1017100056222946684609F093FF0126E27DAA4237
:1017200009D80023802104F1B800A37517B0BDE8E3
:10173000F04009F085BF2046FFF7D6FFE77900218A
:101740007B1B90FBF3F2EC4602FB13000A46C0B28F
:10175000CBB29F4222D8002300221146277BD0B271
:10176000874226D80029D9D1A2796119033A012AE2
:1017700005D925B191F9172012BB012BCED90B76D3
:10178000A26852F82310583305F10E026B4401355C
:1017900044F8221003F8586CEDB2BFE71CF801EBD7
:1017A000BEF1000F03D18242D6D00132D2B2013154
:1017B000CEE72069805C0132984208BF0121CEE764
:1017C000501E8342DBDB01329342D8DCA6E72DE9D1
:1017D000F047154696B0013D016002710446437121
:1017E000EDB256220021684609F02AFF022D98BF6B
:1017F0004FF003094FF0000794F807808ABF4FF0BD
:101800000109B8FBF9F800253E464FF0010AE27DD8
:10181000B24209D80023802104F1B800A37516B0A4
:10182000BDE8F04709F00CBF2046FFF75DFFA8EBCD
:10183000060390FBF3F2002102FB1300EC460A467C
:10184000C0B2CBB2434506D21CF801EBBEF1000F8B
:1018500029D1824225D10020434528BF43468446F2
:1018600009FB035194F80CE0C9B2C2B296451CD8EA
:10187000BCF1000FCBD116B1FFB9012BC7D9A2190A
:101880001176A2681F4652F8211006F10E0244F8A4
:10189000221003F158026A44013602F858ACF6B23D
:1018A000B5E70132D2B20131CBE72269125C0130D7
:1018B0008A4208BF4FF0010CD7E77A1E9342DEDB65
:1018C0007A1C9342DBDCA2E76421D0E90123D31A1E
:1018D000C3604B43418A8260B3FBF1F303747047EA
:1018E000D0E90123D31AC0E90223704743682BB122
:1018F0006421C2684A43B2FBF3F2D3B203740023FB
:10190000C3604360704700234182C0E902334360F3
:10191000037470474368013343607047007C70472D
:1019200043680B44436070470023C0E90133C36040
:1019300003747047F0B5047C0360012C11D94FF497
:101940007A7744688568141B7C43C6684D1B05FB89
:1019500016442B4494FBF3F33344C360C0E90121E4
:10196000F0BD1CB90123C4600374F7E74FF47A7427
:101970004368D31A634384680C1B93FBF4F3C3607E
:101980000223F1E72DE9F041044610461D461646B4
:101990008846FFF793F8074606EB0800FFF78EF836
:1019A00001463846FFF796F9656020602846FFF744
:1019B00089F8A060BDE8F08110B504464068FFF7E3
:1019C00081F8A06010BD38B5044685680846FFF769
:1019D00079F82946FEF7C0FF2168FFF7C7F82946C6
:1019E000FEF7BCFFA06038BD08B54FF07C518068A1
:1019F000FEF7B4FFFFF780FA08BD704770477047E5
:101A000000207047704700207047002070477047E3
:101A10000020704700207047054B82B0DA6902430E
:101A2000DA61DB6903400193019B02B0704700BF9C
:101A300000100240054B82B09A6902439A619B698B
:101A400003400193019B02B0704700BF00100240A9
:101A500000F10C0353E8003F23F0800300F10C0178
:101A600041E80032002AF3D170470000044B188887
:101A7000044B80B21B889BB2C01A18BF012070476C
:101A8000602800205E280020704700000288044B78
:101A90005140C9B233F8113083EA122303807047F2
:101AA00088D100089AB110B4B0F800C0084C0A44BC
:101AB00011F8013B83EA0C03DBB234F81330914296
:101AC00083EA1C2CA0F800C0F2D110BC704770470C
:101AD00088D100084FF6FF7337B50446ADF80630DD
:101AE0004518AC4203D1BDF8060003B030BD14F870
:101AF000011B0DF10600FFF7C9FFF2E708B5FFF77C
:101B0000B5FF003818BF012008BD00207047000055
:101B10000278024B51405B5C0370704708BE0008BE
:101B2000FF230370704700BF704770B50B78054600
:101B300003704B780C4643700B78FD2B38D10A2686
:101B40008B788370CB78C3700B7903714B794371B9
:101B50008B7983718B68C3718B68C3F30F23037216
:101B60008B7A4372627804F10C01A81909F0CAFD5E
:101B70006378B4F80C213344EA54B4F80C115A1CBD
:101B800092B2090AA954A278981CD20780B20ED545
:101B900004F58872054404F58E7452F8041BA242C1
:101BA00045F8041BF9D112780F332A7098B270BD32
:101BB00000238B700B79062683704B79C3708B7969
:101BC00003718B684371CDE7242208B500210348D7
:101BD00009F036FD0022024B1A7008BD7005002086
:101BE0001C0300202DE9F04113780446037092F89D
:101BF0000180FD2B0F46154680F8018054D10A263E
:101C000093788370D378C3701379037153794371D8
:101C1000937983716B7A127A1B0403EB0223EA79BE
:101C2000134423F07F43A268A91963F31702A2604B
:101C300004F10C00424609F065FD7A7B904507D21D
:101C400008F10C000021A2EB0802204409F0F8FC86
:101C500063781E44AB195A78AB5D03EB0223A4F8FA
:101C60000C31A378DB070ED50236B6B2354404F545
:101C7000887305F10C0255F8041B954243F8041BC8
:101C8000F9D12A781A70BB7A84F82131FB7A84F86A
:101C900022313B7B84F823317B7B84F824313B78F1
:101CA00084F82031BDE8F081002343809378062634
:101CB0000371D3784371137983715379B3E70000CB
:101CC00070B50D4C0D4E0546062204F10A0106F5CD
:101CD0008970FFF7E9FC237CC3F3031386F81A31FC
:101CE000637CC3F3030386F81B31637ADB0744BFCD
:101CF00002232B7370BD00BF491E0020C4000020CA
:101D000070B504462420E270207022465820BDF8A9
:101D1000145023711B0A63712B0AA1706070A571A6
:101D200002F8073F049B59198B420CD16A1D92B2ED
:101D3000E11C0020FFF712FB05F10806A05505F194
:101D4000090080B270BD13F8010B02F8010FEBE738
:101D50004FF0320C0A4B0B491A680B4BA1FB0212D5
:101D6000920C0CFB02F202F5FA72A3FB0232074955
:101D7000920948684B681B1A9A42FBD8704700BF0B
:101D80003C00002083DE1B43D34D6210001000E0B6
:101D900008B5FFF7DDFF4FF48052014B1A6108BD13
:101DA000000C01404FF48052014B5A61FFF7D0BF45
:101DB000000C014010B502780A4BD243D2B24478ED
:101DC0009A5C90F802E062409A5C90F803C082EA64
:101DD0000E029A5C017982EA0C029A5C4A40985C95
:101DE00010BD00BF08BE0008F8B53C290446BDF888
:101DF0001C5036D0A1F12106714271414900D00733
:101E000048BF41F0080192074FF0240222704FF0C2
:101E10006F02E3704FEA132348BF41F010012371B2
:101E2000A61C2B0A6270A170A37130466571FFF782
:101E3000C1FF2246069B02F8070F59198B4212D1A7
:101E4000A91D304689B2FFF745FE05F1080705F1E7
:101E50000903E0559BB2000AE05405F10A0080B284
:101E6000F8BD0121CBE713F8010B02F8010FE5E7FC
:101E70006FF02002084B1A604FF040225B6802F2BC
:101E80000C4353E8003F43F0200302F20C4040E8CB
:101E900000310029F3D17047004400402DE9F04F94
:101EA0000C4651880546B1F58C7F85B011D30021D1
:101EB0001170D91CC9B2012995BF0121002351809D
:101EC00053809CBF2370117000232B7005B0BDE8B8
:101ED000F08F10780E2800F28B8001A656F820F0C3
:101EE000B31E00081D1F0008451F00085F1F0008E3
:101EF000F11F0008F11F0008F11F0008F11F000882
:101F0000F11F0008F11F0008F11F0008F11F000871
:101F1000F11F0008F11F0008711F0008481C5080C5
:101F2000635421789BB2FD2906D10C330A21D3805A
:101F3000022391801370C7E706210833D380918074
:101F40000E23F7E7481C5080D807635442BFD1885E
:101F50000D31D180012B8CBF00230323EAE7002B36
:101F600001F101005080635414BF00230E23E1E708
:101F7000481C508063545388D1888B4232D300234D
:101F800053801370022369802B702378FD2B35D189
:101F900063792B72A3796B72637A227A1B0403EB49
:101FA0000223E27913446B60637803F10C026A80C8
:101FB000A278D10701D519336B8000264FF4BC728B
:101FC0000C206968DFF8E8806E81B31801335B0884
:101FD00000FB03F758F80770B94218D25A1EB242F4
:101FE000F3D816E092889A423FF66EAF01236CE771
:101FF0000023137053809380D38066E7E3782B72BD
:1020000023796B7263796B6063780833D4E71E467B
:10201000E5D80C27774358F80730994227D1237821
:102020002046FD2B0CBF4FF00A094FF0060910F8AF
:1020300001BF474409EB0B03591E89B20193FFF717
:1020400049FD97F804A0ADF80E0051460DF10E00C1
:10205000FFF71CFD019BE2185278E35C03EB0223BF
:10206000BDF80E209BB29A4203D005232DE703232F
:102070002BE7BB79DA0706D5FA79934582BF04EBE3
:1020800009018A5CAA729B0709D50C2303FB06830E
:1020900062781B7A9A4282BF4C44E35CEB720C2359
:1020A00003FB06835B7985F80CA06B730EE700BF1A
:1020B00008BF0008F0B5FD230546044685B005F8C5
:1020C0000C3B8DF8043090F8243103F10C020244EB
:1020D000012B42D80026637066808DF805308B7A1C
:1020E0000DF1050023718DF808308B7AADF806608C
:1020F00001338B72637909218DF80930A3798DF84A
:102100000A30A368C3F317031A128DF80B301B149F
:102110008DF80D308DF80C20FFF7DCFC6778294630
:102120003A46ADF802000DF10200FFF7BBFC94F84F
:102130002311FFF7ABFC94F82421BDF8023097423D
:10214000A4F80C3110D2314607F10C00D21B204408
:1021500005B0BDE8F04009F073BA12F8010D00288F
:10216000B8D1013BDBB2B3E705B0F0BD0023044AB0
:102170001380044A1380044A1380044A1380704772
:102180005E28002060280020622C0020642C0020A3
:1021900007B503688DF8071001221B690DF10701CF
:1021A000984703B05DF804FB70B5044608460D4639
:1021B000FDF7D8FF2368294682B21B692046BDE897
:1021C000704018470120FFF735BC00000D4B9842C6
:1021D00002D10420FFF72EBC0B4B984205D003F52B
:1021E0008063984203D11020F4E70820F2E7074B00
:1021F000984201D12020EDE7054B984200D070476E
:102200004020E7E700080140000C014000140140B5
:10221000001801400B4B984203D14FF40060FFF7C8
:1022200009BCB0F1804F04D0074B984204D1022082
:1022300000E00120FFF7F0BB044B984201D10420DD
:10224000F8E77047002C01400004004000080040FF
:102250002DE9F0410C46154686B0074610220021B4
:1022600002A81E469DF8348009F0EAF901940B2D6E
:1022700007D8DFE805F00E0E070A14141416161618
:102280001B1DFEE70823029303E0082302930123AA
:102290000593032E0ED8DFE806F01E200E1E012344
:1022A000F1E70123029304230493F2E70923EAE709
:1022B0000923F7E7FEE701230393B8F1000F02D0EB
:1022C0003846FFF783FF053D042D0BD8DFE805F006
:1022D00007110A0711000323EEE70223ECE7C4F31A
:1022E0000F247C61384601A908F0BAFA06B0BDE8AF
:1022F000F081C4F30F243C61F4E713B54FF0010CF7
:102300000024CDE9004CFFF7A3FF02B010BD000090
:1023100030B50023154687B00446ADF80630FFF708
:1023200079FF042D04D8DFE805F02A2E04323B00A3
:10233000FEE71C4B1C4A1B68B3FBF2F39BB2002266
:10234000013BCDE90221204601A9ADF804300492F9
:10235000059208F0BFFB236823F080032360A36885
:1023600023F4804323F00703A360636823F0700322
:102370006360A36823F08003A36007B030BD094BFE
:102380000A4A1B68D8E7074B094A1B68D4E7054B84
:10239000064A1B68B3FBF2F303EB83035B00CDE754
:1023A0000123CCE73C00002080A8120140420F002E
:1023B00000127A0010B50446FFF7AAFF236843F025
:1023C0000103236010BD00224FF0FF31FFF7F2BF81
:1023D0001A4B10B55B681A4C236007F01DFE1948B4
:1023E00008F0EEF9184808F0EBF9184808F0E8F999
:1023F000174808F06FFC174808F06CFC08F0B4FAB6
:102400004FF0E022002313615361936172B64FF0E5
:10241000FF319A0002F16042013302F56142082B5C
:10242000C2F88010C2F88011F3D162B6034B1B686A
:1024300083F3088823689847FEE700BF00F0FF1F7A
:102440001803002000080140000C0140001001406A
:1024500000380140004400400749084A881AEFF359
:102460000883521A1A44013A013B984288BF00225D
:10247000AA2109F0E5B800BF0050002000040000C8
:1024800010B5124C03232046062240F60801FFF740
:1024900034FF2046032302220D49FFF72EFF0323BA
:1024A00020461A460B49FFF728FF20460323052242
:1024B00042F22001FFF721FF2046BDE81040032330
:1024C000052241F21001FFF718BF00BF000C0140C8
:1024D0000100010402000204024B9868C0F340208E
:1024E000704700BF000C014008B5FFF7F5FF00B9C9
:1024F00008BD00BFF9E700001022024B5A612022FC
:102500001A617047000C01402022024B5A611022D0
:102510001A617047000C014012480F22016921F036
:102520000F0192FAA2F20123B2FA82F293400B4316
:1025300003610D4B5A6822F480725A601A6822F4C3
:1025400080721A60DA6822F48072DA609A6842F463
:1025500080729A60D022054B83F817234FF4000253
:102560001A607047000001400004014000E100E0F3
:102570004FF48072034B5A611A6842F480721A60F9
:10258000704700BF0004014010B5054C032305222D
:1025900040F202212046FFF7B0FE0223636110BD26
:1025A000000801400023032240F201110148FFF717
:1025B000A4BE00BF00080140024B9868C04300F071
:1025C000010070470008014010B50A4C00230522A5
:1025D00020460949FFF791FE0023052220460749BE
:1025E000FFF78BFE4FF4004363614FF48043636158
:1025F00010BD00BF00100140800080044000400476
:102600000549CB681A04DB4302F0004203F400439F
:1026100013430B61704700BF001001400549CB68B0
:102620001A04DB4302F0804203F4804313430B613E
:10263000704700BF001001400C4BD3F8FC2022F083
:102640008072C3F8FC20D3F8FC2042F08072C3F8FB
:10265000FC20A3F55D431A6822F001021A601A6893
:1026600042F001021A6000225A60704700ED00E05B
:10267000064B074A1B680749B3FBF2F3434310B507
:102680004C684A68121B9A42FBD310BD3C000020E4
:1026900040420F00001000E02DE9F84381464CF263
:1026A00050300E4617461D4607F09CFD88BBB9F119
:1026B000010F06D0B9F1020F0CBF4FF002094FF025
:1026C00004094FF00008144A136943F00103136131
:1026D0004FEA0814C4F12002A4F1200305FA02F223
:1026E00027FA04F4144325FA03F31C43A4B24CF272
:1026F000503026F8184007F075FD28B908F1010898
:102700005FFA88F39945E3D8034A136923F001037C
:102710001361BDE8F88300BF002002407FB50123AC
:102720000022CDE9040301A902A8CDE9022307F0A4
:1027300095FD00280CBF0420052007B05DF804FBC0
:102740000A4608B5014600230220FFF7A5FF00282E
:102750000CBF0420052008BD08B5FFF7DFFF031FED
:102760005842584108BD08B5FFF7EAFF031F584219
:10277000584108BD2DE9F047264B274D01280FBFD2
:102780007D267C26AA461D460F4614462349244A28
:1027900006BF89469A46914607F008FD314628460D
:1027A000FFF7DAFF28B9002407F012FD2046BDE844
:1027B000F087002F08BF4FF478744FF000080334FF
:1027C000C4F38F0405F11006AAEB050A1FFA88F37B
:1027D0009C4209D84FF011312846FFF7C4FF041E70
:1027E00018BF0124A400DFE73FB95AF806104B1CBC
:1027F00006D108F101080436E8E757F82810F6E793
:102800004E4505D23046FFF7AEFF0028F1D1CAE7AA
:102810000324C9E700F0010800F40108FFF70108EC
:10282000FFF3010810B507F0C1FC7C210848FFF751
:1028300093FF044638B17D210648FFF78DFF041E43
:1028400018BF0124A40007F0C3FC204610BD00BF40
:1028500000F0010800F4010830B5002340F2EF3425
:10286000064D9AB2914201D8042030BDA34203D054
:102870005A5DC2540133F4E70320F6E710F0010873
:1028800038B504460D4672B60A4601460020FFF7E9
:1028900071FF62B6042806D172B601202A4621468D
:1028A000FFF768FF62B638BD38B5124B1C68D3F825
:1028B0000054B4F1113F09D1B5F1113F17D00022F6
:1028C00001201146BDE83840FFF754BFB5F1113F74
:1028D00003D1002211461046F4E7FFF7A3FF0428B6
:1028E00004D12C4001340CBF0220012038BD04204B
:1028F000FCE700BF00F00108034B18739A68D20789
:10290000FCD5187B704700BF0038004038B5441E26
:102910008D18A94200D138BD14F8010FFFF7ECFF64
:1029200001F8010BF5E7084611461A46FFF7EEBF1E
:1029300038B50446054D0144A14200D138BD287880
:10294000FFF7DAFF04F8010BF6E700BF34000020C0
:1029500008461146FFF7ECBF10B5044601448C420F
:1029600000D110BD14F8010BFFF7C6FFF7E70846CA
:102970001146FFF7F1BF000070B58CB0294C28223A
:10298000002102A808F05CFEFFF71CFC4FF4804019
:10299000FFF742F82449204603230622FFF7ADFC47
:1029A000062501264FF48053204623610A22032383
:1029B0001E49CDE90056FFF74BFC204603230A22AF
:1029C0001B49CDE90056FFF743FC032320461A4676
:1029D0001849CDE90056FFF73BFC08220023089276
:1029E0004FF48272CDE90533CDE9093302930392A6
:1029F00004934FF400720723A4F55444204602A91F
:102A00000B93079208F039F8236843F040032360E2
:102A1000A3689B07FCD5FF22237B074B1A700CB0E1
:102A200070BD00BF000C0140100010042000200405
:102A30008000800440004004340000201C4B10B48F
:102A40001A68940611D5D96888060ED5194C1A480B
:102A50005968238800880133C3F30A0380B298427F
:102A60001FBF1648C9B2C1542380110744BF104B81
:102A70005B68120616D50E48C3681B0612D5104BAC
:102A8000104A1988138889B29BB299420CD01388D6
:102A90000133C3F30903138013880B4A9BB2D35C41
:102AA000DBB2436010BC704710BCFEF7D1BF00BF63
:102AB00000440040602800205E2800205E200020A6
:102AC000642C0020622C0020622800200F49104A4C
:102AD0000B8812880133C3F3090392B29A4212D0D1
:102AE0000C4AD0544FF040220B8002F20C4353E8C2
:102AF000003F43F0800302F20C4040E8003100291F
:102B0000F3D1012070470020704700BF642C0020E3
:102B1000622C00206228002038B504464518AC42DB
:102B200000D138BD14F8010BFFF7D0FFF7E70846D6
:102B30001146FFF7F1BF0000054B064A1B881288BB
:102B40009B1A98B21B0444BF00F5006080B2704726
:102B5000602800205E280020FFF7EEBF0848094AE1
:102B60000188138889B29BB29942F9D01388013346
:102B7000C3F30A0313801388034A9BB2D05C7047E7
:102B8000602800205E2800205E200020FFF7E6BFBE
:102B9000002300B589B0CDE90633CB1A18BF012355
:102BA0001B03CDE902320C2301900491034801A9D3
:102BB000059308F0C1F809B05DF804FB004400403B
:102BC00010B5064CE36823F40053E360FFF7E0FF21
:102BD000E36843F40053E36010BD00BF00440040CD
:102BE000002208461146FFF7EBBF000073B53D4CCD
:102BF0000825E368012623F40053E360FFF7E2FAB7
:102C00004FF40030FEF708FF00F1804003230A2252
:102C100040F20441CDE90056A0F57840FFF718FBDB
:102C2000032340F608011A46CDE900562E48FFF767
:102C30000FFB00224FF461401146FFF7A9FFB022BD
:102C4000236923F490432361636923F02A036361BA
:102C5000264B83F8262340225A602046FEF7F8FED2
:102C60004FF0402101F20C4353E8003F23F04003B2
:102C700001F20C4040E80032002AF3D16FF040032B
:102C80004FF0402123601A4B1A801A4B1A8001F230
:102C90000C4353E8003F23F0200301F20C4040E8CE
:102CA0000032002AF3D16FF020010E4B1960124957
:102CB0000A8012490A801A6922F400621A615A696C
:102CC00022F008025A611A6922F480421A615A6994
:102CD00022F022025A61DA6842F40052DA6002B04D
:102CE00070BD00BF004400400008014000E100E06A
:102CF000622C0020642C00205E2800206028002028
:102D000008B5FFF773FFBDE80840FFF7B1B8FFF75C
:102D1000F7BF0000024B1A68024B1A60704700BFF1
:102D2000682C00205C030020054A064B19681368D4
:102D300099421DBF0133012013600020704700BF7E
:102D40005C030020682C0020034A044B11681B78A8
:102D50000B441360704700BF682C00204000002027
:102D60000148FFF730BB00BF00040040014B586A28
:102D700080B270470004004008B5FFF7F1FFBDE8DE
:102D80000840FFF7C7BF2DE9F041164605468846C3
:102D9000002707F00BFAB6B2BBB29E4201D804245A
:102DA0000DE058F827102B688B4202D1043501370B
:102DB000F2E72846FFF7D7FC04460028F6D107F0D3
:102DC00007FA2046BDE8F081037807B56BB1084BE0
:102DD0001B68B3F5FA6F08D300230222037069461B
:102DE0004068CDE90033FFF7CEFF03B05DF804FB88
:102DF000682C002000000000012337B52C4A038016
:102E000004462C4B2C48D3E90051914208BF85421F
:102E10004FF0000202D1227003B030BD22A1D1E9EF
:102E20000001C3E90001254825496260D0E900326C
:102E30005D1C03D0B3F1AA3F00D023B9551C0CD0C0
:102E4000B2F1AA3F09D008308842EFD172B67E2194
:102E50001A48FFF781FC62B6184860600368426850
:102E6000591C009304D1551C1BD14FF0AA3311E01B
:102E7000B3F1AA3F06D1511C0BD0B2F1AA3F10D139
:102E8000002307E06BB9B2F1AA3F0AD14FF4807278
:102E900022801A46CDE9003269460222FFF773FF0D
:102EA000BAE700232370F4E712345678FEDCBA90B8
:102EB000FEDCBA90200000201234567800F8010899
:102EC00000FC01080A490B8803B9FEE772B64FF00F
:102ED000804309885A6A114464325963DA636FF097
:102EE00002021A616FF008021A6162B6704700BFF1
:102EF0006400002000B5032289B04FF0FF314FF08D
:102F00008040FFF757FA20220021684608F098FB1E
:102F100064236A4601214FF08040039307F012FEBC
:102F2000C8236A464FF480714FF08040039307F046
:102F300009FEA022044B83F81C234FF080521A6034
:102F400009B05DF804FB00BF00E100E04FF08043F2
:102F5000DA6842F00202DA60DA6842F00802DA6007
:102F60007047000010B50022044601EB8101074BB9
:102F700001EB810189001980054B1A70FFF7BAFF38
:102F80002046BDE81040FFF7E1BF00BF640000200D
:102F9000590300204FF080431A6991070AD56FF05A
:102FA00002021A615A6B6432DA63084A596B12885A
:102FB0000A445A634FF080431A69120705D56FF02F
:102FC00008021A610122024B1A7070476400002047
:102FD0005903002038B51C4C94220021201D08F014
:102FE0002FFB06232380162363800F23174D052212
:102FF0002946A380A01D2C23FEF7D6FA4FF4803378
:10300000134A2946C4E90D234FF470230522E363D4
:1030100004F140002C23FEF7C7FA0223A4F86E3017
:103020000C4B0D492367002304F18000C4E91E33D3
:1030300084F8743008F05EFB7F2384F89530052314
:1030400084F8963038BD00BF80020020C8BD00085B
:10305000020001000700010095B9000870B5094E93
:1030600005460C46415C304608F001FB034628B19A
:10307000831B0133DBB2282B28BF0023F35C2B55C5
:1030800070BD00BFDCBD000870B50C461146064699
:1030900008F030FB44B10025052130460135FFF72B
:1030A000DDFFEBB29C42F7D870BD000073B505465A
:1030B00005F11106204C0146204A68463601FFF70B
:1030C000E3FFB01C6946204408F014FB012304EB25
:1030D000051226447372A2F81A31142240F201112B
:1030E00002FB05404FF480750422A0F84A30C36407
:1030F00080F85020A0F85230002280F85530A0F817
:103100005650A0F8581040F2032084F83420E3848D
:10311000A562A08584F82E3084F8302084F833200E
:10312000C4F83A20C4F83E20C4F84220A4F846105F
:10313000A4F8481002B070BDC400002044B90008D3
:10314000F7B5054605F111060146AE4AAE4C684694
:103150003701FFF799FFB81C694627442044FEF762
:1031600037F97B7AA94A052B88BF022304EB0610A6
:1031700088BF7B721188437A41FA03F3DF070FD4CB
:103180000223437261B14807C1F3800308D441FAB6
:1031900003F7FF07D8B240F1D08104EB0613587251
:1031A00004EB051191F81A012B01052802D9012021
:1031B00081F81A01E718508897F81A1140FA01F1BE
:1031C000C90711D4012187F81A1168B18707C0F324
:1031D000400109D440FA01FC1CF0010FCFB200F00D
:1031E000B181E11881F81A71E11891F81B010328E7
:1031F00002D9002081F81B0104EB0616717A01291F
:1032000003D9042901D000219180E618908896F80E
:103210001B1140FA01F111F001010ED186F81B11CA
:1032200058B110F0010108D140FA01F7FF07CEB202
:1032300040F18D81234483F81B61142303FB054176
:1032400091F84A00042802D9012081F84A0003FBC2
:10325000054393F84B10042902D9002183F84B1041
:10326000142303FB0543918E93F84B0041FA00F0C1
:10327000C00712D4012083F84B0071B18807C1F355
:1032800040030AD441FA03F6F707D8B240F164814B
:10329000142303FB054383F84B00142303FB05436E
:1032A00093F84C10032902D9012183F84C10142003
:1032B00000FB0540D18E90F84C3041FA03F313F037
:1032C000010310D180F84C3069B111F001030AD12B
:1032D00041FA03F6F607D8B240F14381142303FB09
:1032E000054383F84C00142303FB054393F84E1069
:1032F000012902D9002183F84E10142000FB05405B
:10330000118F90F84E3041FA03F313F0010310D1FE
:1033100080F84E3069B111F001030AD141FA03F689
:10332000F707D8B240F12281142303FB054383F849
:103330004E00142303FB054393F84F10022902D9D2
:10334000002183F84F10142000FB0540518F90F8A6
:103350004F3041FA03F313F0010310D180F84F30DE
:1033600069B111F001030AD141FA03F6F607D8B2A8
:1033700040F10181142303FB054383F84F0014231C
:1033800003FB054191F84D00022802D9002081F885
:103390004D0003FB054393F85010052902D9042181
:1033A00083F85010142303FB054191F852000128C3
:1033B00002D9012081F8520003FB054393F8551010
:1033C000012902D9012183F85510142303FB054379
:1033D00093F85310022902D9002183F853101420C6
:1033E00000FB0540918F90F8533041FA03F313F03E
:1033F000010318D180F85330A9B111F0010312D1A3
:1034000006E000BF44B90008C4000020800200208C
:1034100041FA03F6F707D8B240F1B280142303FB58
:10342000054383F85300142303FB054191F856002C
:103430000C2802D9002081F8560003FB054393F8BD
:103440004C10012906D193F84F10022904BF002126
:1034500083F84F101423012140F2011003FB0543B0
:1034600083F85710A3F8580094F82630042B01D99C
:1034700084F8261094F82730042B02D9002384F80E
:103480002730B2F86E0094F8273040FA03F313F0B7
:10349000010F814B0ED1012184F8271050B186070E
:1034A000C0F3400106D440FA01F7FF07CEB26CD555
:1034B00083F8276094F82810022902D9002184F8A3
:1034C000281094F82910022902D9012184F8291022
:1034D000B2F8701094F8292041FA02F212F00102B9
:1034E0000CD184F8292049B111F0010206D141FA2A
:1034F00002F6F607D0B24CD583F8290094F82A20BA
:103500000C2A02D9002284F82A2093F832200C2AAF
:1035100002D9002283F8322093F82B20042A02D902
:10352000002283F82B20002210465C4911F9014F3C
:1035300014F1780F31DA087031E00133102B7FF489
:1035400026AE2DE6013110297FF444AE4CE6013160
:1035500010297FF469AE70E60133102B7FF492AE30
:103560009BE60133102B7FF4B3AEBCE60133102B86
:103570007FF4D4AEDDE60133102B7FF4F5AEFEE62A
:103580000133102B7FF444AF4DE7013110298AD16C
:1035900090E70132102AAAD1B0E7782CCBDC0132B7
:1035A000D2B20C2AC2D1002201203D4911F8014FAC
:1035B0000132022CD2B288BF0870042AF6D193F8E7
:1035C0003420012A02D9002283F83420354AB2F887
:1035D000721093F8342041FA02F212F001020CD179
:1035E00083F8342049B111F0010206D141FA02F406
:1035F000E407D0B211D583F8340093F82C20052AC3
:1036000002D9032283F82C2093F82D20032A08D80E
:103610000AD1002283F8342006E00132102AE5D1D5
:10362000EBE7022283F82D2093F82E20022A02D9FC
:10363000012283F82E2093F83020022A02D900229A
:1036400083F8302093F833200C2A02D9002283F823
:1036500033201421FF2201FB05314FF6FF7081F862
:10366000512081F8542083F82F2083F831204FF027
:10367000FF3203EB0515C5F81C21A5F820011A62DD
:103680009A84A1F85A20A1F85C2083F83500DA86E4
:103690001A8703B0F0BD00BFC4000020FD00002069
:1036A000090100208002002030B5052804D8DFE899
:1036B00000F01E0423191E23FEE720251F240022EC
:1036C0000F21104B98700338012894BF002001206F
:1036D0001A7119771A74A3F84850A3F84A409873DE
:1036E000987630BD09256F2400220721E9E71425CB
:1036F000322400220A21E4E735251324012219216E
:10370000DFE700BF680000202DE9F74300F1110654
:103710007A4F360106F10209B94405464846FDF7DD
:1037200073FE04218046764C01900DEB0100FEF7FC
:10373000D1F9C4F80880C4F814804FF001083E4461
:10374000737A2E0107EB0515E08395F81A01637073
:1037500084F85180A4F85280A4F85480FFF7A4FFA5
:1037600097F82620674B13F922302373237663786A
:10377000052B09D8DFE803F0030656585A5C0023EE
:10378000637301E084F80D805F4B617B1B88617679
:1037900003F00102980748BF42F00202A2855D07CC
:1037A00048BFA28D84F8281044BF42F00402A285CD
:1037B000180742BFA28D42F01002A285DA0642BF6E
:1037C000A28D42F02002A2859B0642BFA38D43F04A
:1037D0000803A385002384F82A3021B94846FDF761
:1037E00033FE84F82A003E4496F81B2184F82920F1
:1037F0006AB1E18B02EB021303EB03230B444FF09E
:103800001131E383A36801FB0233A3606361E38B9F
:1038100094F828506362052D0CD8DFE805F00C4DB4
:103820004F1543450223ABE70423A9E70523A7E788
:103830000323A5E7FEE7A378032B03D8DFE803F013
:1038400003424003FEE71825304E84F8205016E965
:103850000F0086E80F0040F2E2432846A4F84C30FF
:10386000FDF730F94FF07F51FDF780F9FDF76AFB66
:103870004FF47A73B4F848206D08B3FBF2F3052DCA
:1038800038BF0525A4F8403097F82C30C0B2A4F812
:103890004E0084F85050052B24D8DFE803F0152C97
:1038A000202326290225CFE7A378022B08D0052B59
:1038B00006D0012B06D0FEE71925C5E70625C3E78C
:1038C0000C25C1E71225BFE74FF4165363640023AC
:1038D000A4F8563084F8583003B0BDE8F0834FF4B4
:1038E0001643F3E74FF46143F0E74FF4E133EDE7BC
:1038F0004FF46133EAE74FF49643E7E7C400002052
:1039000068000020C8BD0008800200209800002048
:103910004FF4DE72FF21014807F092BEC400002080
:103920004FF4DE710148FEF7ABBF00BFC4000020BA
:103930004FF4DE710148FEF78FBF00BFC4000020C6
:1039400008B5FFF7F5FF034B1878BDE80840FFF70F
:10395000F7BB00BF6800002038B5FFF7D9FFFEF7BE
:10396000A3FF04280CD0FFF7D3FFFEF79DFF042828
:1039700003D1FFF7DDFF042806D0FFF7C9FF03E0FE
:10398000FFF7D6FF0428EED110222649264807F07B
:103990007BFE254C38B110222046244907F074FEE6
:1039A00008B1FFF7B5FFA38AB3F5215F28D008D38C
:1039B0000025E8B20135FFF779FB0A2DF9D1002384
:1039C000E3774FF421530125A38242F64303226992
:1039D00014499A4214484FF010021CBF012523617C
:1039E00007F052FE70B110220E490F48FDF701FE9C
:1039F00008220F490F48FDF7FCFDFFF791FF03E098
:103A00000025E2E7002DF8D10023E3770A4C23706C
:103A1000FFF7E0FA2078FFF793FB2078BDE8384005
:103A2000FFF772BE4BB90008C40000205CB9000863
:103A30006DB900087602002068000020C01A162820
:103A4000A8BF162030B56FF00805A842B8BF2846B9
:103A50009DF80C40A042C8BF20B2C0B20870184404
:103A6000107030BD07B5084611461A46142300935E
:103A70000A23FFF7E3FF03B05DF804FB0129F7B564
:103A8000054600D9FEE70B4E0F0106EB0114A378A3
:103A90006278F15D046107F073FBE37928460193D6
:103AA000A37922790093E178637907F090FB03B062
:103AB000F0BD00BFA8D3000838B5836804466BB1D9
:103AC000024652F8183BDD6900F11903A847204669
:103AD000217E0222BDE8384007F0DBBB38BD000084
:103AE00070B58160897A044686B001B1012107F082
:103AF00020FB204607F0AFFC204607F087FC217B27
:103B0000FF2903D0FA22204607F08CFCA3685B7AD9
:103B1000013B042B04D8DFE803F0043E3E414100A2
:103B2000FEE7E922E121204607F0BAFC0121204608
:103B300007F049FC9621204607F086FC38212046F4
:103B400007F098FC204607F09DFCA368204693F9F7
:103B50000810FFF7B1FFA3689D7A15B320461978C6
:103B6000FFF78CFF00222046114607F0FCFA0023E5
:103B700040F20322204600934FF6FF7107F056FBF8
:103B800020464FF6FF7107F078FB204606B0BDE8EF
:103B9000704007F028BCDB22D721C4E76F226B21DD
:103BA000C1E70F4B2046DE8B0E4B0B2263614CF2BC
:103BB00050330D490093192307F082FC0123CDE90E
:103BC00003335B23CDE90153102320461946042219
:103BD000009507F0B3FC3146204607F0D3FCC1E75F
:103BE0006800002088D30008A086010010B50446B4
:103BF00007F0F9FB2046BDE810404FF6FF7107F0D3
:103C00003CBB000038B5044603688168DD6900F1FB
:103C1000180200F1190391F90810A847A3689A7ACD
:103C200042B11A78012A00D9FEE7044B03EB0213D4
:103C3000236138BD024B6361FBE700BFA8D30008D6
:103C400088D30008836810B5044683B103691BB9A3
:103C500043690BB9FFF7D6FFA3689B7A1BB12369B1
:103C6000B3F90C0010BD6369B3F91C00FAE71846FC
:103C7000F8E7836810B5044643B103691BB943698B
:103C80000BB9FFF7BFFF94F9190010BD1846FCE708
:103C900090F8D8305BB190F8D930074A180102EBA0
:103CA00003139B681978135853F821007047837DDC
:103CB0000E3350F82300704768BD000813B5194B48
:103CC0000288DB8B04469A4227D1837813F0D00F09
:103CD00025D18379812B22D84FF6FF730D2201461F
:103CE0000DF10600ADF80630FDF7DCFEB4F80D204E
:103CF000BDF806309A420ED14C2204F10D01FDF7B9
:103D0000D1FEB4F85900BDF80630C01A18BF012022
:103D1000800002B010BD0320FBE70120F9E702207C
:103D2000F7E700BF680000200A7ACB7902F00702AB
:103D300043EA022303804B7A0A7A03F03F035B01D4
:103D400043EAD20343808B7A4A7A9B0043EA921378
:103D5000CA7A02F0010243EA822383800B7BCA7A8B
:103D600003F00F03DB0143EA5203C3800B7BC3F371
:103D70000112012A11D813F0300F14BF01230023C0
:103D80009B0203830B7B7F2B0AD813F0C00F14BF59
:103D9000012300239B024383704740F2FF73F0E747
:103DA00040F2FF73F7E70A7ACB7902F0070243EAA1
:103DB000022303804B7A0A7A03F03F035B0143EA54
:103DC000D20343808B7A4A7A9B0043EA9213CA7AE1
:103DD00002F0010243EA822383800B7BCA7A03F05C
:103DE0000F03DB0143EA5203C3800A7CCB7B02F062
:103DF000070243EA022303814B7C0A7C03F03F0362
:103E00005B0143EAD20343818B7C4A7C9B0043EAFB
:103E10009213CA7C02F0010243EA822383810B7D64
:103E2000CA7C03F00F03DB0143EA5203C3814B7DDD
:103E3000DB0003828B7DDB004382CB7DDB00838252
:103E40000B7EDB00C3820B7BC3F30112012A2BD84C
:103E500013F0300F14BF012300239B0203830B7B5D
:103E60007F2B24D813F0C00F14BF012300239B0223
:103E700043830B7DC3F30112012A1BD813F0300FCB
:103E800014BF012300239B0283830B7D7F2B14D857
:103E900013F0C00F14BF012300239B02C3834FF410
:103EA000806303844384704740F2FF73D6E740F297
:103EB000FF73DDE740F2FF73E6E740F2FF73EDE7E3
:103EC00037B5214B0446DB8B0D4603804A78837857
:103ED00062F3C30383704A79C37862F30003C3704B
:103EE0008A79437962F38613437191F90200FDF7F1
:103EF00056F9E378214660F34703E370EA782379C3
:103F00000DF1060062F3060323712A79DBB202F099
:103F1000010203F07F0343EAC21323712A79637914
:103F2000C2F3450223F03F03134363714FF6FF735F
:103F30005922ADF80630FDF7B5FDBDF80630A4F8FE
:103F4000593003B030BD00BF680000202DE9F341B7
:103F50000446154688469DF820605B22522E4FF09D
:103F600000011F4628BF522607F06AFB2D4BDB8B52
:103F700023802A78A37862F30203A3706978DBB206
:103F8000C90001F0080103F0070341EA08111943D1
:103F9000A1706A79E37862F30003E370AA79637928
:103FA00062F38613637195F90200FDF7F8F8E37880
:103FB00060F34703E370EA78237962F30603237121
:103FC0002A79DBB202F0010203F07F0343EAC21355
:103FD00023712A796379C2F3450223F03F03134327
:103FE00022466371A37966F3470302F8063F3B4616
:103FF0003E44B34210D14FF6FF73592221460DF1D2
:104000000600ADF80630FDF74DFDBDF80630A4F80A
:10401000593002B0BDE8F08113F8011B02F8011F0E
:10402000E7E700BF6800002007B5009313460A4683
:104030000121FFF78BFF03B05DF804FB30B5374B70
:10404000027893F8261000F1160461F3030202705F
:1040500093F8271061F30712027093F82810427842
:1040600061F30302427093F8291061F30712427062
:1040700093F82A10827861F30302827093F8321069
:10408000827961F30302827193F82B10827861F3D5
:104090000712827093F83410C27961F30302C2717F
:1040A00093F82C10C27861F30302C27093F82D10BC
:1040B00061F30712C27093F82E10027961F30302C4
:1040C0000271427993F8301061F30302427193F860
:1040D0003310827961F30712827103F1390100F123
:1040E0000A0211F9015F02F8015FA242F9D193F8C7
:1040F0004610C27D61F30102C27593F8471061F367
:104100008302C27593F8481061F30512C27593F8E3
:10411000493063F38712C27530BD00BFC400002070
:104120000278314BC2F3030230B583F826200278BF
:1041300003F13901C2F3031283F82720427800F11A
:104140001604C2F3030283F828204278C2F3031254
:1041500083F829208278C2F3030283F82A20827927
:10416000C2F3030283F832208278C2F3031283F889
:104170002B20C279C2F3030283F83420C278C2F341
:10418000030283F82C20C278C2F3031283F82D2097
:104190000279C2F3030283F82E204279C2F30302AC
:1041A00083F830208279C2F3031283F8332000F1C0
:1041B0000A0212F9015FA24201F8015FF9D1C27D42
:1041C000C2F3010283F84620C27DC2F3810283F864
:1041D0004720C27DC2F3011283F84820C27DC2F39A
:1041E000811283F8492030BDC400002070B55226EA
:1041F00098B0324604460D4603A8002107F020FA85
:10420000212342F643008DF80C30FDF7E1F9ADF8BB
:104210000E004FF42150FDF7DBF914221B49ADF8D5
:1042200010000DF11200FDF7E4F91948FFF721FD28
:10423000184B8DF8260093F851300AA88DF82730D6
:10424000FFF7FCFE0A23144AADF84630134B022157
:10425000CDE912236FF08023149347F6FF73ADF876
:1042600054300F4B2046B3F86E208DF85620B3F82B
:104270007020B3F872308DF857208DF858302A46E8
:10428000009603ABFFF762FE18B070BD73B900086B
:10429000101E0020680000206400FA00F401E8030A
:1042A0008002002038B504460F4D00F11B010622A4
:1042B00005F58970FDF7F8F994F8213004F125002F
:1042C000C3F3030385F8193194F82130C3F30313C2
:1042D00085F81A3194F82230C3F3030385F81B31B3
:1042E000BDE83840FFF71CBFC400002000230A4A85
:1042F0008380126883718260084A83810384136813
:1043000003615368064A4361136883615368C3615C
:104310004EF6602303607047682C002084B90008C3
:104320008DB9000810B5114C0220FFF7BDF92046E9
:10433000FFF75CFC0A212046FFF7BEFBA36803B928
:10434000FEE70021204606F0DDFE4FF47A70FEF70E
:104350008FF92046012106F0ECFEA368204619786B
:10436000FFF78CFB2046FFF741FC10BD101E00201C
:1043700008B590F8203002468BB9FEF71DF910B948
:1043800082F8210008BD92F8213001335BB2312B55
:1043900082F82130F6DD012382F82030F2E7FEF7C3
:1043A0000BF918B1322382F82130EBE792F8213073
:1043B000013B5BB2002B82F82130D8BF82F820008D
:1043C000E0E700000A4B90F820201B6872B1826879
:1043D0009B1AB3F57A6F01D901234371037923B98D
:1043E000437913B101230371037370478360F5E7C9
:1043F000682C00200346007B821E012A4FF0000239
:1044000002D893F8201009B91A7370471046704704
:104410000A4A38B51388044601339BB2502B0D4627
:1044200001D8138038BD002305491380FDF7BCFE79
:1044300029462046FDF7B8FEF4E700BF60030020E0
:1044400096B900082DE9F74F1646054688466D498E
:10445000FDF7AAFE31462846FDF7A6FE00226A4B6C
:10446000B8F1010F694C1A8011D14FF400434FF499
:104470008047636146F2A8102761FEF7F9F867618B
:10448000FEF7F6F831462846FFF7C2FFF2E7A8F13B
:1044900002034FF480420C2B00F2A780DFE803F008
:1044A0003141531C07A5A5A56363636363004FF403
:1044B00080484FF4004746F2A810C4F810806761A6
:1044C000FEF7D6F8C4F814802761FEF7D1F831461C
:1044D0002846FFF79DFFEEE74FF480484FF4004772
:1044E00046F2A810C4F810802761FEF7C1F8C4F89E
:1044F00014806761FEF7BCF831462846FFF788FF55
:10450000EEE74FF40047626146F2A8102761FEF71C
:10451000AFF86761FEF7ACF831462846FFF778FF41
:10452000F2E74FF400434FF48047236146F2A810AE
:104530002761FEF79DF86761FEF79AF83146284635
:10454000FFF766FFF2E74FF40047226146F2A8103A
:104550002761FEF78DF86761FEF78AF83146284635
:10456000FFF756FFF2E700274FF4004B4FF4804966
:10457000A8F1090A5FFA8AFA0423574538BFC4F83C
:1045800010B0019346F2A810C4F81090FEF770F82E
:10459000C4F81490FEF76CF831462846FFF738FF50
:1045A000019B013B13F0FF03EBD10423C4F814B0CB
:1045B000019346F2A810C4F81090FEF759F8C4F819
:1045C0001490FEF755F831462846FFF721FF019B6E
:1045D000013B13F0FF03EBD10137A8F10803FFB251
:1045E000DBB2BB4238BF0027C6E74FF4004322616D
:1045F00023614CF25030FEF73BF831462846FFF776
:1046000007FFF6E796B9000860030020001001409C
:1046100008B5437802789A4213D0042B8ABF04234A
:1046200003700370027888BF4370064B064813F985
:104630002210064B19731976836813B11972FFF7AC
:104640003BFA08BDC8BD0008101E0020680000200D
:1046500010B50AB9437010BD541E0B2CFBD80332A1
:10466000D2B231F8122040F27E618A4207D95AB2A2
:1046700022EAE2729A42C8BF5AB24270EBE7B2F540
:10468000C17F02D29A1E52B2F2E740F2D4418A426E
:1046900004D95AB2032A06DCDA1EF4E7B2F54B7FDE
:1046A00003D35A1EEFE70122E4E70022E2E700000D
:1046B00037B50C461D4668B907480DF106020DF1E5
:1046C000070106F03FFE2B4622469DF806100248E1
:1046D00006F0E9FC03B030BD101E002070B50D4699
:1046E00016461C460146A0B9FDF706FF0B483346A7
:1046F0002A4606F0B1FC4FF6FF71084806F0BDFDF2
:104700000648A10106F0D2FDBDE870407D20FDF70E
:10471000AFBF0248FFF76AFA70BD00BF101E00204D
:104720002DE9F0415B270546174C0E463A4600211D
:10473000204606F085FFAB6904F10E002360EB69AB
:1047400012496360124B1B789A1E53425341627A9E
:1047500063F3000262724322A27228220023E272F3
:10476000142223736373FCF744FF59212046FDF79D
:10477000B1F9084BA4F859003A4621463046BDE845
:10478000F0411B7FFFF7AABF9B1C002073B90008F4
:10479000530300206800002037B50C4638B91A488A
:1047A000836833B9812281F8A23081F8A02003B058
:1047B00030BD9D7ADDB101F1A2020DF1060106F0D6
:1047C000ABFD94F9A230002B04DABDF806201344A7
:1047D000ADF80630BDF90630002B0FDB4FF6FF7346
:1047E000ADF80630BDF8063084F8A030DFE70DF1F3
:1047F000060106F0D8FE84F8A250EBE77F33F1DA29
:104800004FF68173ECE700BF101E00200A4608B582
:1048100001460148FFF716FE2C000020164600B5A1
:1048200091B0044668461D4606F064FF1849684684
:1048300006F00EFF304606F03DFB0146684606F0E6
:1048400007FF1449684606F003FF134B684653F808
:10485000251006F0FDFE1149684606F0F9FE104DE0
:104860009DF84830684655F8231006F0F1FE0D49D2
:10487000684606F0EDFE9DF84C30684655F823106A
:1048800006F0E6FE6A4621460748FFF7DBFD00BF5B
:1048900098B900089FB9000800000020A4B90008DA
:1048A00010000020ABB900082C00002002460021B7
:1048B00008B50148FFF7C6FD2C0000200023FF22A9
:1048C000037043708370C27003717047C1780346F0
:1048D00029B9827801710132827001207047007815
:1048E00001281ED0022805D0C8B99A781871013263
:1048F0009A70F2E798785A784240D20704D400229E
:10490000013098701A71E8E7FF2902D10020187170
:1049100070471A790132D2B291421A71EFD3002056
:104920007047FF29F2D01A790132D2B291421A713E
:10493000F5D29A7801329A7000221A7170470000FD
:104940000E4803681A0617D5C3681B0614D50C4B0E
:104950000C4A1988138889B29BB299420AD01388ED
:104960000133DBB213801388074A9BB2D35CDBB2FE
:1049700043607047FDF76CB8704700BF00480040C7
:104980005C2000205A2000205A1F00200E490F4AA8
:104990000B8812880133DBB292B29A4212D00C4AD1
:1049A000D0544FF040220B8002F60C0353E8003F36
:1049B00043F0800302F60C0040E800310029F3D1F7
:1049C00001207047002070475C2000205A20002002
:1049D0005A1F002038B504464518AC4200D138BDF6
:1049E00014F8010BFFF7D2FFF7E708461146FFF76F
:1049F000F1BF0000002300B589B0CDE90633CB1A22
:104A000018BF01231B03CDE902320C23019004914E
:104A1000034801A9059306F08FF909B05DF804FB7E
:104A20000048004010B5064CE36823F40053E360EF
:104A3000FFF7E0FFE36843F40053E36010BD00BFFD
:104A40000048004008B549B14FF400524FF480616E
:104A50000348FFF7E7FF0222024B5A61012008BD1D
:104A6000A08601000008014008B539B100220448C1
:104A70001146FFF7D7FF0222024B5A61012008BD01
:104A80009A5B06000008014008B549B14FF4005296
:104A90004FF480610348FFF7C5FF0222024B1A6101
:104AA000012008BDA08601000008014013B52B4C71
:104AB0002B49E36823F40053E360FDF783FB4FF4D5
:104AC0008020FCF7A9FF082301222648CDE9003207
:104AD00003230A22FDF7BCFB002223481146FFF7FF
:104AE00089FFC022236923F490432361636923F083
:104AF0002A0363611D4B83F8272380225A602046D6
:104B0000FCF7A6FF4FF0402101F60C0353E8003FED
:104B100023F0400301F60C0040E80032002AF3D1F4
:104B20006FF040032360124B1A80124B1A802369E6
:104B300023F400632361636923F00803636123693D
:104B400023F480432361636923F022036361E368F4
:104B500043F40053E36002B010BD00BF00480040C2
:104B600004000404000C0140A086010000E100E004
:104B70005A2000205C20002030B51C4C85B00E224D
:104B800000210546684606F05BFDB4F8A0302046DB
:104B9000ADF80030FCF7B4FA8DF802002046FCF7BF
:104BA000A6FAB4F8A4308DF803001148ADF804302B
:104BB000FFF75FF894F8A6308DF806008DF80730FF
:104BC00094F8A93069468DF80830B4F8AA30284620
:104BD000ADF80A30074B9B788DF80C3001238DF827
:104BE0000D3004F048FD05B030BD00BF541D00205D
:104BF000101E0020680000200148FEF763B900BFC6
:104C0000511D0020F8B50E460746144D5B2329467A
:104C1000304614462A46FFF74BFDD7E904132868AF
:104C20006A689A4208BF884209D0002430460C497D
:104C3000FFF7B2FD002C0CBF01200320F8BD592165
:104C40002846FCF747FFB5F859308342EDD114B13F
:104C5000FFF7D2FFEAE70124E8E700BF491E002082
:104C6000541D002013B5012104460844FCF732FF0F
:104C7000A178ADF806000DF10600FCF707FFE1781A
:104C8000FCF704FF2179FCF701FF6179FCF7FEFED8
:104C9000A179FCF7FBFE04F108010322FCF702FFF7
:104CA000627804F10C01FCF7FDFE94F82311FCF787
:104CB000EDFEBDF80630A4F80C3102B010BD0000C6
:104CC000003818BF0120014B187070471C030020EA
:104CD0002DE9F041002A4AD1042B00F2A1809EB2B6
:104CE000002B42D04FF0800EFF254C4C0F8894F8DB
:104CF0001EC0C35D013223EA0C03C355A37F1FFA14
:104D000082FC5B08A3773BB90B8801330B8084F8E6
:104D10001EE00B88C554A37FB1F8008010F808701E
:104D200027EA030300F80830A37F5B08A3773BB9A9
:104D30000B8801330B8084F81EE00B88C554A37FD9
:104D4000B1F8008010F8087027EA030300F8083073
:104D5000A37F5B08A37733B90B8801330B8084F8FA
:104D60001EE00B88C5546645C0D8BDE8F081FF2A17
:104D7000FBD1032B00F249819EB2002BF5D0002518
:104D80008027264CB1F800C094F81EE010F80C30D3
:104D9000013523EA0E0300F80C30A37F5B08A377EC
:104DA00033B90B8801330B80A7770B88C254A37FDC
:104DB000B1F800801FFA85FC10F808E02EEA030322
:104DC00000F80830A37F5B08A37733B90B88013361
:104DD0000B80A7770B88C254A37F5B08A37733B9F6
:104DE0000B8801330B80A7770B88C254A37FB1F8DF
:104DF000008010F808E02EEA030300F80830A37FD3
:104E00005B08A3772BB90B8801330B80A7770B883E
:104E1000C2546645B6D8BDE8F08100BF70050020D9
:104E20000D889A4C425DA67F03F5C06322EA060214
:104E30004255A27F5208A2773AB90A88FF2501326B
:104E40000A808022A2770A8885540D88A67F425D59
:104E500022EA06024255A27F5208A2773AB90A888E
:104E6000FF2501320A808022A2770A888554A27F1A
:104E70005208A2773AB90A88FF2501320A808022B7
:104E8000A2770A888554A27F5208A2773AB90A8885
:104E9000FF2501320A808022A2770A8885540D8876
:104EA000A67F425D22EA06024255A27F5208A277FF
:104EB0003AB90A88FF2501320A808022A2770A883F
:104EC00085541E0605D40D88A67F425D22EA06029F
:104ED0004255A27F5208A2773AB90A88FF250132CB
:104EE0000A808022A2770A8885545D0605D40D8841
:104EF000A67F425D22EA06024255A27F5208A277AF
:104F00003AB90A88FF2501320A808022A2770A88EE
:104F100085549A0605D40D88A67F425D22EA0602D2
:104F20004255A27F5208A2773AB90A88FF2501327A
:104F30000A808022A2770A888554DF0605D40D886E
:104F4000A67F425D22EA06024255A27F5208A2775E
:104F50003AB90A88FF2501320A808022A2770A889E
:104F600085541E0705D40D88A67F425D22EA0602FD
:104F70004255A27F5208A2773AB90A88FF2501322A
:104F80000A808022A2770A8885545D0705D40D889F
:104F9000A67F425D22EA06024255A27F5208A2770E
:104FA0003AB90A88FF2501320A808022A2770A884E
:104FB00085549A0705D40D88A67F425D22EA060231
:104FC0004255A27F5208A2773AB90A88FF250132DA
:104FD0000A808022A2770A888554DB0705D40A88D4
:104FE000A57F835C23EA05038354A37F5B08A37733
:104FF000002B7FF4BAAE8025FF220B8801330B8093
:10500000A5770B88C254BDE8F0810E881F4C855DE2
:10501000A77F03F5E06325EA07058555A57F6D08A1
:10502000A57735B980260D8801350D80A6770D88C6
:1050300042550D88A67F425D22EA06024255A27FB4
:105040005208A2773AB90A88FF2501320A808022E5
:10505000A2770A888554A27F5208A2773AB90A88B3
:10506000FF2501320A808022A2770A888554A27F18
:105070005208A277002A7FF418AF0A88FF25013270
:105080000A808022A2770A8885540EE770050020E6
:105090002DE9F04700278026FF25A64C0F80984673
:1050A000A6770570002B00F0438103F1FF391FFA4A
:1050B00089F9BA463B469144561E0BE0554540F0EF
:1050C000CE800137BFB20A88424580F0C1804E458C
:1050D00000F01D8116F8015F002BEFD16B1EDBB2D3
:1050E000FD2B00F2B8803F2B40F2F38005F1410325
:1050F000DBB23F2B00F2BA80A37F01355B08EDB233
:10510000A377002B00F0F8805B08A37753B94FF02A
:10511000800CFF220B8801330B8084F81EC00B88A3
:10512000C254A37FAA0608D4B1F800C010F80C201E
:1051300022EA030300F80C30A37F5B08A37753B97E
:105140004FF0800CFF220B8801330B8084F81EC0C7
:105150000B88C254A37FEA0608D4B1F800C010F847
:105160000C2022EA030300F80C30A37F5B08A3772E
:1051700053B94FF0800CFF220B8801330B8084F869
:105180001EC00B88C254A37F2A0708D4B1F800C000
:1051900010F80C2022EA030300F80C30A37F5B0810
:1051A000A37753B94FF0800CFF220B8801330B809B
:1051B00084F81EC00B88C254A37F6A0708D4B1F8D4
:1051C00000C010F80C2022EA030300F80C30A37F83
:1051D0005B08A37753B94FF0800CFF220B88013393
:1051E0000B8084F81EC00B88C254A37FAA0708D482
:1051F000B1F800C010F80C2022EA030300F80C30CC
:10520000A37F5B08A37753B94FF0800CFF220B8874
:1052100001330B8084F81EC00B88C254A37FEA07B9
:1052200005D40D88425D22EA03034355A37F5B0842
:10523000A377CBB94FF0800CFF250A8801320A8092
:1052400084F81EC00A8885540A884245FFF43FAF9F
:105250000020BDE8F0870127AA463B4633E75246C7
:10526000FBB2FFF735FD39E700232CE70A8894F8F5
:105270001EC0835C3F3523EA0C038354A37FEDB249
:105280005B08A37753B94FF0800CFF220B880133E2
:105290000B8084F81EC00B88C254A37F5B08A377E1
:1052A00053B94FF0800CFF220B8801330B8084F838
:1052B0001EC00B88C254A37F6A063FF525AFB1F824
:1052C00000C010F80C2022EA030300F80C30A37F82
:1052D0001AE7A37F7F355B08EDB2A377002BEED1F1
:1052E0004FF0800CFF220B8801330B8084F81EC026
:1052F0000B88C254A37FE2E74FF0800CFF220B889B
:1053000001330B8084F81EC00B88C254DFE75BB901
:10531000A37F802B1EBF013292B20A80904594BFBA
:1053200000200120BDE8F0875246FBB2FFF7D0FC19
:105330000A88EDE77005002047F26F7300222DE91F
:10534000F04F827003800B780D46A3F1FE03B3FA91
:1053500083F35B0983708A78044612F001011CBF55
:1053600043F080038370D5F8202185B022F07F427E
:1053700022F0FF0212B143F008038370AA68C2F35F
:105380001702FF2A19D9B2F5803F13D34FF0020854
:1053900063F07F03A37041EA0801E17009260B2244
:1053A0000A21082307204FF0060C4FF0050E4FF09E
:1053B000040912E043F00203A3701E0600F1EC8022
:1053C00008260A2209214FF00008072306204FF083
:1053D000050C4FF0040E4FF0030995F801A0374675
:1053E00004F809A095F804A09B4604F80EA095F8CF
:1053F00005E0019104F80CE095F806C0A14404F81A
:1054000000C0A078000709D595F821018B46E0542B
:105410000B4695F822111646E1551746AA68E25444
:10542000A378990708D5AB680BF10202C3F30F23E9
:10543000E35597B2B3463E46B8F1000F05D0AB7ABC
:10544000B346E355771CBFB23E46A378DA0606D5CD
:1054500095F82331B346E355771CBFB23E46504B17
:1054600001361B781FFA86F8A04405F10C0A43B1F7
:10547000524640466B780DF10E01FFF709FE0028F9
:105480006ED16A78514693B24046019306F03AF9DC
:105490002178444BC943C9B2627894F80780595CBB
:1054A00094F802A051404246595C94F803908AEA6D
:1054B000010A13F80A1094F804E089EA010913F8C4
:1054C000091094F805C08EEA010E13F80E10A079A9
:1054D0008CEA010C13F80C10BBF1070F80EA0100F5
:1054E000195C82EA01029A5C25D0217ABBF1080F8F
:1054F00082EA01029A5C1ED0617ABBF1090F82EA4E
:1055000001029A5C17D0A17ABBF10A0F82EA01026C
:105510009A5C10D0E17ABBF10B0F82EA01029A5C2F
:1055200009D0217BBBF10C0F82EA01029A5C1EBFFD
:10553000617B4A409A5CE255019AB5F80C311644F9
:10554000B6B2A355B5F80C21731C9BB2120AE254F3
:10555000AB78B01CDB0780B20CD405B0BDE8F08F8F
:10556000A37843F04003A370BDF80E30019389F88F
:1055700000308DE7D5F81821D5F81071D5F8141141
:105580002318275059609A6095F81C210F36B0B245
:105590001A7305B0BDE8F08F4FF00008FDE600BFBC
:1055A0001C03002008BE00082DE9F04F0746944D6B
:1055B0000C462846394683B0164606F0A3F8002369
:1055C0008021904A2380138482F82210002E00F05C
:1055D000CD804FF0400B4FF0FF089E4695F800C07D
:1055E00082F822B04FEADC1C92F8229015F803A052
:1055F0004FEA4C0C1AEA090F4FEA590018BF4CF059
:10560000010C82F82200002800F0B380BCF1020FE8
:1056100000F04484BCF1030F00F0DF83BCF1010F04
:1056200040F0BA809E4240F2A18015F8039019EA3A
:10563000000F14BF4FF0010C4FF0000C5FEA500A4E
:1056400040F0B68301339BB29E42138482F822104D
:1056500040F28C80E8564FEA4C0C002801DA4CF0FE
:10566000010C402082F822B000909E427ED9009822
:1056700015F803904FEA4C0C19EA000F00985FFAF6
:105680008CFC18BF4CF0010C5FEA500A40F02584F6
:1056900001339BB29E42138482F8221066D94FEAEE
:1056A0004C0015F903C015F80390BCF1000FC0B20F
:1056B00001DA40F001004FEA400C19F0400F18BF2A
:1056C00020205FFA8CFC00F09D854CF0010C002836
:1056D00040F0998501339BB29E42138482F82210D8
:1056E00044D915F903904FEA4C0CB9F1000F5FFA59
:1056F0008CF015F803C001DA40F0010040001CF006
:10570000400F18BF4FF0200AC0B200F0B78540F03C
:10571000010082F822A0BAF1000F03D101331384F3
:1057200082F822107D2821D84130238803F1010C12
:10573000A4F800C0F854138C9E4217D992F82200A6
:1057400015F803C010EA0C0F4FEA500014BF4FF0D9
:10575000010C4FF0000C82F8220020B901339BB2FB
:10576000138482F822109E423FF63EAF03B0BDE89C
:10577000F08F01339BB2BCF1020F138482F8221028
:1057800000F0AD81BCF1030F00F03482BCF1010FD9
:105790004FF080003FF446AF9E42E7D915F803C0B2
:1057A00010EA0C0F1ED05FEA50092DD101339BB2D5
:1057B0009E42138482F82210D8D9E8560028C0F2FD
:1057C000E8804FF080094FEA590082F8220018B9AA
:1057D0000133138482F822102388581C208007F894
:1057E0000380A8E7400882F8220018B90133138427
:1057F00082F822102388581C208007F803E09AE7DB
:10580000440400207005002019EA0C0FDBD080084A
:1058100040F0C08001339BB29E42138482F8221074
:10582000A4D9E8560028C0F2668280205FEA500CB6
:1058300040F0418201339BB29E42138482F82210D1
:1058400094D9E85C4FEAD01C40064FEA4C0C40F17A
:10585000BB8420204CF0010C82F8220028B9802063
:1058600001339BB2138482F822109E427FF67EAFF2
:1058700015F803904FEA4C0C10EA090F5FFA8CFC04
:1058800018BF4CF0010C400840F06D8301339BB20F
:105890009E42138482F822107FF668AFE8564FEAE2
:1058A0004C0C00285FFA8CFC80F22F8480205FEA89
:1058B00050094CF0010C40F0648301339BB29E42CE
:1058C000138482F822107FF651AF4FEA4C0015F98D
:1058D00003C0C0B2BCF1000F80F223844FF08009F6
:1058E0005FEA590940F0010040F0588301339BB250
:1058F0009E42138482F822107FF638AF15F903C058
:105900004000BCF1000FC0B280F224844FF0800947
:105910005FEA590940F0010040F04C8301339BB22B
:105920009E42138482F822107FF620AF15F903C03F
:105930004000BCF1000FC0B2C0F20F844FF040092C
:1059400015F803C0400019EA0C0FC0B200F05183F3
:105950004FEA590940F0010082F82290B9F1000F96
:1059600040F0028401339BB2138482F822101FFAA4
:1059700080FC00283FF4E0AE00232088013300F1D2
:105980000109A4F8009007F800E098B26045F4D34C
:10599000D1E6402015F803C010EA0C0F3FF446AFE3
:1059A000400840F0A98101339BB29E42138482F8E3
:1059B00022107FF6DBAE15F803904FEAD91C19F0E0
:1059C000400F4FEA4C0C00F0F38320204CF0010C08
:1059D000002840F0EE8301339BB29E42138482F88C
:1059E00022107FF6C3AE4FEA4C0C5FFA8CF015F92B
:1059F00003C015F80390BCF1000F01DA40F001007C
:105A0000400019F0400F18BF4FF0200CC0B200F05A
:105A10002A8440F00100BCF1000F40F026840133DD
:105A20009BB29E42138482F822107FF69FAE15F936
:105A300003C04000BCF1000FC0B201DA40F0010029
:105A40004FF0400A82F822B09E427FF68FAE15F8E2
:105A500003C040001AEA0C0FC0B218BF40F00100AA
:105A60005FEA5A0C40F0D48201339BB29E42138409
:105A700082F822107FF67AAE15F903C04000BCF11F
:105A8000000FC0B2C0F273834FF0400C15F80390C2
:105A900040001CEA090FC0B200F0D9824FEA5C0C4A
:105AA00040F0010082F822C0BCF1000F40F0668394
:105AB00001339BB2138482F822101FFA80FC002865
:105AC0003FF43AAE00232088013300F10109A4F825
:105AD000009007F8008098B28445F4D82BE69E42E7
