:020000040800F2
:1000000000500020EDD30008D5D30008D7D3000856
:10001000D9D30008DBD30008DDD3000800000000BE
:10002000000000000000000000000000DFD3000816
:10003000E1D3000800000000E3D30008E5D3000886
:1000400035D4000835D4000835D4000835D400086C
:1000500035D4000835D4000835D4000835D400085C
:1000600035D4000835D4000835D4000835D400084C
:1000700035D4000835D4000835D4000835D400083C
:1000800035D4000835D4000835D4000835D400082C
:1000900035D4000835D4000835D4000869BC000800
:1000A00035D4000835D4000835D4000835D400080C
:1000B000E545000835D4000835D4000835D40008DB
:1000C00035D4000835D4000835D4000835D40008EC
:1000D00035D40008AD2B0008DD280008F95B0008C6
:1000E00035D4000835D4000835D4000800000000DD
:1000F0000000000000000000000000000000000000
:0C01000000000000000000005FF808F1A3
:10010C0010B5054C237833B9044B13B10448AFF345
:10011C0000800123237010BDD002002000000000DD
:10012C00D800010808B5034B1BB103490348AFF3D2
:10013C00008008BD00000000D4020020D800010897
:10014C0010F8012B11F8013B012A28BF9A42F7D075
:10015C00D01A7047034613F8012B002AFBD1181A4A
:10016C000138704780F0004002E000BF81F0004190
:10017C0042001FBF5FEA410392EA030F7FEA226C41
:10018C007FEA236C6AD04FEA1262D2EB1363C1BFD1
:10019C00D218414048404140B8BF5B42192B88BF40
:1001AC00704710F0004F40F4000020F07F4018BF63
:1001BC00404211F0004F41F4000121F07F4118BF83
:1001CC00494292EA030F3FD0A2F1010241FA03FC2B
:1001DC0010EB0C00C3F1200301FA03F100F0004313
:1001EC0002D5494260EB4000B0F5000F13D3B0F1DB
:1001FC00807F06D340084FEA310102F10102FE2A4A
:10020C0051D2B1F1004F40EBC25008BF20F00100B9
:10021C0040EA03007047490040EB0000013A28BF58
:10022C00B0F5000FEDD2B0FA80FCACF1080CB2EBDB
:10023C000C0200FA0CF0AABF00EBC2505242184359
:10024C00BCBFD0401843704792F0000F81F40001FE
:10025C0006BF80F400000132013BB5E74FEA4103D1
:10026C007FEA226C18BF7FEA236C21D092EA030F3D
:10027C0004D092F0000F08BF0846704790EA010FB7
:10028C001CBF0020704712F07F4F04D1400028BFE4
:10029C0040F00040704712F100723CBF00F50000C6
:1002AC00704700F0004343F0FE4040F400007047FC
:1002BC007FEA226216BF08467FEA236301464202A8
:1002CC0006BF5FEA412390EA010F40F480007047BB
:1002DC004FF0000304E000BF10F0004348BF404261
:1002EC005FEA000C08BF704743F0964301464FF09D
:1002FC0000001CE050EA010208BF70474FF00003F9
:10030C000AE000BF50EA010208BF704711F0004339
:10031C0002D5404261EB41015FEA010C02BF844609
:10032C000146002043F0B64308BFA3F18053A3F568
:10033C000003BCFA8CF2083AA3EBC25310DB01FAAF
:10034C0002FC634400FA02FCC2F12002BCF1004F33
:10035C0020FA02F243EB020008BF20F001007047C4
:10036C0002F1200201FA02FCC2F1200250EA4C0018
:10037C0021FA02F243EB020008BF20EADC7070475E
:10038C004FF0FF0C1CEAD0521EBF1CEAD15392EA6C
:10039C000C0F93EA0C0F6FD01A4480EA010C400248
:1003AC0018BF5FEA41211ED04FF0006343EA5010A2
:1003BC0043EA5111A0FB01310CF00040B1F5000FE4
:1003CC003EBF490041EAD3715B0040EA010062F193
:1003DC007F02FD2A1DD8B3F1004F40EBC25008BF7D
:1003EC0020F00100704790F0000F0CF0004C08BF9B
:1003FC0049024CEA502040EA51207F3AC2BFD2F168
:10040C00FF0340EAC250704740F400004FF0000375
:10041C00013A5DDC12F1190FDCBF00F000407047AF
:10042C00C2F10002410021FA02F1C2F1200200FAED
:10043C0002FC5FEA310040F1000053EA4C0308BFB4
:10044C0020EADC70704792F0000F00F0004C02BF05
:10045C00400010F4000F013AF9D040EA0C0093F080
:10046C00000F01F0004C02BF490011F4000F013BDA
:10047C00F9D041EA0C018FE70CEAD15392EA0C0F48
:10048C0018BF93EA0C0F0AD030F0004C18BF31F0B3
:10049C00004CD8D180EA010000F00040704790F089
:1004AC00000F17BF90F0004F084691F0000F91F02D
:1004BC00004F14D092EA0C0F01D142020FD193EAF3
:1004CC000C0F03D14B0218BF084608D180EA01007B
:1004DC0000F0004040F0FE4040F40000704740F057
:1004EC00FE4040F4400070474FF0FF0C1CEAD05225
:1004FC001EBF1CEAD15392EA0C0F93EA0C0F69D081
:10050C00A2EB030280EA010C49024FEA402037D0EB
:10051C004FF0805343EA111143EA10130CF00040E2
:10052C008B4238BF5B0042F17D024FF4000C8B42D2
:10053C0024BF5B1A40EA0C00B3EB510F24BFA3EBB2
:10054C00510340EA5C00B3EB910F24BFA3EB910382
:10055C0040EA9C00B3EBD10F24BFA3EBD10340EADC
:10056C00DC001B0118BF5FEA1C1CE0D1FD2A3FF622
:10057C0050AF8B4240EBC25008BF20F001007047D7
:10058C000CF0004C4CEA50207F32C2BFD2F1FF037A
:10059C0040EAC250704740F400004FF00003013AAB
:1005AC0037E792F0000F00F0004C02BF400010F44F
:1005BC00000F013AF9D040EA0C0093F0000F01F063
:1005CC00004C02BF490011F4000F013BF9D041EA85
:1005DC000C0195E70CEAD15392EA0C0F08D14202B8
:1005EC007FF47DAF93EA0C0F7FF470AF084676E78B
:1005FC0093EA0C0F04D14B023FF44CAF08466EE764
:10060C0030F0004C18BF31F0004CCAD130F0004231
:10061C007FF45CAF31F000437FF43CAF5FE700BF89
:10062C004FF0FF3C06E000BF4FF0010C02E000BFB2
:10063C004FF0010C4DF804CD4FEA40024FEA410354
:10064C007FEA226C18BF7FEA236C11D001B052EA0A
:10065C00530C18BF90EA010F58BFB2EB030088BFD0
:10066C00C81738BF6FEAE17018BF40F0010070473F
:10067C007FEA226C02D15FEA402C05D17FEA236C21
:10068C00E4D15FEA412CE1D05DF8040B704700BF68
:10069C00844608466146FFE70FB5FFF7C9FF0028FF
:1006AC0048BF10F1000F0FBD4DF808EDFFF7F4FF38
:1006BC000CBF012000205DF808FB00BF4DF808EDD1
:1006CC00FFF7EAFF34BF012000205DF808FB00BFF4
:1006DC004DF808EDFFF7E0FF94BF012000205DF816
:1006EC0008FB00BF4DF808EDFFF7D2FF94BF0120C7
:1006FC0000205DF808FB00BF4DF808EDFFF7C8FFC0
:10070C0034BF012000205DF808FB00BF4FEA400217
:10071C004FEA41037FEA226C02D15FEA402C08D1F8
:10072C007FEA236C02D15FEA412C02D14FF000002A
:10073C0070474FF0010070474FEA4002B2F1FE4F94
:10074C000FD34FF09E03B3EB12620DD94FEA002387
:10075C0043F0004310F0004F23FA02F018BF404260
:10076C0070474FF00000704712F1610F01D1420247
:10077C0005D110F0004008BF6FF0004070474FF0FB
:10078C000000704742000ED2B2F1FE4F0BD34FF077
:10079C009E03B3EB126209D44FEA002343F00043EB
:1007AC0023FA02F070474FF00000704712F1610F0E
:1007BC0001D1420202D14FF0FF3070474FF00000E0
:1007CC00704700BF0022427082700122C270022268
:1007DC00B1FA81F10271032249090170427170472B
:1007EC0043788B421FD0012941700AD0022910D0C6
:1007FC00C1B90123C37002238170037103234371B8
:10080C007047037843B1012383700223C370002324
:10081C00F3E70378002BF6D0022383700023C37018
:10082C000123EAE7FEE770470B8882B0ADF8003091
:10083C004B880239ADF80230CB88ADF804300B8907
:10084C00ADF80630431C053013F8012F0DF1080CE0
:10085C000CEB420232F8082C834221F8022FF3D120
:10086C0002B0704710B50C461146FFF7B9FF214690
:10087C00BDE81040FFF7D8BF4FF07F32094B10B5E1
:10088C00C0E923234FF47F43A0F89430FF230446A0
:10089C0080F89630983000F010FD002384F8A430D6
:1008AC0010BD00BFFFFF7F0070B5154604461E4605
:1008BC00114600F078FC294604F1140000F073FC9A
:1008CC00294604F1280000F06EFC294604F13C0096
:1008DC0000F069FC294604F1500000F064FC294644
:1008EC0004F1640000F05FFC294604F1780000F08C
:1008FC005AFC4FF4FA7332464FF4FA6104F1980043
:10090C0000F0C1FC2046FFF7B7FF002384F8A530A8
:10091C004FF47F43A4F8A63070BD704700F04ABC7A
:10092C00143000F047BC08B5503000F04DFC2921C4
:10093C0000F11403B3FBF1F3024613F0FF0002D1F4
:10094C00101E18BF012008BD08B5643000F03CFC37
:10095C00292100F11403B3FBF1F3024613F0FF005D
:10096C0002D1101E18BF012008BD90F8903013B9A9
:10097C0090F98C00704790F98D00704790F890308A
:10098C0013B990F98E00704790F98F00704710B52D
:10099C0004460BF089FA38B104F13C0000F00EFC6F
:1009AC00012838BF0120C0B210BD783000F00EBC59
:1009BC00783000F013BC10B5044600F0D5FB04F100
:1009CC00140000F0D1FB04F1280000F0CDFB04F181
:1009DC003C0000F0C9FB04F1500000F0D1FB04F125
:1009EC00640000F0CDFB04F17800BDE8104000F08D
:1009FC00CDBB7F2807D0002807DA10F1800F06D076
:100A0C004042C0B2704700207047012070477F20E1
:100A1C00704710B1404240B270477F2070477F282A
:100A2C000FD010F1310F0EDA10F1780F0DDBFE2321
:100A3C00783040B2584346232330B0FBF3F0C0B2B9
:100A4C007047FF207047FE20704700207047012838
:100A5C0005DD40F2FE73984203DC80B27047012042
:100A6C00704740F2FF70704740F2AE73A0F578709B
:100A7C00C0EBC02090FBF3F000F58060FFF7E7BF00
:100A8C00FFF7F2BF032812DD0C2812DD0F2812DD50
:100A9C00122812DD162812DD192812DD1C2812DD91
:100AAC001F2812DD2128CCBFFF2006207047002014
:100ABC0070470120704702207047082070470320C0
:100ACC0070470720704704207047052070470000CE
:100ADC0005289ABF014B185CFF20704728010108BC
:100AEC0005289ABF014B185CFF2070472E010108A6
:100AFC007F2803D0002803DAC0B27047002070476B
:100B0C00FF2070477F2811D010F1320F10DA884285
:100B1C0010DD6423401A5843C1F1FF2101F57F0118
:100B2C00CE31313090FBF1F0C0B27047FF207047EE
:100B3C006420704700207047014B4840185C704798
:100B4C003401010852B110B4054C0A4411F8013BB0
:100B5C0058408A42205CF9D110BC7047704700BFE6
:100B6C0034010108392808D822280ED9094B23381A
:100B7C00C0B2C34003F0010070475F2807D0613852
:100B8C0019288CBF002001207047002070470120DD
:100B9C00704700BF01EC7F00F8B5024600245F27C8
:100BAC00451E461D15F8010FFF2804BF0134E4B2A1
:100BBC00FFF7D8FF00B92F70AE42F3D1062C04D149
:100BCC0019B10B6813608B88938000239371F8BD67
:100BDC002DE9F843012500264FF02808DFF82C906A
:100BEC00471E441D17F8011F08480FF010FA034662
:100BFC0010B1A0EB0903DBB2A3FB05329E19A7428F
:100C0C00A5FB0853EED13046BDE8F8833402010849
:100C1C0010B54179A1F13000C3B2092B07D80523D7
:100C2C00B0FBF3F303EB8303C01AC0B210BD044C4A
:100C3C0020460FF0ECF90028F1D0001BC0B2EEE713
:100C4C0034020108F0B52826084B094F821DB1FB70
:100C5C00F3F4272C8CBF30253D5D03FB141102F8F7
:100C6C00015D8242B3FBF6F3F1D1F0BD00801A06B0
:100C7C003402010870B50446FFF76CFA002582B205
:100C8C00501EABB2834204EB030103DAE65C013580
:100C9C00302EF6D0D21A2046BDE8704001320FF04B
:100CAC0085B900002DE9F04F0D4699B0164600218C
:100CBC001A461F4680460FF093F900212A2201A8FC
:100CCC0000910FF08DF9DFF8CC90DFF8CCA0DFF8B5
:100CDC00CCB005EB4606AE4211D16846FFF73AFAA6
:100CEC0030B100F160030DEB0300002300F8613C10
:100CFC00694640460FF0D4F919B0BDE8F08F47F6BD
:100D0C00FF7335F9020B9842E7D0002812DC5946E4
:100D1C000CA80FF0C5F96846FFF71CFA04460CA89E
:100D2C00FFF718FA0444A742D5D368460CA90FF074
:100D3C005FF9D0E7B0F57A7F0BDA0CA980B20DF031
:100D4C0034FB0CA8FFF796FF51460CA80FF050F996
:100D5C00E1E764233230B0FBF3F00CA980B20DF064
:100D6C0024FB0CA8FFF786FF0CA8FFF7F3F900F1A2
:100D7C005F036B4413F8302C00F160010DEB0100A4
:100D8C0000F8302C2E2203F8302C0023494600F8B2
:100D9C002F3CDAE7220101081D01010818010108A6
:100DAC00F0B589B06D4600242F468E1CE1B28A4204
:100DBC0004D83946FFF776FF09B0F0BD36F8241099
:100DCC00013425F8021BF1E742F21073B0FBF3F289
:100DDC00642103FB1200B0FBF1F301FB130000EBE9
:100DEC00023000EB831080B2704742F21071020B9C
:100DFC0000F03F0301FB02336422C0F3851002FBB9
:100E0C000030704742F210732DE9F041B1FBF3F65C
:100E1C00642703FB161488B01E4905460FF040F9F1
:100E2C006946F0B20DF09EFA6846FFF723FFB4FB5B
:100E3C00F7F6DFF86480694628460FF0D9F841468A
:100E4C0028460FF0D5F807FB16446946F0B20DF0B2
:100E5C0089FA6846FFF70EFF694628460FF0C8F876
:100E6C00414628460FF0C4F86946E0B20DF07AFA14
:100E7C009DF8013069468DF800309DF80230284607
:100E8C008DF8013000238DF802300FF0B1F808B066
:100E9C00BDE8F081211301082601010870B50E464A
:100EAC000021054614460FF09BF800239AB2944299
:100EBC0000D870BDF25C002AFBD0EA540133F5E790
:100ECC0070B50E4614460021013205460FF088F825
:100EDC0000239AB2944200D870BDF25C002AFBD079
:100EEC00EA540133F5E730B50023044698B290423A
:100EFC0001D3012005E0E55CC85C1DB9B0FA80F0B7
:100F0C00400930BD0028FCD0854203F10103EDD02F
:100F1C000020F6E77D23438043F23903C3600023AE
:100F2C0009B201808180C380037270470268044952
:100F3C00044B01FB023323F000430360180C704791
:100F4C00FD430300C39E2600F0B5002597B0016059
:100F5C00858004465622294668460FF041F8012642
:100F6C00E27DAA4209D80023802104F1B800A375C0
:100F7C0017B0BDE8F0400FF033B82046FFF7D6FFAE
:100F8C00E77900217B1B90FBF3F2EC4602FB13008C
:100F9C000A46C0B2CBB29F4222D80023002211468F
:100FAC00277BD0B2874226D80029D9D1A2796119E2
:100FBC00033A012A05D925B191F9172012BB012B4F
:100FCC00CED90B76A26852F82310583305F10E02D5
:100FDC006B44013544F8221003F8586CEDB2BFE7AE
:100FEC001CF801EBBEF1000F03D18242D6D00132C6
:100FFC00D2B20131CEE72069805C0132984208BF41
:10100C000121CEE7501E8342DBDB01329342D8DC58
:10101C00A6E700002DE9F04F154697B0013D0160A1
:10102C00027104464371EDB256220021684699467E
:10103C000EF0D6FF022D98BF4FF0030A4FF00007B9
:10104C0094F807808ABF4FF0010AB8FBFAF8002524
:10105C003E46DFF800B1E27DB24209D80023802180
:10106C0004F1B800A37517B0BDE8F04F0EF0B8BF8F
:10107C002046FFF75BFFA8EB060390FBF3F202FBA5
:10108C0013030020EC460246DBB2C1B2414506D246
:10109C001CF801EBBEF1000F1FD19A421BD10022AC
:1010AC00414528BF414694460AFB015094F80CE098
:1010BC00C0B2D3B29E4512D8BCF1000FCBD1A368FD
:1010CC0009F1FF3C53F82020BCF1030F18D8DFE8DE
:1010DC000CF00E122D300132D2B20130D5E723695B
:1010EC009B5C0132834208BF4FF0010CE1E7DFF853
:1010FC0068C0944401E002EB0B0C184A9445AAD941
:10110C0016B1FFB90129A6D9A219107653F82020DF
:10111C0006F10E0344F82320012201F158036B441D
:10112C0016440F4603F8582CF6B294E7DFF830C09B
:10113C00DFE7A2F53D02DFF82CC0A2F59D42443A50
:10114C006245DCE77A1E9142DEDB7A1C9142DBDCE5
:10115C0081E700BF776245FFC54E47FF3BB10100F9
:10116C00287643FF3CB101006421D0E90123D31A56
:10117C00C3604B43418A8260B3FBF1F30374704745
:10118C00D0E90123D31AC0E90223704743682BB17D
:10119C006421C2684A43B2FBF3F2D3B20374002356
:1011AC00C3604360704700234182C0E9023343604F
:1011BC00037470474368013343607047007C704789
:1011CC0043680B4443607047C068704711B1C368F3
:1011DC000133C3604368013343607047007C704740
:1011EC00002303808370037270470346007810B1AC
:1011FC0000221A707047587810B100225A7070474C
:10120C00987810B100229A707047187A08B10022B1
:10121C001A72704701707047017070478170704787
:10122C0081704260704740687047002343600381BF
:10123C0070470A2310B50446838001F025FE23680D
:10124C00E0809B6820469847208110BD038970B5CB
:10125C0004469BB1858845B1013DADB285806DB921
:10126C0003681B68BDE87040184701F00DFEE38869
:10127C00C01A238980B2834201D2258170BD2368B4
:10128C0020465B68EEE72DE9F041044610461D460A
:10129C0016468846FFF71CF8074606EB0800FFF7D2
:1012AC0017F801463846FFF71FF96560206028469D
:1012BC00FFF712F8A060BDE8F08110B50446406855
:1012CC00FFF70AF8A06010BD10B50446022980EAA9
:1012DC00E070A0EBE47068D15AB9002CACBF7F234E
:1012EC003F239842A8BF1846002C01DA40F040007A
:1012FC0010BD012A1AD1632805DC4000002CF7DA56
:10130C0040F48070F4E740F2F54398420CDCFEF7B1
:10131C00DFFF5749FFF734F80DF01EFDFFF732FAE7
:10132C00400040F00100E9E7FF20E7E7022A40F027
:10133C009C80632805DC8000002CD9DA40F4007016
:10134C00D6E7B0F57A7F0CDAFEF7C2FF4849FFF713
:10135C0017F80DF001FDFFF715FA800040F00100C1
:10136C00EAE742F20F7398420CD8FEF7B1FF4149FD
:10137C00FFF706F80DF0F0FCFFF704FA800040F0E0
:10138C000200D9E73C4B98420CD8FEF7A1FF3B4931
:10139C00FEF7F6FF0DF0E0FCFFF7F4F9800040F0EB
:1013AC000300C9E740F2FF10C6E703295DD1012A0B
:1013BC001BD1B0F57A7F05DA4000002C98DA40F4A6
:1013CC00006095E7B0F5205F0CDAFEF781FF284945
:1013DC00FEF7D6FF0DF0C0FCFFF7D4F9400040F04B
:1013EC000100EAE740F2FF70E7E7022A3DD1B0F5D1
:1013FC007A7F06DA8000002CBFF67AAF40F480507A
:10140C0076E742F20F7398420CDCFEF761FF184945
:10141C00FEF7B6FF0DF0A0FCFFF7B4F9800040F02A
:10142C000100E8E7164B98420CD8FEF751FF114922
:10143C00FEF7A6FF0DF090FCFFF7A4F9800040F03A
:10144C000200D8E7B0F57A2F0CD2FEF741FF0B491A
:10145C00FEF796FF0DF080FCFFF794F9800040F04A
:10146C000300C8E740F6FF70C5E7002040E700BF67
:10147C00CDCCCC3D0AD7233C17F001006F12833A38
:10148C009F8601000023036070470000092928BFD4
:10149C00092138B5064B04461B780D468B4202D108
:1014AC000023036038BD01F0E3FC25712060F9E7EF
:1014BC00EC020020036810B504460BB9002010BDE7
:1014CC0001F0D6FC2368C01A40F2EE239842F5D9FD
:1014DC000023054A2360127823799A42EED0034AFE
:1014EC000120D377EBE700BFEC020020480300207B
:1014FC00FF23437100230171837103818372704751
:10150C0038B5037904460D465BB14179A94208D040
:10151C0041B101290AD000236571A37155B1012D88
:10152C000FD038BD03689B689847F4E70368002127
:10153C00DB68F9E7012123689B6820469847A07176
:10154C00EFE723682946DB68F7E770477047704779
:10155C00002070477047002070470020704770478C
:10156C000020704700207047054B82B0DA690243B7
:10157C00DA61DB6903400193019B02B0704700BF45
:10158C0000100240054B82B09A6902439A619B6934
:10159C0003400193019B02B0704700BF0010024052
:1015AC0000F10C0353E8003F43F0200300F10C0161
:1015BC0041E80032002AF3D1704700F10C0353E8E4
:1015CC00003F43F0800300F10C0141E80032002A97
:1015DC00F3D1704700F10C0353E8003F23F02003D4
:1015EC0000F10C0141E80032002AF3D1704700F100
:1015FC000C0353E8003F23F0400300F10C0141E8D9
:10160C000032002AF3D1704700F10C0353E8003F7D
:10161C0023F0800300F10C0141E80032002AF3D1E1
:10162C00704770470288044B5140C9B233F81130EF
:10163C0083EA1223038070478C3001089AB110B4EE
:10164C00B0F800C0084C0A4411F8013B83EA0C03C3
:10165C00DBB234F81330914283EA1C2CA0F800C0A2
:10166C00F2D110BC704770478C3001084FF6FF73F5
:10167C0037B50446ADF806304518AC4203D1BDF879
:10168C00060003B030BD14F8011B0DF10600FFF786
:10169C00C9FFF2E7044B1888044B80B21B889BB23D
:1016AC00C01A18BF01207047D83B0020D63B002041
:1016BC000023044A1380044A1380044A1380044A0A
:1016CC0013807047D63B0020D83B0020DA3D002029
:1016DC00DC3D002000207047044B1888044B80B27E
:1016EC001B889BB2C01A18BF01207047E03F002036
:1016FC00DE3F002070470023A0F87032A0F86E3255
:10170C0070470023A0F85C32A0F85A3270470000F2
:10171C003A4B5A6A037A92B263B18389D31A9BB259
:10172C00B3F5FA7F84BF00230372837A4F2B84BFF7
:10173C0000230372037A8281082B0FD8DFE803F0B1
:10174C00050E0E0E0E0E0F172200EE2901D0C82921
:10175C0004D1012383720623417503727047837A87
:10176C005A1C03448272597507234172F5E7827A39
:10177C00531CDBB2024483725175427A9A42EDD209
:10178C000823EAE7837A5A1C034482725975C37D95
:10179C00162B04D1012380F865300923DDE743695A
:1017AC00174A03F0FF23934203D1012380F86730DB
:1017BC00F3E7144A93421CD1837E102B19D1C37EBC
:1017CC00022B08D0052B0DD0012BE6D1027EEE2A80
:1017DC0008BF80F86A30037EEE2BDED1012380F83F
:1017EC006B30DAE7012380F86830037F80F86930CA
:1017FC00D3E7012380F86630CFE700BF0004004038
:10180C0000C8002800C80032002070470020704734
:10181C0000207047002070470278024B51405B5CFF
:10182C0003707047A01C0108FF230370704700BFB2
:10183C007047B0F86E32B0F870229B1A98B21B0445
:10184C0044BF00F5006080B2003818BF012070471B
:10185C00A0F11400EDE70346B0F87022B0F86E1258
:10186C0091421FBF811891F87402B3F872120132C1
:10187C001ABF0A40A3F8702200207047A0F1140090
:10188C00E9E770B50B78054603704B780C4643704E
:10189C000B78FD2B38D10A268B788370CB78C370EC
:1018AC000B7903714B7943718B7983718B68C3719D
:1018BC008B68C3F30F2303728B7A4372627804F143
:1018CC000C01A8190EF0F4FB6378B4F80C21334426
:1018DC00EA54B4F80C115A1C92B2090AA954A27811
:1018EC00981CD20780B20ED504F58872054404F515
:1018FC008E7452F8041BA24245F8041BF9D11278DD
:10190C000F332A7098B270BD00238B700B790626AA
:10191C0083704B79C3708B7903718B684371CDE7FE
:10192C0038B54A780D46352A044601F10C010AD81F
:10193C000EF0BEFB68780021C0F136022044BDE8F1
:10194C0038400EF04DBB403551F8043BA94240F8ED
:10195C00043BF9D10B88038038BD38B54A780C4666
:10196C001B2A054601F10C010AD80EF0A1FB607888
:10197C000021C0F11C022844BDE838400EF030BBF9
:10198C00283451F8043BA14245F8043BF9D138BD49
:10199C0038B54A780D46082A044601F10C010AD8DC
:1019AC000EF086FB68780021C0F109022044BDE8E6
:1019BC0038400EF015BBEB6803604B6843600B7A44
:1019CC00037238BD38B54A780C46072A054601F132
:1019DC000C010AD80EF06CFB60780021C0F10802F3
:1019EC002844BDE838400EF0FBBAE36803604B684E
:1019FC00436038BD242208B5002103480EF0F0FAEC
:101A0C000022024B1A7008BDE00C0020A00500203B
:101A1C002DE9F04113780446037092F80180FD2BF8
:101A2C000F46154680F8018054D10A2693788370AE
:101A3C00D378C3701379037153794371937983719C
:101A4C006B7A127A1B0403EB0223EA79134423F01A
:101A5C007F43A268A91963F31702A26004F10C007A
:101A6C0042460EF025FB7A7B904507D208F10C001C
:101A7C000021A2EB080220440EF0B2FA63781E4457
:101A8C00AB195A78AB5D03EB0223A4F80C31A378A5
:101A9C00DB070ED50236B6B2354404F5887305F172
:101AAC000C0255F8041B954243F8041BF9D12A7813
:101ABC001A70BB7A84F82131FB7A84F822313B7B93
:101ACC0084F823317B7B84F824313B7884F82031F3
:101ADC00BDE8F08100234380937806260371D37808
:101AEC004371137983715379B3E738B54A780C464F
:101AFC00132A054601F10C010AD80EF0D9FA6078C8
:101B0C000021C0F114022844BDE838400EF068BA38
:101B1C00203451F8043BA14245F8043BF9D138BDBF
:101B2C002DE9F04F0C4651880546B1F58C7F4FF0EE
:101B3C00000085B010D31070D91CC9B2012995BF13
:101B4C0001210023518053809CBF23701170002011
:101B5C00287005B0BDE8F08F16780E2E00F291803B
:101B6C0001A757F826F000BF451B0008B11B000861
:101B7C00D91B0008F91B00088F1C00088F1C0008DB
:101B8C008F1C00088F1C00088F1C00088F1C00087D
:101B9C008F1C00088F1C00088F1C00088F1C00086D
:101BAC000B1C0008481C5080635421789BB2FD2903
:101BBC0006D10C330A21D380022391801370C6E71F
:101BCC0006210833D38091800E23F7E7481C508000
:101BDC00D8074FF00000635442BFD1880D31D1803B
:101BEC00012B8CBF034603231370B1E7481C5080B4
:101BFC0000208342635414BF03460E23F4E7481CB1
:101C0C00508063545388D1888B4232D30023538045
:101C1C001370022369802B702378FD2B37D16379E5
:101C2C002B72A3796B72637A227A1B0403EB022367
:101C3C00E27913446B60637803F10C026A80A2783A
:101C4C00D10701D519336B8000264FF4BC720C20E0
:101C5C006968DFF8FC806E81B31801335B0800FB08
:101C6C0003F758F80770B9421AD25A1EB242F3D889
:101C7C0018E092889A423FF66AAF01232B7000203D
:101C8C0067E7107050809080D0802870F7E7E37879
:101C9C002B7223796B7263796B6063780833D2E7AC
:101CAC001E46E3D80C27774358F80730994227D1C2
:101CBC0023782046FD2B0CBF4FF00A094FF0060984
:101CCC0010F801BF474409EB0B03591E89B201936D
:101CDC00FFF7CCFC97F804A0ADF80E0051460DF1BF
:101CEC000E00FFF79FFC019BE2185278E35C03EBBC
:101CFC000223BDF80E209BB29A4209D0052000E0C9
:101D0C0003202870023801288CBF0020012020E716
:101D1C00BB79DA0706D5FA79934582BF04EB090142
:101D2C008A5CAA729B0709D50C2303FB0683627895
:101D3C001B7A9A4282BF4C44E35CEB720C2303FB8C
:101D4C0006835B79022085F80CA06B73DAE700BF81
:101D5C00A01D01086FF02003024803604368FFF7E1
:101D6C001FBC00BF0048004008B5FFF7F3FF00227E
:101D7C00014B1A7208BD00BF4016002008B5FFF7D2
:101D8C00E9FF0022014B1A7208BD00BFC0060020FB
:101D9C004FF0320C0A4B0B491A680B4BA1FB021289
:101DAC00920C0CFB02F202F5FA72A3FB0232074909
:101DBC00920948684B681B1A9A42FBD8704700BFBF
:101DCC006C02002083DE1B43D34D6210001000E038
:101DDC0008B5FFF7DDFF1022014B1A6108BD00BFEB
:101DEC00000801401022024B5A61FFF7D1BF00BF1F
:101DFC0000080140034630B587B001AC00F1100576
:101E0C00224618685968083303C2AB421446F7D10E
:101E1C000024094D8DF81440A96801A8FEF790F92B
:101E2C0010B920B207B030BD01342E2C05F10C05D1
:101E3C00F2D14FF0FF30F5E73000002010B50278FA
:101E4C000A4BD243D2B244789A5C90F802E06240DA
:101E5C009A5C90F803C082EA0E029A5C017982EADD
:101E6C000C029A5C4A40985C10BD00BFA01C010893
:101E7C00028810B58488531C234044889C421EBFA2
:101E8C0012189171038010BD411A88B20B0444BF23
:101E9C0000F5007080B2704770B5104C00252346D9
:101EAC0026782EB166788E4202D1A67896420BD057
:101EBC0001350C2D04F10404F2D1002413F8245044
:101ECC001DB101340C2CF9D170BD012503F824503F
:101EDC0003EB8403D87059709A70F5E7A5050020C0
:101EEC002DE9F8430B465A7A9E7ADF7A204B0D790E
:101EFC001B5C0446DB07097A00D50DB9FFF7CCFF54
:101F0C0000234FF0010E98461A4919489C4201F8DB
:101F1C00018B25D02DB90278920702D501F801EC7E
:101F2C001EE04FF0000C144A92F80090B9F1000F2B
:101F3C000FD092F8039099450BD1002EEED092F869
:101F4C000190B14505D1002FE8D092F80290B94527
:101F5C00E4D00CF1010CBCF10C0F02F10402E3D142
:101F6C000133DBB2042B00F10100CFD1BDE8F883C3
:101F7C00D5050020A1050020A505002007B50368A4
:101F8C008DF8071001221B690DF10701984703B06A
:101F9C005DF804FBF0B5FD230546044685B005F855
:101FAC000C3B8DF8043090F8243103F10C02024400
:101FBC00012B42D80026637066808DF805308B7A31
:101FCC000DF1050023718DF808308B7AADF80660A1
:101FDC0001338B72637909218DF80930A3798DF85F
:101FEC000A30A368C3F317031A128DF80B301B14B5
:101FFC008DF80D308DF80C20FFF738FB67782946EB
:10200C003A46ADF802000DF10200FFF717FB94F809
:10201C002311FFF707FB94F82421BDF802309742F7
:10202C00A4F80C3110D2314607F10C00D21B20441D
:10203C0005B0BDE8F0400DF0D3BF12F8010D00283B
:10204C00B8D1013BDBB2B3E705B0F0BD704770B55A
:10205C00044608460D46FEF77DF82368294682B2F1
:10206C001B692046BDE87040184708B5FFF7EFFF25
:10207C0008BD0120FFF786BA0D4B984202D104200F
:10208C00FFF780BA0B4B984205D003F5806398425A
:10209C0003D11020F4E70820F2E7074B984201D156
:1020AC002020EDE7054B984200D070474020E7E731
:1020BC0000080140000C01400014014000180140D0
:1020CC000B4B984203D14FF40060FFF75BBAB0F1B1
:1020DC00804F04D0074B984204D1022000E001202D
:1020EC00FFF742BA044B984201D10420F8E770473D
:1020FC00002C014000040040000800402DE9F04194
:10210C000C46154686B007461022002102A81E4632
:10211C009DF834800DF064FF01940B2D07D8DFE897
:10212C0005F00E0E070A1414141616161B1DFEE7E6
:10213C000823029303E00823029301230593032E43
:10214C000ED8DFE806F01E200E1E0123F1E7012356
:10215C00029304230493F2E70923EAE70923F7E740
:10216C00FEE701230393B8F1000F02D03846FFF7C6
:10217C0083FF053D042D0BD8DFE805F007110A0796
:10218C0011000323EEE70223ECE7C4F30F247C6178
:10219C00384601A90BF06EFD06B0BDE8F081C4F322
:1021AC000F243C61F4E713B54FF0010C0024CDE98A
:1021BC00004CFFF7A3FF02B010BD000030B50023A8
:1021CC00154687B00446ADF80630FFF779FF042DAD
:1021DC0004D8DFE805F02A2E04323B00FEE71C4B46
:1021EC001C4A1B68B3FBF2F39BB20022013BCDE906
:1021FC000221204601A9ADF80430049205920BF09F
:10220C0073FE236823F080032360A36823F48043C8
:10221C0023F00703A360636823F070036360A36873
:10222C0023F08003A36007B030BD094B0A4A1B683A
:10223C00D8E7074B094A1B68D4E7054B064A1B68CD
:10224C00B3FBF2F303EB83035B00CDE70123CCE795
:10225C006C02002080A8120140420F0000127A008C
:10226C0010B50446FFF7AAFF236843F0010323606F
:10227C0010BD00224FF0FF31FFF7F2BF1A4B10B523
:10228C005B681A4C23600BF0D1F819480BF0A2FCD8
:10229C0018480BF09FFC18480BF09CFC17480BF0EF
:1022AC0023FF17480BF020FF0BF068FD4FF0E022E6
:1022BC00002313615361936172B64FF0FF319A00A2
:1022CC0002F16042013302F56142082BC2F8801022
:1022DC00C2F88011F3D162B6034B1B6883F30888F4
:1022EC0023689847FEE700BF00F0FF1F9C05002005
:1022FC0000080140000C0140001001400038014072
:10230C00004400400749084A881AEFF30883521A20
:10231C001A44013A013B984288BF0022AA210DF0D1
:10232C005FBE00BF005000200004000010B5124C2E
:10233C0003232046062240F60801FFF734FF20460F
:10234C00032302220D49FFF72EFF032320461A46D2
:10235C000B49FFF728FF20460323052240F20221F8
:10236C00FFF721FF2046BDE810400323052240F271
:10237C000111FFF718BF00BF000C01400100010460
:10238C0002000204024B9868C0F34020704700BF63
:10239C00000C014008B5FFF7F5FF00B908BD00BF00
:1023AC00F9E700000122024B5A6102221A617047C0
:1023BC00000C01400222024B5A6101221A61704743
:1023CC00000C014012480F22016921F00F0192FA12
:1023DC00A2F20123B2FA82F293400B4303610D4B3C
:1023EC005A6822F480725A601A6822F480721A6059
:1023FC00DA6822F48072DA609A6842F480729A6029
:10240C00D022054B83F817234FF400021A60704753
:10241C00000001400004014000E100E04FF4807234
:10242C00034B5A611A6842F480721A60704700BFFD
:10243C000004014010B50A4C00230522204609492E
:10244C00FFF7B1FE0023052220460749FFF7ABFE3C
:10245C004FF4004363614FF48043636110BD00BFD0
:10246C000010014080008004400040040549CB6806
:10247C001A04DB4302F0004203F4004313430B61E4
:10248C00704700BF001001400549CB681A04DB43BC
:10249C0002F0804203F4804313430B61704700BF8A
:1024AC000010014010B5054C0023052220460449BC
:1024BC00FFF779FE4FF48053636110BD00080140B3
:1024CC00100010044FF48052024B1628CCBF1A6136
:1024DC005A617047000801400C4BD3F8FC2022F0E5
:1024EC008072C3F8FC20D3F8FC2042F08072C3F851
:1024FC00FC20A3F55D431A6822F001021A601A68E9
:10250C0042F001021A6000225A60704700ED00E0B0
:10251C00064B074A1B680749B3FBF2F3434310B55C
:10252C004C684A68121B9A42FBD310BD6C02002007
:10253C0040420F00001000E02DE9F84381464CF2B8
:10254C0050300E4617461D460BF056F888BBB9F1B5
:10255C00010F06D0B9F1020F0CBF4FF002094FF07A
:10256C0004094FF00008144A136943F00103136186
:10257C004FEA0814C4F12002A4F1200305FA02F278
:10258C0027FA04F4144325FA03F31C43A4B24CF2C7
:10259C00503026F818400BF02FF828B908F1010834
:1025AC005FFA88F39945E3D8034A136923F00103D2
:1025BC001361BDE8F88300BF002002407FB5012302
:1025CC000022CDE9040301A902A8CDE902230BF0F6
:1025DC004FF800280CBF0420052007B05DF804FB61
:1025EC000A4608B5014600230220FFF7A5FF002884
:1025FC000CBF0420052008BD08B5FFF7DFFF031F43
:10260C005842584108BD08B5FFF7EAFF031F58426E
:10261C00584108BD2DE9F047264B274D01280FBF27
:10262C007D267C26AA461D460F4614462349244A7D
:10263C0006BF89469A4691460AF0C2FF31462846A3
:10264C00FFF7DAFF28B900240AF0CCFF2046BDE8DA
:10265C00F087002F08BF4FF478744FF00008033454
:10266C00C4F38F0405F11006AAEB050A1FFA88F3D0
:10267C009C4209D84FF011312846FFF7C4FF041EC5
:10268C0018BF0124A400DFE73FB95AF806104B1C11
:10269C0006D108F101080436E8E757F82810F6E7E8
:1026AC004E4505D23046FFF7AEFF0028F1D1CAE700
:1026BC000324C9E700F0010800F40108FFF7010842
:1026CC00FFF3010810B50AF07BFF7C210848FFF7E7
:1026DC0093FF044638B17D210648FFF78DFF041E99
:1026EC0018BF0124A4000AF07DFF204610BD00BFD6
:1026FC0000F0010800F4010830B5002340F2EF347B
:10270C00064D9AB2914201D8042030BDA34203D0A9
:10271C005A5DC2540133F4E70320F6E710F00108C8
:10272C0038B504460D4672B60A4601460020FFF73E
:10273C0071FF62B6042806D172B601202A462146E2
:10274C00FFF768FF62B638BD38B5124B1C68D3F87A
:10275C000054B4F1113F09D1B5F1113F17D000224B
:10276C0001201146BDE83840FFF754BFB5F1113FC9
:10277C0003D1002211461046F4E7FFF7A3FF04280B
:10278C0004D12C4001340CBF0220012038BD0420A0
:10279C00FCE700BF00F00108034B18739A68D207DE
:1027AC00FCD5187B704700BF0030014038B5441E83
:1027BC008D18A94200D138BD14F8010FFFF7ECFFBA
:1027CC0001F8010BF5E7084611461A46FFF7EEBF74
:1027DC0038B50446054D0144A14200D138BD2878D6
:1027EC00FFF7DAFF04F8010BF6E700BF60020020E8
:1027FC0008461146FFF7ECBF10B5044601448C4265
:10280C0000D110BD14F8010BFFF7C6FFF7E708461F
:10281C001146FFF7F1BF0000F0B506250126102781
:10282C008DB0294C2822002102A80DF0D9FBFFF70E
:10283C0020FC4FF48050FEF7A5FE41F2100120461B
:10284C0003230622FFF7AFFC2046276103230A224D
:10285C0042F22001CDE90056FFF750FC204603233D
:10286C000A2248F28001CDE90056FFF747FC03230A
:10287C0020461A4644F24001CDE90056FFF73EFCD3
:10288C0000234FF48272CDE90533CDE9093302936D
:10289C00039204934FF40072072304F5205420464E
:1028AC0002A90B93089707920BF0F1FA236843F0F7
:1028BC0040032360A3689B07FCD5FF22237B034BBB
:1028CC001A700DB0F0BD00BF00080140600200207E
:1028DC001C4B10B41A68940611D5D96888060ED50D
:1028EC00194C1A485968238800880133C3F30A032A
:1028FC0080B298421FBF1648C9B2C1542380110739
:10290C0044BF104B5B68120616D50E48C3681B06F5
:10291C0012D5104B104A1988138889B29BB2994270
:10292C000CD013880133C3F30803138013880B4AAC
:10293C009BB2D35CDBB2436010BC704710BCFEF79B
:10294C0063BE00BF00440040D83B0020D63B0020B3
:10295C00D6330020DC3D0020DA3D0020DA3B00209D
:10296C000A490B4A08B50B8812880133C3F30803D4
:10297C0092B29A4207D0074AD05407480B80FEF710
:10298C001CFE012008BD0020FCE700BFDC3D002040
:10299C00DA3D0020DA3B00200044004038B5044604
:1029AC004518AC4200D138BD14F8010BFFF7D8FF25
:1029BC00F7E708461146FFF7F1BF0000054B064A42
:1029CC001B8810880133C3F3080380B2181A18BF90
:1029DC0001207047DC3D0020DA3D002008B5FFF7F0
:1029EC00EDFFB0FA80F0400908BD0000054B064A27
:1029FC001B8812889B1A98B21B0444BF00F5006018
:102A0C0080B27047D83B0020D63B0020FFF7EEBFCA
:102A1C000848094A0188138889B29BB29942F9D0B7
:102A2C0013880133C3F30A0313801388034A9BB240
:102A3C00D05C7047D83B0020D63B0020D63300201A
:102A4C00FFF7E6BF002300B589B0CDE90633CB1AFA
:102A5C0018BF01231B03CDE902320C230190049112
:102A6C00034801A905930BF071FB09B05DF804FB59
:102A7C000044004010B5064CE36823F40053E360B7
:102A8C00FFF7E0FFE36843F40053E36010BD00BFC1
:102A9C0000440040002208461146FFF7EBBF00003F
:102AAC00F7B5082601272F4C2F4DE36840F204415F
:102ABC0023F40053E360FFF7DCFA4FF40030FEF729
:102ACC0053FD284603230A22CDE90067FFF716FBC6
:102ADC00032328461A4640F60801CDE90067FFF7A4
:102AEC000DFB00224FF4E1301146FFF7ABFFB02293
:102AFC00236923F490432361636923F02A03636100
:102B0C001A4B83F8262340225A602046FEF77CFDA0
:102B1C00FEF76DFD6FF0400323600024144B1C8006
:102B2C00144B1C80FEF756FD6FF020030360124B14
:102B3C001C80124B1C80036923F4006303614369FE
:102B4C0023F008034361036923F480430361436961
:102B5C0023F022034361C36843F40053C36003B002
:102B6C00F0BD00BF004400400008014000E100E05F
:102B7C00DA3D0020DC3D0020D63B0020D83B002075
:102B8C0008B5FFF78DFF6FF020030348036043681F
:102B9C00BDE80840FEF704BD00440040FFF7F0BF5D
:102BAC001C4B10B41A68940611D5D96888060ED53A
:102BBC00194C1A485968238800880133C3F3080359
:102BCC0080B298421FBF1648C9B2C1542380110766
:102BDC0044BF104B5B68120616D50E48C3681B0623
:102BEC0012D5104B104A1988138889B29BB299429E
:102BFC000CD013880133C3F30803138013880B4ADA
:102C0C009BB2D35CDBB2436010BC704710BCFEF7C8
:102C1C00FBBC00BF00380140E03F0020DE3F00203D
:102C2C00DE3D0020E4410020E2410020E23F002094
:102C3C000A490B4A08B50B8812880133C3F3080301
:102C4C0092B29A4207D0074AD05407480B80FEF73D
:102C5C00B4FC012008BD0020FCE700BFE4410020CB
:102C6C00E2410020E23F00200038014038B5044624
:102C7C004518AC4200D138BD14F8010BFFF7D8FF52
:102C8C00F7E708461146FFF7F1BF0000054B064A6F
:102C9C001B8810880133C3F3080380B2181A18BFBD
:102CAC0001207047E4410020E241002008B5FFF705
:102CBC00EDFFB0FA80F0400908BD00000848094A51
:102CCC000188138889B29BB29942F9D013880133D9
:102CDC00C3F3080313801388034A9BB2D05C70477C
:102CEC00E03F0020DE3F0020DE3D0020FFF7E6BF86
:102CFC00002300B589B0CDE90633CB1A18BF0123E8
:102D0C001B03CDE902320C2301900491034801A965
:102D1C0005930BF01BFA09B05DF804FB0038014079
:102D2C00F7B5082601272E4C2E4DE3682E4923F4C7
:102D3C000053E360FFF79DF94FF48040FEF722FC4F
:102D4C00284603230A22CDE90067FFF7D7F90323AE
:102D5C0028461A46CDE900672449FFF7CFF900222F
:102D6C004FF4E1301146FFF7C3FFB022236923F47F
:102D7C0090432361636923F02A0363611C4B83F83E
:102D8C00252320225A602046FEF73EFCFEF72FFC3E
:102D9C006FF0400323600024164B1C80164B1C80E4
:102DAC00FEF718FC6FF020030360144B1C80144BCF
:102DBC001C80036923F400630361436923F0080357
:102DCC004361036923F480430361436923F02203C5
:102DDC004361C36843F40053C36003B0F0BD00BF4C
:102DEC000038014000080140020002040400040401
:102DFC0000E100E0E2410020E4410020DE3F002041
:102E0C00E03F002008B5FFF78BFF6FF0200303486D
:102E1C0003604368BDE80840FEF7C2BB00380140C0
:102E2C00FFF7F0BF024B1A68024B1A60704700BFE5
:102E3C00F4410020CC0A0020054A064B196813689F
:102E4C0099421DBF0133012013600020704700BF61
:102E5C00CC0A0020F4410020034A044B11681B7873
:102E6C000B441360704700BFF44100207002002037
:102E7C00014B1868704700BFF44100200148FFF770
:102E8C00F8B900BF00040040014B586A80B270478B
:102E9C000004004008B5FFF7F1FFBDE80840FFF75C
:102EAC00C1BF000038B51B4C94220021201D0DF031
:102EBC0097F8012323800F23174D052229466380A1
:102ECC00A380A01D2C23FDF76BFF4FF4A023134A06
:102EDC002946C4E90D23124B0522E36304F140009B
:102EEC002C23FDF75DFF0223A4F86E304FF48033E2
:102EFC00236700230B4904F18000C4E91E3384F8D6
:102F0C0074300DF0CDF87F2384F89530052384F8C8
:102F1C00963038BD040500208015010802000B0016
:102F2C00FFFF0F00CC02010870B5094E05460C4698
:102F3C00415C30460DF06BF8034628B1831B01331E
:102F4C00DBB2282B28BF0023F35C2B5570BD00BFD0
:102F5C00741C010870B50D461146044616460DF05A
:102F6C009FF82DB3013D082D08D8DFE805F00511B9
:102F7C00131517191B1D1F003523637162797379A3
:102F8C009A4215D12046BDE870400521FFF7CCBF11
:102F9C006123F2E76623F0E76B23EEE77023ECE79F
:102FAC007523EAE77A23E8E73123E6E73223E4E7FF
:102FBC0070BD000073B5054605F11106214C0146A4
:102FCC00214A68463601FFF7C5FFB01C694620440C
:102FDC000DF066F8002304EB051226447372A2F878
:102FEC001A311422032102FB0540022601224FF460
:102FFC00807580F8501040F20111A0F84A60C2644C
:10300C00A0F8522080F85520A0F85650A0F858107F
:10301C0040F2032084F83430E684A562A08584F85D
:10302C002E2084F8302084F83330C4F83A30C4F8B9
:10303C003E30C4F84230A4F84610A4F8481002B050
:10304C0070BD00BF480300208C020108F7B505468F
:10305C0005F111060146AD4AAD4C68463701FFF744
:10306C0079FFB81C694620442744FDF795FD7B7A0F
:10307C00A84A052B88BF002304EB061088BF7B727F
:10308C001188437A41FA03F313F001030DD1437213
:10309C0059B111F0010308D141FA03F7FF07D8B277
:1030AC0040F1D08104EB0613587204EB051191F832
:1030BC001A012B01052802D9002081F81A01E71802
:1030CC00508897F81A1140FA01F111F001010FD153
:1030DC0087F81A1160B110F0010109D140FA01FC16
:1030EC001CF0010FCFB200F0B281E11881F81A7117
:1030FC00E11891F81B01032802D9002081F81B016B
:10310C0004EB0616717A012903D9042901D0002198
:10311C009180E618908896F81B1140FA01F111F095
:10312C0001010ED186F81B1158B110F0010108D124
:10313C0040FA01F7FF07CEB240F18E81234483F8A9
:10314C001B61142303FB054191F84A00042802D9A2
:10315C00022081F84A0003FB054393F84B10042925
:10316C0002D9002183F84B10142303FB0543918EE5
:10317C0093F84B0041FA00F0C00712D4012083F8F9
:10318C004B0071B18807C1F340030AD441FA03F62E
:10319C00F707D8B240F16581142303FB054383F88C
:1031AC004B00142303FB054393F84C10032902D95D
:1031BC00012183F84C10142000FB0540D18E90F8AF
:1031CC004C3041FA03F313F0010310D180F84C306A
:1031DC0069B111F001030AD141FA03F6F607D8B22E
:1031EC0040F14481142303FB054383F84C00142362
:1031FC0003FB054393F84E10012902D9002183F8F3
:10320C004E10142000FB0540118F90F84E3041FAFF
:10321C0003F313F0010310D180F84E3069B111F0B3
:10322C0001030AD141FA03F6F707D8B240F1238122
:10323C00142303FB054383F84E00142303FB0543BF
:10324C0093F84F10022902D9002183F84F10142053
:10325C0000FB0540518F90F84F3041FA03F313F007
:10326C00010310D180F84F3069B111F001030AD17C
:10327C0041FA03F6F607D8B240F10281142303FB9E
:10328C00054383F84F00142303FB054191F84D00CF
:10329C00022802D9002081F84D0003FB054393F866
:1032AC005010052902D9032183F85010142303FB75
:1032BC00054191F85200012802D9012081F85200F1
:1032CC0003FB054393F85510012902D9012183F81A
:1032DC005510142303FB054393F85310022902D90C
:1032EC00002183F85310142000FB0540918F90F8B7
:1032FC00533041FA03F313F0010318D180F8533023
:10330C00A9B111F0010312D106E000BF8C02010833
:10331C00480300200405002041FA03F6F707D8B251
:10332C0040F1B380142303FB054383F853001423AB
:10333C0003FB054191F856000C2802D9002081F8B6
:10334C00560003FB054393F84C10012906D193F862
:10335C004F10022904BF002183F84F1014230121C0
:10336C0003FB054383F8571040F20111A3F85810E2
:10337C0094F82630042B02D9022384F8263094F8D2
:10338C002730042B02D9002384F82730B2F86E00C2
:10339C0094F8273040FA03F313F0010F804B0ED151
:1033AC00012184F8271050B18607C0F3400106D4E0
:1033BC0040FA01F7FF07CEB26CD583F8276094F87A
:1033CC002810022902D9002184F8281094F8291019
:1033DC00022902D9012184F82910B2F8701094F84E
:1033EC00292041FA02F212F001020CD184F82920B2
:1033FC0049B111F0010206D141FA02F6F607D0B23A
:10340C004CD583F8290094F82A200C2A02D90022E2
:10341C0084F82A2093F832200C2A02D9002283F84F
:10342C00322093F82B20042A02D9002283F82B2077
:10343C00002210465B4911F9014F14F1780F31DA73
:10344C00087031E00133102B7FF426AE2DE60131EC
:10345C0010297FF443AE4BE6013110297FF468AE9E
:10346C006FE60133102B7FF491AE9AE60133102BEB
:10347C007FF4B2AEBBE60133102B7FF4D3AEDCE6A7
:10348C000133102B7FF4F4AEFDE60133102B7FF4E7
:10349C0043AF4CE7013110298AD190E70132102A51
:1034AC00AAD1B0E7782CCBDC0132D2B20C2AC2D133
:1034BC00002201203C4911F8014F0132022CD2B2FA
:1034CC0088BF0870042AF6D193F83420012A02D957
:1034DC00002283F83420354AB2F8721093F8342065
:1034EC0041FA02F212F001020CD183F8342049B1F6
:1034FC0011F0010206D141FA02F4E407D0B211D561
:10350C0083F8340093F82C20052A02D9032283F87F
:10351C002C2093F82D20032A08D80AD1002283F8F6
:10352C00342006E00132102AE5D1EBE7022283F8C1
:10353C002D2093F82E20022A02D9012283F82E2066
:10354C0093F83020022A02D9012283F8302093F814
:10355C0033200C2A02D9002283F833201421FF22B5
:10356C0001FB05314FF6FF7081F8512081F8542092
:10357C0083F82F2083F831204FF0FF3203EB051531
:10358C00C5F81C21A5F820011A629A84A1F85A20CA
:10359C00A1F85C2083F83500DA861A8703B0F0BDF9
:1035AC0048030020810300208D0300200405002027
:1035BC0030B5052804D8DFE800F01E0423191E23BB
:1035CC00FEE7024620251F240F21104B987003386C
:1035DC00012894BF002001201A7119771A74A3F8DE
:1035EC004850A3F84A409873987630BD09256F244B
:1035FC0000220721E9E71425322400220A21E4E7FE
:10360C003525132402221921DFE700BFEC0200202C
:10361C002DE9F74300F111058A4E2D0105F1020940
:10362C00B14407464846FDF7D3FA04218046864C40
:10363C0001900DEB0100FEF719F8C4F80880C4F8EE
:10364C0014804FF0010835446B7AE083637006EB0D
:10365C00071393F81A0184F85180A4F85280A4F847
:10366C005480FFF7A5FF142303FB076393F84A204C
:10367C00764B3D0113F92230237323766378052BA7
:10368C0009D8DFE803F0030656585A5C002363732D
:10369C0001E084F80D806E4B617B1B88617603F032
:1036AC000102980748BF42F00202A2855A0748BFA0
:1036BC00A28D84F8281044BF42F00402A28518079A
:1036CC0042BFA28D42F01002A285DA0642BFA28D43
:1036DC0042F02002A285980642BFA38D43F0080356
:1036EC00A385002384F82A3021B94846FDF790FAC7
:1036FC0084F82A00354495F81B2184F829206AB1F6
:10370C00E18B02EB021303EB03230B444FF011315B
:10371C00E383A36801FB0233A3606361E38B94F83A
:10372C0028506362052D0CD8DFE805F00C515315B9
:10373C0047490223ABE70423A9E70523A7E70323A3
:10374C00A5E7FEE7A378032B03D8DFE803F00346D5
:10375C004403FEE71825DFF8FCC084F820501CE970
:10376C000F008CE80F0040F2E2432846A4F84C30DE
:10377C00FCF7B2FD4FF07F51FCF702FEFDF702F8AB
:10378C004FF47A73B4F848206D08B3FBF2F3A4F845
:10379C0040301423052D38BF052503FB076393F830
:1037AC005030C0B2A4F84E0084F85050052B3DD8D0
:1037BC00DFE803F0154236393C3F0225CBE7A3780E
:1037CC00022B08D0052B06D0012B06D0FEE71925BD
:1037DC00C1E70625BFE70C25BDE71225BBE74FF473
:1037EC0016536364002384F8563084F8583014233D
:1037FC0003FB076696F84C30032B03D096F84F204A
:10380C00022A02D1012284F85620591E4A424A410A
:10381C0084F8572094F856208AB1012B0FD1FEE77B
:10382C004FF41643DDE74FF46143DAE74FF4E1332D
:10383C00D7E74FF46133D4E74FF49643D1E703B0A5
:10384C00BDE8F08348030020EC020020801501083D
:10385C00040500201C0300204FF4DE72FF210148F8
:10386C000CF0BEBB480300204FF4DE710148FEF79C
:10387C0057BF00BF480300204FF4DE710148FEF72C
:10388C003BBF00BF4803002008B5FFF7F5FF034B13
:10389C001878BDE80840FFF7D9BB00BFEC02002048
:1038AC0038B5FFF7D9FFFEF74FFF04280CD0FFF710
:1038BC00D3FFFEF749FF042803D1FFF7DDFF0428EF
:1038CC0006D0FFF7C9FF03E0FFF7D6FF0428EED1BF
:1038DC0010222F492F480CF0A7FB2E4C38B1102288
:1038EC0020462D490CF0A0FB08B1FFF7B5FFA38AC9
:1038FC00B3F5215F28D008D30025E8B20135FFF7D6
:10390C0059FB0A2DF9D10023E3774FF421530125FC
:10391C00A38242F6430322691D499A421D484FF087
:10392C0010021CBF012523610CF07EFB70B110222C
:10393C0017491848FDF7B2FA082218491848FDF73C
:10394C00ADFAFFF791FF03E00025E2E7002DF8D177
:10395C00E37F1420092B84BF0023E3770023E17F4E
:10396C000C4A00FB014494F84C0001330A2B82F8FA
:10397C004C0002F11402F6D10A4C2170FFF792FAB6
:10398C002078FFF763FB2078BDE83840FFF740BE96
:10399C009302010848030020A4020108B5020108A3
:1039AC00FA040020EC02002010B5C01A9DF8084063
:1039BC00123080F30500A042C8BF20B2C0B2123B47
:1039CC0008701844107010BD07B5084611461A4609
:1039DC00122300931B23FFF7E7FF03B05DF804FBF2
:1039EC000229F7B5054600D9FEE70B4E0F0106EB91
:1039FC000114A3786278F15DC4600AF0D7FEE37914
:103A0C0028460193A37922790093E17863790AF02F
:103A1C00F6FE03B0F0BD00BFA032010838B58368D4
:103A2C0004466BB1024652F8143BDD6900F11503F4
:103A3C00A8472046217D2022BDE838400AF03ABF35
:103A4C0038BD00007FB58D7A0446816075B30121C5
:103A5C000AF082FE012120460AF09BFF012120463C
:103A6C000AF0B1FFA368204693F90810FFF7D6FFC0
:103A7C00A36820461978FFF7B3FF002220461146B1
:103A8C000AF087FE002344F20302204600934FF60F
:103A9C00FF710AF0D0FE20464FF6FF710AF0F2FEDD
:103AAC00204604B0BDE870400AF07FBF03210AF045
:103ABC0053FE204601210AF06CFF204601210AF03A
:103ACC0082FFA368204693F90810FFF7A7FFA368AD
:103ADC002A465E680C4B20462361862110230AF08F
:103AEC0097FF46F6E823CDE902535B232046CDE948
:103AFC0000530422102370210AF099FF2A46314604
:103B0C0020460AF0BEFFB8E78C32010810B5044617
:103B1C000AF04BFF2046BDE810404FF6FF710AF04B
:103B2C00B1BE000038B5044603688168DD6900F158
:103B3C00140200F1150391F90810A847A3689A7AAA
:103B4C0042B11A78022A00D9FEE7044B03EB0213A8
:103B5C00E36038BD024B2361FBE700BFA0320108D4
:103B6C008C32010810B50A4CA06858B1E36823B92F
:103B7C00236913B92046FFF7D5FFA3689B7A23B1BD
:103B8C00E3689868A0F57A7010BD2369D868F9E7E6
:103B9C00D4300020836810B5044683B1C3681BB9C8
:103BAC0003690BB9FFF7BEFFA3689B7A1BB1E368EF
:103BBC00B3F90C0010BD2369B3F91000FAE71846ED
:103BCC00F8E7836810B5044643B1C3681BB90369B1
:103BDC000BB9FFF7A7FF94F9150010BD1846FCE7C9
:103BEC0090F8D8305BB190F8D930074A180102EB45
:103BFC0003139B681978135853F821007047837D81
:103C0C000E3350F823007047201501082DE9F341BD
:103C1C000446164688469DF824705B22402F4FF0D0
:103C2C0000011D4628BF40270CF0DAF9904BDB8BC6
:103C3C0023803278A37862F30203A3707178DBB22D
:103C4C00C90001F0080103F0070341EA0811194308
:103C5C00A1707279E37862F30003E370B27963794F
:103C6C0062F38613637196F90200FCF7C2FEE378E7
:103C7C0060F34703E370F279237962F30003237155
:103C8C00327A62F3460323713279DBB202F001021D
:103C9C0003F07F0343EAC213237132796379C2F3D1
:103CAC00450223F03F0313436371A37967F3470382
:103CBC00A3712B78AA78E3716B7802F01F0203F0E2
:103CCC00070343EAC20323726A88637AC2F345127C
:103CDC0023F03F03134363722A79DBB202F0030231
:103CEC0003F03F0343EA82136372AB88C3F3870389
:103CFC00A3726A79E37AC2F3800223F001031343BF
:103D0C00E372AA79DBB202F07F0203F0010343EA0B
:103D1C004203E372EA88237BC2F3C31223F00F033E
:103D2C00134323732B7AAA7AE3736B7A02F01F0284
:103D3C0003F0070343EAC20323746A89637CC2F36A
:103D4C00451223F03F03134363742A7BDBB202F06A
:103D5C00030203F03F0343EA82136374AB89C3F39A
:103D6C008703A3746A7BE37CC2F3800223F0010314
:103D7C001343E374AA7BDBB202F07F0203F001036E
:103D8C0043EA4203E374EA89237DC2F3C31223F0AE
:103D9C000F03134323752B8ADB0863756B8ADB08CF
:103DAC00A375AB8ADB08E375EB8ADB0823762B8BD8
:103DBC00B3F5C06F4ED2B3F5007F94BF002301233F
:103DCC00227B63F3051222736B8BB3F5C06F43D266
:103DDC00B3F5007F94BF00230123227B63F387128A
:103DEC002273AB8BB3F5C06F38D2B3F5007F94BFA1
:103DFC0000230123227D63F305122275EB8BB3F5AF
:103E0C00C06F2DD2B3F5007F94BF00230123227D18
:103E1C0063F38712089B22751F4404F11802BB42FE
:103E2C0020D14FF6FF7321460DF106000D22ADF89F
:103E3C000630FDF703FC2146BDF806304C2221F874
:103E4C000D3FFDF7FBFBBDF80630A4F8593002B06E
:103E5C00BDE8F0810223B3E70223BEE70223C9E7E2
:103E6C000223D4E713F8011B02F8011FD7E700BFA8
:103E7C00EC02002013B59DF81040CDE90034134638
:103E8C000A460021FFF7C2FE02B010BD13B5144B59
:103E9C000288DB8B04469A421DD1837803F0F00331
:103EAC00102B01D0202B18D1A379A52B15D84FF6A8
:103EBC00FF730DF1060059222146ADF80630FDF7CF
:103ECC00BDFBB4F85900BDF80630C01A18BF01206C
:103EDC00800002B010BD0120FBE70220F9E700BF13
:103EEC00EC02002030B5374B027893F8261000F125
:103EFC00160461F30302027093F8271061F30712A2
:103F0C00027093F82810427861F30302427093F820
:103F1C00291061F30712427093F82A10827861F32A
:103F2C000302827093F83210827961F3030282717A
:103F3C0093F82B10827861F30712827093F8341087
:103F4C00C27961F30302C27193F82C10C27861F349
:103F5C000302C27093F82D1061F30712C27093F82C
:103F6C002E10027961F303020271427993F830103A
:103F7C0061F30302427193F83310827961F30712F3
:103F8C00827103F1390100F10A0211F9015F02F8A3
:103F9C00015FA242F9D193F84610C27D61F3010290
:103FAC00C27593F8471061F38302C27593F84810F9
:103FBC0061F30512C27593F8493063F38712C27529
:103FCC0030BD00BF480300200278314BC2F303021E
:103FDC0030B583F82620027803F13901C2F30312BD
:103FEC0083F82720427800F11604C2F3030283F809
:103FFC0028204278C2F3031283F829208278C2F376
:10400C00030283F82A208279C2F3030283F8322058
:10401C008278C2F3031283F82B20C279C2F3030215
:10402C0083F83420C278C2F3030283F82C20C278C0
:10403C00C2F3031283F82D200279C2F3030283F832
:10404C002E204279C2F3030283F830208279C2F326
:10405C00031283F8332000F10A0212F9015FA24225
:10406C0001F8015FF9D1C27DC2F3010283F8462049
:10407C00C27DC2F3810283F84720C27DC2F30112D4
:10408C0083F84820C27DC2F3811283F8492030BDE9
:10409C00480300201FB58DF80C300123019303ABAE
:1040AC00009313460A460221FFF7B0FD05B05DF8F8
:1040BC0004FB00000123F0B5214D044685F8743053
:1040CC0085B0B0F80900FCF790FEA867B4F80B00B7
:1040DC00FCF78BFE6E461422E86704F10D0105F126
:1040EC008000FCF7EDFE94F9213004F1230085F8F3
:1040FC00953094F8223004F1510785F89630FFF78B
:10410C0063FF04F14103324618685968083303C24F
:10411C00BB421646F7D12C23082269460948FCF706
:10412C00C1FD94F85130A5F86E3094F85230A5F8D2
:10413C00703094F85330A5F8723005B0F0BD00BF64
:10414C0004050020440500202DE9F0474FF04009FC
:10415C0092B00DF1080805460E46174600214A4656
:10416C0040460BF03DFF2223DFF874A01D4C9AF85B
:10417C0000100DF10A0004EB0111062201F5897102
:10418C008DF80830FCF78AFE9AF8001005A804EBAD
:10419C00011292F81A3192F8194103F00F0304F04E
:1041AC000F0444EA031492F81B3103F00F0344EAA2
:1041BC000324BDF8103023F47F6323F00F031C435A
:1041CC00ADF81040FFF78EFE3B46324602212846E2
:1041DC00CDE90089FFF71AFD12B0BDE8F08700BFEA
:1041EC00EC02002048030020034B04491A680448E1
:1041FC0001FB020018607047DC0500200D661900F9
:10420C005FF36E3C38B50A4A0A4D13782C78A342FA
:10421C0003D101332B70287838BD1470FFF7E4FFFD
:10422C006FF0004398423CBF01342C70F3E700BFA1
:10423C00D9050020DA05002000230A4A8380126881
:10424C0083718260084A8381038413680361536815
:10425C00064A4361136883615368C3614EF6602359
:10426C0003607047F4410020BB020108C40201083E
:10427C0010B5124C0220FFF79BF92046FFF746FCC5
:10428C006FF07F012046FFF7C9FBA36803B9FEE777
:10429C00002120460AF049FA4FF47A70FEF738F9FB
:1042AC00204601210AF058FAA36820461978FFF736
:1042BC0097FB2046FFF72AFC10BD00BFD43000202E
:1042CC0090F8203013B980F82130704790F82130E5
:1042DC00013B5BB2002B80F82130DCBF002380F85F
:1042EC0020307047134B90F820201B68CAB18268AD
:1042FC009B1AB3F57A6F01D9012343710379ABB1E2
:10430C000D4B427B1B781AB1022B1CBF032202738C
:10431C009A1E534253414373837953B1032303735E
:10432C0070478360EAE701230371F8E74379002BB8
:10433C00F9D17047F4410020B90600200346007BF8
:10434C00821E012A4FF0000202D893F8201009B9FE
:10435C001A7370471046704770B505461A4C5B22AD
:10436C00002120460BF03CFE2B69184E23606B6934
:10437C0031786360164B174D1B7805EB01119A1EB3
:10438C0053425341627A01F5897163F30002627200
:10439C0004F10A000622FCF781FD3378592105EB64
:1043AC00031595F81A21237C204662F30713237416
:1043BC0095F81B21637C62F303036374FDF756F9D4
:1043CC00A4F8590070BD00BF15310020EC0200208C
:1043DC00B9060020480300200A4A38B51388044661
:1043EC0001339BB2502B0D4601D8138038BD0023EE
:1043FC0005491380FDF72BFE29462046FDF727FEC5
:10440C00F4E700BFD00A0020060401082DE9F74F9D
:10441C001646054688466D49FDF719FE3146284675
:10442C00FDF715FE00226A4BB8F1010F694C1A809A
:10443C0011D14FF400434FF48047636146F2A8104A
:10444C002761FEF765F86761FEF762F8314628468A
:10445C00FFF7C2FFF2E7A8F102034FF480420C2BE6
:10446C0000F2A780DFE803F03141531C07A5A5A596
:10447C006363636363004FF480484FF4004746F274
:10448C00A810C4F810806761FEF742F8C4F81480D5
:10449C002761FEF73DF831462846FFF79DFFEEE712
:1044AC004FF480484FF4004746F2A810C4F810802F
:1044BC002761FEF72DF8C4F814806761FEF728F821
:1044CC0031462846FFF788FFEEE74FF4004762615C
:1044DC0046F2A8102761FEF71BF86761FEF718F883
:1044EC0031462846FFF778FFF2E74FF400434FF4CC
:1044FC008047236146F2A8102761FEF709F867612F
:10450C00FEF706F831462846FFF766FFF2E74FF450
:10451C000047226146F2A8102761FDF7F9FF676199
:10452C00FDF7F6FF31462846FFF756FFF2E7002766
:10453C004FF4004B4FF48049A8F1090A5FFA8AFA4C
:10454C000423574538BFC4F810B0019346F2A810A5
:10455C00C4F81090FDF7DCFFC4F81490FDF7D8FFF9
:10456C0031462846FFF738FF019B013B13F0FF0350
:10457C00EBD10423C4F814B0019346F2A810C4F88C
:10458C001090FDF7C5FFC4F81490FDF7C1FF31463C
:10459C002846FFF721FF019B013B13F0FF03EBD1F2
:1045AC000137A8F10803FFB2DBB2BB4238BF0027CA
:1045BC00C6E74FF40043226123614CF25030FDF703
:1045CC00A7FF31462846FFF707FFF6E70604010868
:1045DC00D00A0020001001406FF001024FF0804320
:1045EC0008491A610A88013A92B20A800A8892B282
:1045FC003AB9DA6822F00102DA601A6822F0010294
:10460C001A607047160600204FF080436FF00102CD
:10461C001A61DA6822F00102DA601A6822F00102EB
:10462C001A60704700B589B0FFF7EEFF40F2022127
:10463C0001230A221648FDF7B6FD00224FF47A71C9
:10464C004FF08040FDF7BAFD0023CDE90133039311
:10465C006023022200934FF480730492CDE905236A
:10466C0010216A464FF08040079309F075FC4FF01B
:10467C008042936923F480639361E022054B83F8B5
:10468C001C234FF080521A6009B05DF804FB00BF88
:10469C000008014000E100E0084BB3FBF1F14FF0E2
:1046AC008043D962490899631A6842F001021A6082
:1046BC001A6A42F010021A62704700BF40420F00A3
:1046CC000E484FF08043B0FBF1F051434FF47A7237
:1046DC00B1FBF2F10A4AD86289B2400898631180A2
:1046EC001A6842F001021A601A6A42F010021A6249
:1046FC00DA6842F00102DA60704700BF40420F00F6
:10470C001606002019B94FF4FA71FFF7C5BF182926
:10471C0005D84FF4FA724FF4FA71FFF7D1BF4A295A
:10472C0001D8FA22F7E7632901D83222F3E7FFF721
:10473C006BBF4FF08043186800F00100704710B554
:10474C000446FFF7F6FF38B92046BDE81040282292
:10475C004FF4FA71FFF7B4BF10BD10B5044694F9CD
:10476C00013008468B4201D1237823B901232370F1
:10477C00FDF7A8FE607010BD08B5437802789A4228
:10478C0013D0042B8ABF042303700370027888BFF4
:10479C004370064B064813F92210064B1973197611
:1047AC00836813B11972FFF739F908BD8015010838
:1047BC00D4300020EC02002010B50AB9437010BDB3
:1047CC00541E0B2CFBD80332D2B231F8122040F21B
:1047DC007E618A4207D95AB222EAE2729A42C8BF73
:1047EC005AB24270EBE7B2F5C17F02D29A1E52B2B6
:1047FC00F2E740F2D4418A4204D95AB2032A06DCC9
:10480C00DA1EF4E7B2F54B7F03D35A1EEFE7012211
:10481C00E4E70022E2E7000037B50C461D4668B914
:10482C0007480DF106020DF107010AF0A2F82B461C
:10483C0022469DF80610024809F051FF03B030BD26
:10484C00D430002070B50D4616461C460146B0B952
:10485C00FDF7A8FD0C4833462A4609F019FF4FF620
:10486C00FF7109480AF00EF822010748012192B2A3
:10487C000AF030F8BDE870407D20FDF749BE0248D3
:10488C00FFF744F970BD00BFD430002037B50C469B
:10489C0038B91548836833B9812281F88E3081F894
:1048AC008C2003B030BD9D7A95B101F18E020DF1D3
:1048BC0006010AF039F8BDF90630002B0FDB4FF674
:1048CC00FF73ADF80630BDF8063084F88C30E8E79D
:1048DC000DF106010AF00BF984F88E50EBE77F33EB
:1048EC00F1DA4FF68173ECE7D430002070B50D4649
:1048FC000646104C5B23224621462846FFF78CFFC8
:10490C00D6E90613206862689A4208BF88420ED125
:10491C0020465921FCF7AAFEB4F85940231A5C42F0
:10492C005C4128460449FFF7B1FF601C70BD0024B0
:10493C00F7E700BF1A2F00202C3000200A4608B5DC
:10494C0001460148FFF762FD2C000020164600B519
:10495C0091B0044668461D460BF0A2FB1849684608
:10496C000BF046FB304609F0C1FD014668460BF0E2
:10497C003FFB144968460BF03BFB134B684653F85E
:10498C0025100BF035FB114968460BF031FB104D2F
:10499C009DF84830684655F823100BF029FB0D495B
:1049AC0068460BF025FB9DF84C30684655F82310F3
:1049BC000BF01EFB6A4621460748FFF727FD00BF98
:1049CC00CD020108D402010800000020D902010820
:1049DC001C000020E00201082C00002000230370C2
:1049EC008370437003714371C37070470022037866
:1049FC004271022B04D0032B09D0012B16D0FEE7F9
:104A0C0001230371437183784370C37070478378BB
:104A1C004278991AA3EB020218BF012112F0060F7B
:104A2C0014BF0122002201714271EDE7027170473F
:104A3C0002788170002A0CBF022203220270FFF759
:104A4C00D5BF00002822074B02FB00339B681A7865
:104A5C00542A05D15878A0F1780358425841704730
:104A6C0000207047941501082822074B02FB0033E5
:104A7C009B681A78522A05D15878A0F178035842CD
:104A8C005841704700207047941501082822074BA5
:104A9C0002FB00339B681A78542A04D15878783872
:104AAC0018BF012070470120704700BF9415010802
:104ABC00282343430A4A10B5D1580446FFF7D4FFC4
:104ACC0040B92046FFF7BEFF064B1B7820B11422DD
:104ADC0002FB0311084610BD01EB0311FAE700BFFE
:104AEC0094150108EC0200202B2838B505461AD87D
:104AFC0028220E4B4CB202FB00331B79022B0DD03B
:104B0C00FE2B10D1FFF7D4FF0378E4B2A3420AD0F6
:104B1C0004702846BDE83840FFF7B8BFFFF7C8FF60
:104B2C0090F90030F2E7002038BD00BF9415010861
:104B3C002B2838B504460D4619D828220D4B02FBFC
:104B4C0000331B79FF2B12D1FFF7B2FF0622294647
:104B5C00FCF7C9F958B92046FFF7AAFF29460622E7
:104B6C00FCF7AEF92046BDE83840FFF78FBF0020B8
:104B7C0038BD00BF941501082DE9F04307462820E5
:104B8C0041431546394A012B02EB0100046A87B0F8
:104B9C0025D15258364B9A4235D0A3F1CE018A42D8
:104BAC0033D03449F23B9A4208BF0C46FF234FF0F6
:104BBC00000801268DF800302046FBF7CBFA5FFA8F
:104BCC0088F9484529D806F118036B44AE4203F81E
:104BDC00188C30D80020387007B0BDE8F083022B59
:104BEC00E4D15258224B9A4211D0591C8A4210D00F
:104BFC00A3F1CE018A420ED0A3F1F2018A420AD06F
:104C0C001D49EC3BCFE71D4CD0E71A4CCEE71C4CB2
:104C1C00CCE71C4CCAE71C4CC8E714F809302C2B09
:104C2C0006D106F118036B44013603F8188CF6B262
:104C3C0008F10108C0E705F118030DEB030500238B
:104C4C0015F8182C15F9175C0132D2B29918C9B2A3
:104C5C00A94207EB030003DB002303700120BBE731
:104C6C00615C0133DBB20170F0E700BF9415010801
:104C7C0061040020E70201081B0301083803010846
:104C8C00BD0301089B030108710301082822054B91
:104C9C0002FB00335B6A0BB1188870474FF6FF704C
:104CAC00704700BF9415010828220B4B70B502FB0E
:104CBC0000331E6A3046FBF74DFA002201461446BB
:104CCC00D5B2631CA942D8B200D870BD735D013255
:104CDC002C2B08BF0446F3E79415010828220F4B30
:104CEC00014602FB00331B7910B5FE2B14D1FFF7E4
:104CFC00CDFF04460846FFF7D7FF002201461046B9
:104D0C00D3B2994200D810BD44FA02F3DB0744BF7A
:104D1C00431CD8B20132F3E7FF20F4E794150108E5
:104D2C002DE9F04F4FF0000A04460F46D1461C4EB9
:104D3C0093B04FF0000BD6F808805FFA8AF50DE0BF
:104D4C0018F8030001920BF027F9C3B2202B08BF0F
:104D5C005F23019A0BF1010B02F8403C5FFA8BF3D5
:104D6C0040460193FBF7F6F9019B03F14802984288
:104D7C006A44E5D8394602F8409C02A8FBF7E0F9F2
:104D8C0048B10AF1010ABAF12C0F06F12806D0D16C
:104D9C000025284600E00120257013B0BDE8F08FF7
:104DAC009415010828232DE9F0411D4E044603FB00
:104DBC00016633790D46FE2B174618D0FF2B21D0F8
:104DCC00022B28D10846FFF773FE214690F900000C
:104DDC0009F02FFB35692B783BB1124920460BF0BB
:104DEC0007F9294620460BF003F9012015E0084687
:104DFC00FFF75EFE3B46294602782046BDE8F041AF
:104E0C00FFF7BABE0846FFF753FE062201462046BE
:104E1C00FCF756F8E9E700202070BDE8F08100BFF0
:104E2C0094150108FD040108F8B516462822002443
:104E3C00174B074602FB06331A790D46022A0470FB
:104E4C0003D0FE2A13D02046F8BD93F918209142C6
:104E5C00F9DB93F91C309942F5DC4FF00001304638
:104E6C0065F30701FFF740FE01243870EBE70029DA
:104E7C00E9DB3046FFF718FFA842E4DD3046FFF7C8
:104E8C0005FF40FA05F313F00100E6D10446DAE71A
:104E9C00941501082DE9F8430023174628220370C6
:104EAC00114B064602FB07331B790C46FF2B03D034
:104EBC0000252846BDE8F8830846FBF74BF9062881
:104ECC00F6D104F1FF3804F1050918F8010FFBF7CE
:104EDC0049FE05460028EBD0C845F6D12146384698
:104EEC00FFF726FE3070E4E7941501084FF0280C0C
:104EFC00F8B500270E4E04460CFB026636790B46BD
:104F0C00FE2E1546077003D0FF2E0BD0022E0DD1AE
:104F1C0018460AF0ADFF2A4601462046BDE8F84087
:104F2C00FFF782BFBDE8F840FFF7B4BF3846F8BDC5
:104F3C009415010810B504460846B2B9FBF768FE93
:104F4C00042812D8DFE800F003090B0D0F00084904
:104F5C0020460BF0A5F8012010BD0649F8E70649DC
:104F6C00F6E70649F4E70649F2E70020F4E700BF4C
:104F7C00EA030108EF030108F4030108F90301082F
:104F8C00FF03010810B504460068FDF760F80249FC
:104F9C002068FDF75CF810BD050401080B1E18BF56
:104FAC000123122A14D91D2A14D9312A8CBF0822A4
:104FBC00052203710023016080F885304371C0F82D
:104FCC00883080F88C3080F88D20A0F88E307047B7
:104FDC000122EEE70322ECE790F88530642B08D829
:104FEC00C2180133DBB2517180F8853018440023AC
:104FFC004371704708B50530FBF7A2F8B0FA80F0A2
:10500C00400908BD2DE9F043064691B00846884694
:10501C001546FBF79FF806F1050904464846FBF7D1
:10502C0099F8E4B2631CC7B2BB4203DB002011B099
:10503C00BDE8F0832246414648460AF0F5FF0028B9
:10504C00F4D12246231D1E44BA4203461BD300242E
:10505C0000F140036B4403F8404C0028E6D09DF867
:10506C0000303D2BE2D1302368468DF80030FBF741
:10507C0071F82346DAB2904212D868460AF0F8FE6C
:10508C0028600120D3E716F8011F202905D04033F2
:10509C0001306B44C0B203F8401C0132D2B2D3E7EA
:1050AC0040326A4412F8402C0133303A092AE1D9D3
:1050BC00BCE7000010B50D4B04461B78022B0ED13B
:1050CC000B4B93F8742052B1DB6FB3F5215F07D211
:1050DC000849FFF757FF08492046FFF753FF10BD5B
:1050EC00FDD00649FFF74EFF0549F5E7B90600204C
:1050FC0004050020080401083E040108740401089A
:10510C00AA04010810B50446FFF7D4FF206807492C
:10511C00FCF7ABFF064B206819783031C9B2FCF7AD
:10512C002DFF20460349FFF72DFF10BDE0040108B9
:10513C00EC020020CC0201082DE9F04743798046AF
:10514C00702B0F46164690B071D18379202B6ED1FF
:10515C00C0790AF019FF00285CD000254FF0020A34
:10516C002C4608F105094846FAF7F4FF824522D38C
:10517C0005F140030DEB0305002305F8403CC4B3D7
:10518C00E8461D4618F8010B0AF006FF7855013564
:10519C00EBB2A342F6D300253D550134E4B2684688
:1051AC00FAF7D8FF6719FFB2874206EB050334D331
:1051BC0000221A702DE008EB0A035B793D2B0ED010
:1051CC00202B07D005F140016A1C0DEB010505F8F9
:1051DC00403CD5B20AF101035FFA83FAC3E72C46CF
:1051EC00F0E705F140036B4413F8400C0AF0D4FED1
:1051FC0078556846FAF7AEFFE5B2A84207EB05030F
:10520C0004F10104EDD8002230460A491A700AF064
:10521C0047FF012010B0BDE8F08707F140020DEB0D
:10522C00020717F8402C0135EDB21A70B7E70020D1
:10523C00F0E700BFEA0401082DE9FF4728232C4EB4
:10524C00044603FB016633790D46FE2B20D0FF2B61
:10525C004BD0022B2DD196F9185026490068FCF73B
:10526C0004FF2846694609F0E4F869462046FFF732
:10527C0089FE96F91C5020492068FCF7F6FE694619
:10528C00284609F0D6F869462046FFF77BFE10E069
:10529C000846FFF7FBFC00278046DFF86090DFF83C
:1052AC0060A0FEB20123324629466846FFF764FC33
:1052BC0010B904B0BDE8F087BBB248FA03F3DB07C2
:1052CC0011D549462068FCF7D0FE06F13001206864
:1052DC00C9B2FCF753FE51462068FCF7C6FE69467E
:1052EC002046FFF74FFE0137DBE70649CDE700BF4D
:1052FC0094150108EC040108F4040108FC040108ED
:10530C00FF04010803050108F0B504468BB00846FC
:10531C000D46FFF7E3FC254906462068FCF7A5FE81
:10532C002823234F206803FB0577B968FCF79DFE03
:10533C0020492068FCF799FE2EB91F492046FFF73B
:10534C0021FE0BB0F0BD0122294602A8FFF72AFD71
:10535C00206802A9FCF789FE3B79FE2B03D0FF2BBA
:10536C001AD01649EAE72846FFF7A2FB057814493C
:10537C002068FCF77AFE05F130012068C9B2FCF711
:10538C00FDFD10492068FCF770FE012EE9D10E4995
:10539C002068FCF76AFEE4E70C4B68465A7802A9D1
:1053AC00FFF7C8FD0028DCD06946F1E7FC040108D2
:1053BC0094150108FF04010812050108CC0201082C
:1053CC00220501081005010825050108EC02002042
:1053DC0070B590F88E3004466BB990F88F30012B75
:1053EC0001D9032B07D1214B1B78022B03D020466C
:1053FC001F49FFF7C7FD00251C4E94F88E102B2972
:10540C0003D9002384F88C3020E04B1C84F88E30B8
:10541C0094F88F30012B09D10846FFF713FB0028B5
:10542C00EBD10846FFF720FB38B1E6E7022B0ED193
:10543C000846FFF707FB0028DFD02046FFF764FF84
:10544C00013594F88D30EDB2AB42D6D270BD032B42
:10545C0008D10846FFF708FB0028CED03378022B82
:10546C00DFD1EAE7002BF9D0E7E700BFB90600204F
:10547C003405010838B53D4B04461A6890F88C3059
:10548C00012B71D1D0F88830D31AB3F5FA7F6BD3D6
:10549C00374DC0F888202846FBF779FA08F0FEFF54
:1054AC0001462068FCF7E1FD32492068FCF7DDFD80
:1054BC0005F11400FBF782FE08F0F0FF01462068AE
:1054CC00FCF7D3FD2C492068FCF7CFFD95F8940030
:1054DC0008F0E4FF01462068FCF7C7FD2749206867
:1054EC00FCF7C3FD95F98C0008F0E2FF014620683B
:1054FC00FCF7BBFD22492068FCF7B7FD95F992003B
:10550C0008F0D6FF01462068FCF7AFFD1B49206868
:10551C00FCF7ABFD95F98E0008F0CAFF0146206838
:10552C00FCF7A3FD17492068FCF79FFD05F150001F
:10553C00FBF74AFE80B208F0C5FF01462068FCF775
:10554C0094FD0E492068FCF790FD05F16400FBF713
:10555C003BFE80B208F0B6FF01462068FCF785FDE3
:10556C0020460949FFF70EFD38BD00BFF44100206D
:10557C002C3000205105010853050108560501087F
:10558C0054050108590501085C05010830B50446AD
:10559C0095B0FFF78FFD1D492068FCF766FD1C498F
:1055AC008B785BB1023108A80AF07AFD19492068A2
:1055BC00FCF75BFD206808A9FCF757FD204616494F
:1055CC00FFF7E0FC15492068FCF74FFD144B1B78E6
:1055DC00022B18D1134D95F8743093B1206805F156
:1055EC008001FCF742FD0B492068FCF73EFDA96FDA
:1055FC006846FBF707FC69462046FFF7C3FC15B06D
:10560C0030BD0949F8E70949F6E700BF5E05010816
:10561C00300D002056050108CC0201087D0501085B
:10562C00B906002004050020840501083A0501088C
:10563C002DE9F043044600272E4EDFF8BC80DFF83E
:10564C00BC9091B094F88D20FBB29A4208D994F892
:10565C008E50F37D0137AB4205D8002384F88C3093
:10566C0011B0BDE8F083284608F018FF0146206809
:10567C00FCF7FBFC41462068FCF7F7FC7319187E1D
:10568C0008F00CFF01462068FCF7EFFC0E351C49B6
:10569C002068FCF7EAFC56F8250008F01DFF0146CF
:1056AC002068FCF7E2FC17492068FCF7DEFC164981
:1056BC0008A80AF0F5FC56F82500FAF709FE494649
:1056CC00FAF75EFE09F048FBFBF75CF8694608F058
:1056DC007AFE6846FBF7CEFA69462068FCF7C5FCF3
:1056EC00204608A9FFF74EFC94F88E30013384F85D
:1056FC008E30A7E7D40A0020990501080000503924
:10570C00A0050108AA050108B00501082DE9F04122
:10571C0004460025244E254FDFF8948094F88D2004
:10572C00EBB29A423ED994F88E30102B37D8DFE882
:10573C0003F00913181A1C1E20222426282A2C2EAA
:10574C00303234002046FFF7B5FC94F88E3001352A
:10575C00013384F88E30E1E716492046FFF712FC3E
:10576C00F3E71549F9E71549F7E71549F5E7154941
:10577C00F3E71549F1E71549EFE71549EDE7154949
:10578C00EBE71549E9E71549E7E71549E5E7154959
:10579C00E3E74146E1E73946DFE73146DDE7002341
:1057AC0084F88C30BDE8F08120080108E907010875
:1057BC00BC070108B5050108D5050108FF0501085E
:1057CC00240601084C06010870060108940601081D
:1057DC00BD060108E60601082A0701084C07010866
:1057EC006E0701088D0701082DE9F0430379044683
:1057FC0093B0C3B190F88C30013B032B19D8DFE880
:10580C0003F00252575C006803685B69984768B103
:10581C00206803689B69984700232046AA4984F8AE
:10582C008C30FFF7AFFB13B0BDE8F0832046FFF7D9
:10583C0021FEA64B1E6894F885308BB1D4F88830C5
:10584C00F31AB3F5FA6F0BD92046A149FFF79AFB6F
:10585C002046A049FFF796FB002384F8853063713E
:10586C009B4FDFF87482DFF87492206803685B69E1
:10587C0098470028D7D0206803689B6998470A2866
:10588C000546C4F888601DD00D281BD02C2819D0D3
:10589C003B2817D001462068FCF770FB29462046B0
:1058AC00FFF79AFBE1E713B0BDE8F043FFF72EBF1B
:1058BC0013B0BDE8F043FFF78BBD13B0BDE8F04368
:1058CC00FFF7B6BE39462046FFF75CFB4146204643
:1058DC00FFF790FB50B1022384F88C30002384F83E
:1058EC008E30002384F885306371BEE7494620462C
:1058FC00FFF780FB0028EED120467949FFF77AFBB1
:10590C000028E8D120467749FFF774FB054618B10B
:10591C002046FFF73BFEE4E720467349FFF76AFB9E
:10592C0040B12046FFF7EEFB0323A4F88E5084F819
:10593C008C30D6E720466D49FFF75CFB50B1204612
:10594C00FFF7E0FB032384F88C304FF48073A4F84A
:10595C008E30C6E720466649FFF74CFB40B1204627
:10596C00FFF7D0FB032384F88C304FF40073EEE781
:10597C0020466049FFF73EFB40B12046FFF7C2FBD3
:10598C00032384F88C304FF44073E0E720460AAAD6
:10599C0002A9FFF7D1FB002846D002A90DF10200A5
:1059AC00FFF7BEF920B954492046FFF7EBFA98E708
:1059BC00524B1B78022B06D09DF80200FFF754F8CF
:1059CC0008B14F49F0E79DF828303F2B0DD1204608
:1059DC00FFF798FB9DF8025020462946FFF794FCF0
:1059EC0029462046FFF728FC7BE70BB94549DBE746
:1059FC009DF802500AA92A460DF10300FFF776FA2A
:105A0C0008B94149D0E72046FFF77CFB29462046E0
:105A1C00FFF77AFC9DF80330002B3FF462AF0521B1
:105A2C003A48FBF7FBFB5CE720463949FFF7E2FA03
:105A3C0090B106213548FBF7F1FB2046FFF762FBDE
:105A4C002E4B1B78022B05D02D492046FFF79AFAD6
:105A5C003049A9E73049A7E720463049FFF7CAFA91
:105A6C0028B101212948FBF7D9FB2D499CE7204699
:105A7C002C49FFF7BFFA90B107212448FBF7CEFB66
:105A8C002046FFF73FFB1D4B1B78022B05D01C4912
:105A9C002046FFF777FA244986E7244984E7204615
:105AAC00234901AAFFF7AEFA00285AD0019D092D0F
:105ABC0001D9204978E72046FFF724FB1E4B1B78C1
:105ACC009D423DD11D496FE762080108F441002059
