:020000040800F2
:100000000050002085F300086DF300086FF300082E
:1000100071F3000873F3000875F300080000000096
:1000200000000000000000000000000077F300085E
:1000300079F30008000000007BF300087DF300085E
:10004000CDF30008CDF30008CDF30008CDF3000890
:10005000CDF30008CDF30008CDF30008CDF3000880
:10006000CDF30008CDF30008CDF30008CDF3000870
:10007000CDF30008CDF30008CDF30008CDF3000860
:10008000393C0008453C0008CDF30008CDF30008DA
:10009000CDF30008CDF30008CDF3000891D7000898
:1000A000CDF3000815540008CDF30008CDF3000887
:1000B000CDF30008CDF30008CDF30008213C000883
:1000C0002D3C0008CDF30008CDF30008CDF3000867
:1000D000CDF3000821380008256A00083197000890
:1000E000CDF30008CDF30008CDF3000800000000B8
:1000F0000000000000000000000000000000000000
:0C01000000000000000000005FF808F1A3
:10010C0010B5054C237833B9044B13B10448AFF345
:10011C0000800123237010BDD002002000000000DD
:10012C00C837010808B5034B1BB103490348AFF3AB
:10013C00008008BD00000000D4020020C837010870
:10014C0010F8012B11F8013B012A28BF9A42F7D075
:10015C00D01A7047034613F8012B002AFBD1181A4A
:10016C000138704780F0004002E000BF81F0004190
:10017C0042001FBF5FEA410392EA030F7FEA226C41
:10018C007FEA236C6AD04FEA1262D2EB1363C1BFD1
:10019C00D218414048404140B8BF5B42192B88BF40
:1001AC00704710F0004F40F4000020F07F4018BF63
:1001BC00404211F0004F41F4000121F07F4118BF83
:1001CC00494292EA030F3FD0A2F1010241FA03FC2B
:1001DC0010EB0C00C3F1200301FA03F100F0004313
:1001EC0002D5494260EB4000B0F5000F13D3B0F1DB
:1001FC00807F06D340084FEA310102F10102FE2A4A
:10020C0051D2B1F1004F40EBC25008BF20F00100B9
:10021C0040EA03007047490040EB0000013A28BF58
:10022C00B0F5000FEDD2B0FA80FCACF1080CB2EBDB
:10023C000C0200FA0CF0AABF00EBC2505242184359
:10024C00BCBFD0401843704792F0000F81F40001FE
:10025C0006BF80F400000132013BB5E74FEA4103D1
:10026C007FEA226C18BF7FEA236C21D092EA030F3D
:10027C0004D092F0000F08BF0846704790EA010FB7
:10028C001CBF0020704712F07F4F04D1400028BFE4
:10029C0040F00040704712F100723CBF00F50000C6
:1002AC00704700F0004343F0FE4040F400007047FC
:1002BC007FEA226216BF08467FEA236301464202A8
:1002CC0006BF5FEA412390EA010F40F480007047BB
:1002DC004FF0000304E000BF10F0004348BF404261
:1002EC005FEA000C08BF704743F0964301464FF09D
:1002FC0000001CE050EA010208BF70474FF00003F9
:10030C000AE000BF50EA010208BF704711F0004339
:10031C0002D5404261EB41015FEA010C02BF844609
:10032C000146002043F0B64308BFA3F18053A3F568
:10033C000003BCFA8CF2083AA3EBC25310DB01FAAF
:10034C0002FC634400FA02FCC2F12002BCF1004F33
:10035C0020FA02F243EB020008BF20F001007047C4
:10036C0002F1200201FA02FCC2F1200250EA4C0018
:10037C0021FA02F243EB020008BF20EADC7070475E
:10038C004FF0FF0C1CEAD0521EBF1CEAD15392EA6C
:10039C000C0F93EA0C0F6FD01A4480EA010C400248
:1003AC0018BF5FEA41211ED04FF0006343EA5010A2
:1003BC0043EA5111A0FB01310CF00040B1F5000FE4
:1003CC003EBF490041EAD3715B0040EA010062F193
:1003DC007F02FD2A1DD8B3F1004F40EBC25008BF7D
:1003EC0020F00100704790F0000F0CF0004C08BF9B
:1003FC0049024CEA502040EA51207F3AC2BFD2F168
:10040C00FF0340EAC250704740F400004FF0000375
:10041C00013A5DDC12F1190FDCBF00F000407047AF
:10042C00C2F10002410021FA02F1C2F1200200FAED
:10043C0002FC5FEA310040F1000053EA4C0308BFB4
:10044C0020EADC70704792F0000F00F0004C02BF05
:10045C00400010F4000F013AF9D040EA0C0093F080
:10046C00000F01F0004C02BF490011F4000F013BDA
:10047C00F9D041EA0C018FE70CEAD15392EA0C0F48
:10048C0018BF93EA0C0F0AD030F0004C18BF31F0B3
:10049C00004CD8D180EA010000F00040704790F089
:1004AC00000F17BF90F0004F084691F0000F91F02D
:1004BC00004F14D092EA0C0F01D142020FD193EAF3
:1004CC000C0F03D14B0218BF084608D180EA01007B
:1004DC0000F0004040F0FE4040F40000704740F057
:1004EC00FE4040F4400070474FF0FF0C1CEAD05225
:1004FC001EBF1CEAD15392EA0C0F93EA0C0F69D081
:10050C00A2EB030280EA010C49024FEA402037D0EB
:10051C004FF0805343EA111143EA10130CF00040E2
:10052C008B4238BF5B0042F17D024FF4000C8B42D2
:10053C0024BF5B1A40EA0C00B3EB510F24BFA3EBB2
:10054C00510340EA5C00B3EB910F24BFA3EB910382
:10055C0040EA9C00B3EBD10F24BFA3EBD10340EADC
:10056C00DC001B0118BF5FEA1C1CE0D1FD2A3FF622
:10057C0050AF8B4240EBC25008BF20F001007047D7
:10058C000CF0004C4CEA50207F32C2BFD2F1FF037A
:10059C0040EAC250704740F400004FF00003013AAB
:1005AC0037E792F0000F00F0004C02BF400010F44F
:1005BC00000F013AF9D040EA0C0093F0000F01F063
:1005CC00004C02BF490011F4000F013BF9D041EA85
:1005DC000C0195E70CEAD15392EA0C0F08D14202B8
:1005EC007FF47DAF93EA0C0F7FF470AF084676E78B
:1005FC0093EA0C0F04D14B023FF44CAF08466EE764
:10060C0030F0004C18BF31F0004CCAD130F0004231
:10061C007FF45CAF31F000437FF43CAF5FE700BF89
:10062C004FF0FF3C06E000BF4FF0010C02E000BFB2
:10063C004FF0010C4DF804CD4FEA40024FEA410354
:10064C007FEA226C18BF7FEA236C11D001B052EA0A
:10065C00530C18BF90EA010F58BFB2EB030088BFD0
:10066C00C81738BF6FEAE17018BF40F0010070473F
:10067C007FEA226C02D15FEA402C05D17FEA236C21
:10068C00E4D15FEA412CE1D05DF8040B704700BF68
:10069C00844608466146FFE70FB5FFF7C9FF0028FF
:1006AC0048BF10F1000F0FBD4DF808EDFFF7F4FF38
:1006BC000CBF012000205DF808FB00BF4DF808EDD1
:1006CC00FFF7EAFF34BF012000205DF808FB00BFF4
:1006DC004DF808EDFFF7E0FF94BF012000205DF816
:1006EC0008FB00BF4DF808EDFFF7D2FF94BF0120C7
:1006FC0000205DF808FB00BF4DF808EDFFF7C8FFC0
:10070C0034BF012000205DF808FB00BF4FEA400217
:10071C004FEA41037FEA226C02D15FEA402C08D1F8
:10072C007FEA236C02D15FEA412C02D14FF000002A
:10073C0070474FF0010070474FEA4002B2F1FE4F94
:10074C000FD34FF09E03B3EB12620DD94FEA002387
:10075C0043F0004310F0004F23FA02F018BF404260
:10076C0070474FF00000704712F1610F01D1420247
:10077C0005D110F0004008BF6FF0004070474FF0FB
:10078C000000704742000ED2B2F1FE4F0BD34FF077
:10079C009E03B3EB126209D44FEA002343F00043EB
:1007AC0023FA02F070474FF00000704712F1610F0E
:1007BC0001D1420202D14FF0FF3070474FF00000E0
:1007CC00704700BF0022427082700122C270022268
:1007DC00B1FA81F10271032249090170427170472B
:1007EC0043788B421FD0012941700AD0022910D0C6
:1007FC00C1B90123C37002238170037103234371B8
:10080C007047037843B1012383700223C370002324
:10081C00F3E70378002BF6D0022383700023C37018
:10082C000123EAE7FEE770470B8882B0ADF8003091
:10083C004B880239ADF80230CB88ADF804300B8907
:10084C00ADF80630431C053013F8012F0DF1080CE0
:10085C000CEB420232F8082C834221F8022FF3D120
:10086C0002B0704710B50C461146FFF7B9FF214690
:10087C00BDE81040FFF7D8BF4FF07F32094B10B5E1
:10088C00C0E923234FF47F43A0F89430FF230446A0
:10089C0080F89630983000F0E4FC002384F8A43003
:1008AC0010BD00BFFFFF7F0070B5154604461E4605
:1008BC00114600F04AFC294604F1140000F045FCF6
:1008CC00294604F1280000F040FC294604F13C00C4
:1008DC0000F03BFC294604F1500000F036FC2946A0
:1008EC0004F1640000F031FC294604F1780000F0BA
:1008FC002CFC4FF4FA7332464FF4FA6104F1980071
:10090C0000F095FC2046FFF7B7FF002384F8A530D4
:10091C004FF47F43A4F8A63070BD704700F01CBCA8
:10092C00143000F019BC08B5503000F01FFC292120
:10093C0000F11403B3FBF1F3024613F0FF0002D1F4
:10094C00101E18BF012008BD08B5643000F00EFC65
:10095C00292100F11403B3FBF1F3024613F0FF005D
:10096C0002D1101E18BF012008BD90F8903013B9A9
:10097C0090F98C00704790F98D00704790F890308A
:10098C0013B990F98E00704790F98F00704710B52D
:10099C0004460DF01DF838B104F13C0000F0E0FB0A
:1009AC00012838BF0120C0B210BD783000F0E0BB88
:1009BC00783000F0E5BB10B5044600F0A7FB04F15D
:1009CC00140000F0A3FB04F1280000F09FFB04F1DD
:1009DC003C0000F09BFB04F1500000F0A3FB04F181
:1009EC00640000F09FFB04F17800BDE8104000F0BB
:1009FC009FBB7F2807D0002807DA10F1800F06D0A4
:100A0C004042C0B2704700207047012070477F20E1
:100A1C00704710B1404240B270477F2070477F282A
:100A2C000FD010F1310F0EDA10F1780F0DDBFE2321
:100A3C00783040B2584346232330B0FBF3F0C0B2B9
:100A4C007047FF207047FE20704700207047012838
:100A5C0005DD40F2FE73984203DC80B27047012042
:100A6C00704740F2FF70704740F2AE73A0F578709B
:100A7C00C0EBC02090FBF3F000F58060FFF7E7BF00
:100A8C00FFF7F2BF032812DD0C2812DD0F2812DD50
:100A9C00122812DD162812DD192812DD1C2812DD91
:100AAC001F2812DD2128CCBFFF2006207047002014
:100ABC0070470120704702207047082070470320C0
:100ACC0070470720704704207047052070470000CE
:100ADC0005289ABF014B185CFF2070471C38010891
:100AEC0005289ABF014B185CFF207047223801087B
:100AFC007F2803D0002803DAC0B27047002070476B
:100B0C00FF2070477F2811D010F1320F10DA884285
:100B1C0010DD6423401A5843C1F1FF2101F57F0118
:100B2C00CE31313090FBF1F0C0B27047FF207047EE
:100B3C006420704700207047014B4840185C704798
:100B4C002838010852B110B4054C0A4411F8013B85
:100B5C0058408A42205CF9D110BC7047704700BFE6
:100B6C0028380108392808D822280ED9094B2338EF
:100B7C00C0B2C34003F0010070475F2807D0613852
:100B8C0019288CBF002001207047002070470120DD
:100B9C00704700BF01EC7F00F8B5024600245F27C8
:100BAC00451E461D15F8010FFF2804BF0134E4B2A1
:100BBC00FFF7D8FF00B92F70AE42F3D1062C04D149
:100BCC0019B10B6813608B88938000239371F8BD67
:100BDC002DE9F843012500264FF02808DFF82C906A
:100BEC00471E441D17F8011F084812F088FD0346E4
:100BFC0010B1A0EB0903DBB2A3FB05329E19A7428F
:100C0C00A5FB0853EED13046BDE8F883283901081E
:100C1C0010B54179A1F13000C3B2092B07D80523D7
:100C2C00B0FBF3F303EB8303C01AC0B210BD044C4A
:100C3C00204612F064FD0028F1D0001BC0B2EEE794
:100C4C0028390108F0B52826084B094F821DB1FB45
:100C5C00F3F4272C8CBF30253D5D03FB141102F8F7
:100C6C00015D8242B3FBF6F3F1D1F0BD00801A06B0
:100C7C002839010870B50446FFF76CFA002582B2DA
:100C8C00501EABB2834204EB030103DAE65C013580
:100C9C00302EF6D0D21A2046BDE87040013212F048
:100CAC00FDBC00002DE9F04F0D4699B01646002111
:100CBC001A461F46804612F00BFD00212A2201A87D
:100CCC00009112F005FDDFF8CC90DFF8CCA0DFF836
:100CDC00CCB005EB4606AE4211D16846FFF73AFAA6
:100CEC0030B100F160030DEB0300002300F8613C10
:100CFC006946404612F04CFD19B0BDE8F08F47F63E
:100D0C00FF7335F9020B9842E7D0002812DC5946E4
:100D1C000CA812F03DFD6846FFF71CFA04460CA81F
:100D2C00FFF718FA0444A742D5D368460CA912F071
:100D3C00D7FCD0E7B0F57A7F0BDA0CA980B210F0B3
:100D4C00A0FF0CA8FFF796FF51460CA812F0C8FCA8
:100D5C00E1E764233230B0FBF3F00CA980B210F061
:100D6C0090FF0CA8FFF786FF0CA8FFF7F3F900F132
:100D7C005F036B4413F8302C00F160010DEB0100A4
:100D8C0000F8302C2E2203F8302C0023494600F8B2
:100D9C002F3CDAE718380108133801080E3801081F
:100DAC00F0B589B06D4600242F468E1CE1B28A4204
:100DBC0004D83946FFF776FF09B0F0BD36F8241099
:100DCC00013425F8021BF1E742F21073B0FBF3F289
:100DDC00642103FB1200B0FBF1F301FB130000EBE9
:100DEC00023000EB831080B2704742F21071020B9C
:100DFC0000F03F0301FB02336422C0F3851002FBB9
:100E0C000030704742F210732DE9F041B1FBF3F65C
:100E1C00642703FB161488B01E49054612F0B8FC73
:100E2C006946F0B210F00AFF6846FFF723FFB4FBE7
:100E3C00F7F6DFF864806946284612F051FC41460B
:100E4C00284612F04DFC07FB16446946F0B210F030
:100E5C00F5FE6846FFF70EFF6946284612F040FC87
:100E6C004146284612F03CFC6946E0B210F0E6FE22
:100E7C009DF8013069468DF800309DF80230284607
:100E8C008DF8013000238DF8023012F029FC08B0E7
:100E9C00BDE8F081FD4C01089B44010870B50E467D
:100EAC0000210546144612F013FC00239AB294421A
:100EBC0000D870BDF25C002AFBD0EA540133F5E790
:100ECC0070B50E46144600210132054612F000FCA6
:100EDC0000239AB2944200D870BDF25C002AFBD079
:100EEC00EA540133F5E730B50023044698B290423A
:100EFC0001D3012005E0E55CC85C1DB9B0FA80F0B7
:100F0C00400930BD0028FCD0854203F10103EDD02F
:100F1C000020F6E77D23438043F23903C3600023AE
:100F2C0009B201808180C380037270470268044952
:100F3C00044B01FB023323F000430360180C704791
:100F4C00FD430300C39E2600F0B5002597B0016059
:100F5C008580044656222946684612F0B9FB0126C4
:100F6C00E27DAA4209D80023802104F1B800A375C0
:100F7C0017B0BDE8F04012F0ABBB2046FFF7D6FF30
:100F8C00E77900217B1B90FBF3F2EC4602FB13008C
:100F9C000A46C0B2CBB29F4222D80023002211468F
:100FAC00277BD0B2874226D80029D9D1A2796119E2
:100FBC00033A012A05D925B191F9172012BB012B4F
:100FCC00CED90B76A26852F82310583305F10E02D5
:100FDC006B44013544F8221003F8586CEDB2BFE7AE
:100FEC001CF801EBBEF1000F03D18242D6D00132C6
:100FFC00D2B20131CEE72069805C0132984208BF41
:10100C000121CEE7501E8342DBDB01329342D8DC58
:10101C00A6E72DE9F047154696B0013D0160027137
:10102C0004464371EDB256220021684612F050FB83
:10103C00022D98BF4FF003094FF0000794F807807A
:10104C008ABF4FF00109B8FBF9F800253E464FF076
:10105C00010AE27DB24209D80023802104F1B800D4
:10106C00A37516B0BDE8F04712F032BB2046FFF76F
:10107C005DFFA8EB060390FBF3F2002102FB1300CB
:10108C00EC460A46C0B2CBB2434506D21CF801EB83
:10109C00BEF1000F29D1824225D10020434528BF43
:1010AC004346844609FB035194F80CE0C9B2C2B222
:1010BC0096451CD8BCF1000FCBD116B1FFB9012B52
:1010CC00C7D9A2191176A2681F4652F8211006F151
:1010DC000E0244F8221003F158026A44013602F859
:1010EC0058ACF6B2B5E70132D2B20131CBE7226986
:1010FC00125C01308A4208BF4FF0010CD7E77A1E10
:10110C009342DEDB7A1C9342DBDCA2E76421D0E95C
:10111C000123D31AC3604B43418A8260B3FBF1F3C2
:10112C0003747047D0E90123D31AC0E90223704736
:10113C0043682BB16421C2684A43B2FBF3F2D3B2C9
:10114C0003740023C3604360704700234182C0E9ED
:10115C000233436003747047436801334360704744
:10116C00007C704743680B4443607047C06870470D
:10117C0011B1C3680133C3604368013343607047E6
:10118C00007C704700230380837003727047034612
:10119C00007810B100221A707047587810B10022F4
:1011AC005A707047987810B100229A707047187A6C
:1011BC0008B100221A7270470170704701707047B5
:1011CC004170704781707047817042607047406811
:1011DC00704700234360038170470A2310B504460F
:1011EC00838002F0A7FD2368E0809B682046984727
:1011FC00208110BD038970B504469BB1858845B12B
:10120C00013DADB285806DB903681B68BDE87040C7
:10121C00184702F08FFDE388C01A238980B28342FD
:10122C0001D2258170BD236820465B68EEE72DE96D
:10123C00F041044610461D4616468846FFF748F80E
:10124C00074606EB0800FFF743F801463846FFF760
:10125C004BF9656020602846FFF73EF8A060BDE8BA
:10126C00F08110B504464068FFF736F8A06010BD59
:10127C00C0F17F0080B27F2823D8C1F13F0189B231
:10128C003F291ED84FF0010C00B54FEAD10E0D4B83
:10129C0000EBCE1080B2A3F81EC0034412F0010F75
:1012AC0001F0070193F820200CFA01FC15BF4CEA61
:1012BC00020C22EA0C0283F820C083F820205DF88F
:1012CC0004FB7047F00200207F2820D83F291ED84D
:1012DC004FF0010C00B54FEAD10E0D4B00EBCE10C8
:1012EC0080B2A3F81EC0034412F0010F01F00701F5
:1012FC0093F820200CFA01FC15BF4CEA020C22EAF0
:10130C000C0283F820C083F820205DF804FB7047A2
:10131C00F00200207F2923D8C0F13F0080B23F2883
:10132C001ED84FF0010C00B54FEAD00E0D4B01EB5F
:10133C00CE1189B2A3F81EC00B4412F0010F00F0BD
:10134C00070093F820200CFA00FC15BF4CEA020CA5
:10135C0022EA0C0283F820C083F820205DF804FBFD
:10136C00704700BFF0020020C1F17F0189B27F29D4
:10137C0020D83F281ED84FF0010C00B54FEAD00EF4
:10138C000D4B01EBCE1189B2A3F81EC00B4412F029
:10139C00010F00F0070093F820200CFA00FC15BF99
:1013AC004CEA020C22EA0C0283F820C083F82020BD
:1013BC005DF804FB704700BFF002002030B5124C02
:1013CC0083B0E38B1BB125881DB10023E38303B0ED
:1013DC0030BD0E4B032293E803000090ADF80410CF
:1013EC002846694602F034FC032228460DEB020124
:1013FC0002F02EFC4FF48062402004F1200102F038
:10140C003DFC0028E1D0E2E7F0020020E0370108C3
:10141C0008B502F045FC023818BF012008BD00BF1A
:10142C00104BD88003281AD8DFE800F019110217E6
:10143C000D4A4FF0400C80209A60002158804FF4E8
:10144C0080620A48A3F804C0D98312F041B9084A53
:10145C004FF0800C40209A60EFE7064AF8E7064A06
:10146C00E7E700BFF00200207D1200081003002007
:10147C007513000821130008D51200084FF0010C59
:10148C00044B4FF48062002103F12000A3F81EC02E
:10149C0012F01EB9F0020020024B80B29B6889B298
:1014AC00184700BFF00200202DE9F04F85B013F172
:1014BC00070ABDF9384048BF03F10E0A1E46002C3E
:1014CC004FEAEA030746BDF83C900192029333DDE4
:1014DC00002E31DD0C4423B2039300231D46DFF8AC
:1014EC0060B0009300231FFA81FADDE9001202EBD1
:1014FC00010813F0070F9CB208BFDB104FEA45053B
:10150C000CBF18F80350EDB2E01915F0800F80B243
:10151C0004D04A465146DBF808309847013423B2D0
:10152C009E42E6D1009B029A0AF1010113440093FA
:10153C00039B09B29942D5D105B0BDE8F08F00BF2D
:10154C00F0020020002A2DE9F8431F4612DB0FD0D1
:10155C0084B22244DFF850808DB296B2204601341A
:10156C003A462946D8F80830A4B29847A642F5D195
:10157C00BDE8F8834FF0000CDFF82C80564284B2A3
:10158C001FFA81F91FFA8CF5601B3A464946D8F8C8
:10159C00083080B2984705F1010C0FFA8CFCB44569
:1015AC00F0DBBDE8F88300BFF0020020002A2DE933
:1015BC00F8431F4612DB0FD08CB22244DFF8508068
:1015CC0085B296B2214601343A462846D8F80830FE
:1015DC00A4B29847A642F5D1BDE8F8834FF0000CB1
:1015EC00DFF82C8056428CB21FFA80F91FFA8CF56A
:1015FC00611B3A464846D8F8083089B2984705F13D
:10160C00010C0FFA8CFCB445F0DBBDE8F88300BF8D
:10161C00F00200202DE9F04F1F1E83B0B4BF07F17C
:10162C00010807F1FF38002ABDF830A000901FFA1E
:10163C0088F848DB96B206F1FF339BB2019300F0B9
:10164C009780BDF800904B4DCB464E448CB2B6B251
:10165C0058460BF1010B52462146AB681FFA8BFB27
:10166C0098475E45F4D1A0441FFA88F8484609F122
:10167C00010952464146AB681FFA89F998474E4515
:10168C00F4D1002F4EDB1BD026462744BDF800803A
:10169C00384DBFB23146013652464046AB68B6B201
:1016AC009847B742F6D1019B98441FFA88F8214617
:1016BC00013452464046AB68A4B29847A742F6D1D3
:1016CC0003B0BDE8F08F4FF0000B531C9BB2294DBB
:1016DC00BDF800908CB2019356421FFA8BFBA9EB1C
:1016EC000B000BF1010B52462146AB6880B20FFA8E
:1016FC008BFB98475E45F0DCA0441FFA88FB4FF04B
:10170C0000081FFA88F8A9EB080008F101085246F6
:10171C005946AB6880B20FFA88F898474645F0DC1A
:10172C00002FB0DA0023BDF80090124D7F429EB21C
:10173C00A11BAB685246484689B29847731C1BB232
:10174C00BB42F4DB019B994400231FFA89F91FFA71
:10175C0083F8A4EB080152464846AE6889B2B047FC
:10176C0008F101031BB2BB42F1DB03B0BDE8F08F03
:10177C008CB286E7F00200202DE9F04F002B83B0ED
:10178C000B448B469146BDF8306001933ADB99428D
:10179C001CDA87B207EB02081FFA88F8B9F1000FC0
:1017AC0017DB6FD03C46414D1FFA8BFB20460134B2
:1017BC0032465946AB68A4B29847A045F6D1019B76
:1017CC000BF1010B0FFA8BFB9B45E7DB03B0BDE87C
:1017DC00F08F0024354DC9F1000A1FFA8BFBA4B21F
:1017EC00381B013432465946AB6880B224B2984754
:1017FC005445F4DB019B0BF1010B0FFA8BFB9B4562
:10180C00CCDBE3E79942E1DD84B2A718B9F1000F14
:10181C00BFB219DB40D0A046244D1FFA8BFB4046CB
:10182C0008F1010832465946AB681FFA88F8984708
:10183C004745F4D1019B0BF1FF3B0FFA8BFB5B454A
:10184C00C4DAB9F1000FE5DA4FF0000A174DC9F10F
:10185C0000081FFA8BFB1FFA8AFAA4EB0A000AF1A4
:10186C00010A32465946AB6880B20FFA8AFA984799
:10187C00C245F0DB019B0BF1FF3B0FFA8BFB5B4589
:10188C00DFDBA3E71FFA8BFB019B0BF1010B0FFABC
:10189C008BFB9B4582DB99E71FFA8BFB019B0BF1C2
:1018AC00FF3B0FFA8BFB5B45CBDB8FE7F002002095
:1018BC000122014B9A837047F00200200022014B59
:1018CC009A837047F0020020014B9861704700BF6B
:1018DC00F00200200022014B9A617047F0020020B8
:1018EC000122014B9A827047F00200200022014B2A
:1018FC009A827047F0020020014B9881704700BF1C
:10190C00F0020020014BD881704700BFF00200208C
:10191C00014B9881D9817047F00200200A282DE9EB
:10192C00F84F53D01F2841D9DFF804A12038BAF959
:10193C000CB0BAF802300BF106029A42C0B237DA98
:10194C001FFA8BFB0BF10608BAF80E600FFA88F33E
:10195C00AAF80C30BAF81C30A6F106091FFA89F95E
:10196C0000EB40000236002B3AD0324F1FFA88F8B9
:10197C0007EB4007B6B2013FBAF9143017F8015F14
:10198C000BB1ED43EDB24C46214601342A46584684
:10199C00DAF80830A4B29847B4424FEA5505F3D1AF
:1019AC000BF1010B1FFA8BFBC345E5D1BDE8F88F9A
:1019BC000623BAF80E60BAF810204FF0000B16444C
:1019CC000836B6B29846AAF80E60C1E70021184A4C
:1019DC00D389108A918103440833D381BDE8F88FF1
:1019EC001FFA88F71FFA86F8124E06EB4006013EE6
:1019FC00BAF9143016F8015F0BB1ED43EDB24C4659
:101A0C0015F0010F4FEA550505D021460122584625
:101A1C00DAF8083098470134A4B24445F0D10BF100
:101A2C00010B1FFA8BFBBB45E2D1BDE8F88F00BF61
:101A3C00F00200207C3901082DE9F04FDFF87C81A1
:101A4C000A28D8F8183087B0997A00F081801A7A71
:101A5C0090427AD35C7A844277D348CB841A06EBD3
:101A6C00C40292F90590B8F81200B8F90C50029320
:101A7C0013799778034405EB09003844B8F802C091
:101A8C00BFB20497D77892F9062060459BB20392B7
:101A9C006CDCADB25A1992B2A8F80C20B8F914202B
:101AAC00B8F90EB0002A73D1B8F81C10012900F057
:101ABC008180B2FA82FA36F834604FEA5A1A002F53
:101ACC0043D0049A002A40D0BDF80C304D441F443A
:101ADC001FFA8BFB5B44A9B2BB44002517461FFAC7
:101AEC0083F91FFA8BF303910593049BFC1A039B58
:101AFC00A4B203F1FF3B23465A0708BF029B04F133
:101B0C00010408BF9D5DA4B206F1010C04EB0B00AF
:101B1C0008BF1FFA8CF62B0680B204D552464946F4
:101B2C00D8F8083098476D00BC42ADB2E3D1049AA6
:101B3C00039B09F101019B1A9BB20393059B1FFAAE
:101B4C0081F917444B45BFB2CFD107B0BDE8F08F38
:101B5C000022B8F80E30B8F81000A8F80C20034496
:101B6C000B44A8F80E3007B0BDE8F08F1A46B8F851
:101B7C000E00B8F810C0A8F80C2060440144B8F965
:101B8C0014200FFA81FB0025A8F80EB0002A8BD088
:101B9C0002331AB201230093039B09F1FF30591E43
:101BAC005944284409B200B2BB1CFFF7E5FDB8F953
:101BBC0014207EE7023300921AB2EDE7F002002007
:101BCC00034B9B690BB1FFF737BFFFF7A7BE00BFF5
:101BDC00F002002038B50446007878B1084D04E0D6
:101BEC00FFF72AFF14F8010F40B1AB69002BF7D1B6
:101BFC00FFF794FE14F8010F0028F6D138BD00BF92
:101C0C00F0020020F8B5204E0446B569002D32D004
:101C1C00037895F808C095F809E0002B32D00146FE
:101C2C000022778A9C450AD89E4508D36868A3EBA6
:101C3C000C0300EBC30003793A441A4492B211F836
:101C4C00013F002BEED173889B1A03EBD3735B100F
:101C5C00B381207870B13DB1FFF7EEFE14F8010F9F
:101C6C0040B1B569002DF7D1FFF758FE14F8010FFC
:101C7C000028F6D1F8BDFEF76DFA00EB40025200D9
:101C8C0092B2E0E71A46DEE7F002002070B52E4C67
:101C9C0082B02080C8B100214FF4C0254FF48033AE
:101CAC002A4A04F12000C4F80220294AC4E903514D
:101CBC00A2604FF48062E180A161A182E36111F026
:101CCC0007FD0023E38302B070BD05463C2001F004
:101CDC00B9FF20221F49284601F0BAFF4FF4803388
:101CEC004FF4C022E361194B2688C4F80230184B1C
:101CFC00E26029464FF4806204F12000E580A56182
:101D0C002561A582A36011F0E3FC002ED9D1124B02
:101D1C00032293E803000090ADF8041030466946A6
:101D2C0001F096FF032230460DEB020101F090FF0B
:101D3C004FF48062402004F1200101F09FFF002845
:101D4C00BFD002B070BD00BFF00200208000400088
:101D5C00D5120008BC3B0108E037010810B5044659
:101D6C00022980EAE070A0EBE47068D15AB9002C2B
:101D7C00ACBF7F233F239842A8BF1846002C01DA42
:101D8C0040F0400010BD012A1AD1632805DC400048
:101D9C00002CF7DA40F48070F4E740F2F5439842F7
:101DAC000CDCFEF795FA5749FEF7EAFA10F04CFBFB
:101DBC00FEF7E8FC400040F00100E9E7FF20E7E710
:101DCC00022A40F09C80632805DC8000002CD9DAC4
:101DDC0040F40070D6E7B0F57A7F0CDAFEF778FAAB
:101DEC004849FEF7CDFA10F02FFBFEF7CBFC800034
:101DFC0040F00100EAE742F20F7398420CD8FEF76C
:101E0C0067FA4149FEF7BCFA10F01EFBFEF7BAFC6C
:101E1C00800040F00200D9E73C4B98420CD8FEF70A
:101E2C0057FA3B49FEF7ACFA10F00EFBFEF7AAFC92
:101E3C00800040F00300C9E740F2FF10C6E7032919
:101E4C005DD1012A1BD1B0F57A7F05DA4000002C58
:101E5C0098DA40F4006095E7B0F5205F0CDAFEF7F5
:101E6C0037FA2849FEF78CFA10F0EEFAFEF78AFCE6
:101E7C00400040F00100EAE740F2FF70E7E7022A79
:101E8C003DD1B0F57A7F06DA8000002CBFF67AAF30
:101E9C0040F4805076E742F20F7398420CDCFEF768
:101EAC0017FA1849FEF76CFA10F0CEFAFEF76AFC36
:101EBC00800040F00100E8E7164B98420CD8FEF782
:101ECC0007FA1149FEF75CFA10F0BEFAFEF75AFC5D
:101EDC00800040F00200D8E7B0F57A2F0CD2FEF764
:101EEC00F7F90B49FEF74CFA10F0AEFAFEF74AFC84
:101EFC00800040F00300C8E740F6FF70C5E7002003
:101F0C0040E700BFCDCCCC3D0AD7233C17F00100F5
:101F1C006F12833A9F860100002303607047000014
:101F2C00092928BF092138B5064B04461B780D46F4
:101F3C008B4202D10023036038BD01F0EFFE257106
:101F4C002060F9E710070020036810B504460BB9B0
:101F5C00002010BD01F0E2FE2368C01A40F2EE230F
:101F6C009842F5D90023054A2360127823799A42C6
:101F7C00EED0034A0120D377EBE700BF1007002017
:101F8C006C070020FF2343710023017183710381CF
:101F9C008372704738B5037904460D465BB14179BD
:101FAC00A94208D041B101290AD000236571A3715F
:101FBC0055B1012D0FD038BD03689B689847F4E7E5
:101FCC0003680021DB68F9E7012123689B68204640
:101FDC009847A071EFE723682946DB68F7E72DE9FE
:101FEC00F04F077CC37BBF000C4647EA931703F006
:101FFC003F01437C857C03F00102C67C47EA8227C3
:10200C0005F00F02D20142EA530206F07F031B01D6
:10201C0043EA1513057D90F815E06D0089B045EA8B
:10202C00D6150EF00306059345EA4623867D0093EC
:10203C0006F01F05AD0145EA9E03C57D90F819E039
:10204C00ED00019345EA5613057E0EF00706029348
:10205C0045EA0623857E039305F03F06760146EAA2
:10206C00DE03C67E90F81CE0B60046EA95160EF02C
:10207C00010546EA8526457F90F8208005F00F0B78
:10208C004FEACB1B4BEA5E0B90F81EE090F80EC0AB
:10209C000EF07F0A4FEA0A1A4AEA151AC57F49015F
:1020AC006D0045EADE1508F0030E45EA4E2590F862
:1020BC0021E041EADC010EF01F094FEA891949EAD7
:1020CC00980990F82280407B0CF0070C40EA0C2019
:1020DC004FEAC80848EA5E18049306920791FEF787
:1020EC00C3FC079920800846FEF7BEFC608038468A
:1020FC00FEF7BAFC069AA0801046FEF7B5FC059BCD
:10210C00E0801846FEF7B0FC20810098FEF7ACFC8E
:10211C0060810198FEF7A8FCA0810298FEF7A4FC50
:10212C00E0810398FEF7A0FC20820498FEF79CFC4B
:10213C0060823046FEF798FCA0825846FEF794FC6D
:10214C00E0825046FEF790FC20832846FEF78CFC7C
:10215C0060834846FEF788FCA0834046FEF784FC6B
:10216C004FF48063E0832384638409B0BDE8F08F6F
:10217C002DE9F04104460F4601F0DCFD4FF001085B
:10218C000546236820461B689847064650B9A37A33
:10219C00012B1FD12389ED1A40F6C4139D42C8BFF1
:1021AC00A07217E0236820465B689847A37AA3B90E
:1021BC000F2814D1A4F80A80E37AE2180133DBB2B9
:1021CC00182B1073E3720AD939462046FFF707FF24
:1021DC000023A3723046BDE8F081012BECD02581A1
:1021EC00CFE7827922B14379012B01D8FFF7C0BF29
:1021FC000020704770477047704700207047704749
:10220C000020704700207047704700207047002066
:10221C0070470000054B82B0DA690243DA61DB6972
:10222C0003400193019B02B0704700BF00100240B5
:10223C00054B82B09A6902439A619B6903400193F2
:10224C00019B02B0704700BF0010024000F10C036C
:10225C0053E8003F43F0200300F10C0141E8003249
:10226C00002AF3D1704700F10C0353E8003F43F010
:10227C00800300F10C0141E80032002AF3D17047D1
:10228C0000F10C0353E8003F23F0200300F10C0194
:10229C0041E80032002AF3D1704700F10C0353E8F7
:1022AC00003F23F0400300F10C0141E80032002A0A
:1022BC00F3D1704700F10C0353E8003F23F0800387
:1022CC0000F10C0141E80032002AF3D17047000004
:1022DC000B4B0C4A1B6830B4A2FB03239B0C00FB7A
:1022EC0003F2094D02F5FA72A5FB02520749920955
:1022FC004C684B681B1B9342FBD330BC704700BF30
:10230C006C02002083DE1B43D34D6210001000E0F2
:10231C000288044B5140C9B233F8113083EA1223BE
:10232C0003807047D07A01089AB110B4B0F800C09D
:10233C00084C0A4411F8013B83EA0C03DBB234F875
:10234C001330914283EA1C2CA0F800C0F2D110BCCF
:10235C0070477047D07A01084FF6FF7337B50446C3
:10236C00ADF806304518AC4203D1BDF8060003B0F9
:10237C0030BD14F8011B0DF10600FFF7C9FFF2E7A1
:10238C0008B51E20FFF7A4FF4FF48052034B282002
:10239C005A61BDE80840FFF79BBF00BF000C01402D
:1023AC0008B56420FFF794FF4FF48052024B1A617A
:1023BC00BDE80840FFF78CBF000C0140044B1888A7
:1023CC00044B80B21B889BB2C01A18BF0120704707
:1023DC000C4200200A4200200023044A1380044AC5
:1023EC001380044A1380044A138070470A42002069
:1023FC000C4200200E4400201044002001207047A5
:10240C0070470023A0F87032A0F86E32704700239A
:10241C00A0F85C32A0F85A32704700003A4B5A6A66
:10242C00037A92B263B18389D31A9BB2B3F5FA7F64
:10243C0084BF00230372837A4F2B84BF0023037263
:10244C00037A8281082B0FD8DFE803F0050E0E0EFD
:10245C000E0E0F172200EE2901D0C82904D101233A
:10246C0083720623417503727047837A5A1C0344A6
:10247C008272597507234172F5E7827A531CDBB2DD
:10248C00024483725175427A9A42EDD20823EAE7EC
:10249C00837A5A1C034482725975C37D162B04D15E
:1024AC00012380F865300923DDE74369174A03F0FF
:1024BC00FF23934203D1012380F86730F3E7144ADA
:1024CC0093421CD1837E102B19D1C37E022B08D0D2
:1024DC00052B0DD0012BE6D1027EEE2A08BF80F829
:1024EC006A30037EEE2BDED1012380F86B30DAE705
:1024FC00012380F86830037F80F86930D3E701232B
:10250C0080F86630CFE700BF0004004000C8002808
:10251C0000C80032044B1888044B80B21B889BB255
:10252C00C01A18BF01207047144600201246002024
:10253C000278024B51405B5C03707047985601085F
:10254C00FF230370704700BF7047B0F86E32B0F8CD
:10255C0070229B1A98B21B0444BF00F5006080B235
:10256C00003818BF01207047A0F11400EDE70346B6
:10257C00B0F87022B0F86E1291421FBF811891F81A
:10258C007402B3F8721201321ABF0A40A3F8702217
:10259C0000207047A0F11400E9E770B50B780546F0
:1025AC0003704B780C4643700B78FD2B38D10A2600
:1025BC008B788370CB78C3700B7903714B79437133
:1025CC008B7983718B68C3718B68C3F30F23037290
:1025DC008B7A4372627804F10C01A81911F0E0F8BF
:1025EC006378B4F80C213344EA54B4F80C115A1C37
:1025FC0092B2090AA954A278981CD20780B20ED5BF
:10260C0004F58872054404F58E7452F8041BA2423A
:10261C0045F8041BF9D112780F332A7098B270BDAB
:10262C0000238B700B79062683704B79C3708B79E2
:10263C0003718B684371CDE738B54A780D46352A5E
:10264C00044601F10C010AD811F0AAF868780021AF
:10265C00C0F136022044BDE8384011F039B840359D
:10266C0051F8043BA94240F8043BF9D10B88038094
:10267C0038BD38B54A780C461B2A054601F10C01C9
:10268C000AD811F08DF860780021C0F11C022844A2
:10269C00BDE8384011F01CB8283451F8043BA14275
:1026AC0045F8043BF9D138BD38B54A780D46082AAF
:1026BC00044601F10C010AD811F072F86878002177
:1026CC00C0F109022044BDE8384011F001B8EB68B4
:1026DC0003604B6843600B7A037238BD38B54A7897
:1026EC000C46072A054601F10C010AD811F058F8DE
:1026FC0060780021C0F108022844BDE8384010F091
:10270C00E7BFE36803604B68436038BD242208B51B
:10271C000021034810F0DCFF0022024B1A7008BDA8
:10272C0034120020C40900202DE9F041137804462E
:10273C00037092F80180FD2B0F46154680F801803E
:10274C0054D10A2693788370D378C37013790371AC
:10275C0053794371937983716B7A127A1B0403EB6F
:10276C000223EA79134423F07F43A268A91963F387
:10277C001702A26004F10C00424611F011F87A7BAA
:10278C00904507D208F10C000021A2EB080220446E
:10279C0010F09EFF63781E44AB195A78AB5D03EBC7
:1027AC000223A4F80C31A378DB070ED50236B6B29F
:1027BC00354404F5887305F10C0255F8041B954259
:1027CC0043F8041BF9D12A781A70BB7A84F82131AA
:1027DC00FB7A84F822313B7B84F823317B7B84F8B1
:1027EC0024313B7884F82031BDE8F081002343800C
:1027FC00937806260371D3784371137983715379D7
:10280C00B3E738B54A780C46132A054601F10C019A
:10281C000AD810F0C5FF60780021C0F114022844DA
:10282C00BDE8384010F054BF203451F8043BA142AD
:10283C0045F8043BF9D138BD2DE9F04F0C465188D1
:10284C000546B1F58C7F4FF0000085B010D31070A9
:10285C00D91CC9B2012995BF012100235180538095
:10286C009CBF237011700020287005B0BDE8F08F5C
:10287C0016780E2E00F2918001A757F826F000BFB3
:10288C005D280008C9280008F12800081129000853
:10289C00A7290008A7290008A7290008A7290008CC
:1028AC00A7290008A7290008A7290008A7290008BC
:1028BC00A7290008A729000823290008481C5080D4
:1028CC00635421789BB2FD2906D10C330A21D380A5
:1028DC00022391801370C6E706210833D3809180C0
:1028EC000E23F7E7481C5080D8074FF000006354C4
:1028FC0042BFD1880D31D180012B8CBF03460323FD
:10290C001370B1E7481C508000208342635414BFFD
:10291C0003460E23F4E7481C508063545388D18837
:10292C008B4232D3002353801370022369802B70A7
:10293C002378FD2B37D163792B72A3796B72637A71
:10294C00227A1B0403EB0223E27913446B60637855
:10295C0003F10C026A80A278D10701D519336B8080
:10296C0000264FF4BC720C206968DFF8FC806E8185
:10297C00B31801335B0800FB03F758F80770B94232
:10298C001AD25A1EB242F3D818E092889A423FF6F5
:10299C006AAF01232B70002067E710705080908085
:1029AC00D0802870F7E7E3782B7223796B72637908
:1029BC006B6063780833D2E71E46E3D80C27774365
:1029CC0058F80730994227D123782046FD2B0CBFAD
:1029DC004FF00A094FF0060910F801BF474409EB04
:1029EC000B03591E89B20193FFF7B6FC97F804A0AC
:1029FC00ADF80E0051460DF10E00FFF789FC019B5E
:102A0C00E2185278E35C03EB0223BDF80E209BB274
:102A1C009A4209D0052000E00320287002380128D2
:102A2C008CBF0020012020E7BB79DA0706D5FA79A4
:102A3C00934582BF04EB09018A5CAA729B0709D5F6
:102A4C000C2303FB068362781B7A9A4282BF4C44A8
:102A5C00E35CEB720C2303FB06835B79022085F8A5
:102A6C000CA06B73DAE700BF985701086FF02003D6
:102A7C00024803604368FFF7E9BB00BF0044004015
:102A8C0008B5FFF7F3FF0022014B1A7208BD00BF17
:102A9C00701C002008B5FFF7E9FF0022014B1A72E9
:102AAC0008BD00BFF00A00206FF02003024803604D
:102ABC004368FFF7CBBB00BF0048004010B504468D
:102ACC00FEF7DCFC06210020FEF722FF0C48FEF787
:102ADC00FBFE2046FDF73EFBC0B208284FF01B0062
:102AEC0008D8FEF70FFF2046FFF78CF8BDE8104022
:102AFC00FEF7F0BEFEF706FF2046FFF76BF8F5E792
:102B0C00804F0108034630B587B001AC00F11005C9
:102B1C00224618685968083303C2AB421446F7D1F1
:102B2C000024094D8DF81440A96801A8FDF708FB95
:102B3C0010B920B207B030BD01342E2C05F10C05B4
:102B4C00F2D14FF0FF30F5E73000002010B50278DD
:102B5C000A4BD243D2B244789A5C90F802E06240BD
:102B6C009A5C90F803C082EA0E029A5C017982EAC0
:102B7C000C029A5C4A40985C10BD00BF9856010844
:102B8C00028810B58488531C234044889C421EBF85
:102B9C0012189171038010BD411A88B20B0444BF06
:102BAC0000F5007080B2704770B5104C00252346BC
:102BBC0026782EB166788E4202D1A67896420BD03A
:102BCC0001350C2D04F10404F2D1002413F8245027
:102BDC001DB101340C2CF9D170BD012503F8245022
:102BEC0003EB8403D87059709A70F5E7C90900207B
:102BFC002DE9F8430B465A7A9E7ADF7A204B0D79F1
:102C0C001B5C0446DB07097A00D50DB9FFF7CCFF36
:102C1C0000234FF0010E98461A4919489C4201F8BE
:102C2C00018B25D02DB90278920702D501F801EC61
:102C3C001EE04FF0000C144A92F80090B9F1000F0E
:102C4C000FD092F8039099450BD1002EEED092F84C
:102C5C000190B14505D1002FE8D092F80290B9450A
:102C6C00E4D00CF1010CBCF10C0F02F10402E3D125
:102C7C000133DBB2042B00F10100CFD1BDE8F883A6
:102C8C00F9090020C5090020C909002007B503680F
:102C9C008DF8071001221B690DF10701984703B04D
:102CAC005DF804FB50294FEA10122CD018D83029AB
:102CBC002CD00DD810292CD041F6786343F6F04077
:102CCC00202908BF034617489040B0FBF3F070472B
:102CDC0041F6786347F61220402908BF0346F2E715
:102CEC00802919D008D8602918D041F678630E488D
:102CFC00702908BF0346E6E741F678630B48902934
:102D0C0008BF0346DFE74AF2E423DCE745F2401351
:102D1C00D9E742F6A003D6E7054BD4E74FF224439C
:102D2C00D1E700BF40420F0048E8010020A1070096
:102D3C0090D00300F0B5FD230546044685B005F898
:102D4C000C3B8DF8043090F8243103F10C02024452
:102D5C00012B42D80026637066808DF805308B7A83
:102D6C000DF1050023718DF808308B7AADF80660F3
:102D7C0001338B72637909218DF80930A3798DF8B1
:102D8C000A30A368C3F317031A128DF80B301B1407
:102D9C008DF80D308DF80C20FFF7DEFA6778294698
:102DAC003A46ADF802000DF10200FFF7BDFA94F8B7
:102DBC002311FFF7ADFA94F82421BDF802309742A5
:102DCC00A4F80C3110D2314607F10C00D21B204470
:102DDC0005B0BDE8F04010F07BBC12F8010D0028E6
:102DEC00B8D1013BDBB2B3E705B0F0BD704770B5AD
:102DFC00044608460D46FDF7ADF92368294682B214
:102E0C001B692046BDE87040184708B5FFF7EFFF77
:102E1C0008BD0120FFF70CBA0D4B984202D10420DB
:102E2C00FFF706BA0B4B984205D003F58063984226
:102E3C0003D11020F4E70820F2E7074B984201D1A8
:102E4C002020EDE7054B984200D070474020E7E783
:102E5C0000080140000C0140001401400018014022
:102E6C000B4B984203D14FF40060FFF7E1B9B0F17E
:102E7C00804F04D0074B984204D1022000E001207F
:102E8C00FFF7C8B9044B984201D10420F8E770470A
:102E9C00002C01400004004000080040064B984202
:102EAC0003D14FF40070FFF7C3B9044B984202D121
:102EBC004FF48060F7E77047002401400028014080
:102ECC002DE9F0410C46154686B00746102200212C
:102EDC0002A81E469DF8348010F0FAFB01940B2DCD
:102EEC0007D8DFE805F00E0E070A14141416161690
:102EFC001B1DFEE70823029303E008230293012322
:102F0C000593032E0ED8DFE806F01E200E1E0123BB
:102F1C00F1E70123029304230493F2E70923EAE780
:102F2C000923F7E7FEE701230393B8F1000F02D062
:102F3C003846FFF771FF053D042D0BD8DFE805F08F
:102F4C0007110A0711000323EEE70223ECE7C4F391
:102F5C000F247C61384601A90EF0F8FA06B0BDE8E2
:102F6C00F081C4F30F243C61F4E713B54FF0010C6E
:102F7C000024CDE9004CFFF7A3FF02B010BD000008
:102F8C0030B50023154687B00446ADF80630FFF780
:102F9C0067FF042D04D8DFE805F02A2E04323B002D
:102FAC00FEE71C4B1C4A1B68B3FBF2F39BB20022DE
:102FBC00013BCDE90221204601A9ADF80430049271
:102FCC0005920EF0FDFB236823F080032360A368B9
:102FDC0023F4804323F00703A360636823F070039A
:102FEC006360A36823F08003A36007B030BD094B76
:102FFC000A4A1B68D8E7074B094A1B68D4E7054BFC
:10300C00064A1B68B3FBF2F303EB83035B00CDE7CB
:10301C000123CCE76C02002080A8120140420F0073
:10302C0000127A0010B50446FFF7AAFF236843F09C
:10303C000103236010BD00224FF0FF31FFF7F2BFF8
:10304C001A4B10B55B681A4C23600CF0BBF919488D
:10305C000EF02CFA18480EF029FA18480EF026FA41
:10306C0017480EF0ADFC17480EF0AAFC0EF0F2FA61
:10307C004FF0E022002313615361936172B64FF05D
:10308C00FF319A0002F16042013302F56142082BD4
:10309C00C2F88010C2F88011F3D162B6034B1B68E2
:1030AC0083F3088823689847FEE700BF00F0FF1FF2
:1030BC00C009002000080140000C01400010014034
:1030CC00003801400044004030B50024054689B06A
:1030DC001422214603A8CDE9014410F0F9FA01A904
:1030EC0028460EF0ABF96946084800940EF08AF9B0
:1030FC004FF46023CDE903340223284603A9CDE91C
:10310C00063405940EF0AFF909B030BD002401402F
:10311C00F0B4044601F44075184604F12C064FF443
:10312C00407393FAA3F3B3FA83F31F27DD4056F8E9
:10313C00253001F01F018F4023EA070302F01F071F
:10314C0007FA01F10B4346F825300C344FF00073AD
:10315C0002F0007693FAA3F3B3FA83F3DE404FF058
:10316C00F87154F8263002F0F87291FAA1F1B1FA24
:10317C0081F1072522FA01F105FA01F123EA010197
:10318C004FF0F87393FAA3F3B3FA83F3DA40954054
:10319C000D4344F8265004990023F0BC0122FFF79C
:1031AC00E4BE014608B5FFF734FEBDE8084008460A
:1031BC00FFF774BE0749084A881AEFF30883521ABE
:1031CC001A44013A013B984288BF0022AA2110F010
:1031DC007FBA00BF005000200004000010B50F4C57
:1031EC0003232046062240F60801FFF7BEFE2046C8
:1031FC00032302220A49FFF7B8FE204603230522C7
:10320C0042F22001FFF7B1FE2046BDE81040032337
:10321C00052241F21001FFF7A8BE00BF000C0140CF
:10322C00020002041022024B5A6120221A617047DC
:10323C00000C01402022024B5A6110221A61704787
:10324C00000C01401248F022016921F0F00192FAC1
:10325C00A2F20123B2FA82F293400B4303610D4BAD
:10326C005A6822F400725A601A6822F400721A60CA
:10327C00DA6822F40072DA609A6842F400729A609A
:10328C00D022054B83F817234FF400021A607047C5
:10329C00000001400004014000E100E04FF4007226
:1032AC00034B5A611A6842F400721A60704700BFEF
:1032BC000004014010B50A4C0023052220460949A0
:1032CC00FFF753FE0023052220460749FFF74DFE6A
:1032DC004FF4004363614FF48043636110BD00BF42
:1032EC000010014080008004400040040549CB6878
:1032FC001A04DB4302F0004203F4004313430B6156
:10330C00704700BF001001400549CB681A04DB432D
:10331C0002F0804203F4804313430B61704700BFFB
:10332C0000100140104BD86C80B2A0F2CF63C62BBA
:10333C0011D9A0F6EB23C62B0FD9A0F61C13C62B64
:10334C000DD9A0F63D23C62B0BD9C7288CBF002066
:10335C0001200001704701207047022070470420B3
:10336C0070470820704700BF0024014010B5054C81
:10337C000023052220460449FFF7F7FD4FF40053C4
:10338C00636110BD00100140200020044FF4005276
:10339C00024B1628CCBF1A615A61704700100140CD
:1033AC000C4BD3F8FC2022F08072C3F8FC20D3F82D
:1033BC00FC2042F08072C3F8FC20A3F55D431A6830
:1033CC0022F001021A601A6842F001021A6000220F
:1033DC005A60704700ED00E0064B074A1B6807492E
:1033EC00B3FBF2F3434310B54C684A68121B9A4284
:1033FC00FBD310BD6C02002040420F00001000E017
:10340C0010B504466420FFF7E7FFA36843F00403FC
:10341C00A360A3685B07FCD410BD826842F0010274
:10342C008260FFF7EDBF000013B50F4C2046FFF78D
:10343C00B8FE2046FFF748FE40F201134FF0007231
:10344C004FF4007120460093084BFFF761FE2046B5
:10345C00FFF7E3FF6420FFF7BFFFA36843F4A0036B
:10346C00A36002B010BD00BF002401400008014061
:10347C002DE9F84381464CF250300E4617461D4656
:10348C000CF0D8F988BBB9F1010F06D0B9F1020FD5
:10349C000CBF4FF002094FF004094FF00008144A1A
:1034AC00136943F0010313614FEA0814C4F12002BD
:1034BC00A4F1200305FA02F227FA04F4144325FAC6
:1034CC0003F31C43A4B24CF2503026F818400CF015
:1034DC00B1F928B908F101085FFA88F39945E3D8E6
:1034EC00034A136923F001031361BDE8F88300BF9D
:1034FC00002002407FB501230022CDE9040301A97D
:10350C0002A8CDE902230CF0D1F900280CBF04204D
:10351C00052007B05DF804FB0A4608B501460023F8
:10352C000220FFF7A5FF00280CBF0420052008BDD2
:10353C0008B5FFF7DFFF031F5842584108BD08B517
:10354C00FFF7EAFF031F5842584108BD2DE9F04729
:10355C00264B274D01280FBF7D267C26AA461D46EB
:10356C000F4614462349244A06BF89469A4691467B
:10357C000CF044F931462846FFF7DAFF28B900244D
:10358C000CF04EF92046BDE8F087002F08BF4FF431
:10359C0078744FF000080334C4F38F0405F110065F
:1035AC00AAEB050A1FFA88F39C4209D84FF0113197
:1035BC002846FFF7C4FF041E18BF0124A400DFE750
:1035CC003FB95AF806104B1C06D108F10108043615
:1035DC00E8E757F82810F6E74E4505D23046FFF7D6
:1035EC00AEFF0028F1D1CAE70324C9E700F00108B7
:1035FC0000F40108FFF70108FFF3010810B50CF007
:10360C00FDF87C210848FFF793FF044638B17D2173
:10361C000648FFF78DFF041E18BF0124A4000CF010
:10362C00FFF8204610BD00BF00F0010800F40108AF
:10363C0030B5002340F2EF34064D9AB2914201D8D6
:10364C00042030BDA34203D05A5DC2540133F4E7C9
:10365C000320F6E710F0010838B504460D4672B6A3
:10366C000A4601460020FFF771FF62B6042806D116
:10367C0072B601202A462146FFF768FF62B638BDB4
:10368C0038B5124B1C68D3F80054B4F1113F09D172
:10369C00B5F1113F17D0002201201146BDE838408A
:1036AC00FFF754BFB5F1113F03D10022114610466C
:1036BC00F4E7FFF7A3FF042804D12C4001340CBF1E
:1036CC000220012038BD0420FCE700BF00F00108F7
:1036DC00034B18739A68D207FCD5187B704700BF50
:1036EC000038004038B5441E8D18A94200D138BDB1
:1036FC0014F8010FFFF7ECFF01F8010BF5E7084692
:10370C0011461A46FFF7EEBF38B50446054D014485
:10371C00A14200D138BD2878FFF7DAFF04F8010B7D
:10372C00F6E700BF6002002008461146FFF7ECBF29
:10373C0010B5044601448C4200D110BD14F8010BA5
:10374C00FFF7C6FFF7E708461146FFF7F1BF000089
:10375C0070B58CB0294C2822002102A80FF0B8FFBC
:10376C00FFF757FB4FF48040FEF754FD24492046E9
:10377C0003230622FFF7F9FB062501264FF480539D
:10378C00204623610A2203231E49CDE90056FFF788
:10379C0097FB204603230A221B49CDE90056FFF76D
:1037AC008FFB032320461A461849CDE90056FFF734
:1037BC0087FB0822002308924FF48272CDE905336F
:1037CC00CDE909330293039204934FF4007207235B
:1037DC00A4F55444204602A90B9307920DF0C3FFA5
:1037EC00236843F040032360A3689B07FCD5FF22AA
:1037FC00237B074B1A700CB070BD00BF000C01404E
:10380C0010001004200020048000800440004004BC
:10381C00600200201C4B10B41A68940611D5D968AC
:10382C0088060ED5194C1A4859682388008801332C
:10383C00C3F30A0380B298421FBF1648C9B2C154E1
:10384C002380110744BF104B5B68120616D50E4837
:10385C00C3681B0612D5104B104A1988138889B2FD
:10386C009BB299420CD013880133C3F30803138025
:10387C0013880B4A9BB2D35CDBB2436010BC70471D
:10388C0010BCFEF717BD00BF003801400C420020F1
:10389C000A4200200A3A0020104400200E44002066
:1038AC000E4200200A490B4A08B50B8812880133D6
:1038BC00C3F3080392B29A4207D0074AD054074880
:1038CC000B80FEF7D0FC012008BD0020FCE700BFF8
:1038DC00104400200E4400200E420020003801400D
:1038EC0038B504464518AC4200D138BD14F8010B6C
:1038FC00FFF7D8FFF7E708461146FFF7F1BF0000C6
:10390C00054B064A1B8810880133C3F3080380B2A9
:10391C00181A18BF01207047104400200E440020D4
:10392C0008B5FFF7EDFFB0FA80F0400908BD0000C4
:10393C00054B064A1B8812889B1A98B21B0444BF7D
:10394C0000F5006080B270470C4200200A42002053
:10395C00FFF7EEBF0848094A0188138889B29BB269
:10396C009942F9D013880133C3F30A0313801388E7
:10397C00034A9BB2D05C70470C4200200A420020E4
:10398C000A3A0020FFF7E6BF002300B589B0CDE965
:10399C000633CB1A18BF01231B03CDE902320C23CB
:1039AC0001900491034801A905930EF03BF809B06E
:1039BC005DF804FB0038014010B5064CE36823F4B5
:1039CC000053E360FFF7E0FFE36843F40053E36068
:1039DC0010BD00BF00380140002208461146FFF719
:1039EC00EBBF0000F7B5082601272E4C2E4DE368DF
:1039FC002E4923F40053E360FFF70BFA4FF4804099
:103A0C00FEF716FC284603230A22CDE90067FFF7D0
:103A1C0057FA032328461A46CDE900672449FFF7D5
:103A2C004FFA00224FF4E1301146FFF7ADFFB02200
:103A3C00236923F490432361636923F02A036361B0
:103A4C001C4B83F8252320225A602046FEF732FCBB
:103A5C00FEF723FC6FF0400323600024164B1C8000
:103A6C00164B1C80FEF70CFC6FF020030360144B0C
:103A7C001C80144B1C80036923F4006303614369AD
:103A8C0023F008034361036923F480430361436912
:103A9C0023F022034361C36843F40053C36003B0B3
:103AAC00F0BD00BF003801400008014002000204D4
:103ABC000400040400E100E00E4400201044002047
:103ACC000A4200200C42002008B5FFF78BFF6FF074
:103ADC002003034803604368BDE80840FEF7B6BB0B
:103AEC0000380140FFF7F0BF7FB5002401250646E2
:103AFC0044F24001FFF78DF902230B222648CDE951
:103B0C000045FFF7DDF9022348F280010B22CDE9D5
:103B1C0000452148FFF7D4F93168204B99420AD16E
:103B2C0003F5DE33DA6942F40012DA61DB6903F47F
:103B3C0000130293029B002380221020184D194C75
:103B4C00C5E90133C5E90323C5E90533C4E901031C
:103B5C00C4E90323C4E90533EB61E3610F4B9942DC
:103B6C0018D103F5DE335A69284642F001025A6136
:103B7C005B6903F001030393039B0B4B2B600BF06E
:103B8C00C3FC0A4B2046B5636E6223600BF0BCFC91
:103B9C007463666204B070BD000C014000540040B8
:103BAC00581200209C120020800002406C00024041
:103BBC0008B51448144B4FF4804203600023C0E94D
:103BCC000332124AC0E90533C0E90733C0E90123C7
:103BDC000CF008F8A0B9F0220D4B83F81F234FF01E
:103BEC000041196083F820230121596083F81023C8
:103BFC004FF48031196083F811234FF400321A60AE
:103C0C0008BD00BFE012002000540040801A0600DE
:103C1C0000E100E001480CF09FBC00BFE012002066
:103C2C0001480DF0E1B800BFE012002001480BF094
:103C3C0025BD00BF9C12002001480BF01FBD00BF2A
:103C4C0058120020014B1870704700BF341300202D
:103C5C001FB5084B1C784FF0FF33CDE9012301232E
:103C6C0002460091044804FA03F10CF063F804B026
:103C7C0010BD00BF34130020E012002013B5064B1A
:103C8C001C780123CDE90012024604FA03F1034823
:103C9C000CF0E0F802B010BD34130020E01200204C
:103CAC00044B0A22197804484FF0FF3349000CF0FA
:103CBC0097B900BF34130020E012002008B5FFF7BD
:103CCC0077FF0022014B1A7008BD00BF341300208F
:103CDC00024B1A68024B1A60704700BF2446002042
:103CEC0020100020054A064B1968136899421DBF25
:103CFC000133012013600020704700BF201000200A
:103D0C0024460020034A044B11681B780B441360B3
:103D1C00704700BF2446002070020020014B186839
:103D2C00704700BF244600200148FFF784B900BF4C
:103D3C0000040040014B586A80B2704700040040F8
:103D4C0008B5FFF7F1FFBDE80840FFF7C1BF000061
:103D5C0038B51B4C94220021201D0FF0B9FC062312
:103D6C002380202363800F23164D05222946A38030
:103D7C00A01D2C23FDF714F8134A144B2946C4E953
:103D8C000D23134B0522E36304F140002C23FDF7B4
:103D9C0007F80223A4F86E304FF480332367002316
:103DAC000C4904F18000C4E91E3384F874300FF020
:103DBC00EFFC7F2384F89530052384F8963038BDCA
:103DCC0028090020604F010802000F0003000500C5
:103DDC00FFFF0F001C3C010870B5094E05460C4650
:103DEC00415C30460FF08BFC034628B1831B01333A
:103DFC00DBB2282B28BF0023F35C2B5570BD00BF12
:103E0C006C56010870B50C46114606460FF0C0FC06
:103E1C0044B10025052130460135FFF7DDFFEBB23B
:103E2C009C42F7D870BD000073B5054605F111062C
:103E3C00214C0146214A68463601FFF7E3FFB01CCE
:103E4C00694620440FF0A4FC0123022104EB051267
:103E5C0026447372A2F81A11142240F2011102FBCB
:103E6C0005404FF480750322A0F84A30C36480F8F3
:103E7C005020A0F85230002280F85530A0F856504F
:103E8C00A0F8581040F2032084F83420E384A56293
:103E9C00A08584F82E3084F8303084F83320C4F8B0
:103EAC003A20C4F83E20C4F84220A4F84610A4F8E6
:103EBC00481002B070BD00BF6C070020DC3B01084D
:103ECC00F7B5054605F111060146AE4AAE4C6846FB
:103EDC003701FFF797FFB81C694627442044FCF7CD
:103EEC005BFE7B7AA94A052B88BF022304EB0610E4
:103EFC0088BF7B721188437A41FA03F3DF070FD432
:103F0C000223437261B14807C1F3800308D441FA1C
:103F1C0003F7FF07D8B240F1D08104EB06135872B7
:103F2C0004EB051191F81A012B01052802D9022086
:103F3C0081F81A01E718508897F81A1140FA01F124
:103F4C00C90711D4052187F81A1168B18706C0F387
:103F5C00401109D440FA01FC1CF0010FCFB200F063
:103F6C00B181E11881F81A71E11891F81B0103284D
:103F7C0002D9002081F81B0104EB0616717A012985
:103F8C0003D9042901D000219180E618908896F875
:103F9C001B1140FA01F111F001010ED186F81B1131
:103FAC0058B110F0010108D140FA01F7FF07CEB269
:103FBC0040F18D81234483F81B61142303FB0541DD
:103FCC0091F84A00042802D9012081F84A0003FB29
:103FDC00054393F84B10042902D9002183F84B10A8
:103FEC00142303FB0543918E93F84B0041FA00F028
:103FFC00C00712D4012083F84B0071B18807C1F3BC
:10400C0040030AD441FA03F6F707D8B240F16481B1
:10401C00142303FB054383F84B00142303FB0543D4
:10402C0093F84C10032902D9012183F84C10142069
:10403C0000FB0540D18E90F84C3041FA03F313F09D
:10404C00010310D180F84C3069B111F001030AD191
:10405C0041FA03F6F607D8B240F14381142303FB6F
:10406C00054383F84C00142303FB054393F84E10CF
:10407C00012902D9002183F84E10142000FB0540C1
:10408C00118F90F84E3041FA03F313F0010310D165
:10409C0080F84E3069B111F001030AD141FA03F6F0
:1040AC00F707D8B240F12281142303FB054383F8B0
:1040BC004E00142303FB054393F84F10022902D939
:1040CC00002183F84F10142000FB0540518F90F80D
:1040DC004F3041FA03F313F0010310D180F84F3045
:1040EC0069B111F001030AD141FA03F6F607D8B20F
:1040FC0040F10181142303FB054383F84F00142383
:10410C0003FB054191F84D00022802D9002081F8EB
:10411C004D0003FB054393F85010052902D90321E8
:10412C0083F85010142303FB054191F85200012829
:10413C0002D9012081F8520003FB054393F8551076
:10414C00012902D9012183F85510142303FB0543DF
:10415C0093F85310022902D9002183F8531014202C
:10416C0000FB0540918F90F8533041FA03F313F0A4
:10417C00010318D180F85330A9B111F0010312D109
:10418C0006E000BFDC3B01086C070020280900207A
:10419C0041FA03F6F707D8B240F1B280142303FBBF
:1041AC00054383F85300142303FB054191F8560093
:1041BC000C2802D9002081F8560003FB054393F824
:1041CC004C10012906D193F84F10022904BF00218D
:1041DC0083F84F101423012140F2011003FB054317
:1041EC0083F85710A3F8580094F82630042B01D903
:1041FC0084F8261094F82730042B02D9002384F875
:10420C002730B2F86E0094F8273040FA03F313F01D
:10421C00010F814B0ED1012184F8271050B1860774
:10422C00C0F3400106D440FA01F7FF07CEB26CD5BB
:10423C0083F8276094F82810022902D9002184F809
:10424C00281094F82910022902D9012184F8291088
:10425C00B2F8701094F8292041FA02F212F001021F
:10426C000CD184F8292049B111F0010206D141FA90
:10427C0002F6F607D0B24CD583F8290094F82A2020
:10428C000C2A02D9002284F82A2093F832200C2A16
:10429C0002D9002283F8322093F82B20042A02D969
:1042AC00002283F82B20002210465C4911F9014FA3
:1042BC0014F1780F31DA087031E00133102B7FF4F0
:1042CC0026AE2DE6013110297FF444AE4CE60131C7
:1042DC0010297FF469AE70E60133102B7FF492AE97
:1042EC009BE60133102B7FF4B3AEBCE60133102BED
:1042FC007FF4D4AEDDE60133102B7FF4F5AEFEE691
:10430C000133102B7FF444AF4DE7013110298AD1D2
:10431C0090E70132102AAAD1B0E7782CCBDC01321D
:10432C00D2B20C2AC2D1002201203D4911F8014F12
:10433C000132022CD2B288BF0870042AF6D193F84D
:10434C003420012A02D9002283F83420354AB2F8ED
:10435C00721093F8342041FA02F212F001020CD1DF
:10436C0083F8342049B111F0010206D141FA02F46C
:10437C00E407D0B211D583F8340093F82C20052A29
:10438C0002D9032283F82C2093F82D20032A08D875
:10439C000AD1002283F8342006E00132102AE5D13C
:1043AC00EBE7022283F82D2093F82E20022A02D963
:1043BC00012283F82E2093F83020022A02D9012200
:1043CC0083F8302093F833200C2A02D9002283F88A
:1043DC0033201421FF2201FB05314FF6FF7081F8C9
:1043EC00512081F8542083F82F2083F831204FF08E
:1043FC00FF3203EB0515C5F81C21A5F820011A6244
:10440C009A84A1F85A20A1F85C2083F83500DA864A
:10441C001A8703B0F0BD00BF6C070020A507002071
:10442C00B10700202809002010B5052804D8DFE8C2
:10443C0000F01E04221A1E22FEE720241F210F2248
:10444C000F4B987003380128A3F84A104FF0000165
:10445C0094BF0020012019711A771974A3F84840F1
:10446C009873987610BD09246F210722E8E714246D
:10447C0032210A22E4E7352413211922E0E700BF98
:10448C00100700202DE9F74300F11105944F2D0181
:10449C0005F10209B94406464846FCF799FB04218C
:1044AC008046904C01900DEB0100FDF755FFC4F8D0
:1044BC000880C4F814804FF001083D446B7AE08307
:1044CC00637007EB061393F81A0184F85180A4F873
:1044DC005280A4F85480FFF7A7FF142303FB067344
:1044EC0093F84A20804B350113F92230237323763D
:1044FC006378052B09D8DFE803F0030656585A5C9D
:10450C000023637301E084F80D80784B617B1B887A
:10451C00617603F00102980748BF42F00202A285BF
:10452C005A0748BFA28D84F8281044BF42F00402F9
:10453C00A285180742BFA28D42F01002A285DA06AE
:10454C0042BFA28D42F02002A285980642BFA38DE5
:10455C0043F00803A385002384F82A3021B9484688
:10456C00FCF756FB84F82A003D4495F81B2184F88F
:10457C0029206AB1E18B02EB021303EB03230B44FA
:10458C004FF01131E383A36801FB0233A360636135
:10459C00E38B94F828506362052D0CD8DFE805F006
:1045AC000C51531547490223ABE70423A9E7052314
:1045BC00A7E70323A5E7FEE7A378032B03D8DFE8DF
:1045CC0003F003464403FEE71825DFF824C184F802
:1045DC0020501CE90F008CE80F0040F2E243284603
:1045EC00A4F84C30FBF778FE4FF07F51FBF7C8FE78
:1045FC00FCF7C8F84FF47A73B4F848206D08B3FB95
:10460C00F2F3A4F840301423052D38BF052503FB25
:10461C00067393F85030C0B2A4F84E0084F8505092
:10462C00052B3DD8DFE803F0154236393C3F022517
:10463C00CBE7A378022B08D0052B06D0012B06D094
:10464C00FEE71925C1E70625BFE70C25BDE71225B6
:10465C00BBE74FF416536364002384F8563084F898
:10466C005830142303FB067696F84C20032A03D00B
:10467C0096F84F30022B02D1012384F85630511E8C
:10468C004B424B4194F8561084F8573089B1012AAB
:10469C000FD1FEE74FF41643DDE74FF46143DAE741
:1046AC004FF4E133D7E74FF46133D4E74FF496433B
:1046BC00D1E71420237800FB037393F84C30022BC2
:1046CC0007D1012384F8583021B194F858301BB12C
:1046DC00FEE709B9012AF8D003B0BDE8F08300BFAA
:1046EC006C07002010070020604F010828090020EB
:1046FC00400700204FF4DE72FF2101480EF0E8BFA6
:10470C006C0700204FF4DE710148FEF7A5BF00BF17
:10471C006C0700204FF4DE710148FEF789BF00BF23
:10472C006C07002008B5FFF7F5FF034B1878BDE8C0
:10473C000840FFF7C5BB00BF1007002038B5FFF7D6
:10474C00D9FFFEF79DFF04280CD0FFF7D3FFFEF72F
:10475C0097FF042803D1FFF7DDFF042806D0FFF7ED
:10476C00C9FF03E0FFF7D6FF0428EED110222F4932
:10477C002F480EF0D1FF2E4C38B1102220462D4977
:10478C000EF0CAFF08B1FFF7B5FFA38AB3F5215F9E
:10479C0028D008D30025E8B20135FFF745FB0A2DD8
:1047AC00F9D10023E3774FF421530125A38242F67C
:1047BC00430322691D499A421D484FF010021CBF49
:1047CC00012523610EF0A8FF70B11022174918487B
:1047DC00FCF764FB082218491848FCF75FFBFFF74D
:1047EC0091FF03E00025E2E7002DF8D1E37F1420D0
:1047FC00092B84BF0023E3770023E17F0C4A00FBE5
:10480C00014494F84C0001330A2B82F84C0002F15D
:10481C001402F6D10A4C2170FFF79AFA2078FFF7B0
:10482C004FFB2078BDE83840FFF72CBEE33B010876
:10483C006C070020F43B0108053C01081E09002010
:10484C001007002010B5C01A9DF80840023880F3FC
:10485C000400A042C8BF20B2C0B202330870184492
:10486C00107010BD07B5084611461A460F23009369
:10487C001223FFF7E7FF03B05DF804FB37B50C46D6
:10488C0005468B784A7809780DF0D9FBE3792846F0
:10489C000193A3792279E178009363790DF0FFFB02
:1048AC0061782078FEF7FEF9A86103B030BDC368CB
:1048BC0037B50446A3B1024652F8143B5D6900F1CA
:1048CC001503A84732233F220B2120460DF011FB84
:1048DC0009237022009380212046237D0DF03DFC9E
:1048EC0003B030BD73B5C16004460DF033FB8023BB
:1048FC008DF8073001230DF10702194620460DF003
:10490C00ADFA20460DF02CFBE3681C4E1B782046BC
:10491C0006EB03135D7829460DF03FFB2946204634
:10492C000DF04CFB0322202120460DF030FB04231C
:10493C000C22262120460DF0DCFAE368204693F980
:10494C000810FFF7B4FFE3681D7805B1FEE73146A8
:10495C0020462661FFF792FF2A46294620460DF095
:10496C0061FB20462B46C022C8210DF0C4FBFF2161
:10497C00204602B0BDE870400DF0DABBD07C0108D7
:10498C0010B504460DF0ECFA2046BDE81040FF21AE
:10499C000DF0CEBB38B504460368C1685D6991F96A
:1049AC00081000F1150300F11402A847E3681B7806
:1049BC0003B1FEE7034B902160202361FEF772F9EF
:1049CC00A06138BDD07C010810B5064CE36833B14A
:1049DC00236913B92046FFF7DDFF23699B68A3F514
:1049EC007A7010BD04370020C36810B504463BB183
:1049FC0003690BB9FFF7CEFF2369B3F90C0010BDA7
:104A0C001846FCE7C36810B5044633B103690BB90B
:104A1C00FFF7C0FF94F9150010BD1846FCE7000025
:104A2C0090F8D8305BB190F8D930074A180102EBF6
:104A3C0003139B681978135853F821007047837D32
:104A4C000E3350F823007047FC4E01082DE9F3415A
:104A5C000446164688469DF824705B22402F4FF082
:104A6C0000011D4628BF40270EF032FE904BDB8B19
:104A7C0023803278A37862F30203A3707178DBB2DF
:104A8C00C90001F0080103F0070341EA08111943BA
:104A9C00A1707279E37862F30003E370B279637901
:104AAC0062F38613637196F90200FBF7A2FFE378B9
:104ABC0060F34703E370F279237962F30003237107
:104ACC00327A62F3460323713279DBB202F00102CF
:104ADC0003F07F0343EAC213237132796379C2F383
:104AEC00450223F03F0313436371A37967F3470334
:104AFC00A3712B78AA78E3716B7802F01F0203F094
:104B0C00070343EAC20323726A88637AC2F345122D
:104B1C0023F03F03134363722A79DBB202F00302E2
:104B2C0003F03F0343EA82136372AB88C3F387033A
:104B3C00A3726A79E37AC2F3800223F00103134370
:104B4C00E372AA79DBB202F07F0203F0010343EABD
:104B5C004203E372EA88237BC2F3C31223F00F03F0
:104B6C00134323732B7AAA7AE3736B7A02F01F0236
:104B7C0003F0070343EAC20323746A89637CC2F31C
:104B8C00451223F03F03134363742A7BDBB202F01C
:104B9C00030203F03F0343EA82136374AB89C3F34C
:104BAC008703A3746A7BE37CC2F3800223F00103C6
:104BBC001343E374AA7BDBB202F07F0203F0010320
:104BCC0043EA4203E374EA89237DC2F3C31223F060
:104BDC000F03134323752B8ADB0863756B8ADB0881
:104BEC00A375AB8ADB08E375EB8ADB0823762B8B8A
:104BFC00B3F5C06F4ED2B3F5007F94BF00230123F1
:104C0C00227B63F3051222736B8BB3F5C06F43D217
:104C1C00B3F5007F94BF00230123227B63F387123B
:104C2C002273AB8BB3F5C06F38D2B3F5007F94BF52
:104C3C0000230123227D63F305122275EB8BB3F560
:104C4C00C06F2DD2B3F5007F94BF00230123227DCA
:104C5C0063F38712089B22751F4404F11802BB42B0
:104C6C0020D14FF6FF7321460DF106000D22ADF851
:104C7C000630FDF759FB2146BDF806304C2221F8D1
:104C8C000D3FFDF751FBBDF80630A4F8593002B0CA
:104C9C00BDE8F0810223B3E70223BEE70223C9E794
:104CAC000223D4E713F8011B02F8011FD7E700BF5A
:104CBC001007002013B59DF81040CDE900341346C1
:104CCC000A460021FFF7C2FE02B010BD13B5144B0B
:104CDC000288DB8B04469A421DD1837803F0F003E3
:104CEC00102B01D0202B18D1A379A52B15D84FF65A
:104CFC00FF730DF1060059222146ADF80630FDF781
:104D0C0013FBB4F85900BDF80630C01A18BF0120C7
:104D1C00800002B010BD0120FBE70220F9E700BFC4
:104D2C001007002030B5374B027893F8261000F1AD
:104D3C00160461F30302027093F8271061F3071253
:104D4C00027093F82810427861F30302427093F8D2
:104D5C00291061F30712427093F82A10827861F3DC
:104D6C000302827093F83210827961F3030282712C
:104D7C0093F82B10827861F30712827093F8341039
:104D8C00C27961F30302C27193F82C10C27861F3FB
:104D9C000302C27093F82D1061F30712C27093F8DE
:104DAC002E10027961F303020271427993F83010EC
:104DBC0061F30302427193F83310827961F30712A5
:104DCC00827103F1390100F10A0211F9015F02F855
:104DDC00015FA242F9D193F84610C27D61F3010242
:104DEC00C27593F8471061F38302C27593F84810AB
:104DFC0061F30512C27593F8493063F38712C275DB
:104E0C0030BD00BF6C0700200278314BC2F30302A7
:104E1C0030B583F82620027803F13901C2F303126E
:104E2C0083F82720427800F11604C2F3030283F8BA
:104E3C0028204278C2F3031283F829208278C2F327
:104E4C00030283F82A208279C2F3030283F832200A
:104E5C008278C2F3031283F82B20C279C2F30302C7
:104E6C0083F83420C278C2F3030283F82C20C27872
:104E7C00C2F3031283F82D200279C2F3030283F8E4
:104E8C002E204279C2F3030283F830208279C2F3D8
:104E9C00031283F8332000F10A0212F9015FA242D7
:104EAC0001F8015FF9D1C27DC2F3010283F84620FB
:104EBC00C27DC2F3810283F84720C27DC2F3011286
:104ECC0083F84820C27DC2F3811283F8492030BD9B
:104EDC006C0700201FB58DF80C300123019303AB38
:104EEC00009313460A460221FFF7B0FD05B05DF8AA
:104EFC0004FB00000123F0B5214D044685F8743005
:104F0C0085B0B0F80900FBF770FFA867B4F80B0088
:104F1C00FBF76BFF6E461422E86704F10D0105F1F7
:104F2C008000FBF7CDFF94F9213004F1230085F8C4
:104F3C00953094F8223004F1510785F89630FFF73C
:104F4C0063FF04F14103324618685968083303C201
:104F5C00BB421646F7D12C23082269460948FBF7B9
:104F6C00A1FE94F85130A5F86E3094F85230A5F8A3
:104F7C00703094F85330A5F8723005B0F0BD00BF16
:104F8C0028090020680900202DE9F0474FF040095E
:104F9C0092B00DF1080805460E46174600214A4608
:104FAC0040460EF095FB2223DFF874A01D4C9AF8B6
:104FBC0000100DF10A0004EB0111062201F58971B4
:104FCC008DF80830FBF76AFF9AF8001005A804EB7F
:104FDC00011292F81A3192F8194103F00F0304F000
:104FEC000F0444EA031492F81B3103F00F0344EA54
:104FFC000324BDF8103023F47F6323F00F031C430C
:10500C00ADF81040FFF78EFE3B4632460221284693
:10501C00CDE90089FFF71AFD12B0BDE8F08700BF9B
:10502C00100700206C070020034B04491A68044841
:10503C0001FB020018607047000A00200D66190081
:10504C005FF36E3C38B50A4A0A4D13782C78A342AC
:10505C0003D101332B70287838BD1470FFF7E4FFAF
:10506C006FF0004398423CBF01342C70F3E700BF53
:10507C00FD090020FE09002000230A4A83801268E3
:10508C0083718260084A83810384136803615368C7
:10509C00064A4361136883615368C3614EF660230B
:1050AC0003607047244600200B3C0108143C0108A7
:1050BC0010B50D4C0520FFF7B7F92046FFF760FC43
:1050CC000A212046FFF7F3FBE36803B9FEE71B78E0
:1050DC0003B1FEE7054920462161FFF7CFFB2046CF
:1050EC00FFF74EFC10BD00BF04370020D07C010838
:1050FC0090F8203013B980F82130704790F82130A7
:10510C00013B5BB2002B80F82130DCBF002380F820
:10511C0020307047134B90F820201B68CAB182686E
:10512C009B1AB3F57A6F01D9012343710379ABB1A3
:10513C000D4B427B1B781AB1022B1CBF032202734E
:10514C009A1E534253414373837953B10323037320
:10515C0070478360EAE701230371F8E74379002B7A
:10516C00F9D1704724460020E90A00200346007B51
:10517C00821E012A4FF0000202D893F8201009B9C0
:10518C001A7370471046704770B505461A4C5B226F
:10519C00002120460EF09CFA2B69184E23606B6997
:1051AC0031786360164B174D1B7805EB01119A1E75
:1051BC0053425341627A01F5897163F300026272C2
:1051CC0004F10A000622FBF769FE3378592105EB3E
:1051DC00031595F81A21237C204662F307132374D8
:1051EC0095F81B21637C62F303036374FDF7B4F839
:1051FC00A4F8590070BD00BF4937002010070020EB
:10520C00E90A00206C0700200A4A38B513880446C6
:10521C0001339BB2502B0D4601D8138038BD0023AF
:10522C0005491380FDF7E3FD29462046FDF7DFFD18
:10523C00F4E700BF24100020563D01082DE9F74F7C
:10524C001646054688466D49FDF7D1FD3146284680
:10525C00FDF7CDFD00226A4BB8F1010F694C1A80A5
:10526C0011D14FF400434FF48047636146F2A8100C
:10527C002761FEF7B1F86761FEF7AEF831462846B4
:10528C00FFF7C2FFF2E7A8F102034FF480420C2BA8
:10529C0000F2A780DFE803F03141531C07A5A5A558
:1052AC006363636363004FF480484FF4004746F236
:1052BC00A810C4F810806761FEF78EF8C4F814804B
:1052CC002761FEF789F831462846FFF79DFFEEE788
:1052DC004FF480484FF4004746F2A810C4F81080F1
:1052EC002761FEF779F8C4F814806761FEF774F84B
:1052FC0031462846FFF788FFEEE74FF4004762611E
:10530C0046F2A8102761FEF767F86761FEF764F8AC
:10531C0031462846FFF778FFF2E74FF400434FF48D
:10532C008047236146F2A8102761FEF755F86761A4
:10533C00FEF752F831462846FFF766FFF2E74FF4C6
:10534C000047226146F2A8102761FEF745F8676115
:10535C00FEF742F831462846FFF756FFF2E70027E2
:10536C004FF4004B4FF48049A8F1090A5FFA8AFA0E
:10537C000423574538BFC4F810B0019346F2A81067
:10538C00C4F81090FEF728F8C4F81490FEF724F82F
:10539C0031462846FFF738FF019B013B13F0FF0312
:1053AC00EBD10423C4F814B0019346F2A810C4F84E
:1053BC001090FEF711F8C4F81490FEF70DF8314672
:1053CC002846FFF721FF019B013B13F0FF03EBD1B4
:1053DC000137A8F10803FFB2DBB2BB4238BF00278C
:1053EC00C6E74FF40043226123614CF25030FDF7C5
:1053FC00F3FF31462846FFF707FFF6E7563D010855
:10540C0024100020001001406FF00102094B0A49E2
:10541C001A610A88013A92B20A800A8892B23AB9A1
:10542C00DA6822F00102DA601A6822F001021A60CE
:10543C00704700BF002C0140460A00206FF00102AB
:10544C00054B1A61DA6822F00102DA601A6822F060
:10545C0001021A60704700BF002C014010B5214CAE
:10546C0088B0FFF7EBFF204901230A221F48FDF704
:10547C007CFD204600224FF47A71FDF781FD00235C
:10548C00CDE9013303936023022200934FF4807320
:10549C000492CDE9052301216A46204607930CF0BE
:1054AC00C7F9134AD2F8183C23F00403C2F8183C8D
:1054BC00A2F50052536823F0E06323F0C00343F0DD
:1054CC00E06343F040035360E022636C43F4004319
:1054DC006364084B83F819234FF000721A6008B00C
:1054EC0010BD00BF002C0140010001040008014068
:1054FC000020014000E100E0074BB3FBF1F1074B4A
:10550C00D962490859631A6842F001021A601A6A92
:10551C0042F001021A62704740420F00002C014019
:10552C004FF47A730B48B0FBF1F05143B1FBF3F13C
:10553C00094B0A4AD862400858631963012111804B
:10554C001A680A431A601A6A0A431A62DA680A432A
:10555C00DA60704740420F00002C0140460A0020E0
:10556C0019B94FF4FA71FFF7C7BF182905D84FF4D2
:10557C00FA724FF4FA71FFF7D3BF4A2901D8FA2215
:10558C00F7E7632901D83222F3E7FFF757BF000092
:10559C00024B186800F00100704700BF002C01405E
:1055AC0010B50446FFF7F4FF38B92046BDE81040AB
:1055BC0028224FF4FA71FFF7B3BF10BD10B50446A3
:1055CC0094F9013008468B4201D1237823B9012389
:1055DC002370FDF7DBFE607010BD000008B543784A
:1055EC0002789A4213D0042B8ABF042303700370F1
:1055FC00027888BF4370064B064813F92210064BFD
:10560C0019731976C36813B11972FFF750F908BDF5
:10561C00604F0108043700201007002010B50AB9AC
:10562C00437010BD541E0B2CFBD80332D2B231F890
:10563C00122040F27E618A4207D95AB222EAE27203
:10564C009A42C8BF5AB24270EBE7B2F5C17F02D2A0
:10565C009A1E52B2F2E740F2D4418A4204D95AB2AD
:10566C00032A06DCDA1EF4E7B2F54B7F03D35A1E8D
:10567C00EFE70122E4E70022E2E7000037B50C4631
:10568C001D4668B907480DF106020DF107010CF033
:10569C009DFD2B4622469DF8061002480CF04AFC54
:1056AC0003B030BD0437002038B50C461546014612
:1056BC0090B9FDF7B7FD0A482B4622460CF02AFCA0
:1056CC00FF2107480CF034FD05480CF059FDBDE8EE
:1056DC0038407D20FDF780BE0148FFF751F938BDF9
:1056EC000437002013B50C4638B91148C36833B9D8
:1056FC00812281F88E3081F88C2002B010BD01F12E
:10570C008E020DF106010CF047FDBDF90630002BA1
:10571C0008DB4FF6FF73ADF80630BDF8063084F8A1
:10572C008C30EAE77F33F8DA4FF68173F3E700BF8A
:10573C000437002070B50D460646104C5B232246FC
:10574C0021462846FFF79AFFD6E9061320686268BF
:10575C009A4208BF88420ED120465921FCF7FCFD25
:10576C00B4F85940231A5C425C4128460449FFF7BF
:10577C00B9FF601C70BD0024F7E700BF4A3500205C
:10578C005C3600200A4608B501460148FFF756FD75
:10579C002C000020164600B591B0044668461D4604
:1057AC000DF0F6FF184968460DF09AFF30460CF0E4
:1057BC0009FB014668460DF093FF144968460DF04D
:1057CC008FFF134B684653F825100DF089FF1149D4
:1057DC0068460DF085FF104D9DF84830684655F829
:1057EC0023100DF07DFF0D4968460DF079FF9DF8F3
:1057FC004C30684655F823100DF072FF6A4621466E
:10580C000748FFF71BFD00BF1D3C0108243C0108A5
:10581C0000000020293C01081C000020303C01083D
:10582C002C000020002303708370437003714371BC
:10583C00C3707047002203784271022B04D0032BF3
:10584C0009D0012B16D0FEE7012303714371837835
:10585C004370C370704783784278991AA3EB0202A5
:10586C0018BF012112F0060F14BF01220022017192
:10587C004271EDE70271704702788170002A0CBF0B
:10588C00022203220270FFF7D5BF00002822074B2B
:10589C0002FB00339B681A78542A05D15878A0F182
:1058AC007803584258417047002070478C4F0108CC
:1058BC002822074B02FB00339B681A78522A05D129
:1058CC005878A0F17803584258417047002070472F
:1058DC008C4F01082822074B02FB00339B681A7877
:1058EC00542A04D15878783818BF01207047012009
:1058FC00704700BF8C4F0108282343430A4A10B558
:10590C00D1580446FFF7D4FF40B92046FFF7BEFF3D
:10591C00064B1B7820B1142202FB0311084610BD64
:10592C0001EB0311FAE700BF8C4F010810070020B0
:10593C002B2838B505461AD828220E4B4CB202FB40
:10594C0000331B79022B0DD0FE2B10D1FFF7D4FFA7
:10595C000378E4B2A3420AD004702846BDE838406C
:10596C00FFF7B8BFFFF7C8FF90F90030F2E700204F
:10597C0038BD00BF8C4F01082B2838B504460D46A6
:10598C0019D828220D4B02FB00331B79FF2B12D1A7
:10599C00FFF7B2FF06222946FBF7A5FA58B92046B5
:1059AC00FFF7AAFF29460622FBF78AFA2046BDE834
:1059BC003840FFF78FBF002038BD00BF8C4F010867
:1059CC002DE9F0430746282041431546394A012B5F
:1059DC0002EB0100046A87B025D15258364B9A422B
:1059EC0035D0A3F1CE018A4233D03449F23B9A42EE
:1059FC0008BF0C46FF234FF0000801268DF800303D
:105A0C002046FAF7A7FB5FFA88F9484529D806F132
:105A1C0018036B44AE4203F8188C30D80020387051
:105A2C0007B0BDE8F083022BE4D15258224B9A42C6
:105A3C0011D0591C8A4210D0A3F1CE018A420ED04B
:105A4C00A3F1F2018A420AD01D49EC3BCFE71D4C71
:105A5C00D0E71A4CCEE71C4CCCE71C4CCAE71C4CCC
:105A6C00C8E714F809302C2B06D106F118036B4447
:105A7C00013603F8188CF6B208F10108C0E705F1FD
:105A8C0018030DEB0305002315F8182C15F9175CFA
:105A9C000132D2B29918C9B2A94207EB030003DB59
:105AAC00002303700120BBE7615C0133DBB20170A2
:105ABC00F0E700BF8C4F010885080020373C010837
:105ACC006B3C0108883C01080D3D0108EB3C0108CA
