:020000040800F2
:1000000000500020B1FB000899FB00089BFB000892
:100010009DFB00089FFB0008A1FB000800000000FA
:10002000000000000000000000000000A3FB00082A
:10003000A5FB000800000000A7FB0008A9FB0008C2
:10004000F9FB0008F9FB0008F9FB0008F9FB0008C0
:10005000F9FB0008F9FB0008F9FB0008F9FB0008B0
:10006000F9FB0008F9FB0008F9FB0008F9FB0008A0
:10007000F9FB0008F9FB0008F9FB0008F9FB000890
:10008000A1430008AD430008F9FB0008F9FB000894
:10009000F9FB0008F9FB0008F9FB0008C5DF0008C0
:1000A000F9FB0008F9FB0008F9FB0008F9FB000860
:1000B000F9FB0008315C0008F9FB000889430008DF
:1000C00095430008F9FB0008F9FB0008F9FB00085C
:1000D000F9FB0008893F00084D720008599F00088D
:1000E000F9FB0008F9FB0008F9FB0008000000001C
:1000F0000000000000000000000000000000000000
:0C01000000000000000000005FF808F1A3
:1001100010B5054C237833B9044B13B10448AFF341
:1001200000800123237010BDD002002000000000D9
:10013000CC42010808B5034B1BB103490348AFF398
:10014000008008BD00000000D4020020CC4201085D
:1001500010F8012B11F8013B012A28BF9A42F7D071
:10016000D01A7047034613F8012B002AFBD1181A46
:100170000138704781F0004102E000BF83F0004386
:1001800030B54FEA41044FEA430594EA050F08BF32
:1001900090EA020F1FBF54EA000C55EA020C7FEAF6
:1001A000645C7FEA655C00F0E2804FEA5454D4EB73
:1001B0005555B8BF6D420CDD2C4480EA020281EA3D
:1001C000030382EA000083EA010180EA020281EA75
:1001D0000303362D88BF30BD11F0004F4FEA0131C7
:1001E0004FF4801C4CEA113102D0404261EB4101D6
:1001F00013F0004F4FEA03334CEA133302D052425C
:1002000063EB430394EA050F00F0A780A4F1010417
:10021000D5F1200E0DDB02FA0EFC22FA05F2801851
:1002200041F1000103FA0EF2801843FA05F3594137
:100230000EE0A5F120050EF1200E012A03FA0EFCB6
:1002400028BF4CF0020C43FA05F3C01851EBE371E0
:1002500001F0004507D54FF0000EDCF1000C7EEBFD
:1002600000006EEB0101B1F5801F1BD3B1F5001F3B
:100270000CD349085FEA30004FEA3C0C04F101045A
:100280004FEA445212F5800F80F09A80BCF1004F83
:1002900008BF5FEA500C50F1000041EB045141EA05
:1002A000050130BD5FEA4C0C404141EB0101013CCE
:1002B00028BFB1F5801FE9D291F0000F04BF0146BD
:1002C0000020B1FA81F308BF2033A3F10B03B3F18F
:1002D00020020CDA0C3208DD02F1140CC2F10C021F
:1002E00001FA0CF021FA02F10CE002F11402D8BF7D
:1002F000C2F1200C01FA02F120FA0CFCDCBF41EA49
:100300000C019040E41AA2BF01EB0451294330BD17
:100310006FEA04041F3C1CDA0C340EDC04F11404F4
:10032000C4F1200220FA04F001FA02F340EA0300CB
:1003300021FA04F345EA030130BDC4F10C04C4F111
:10034000200220FA02F001FA04F340EA03002946F1
:1003500030BD21FA04F0294630BD94F0000F83F43B
:10036000801306BF81F480110134013D4EE77FEA1E
:10037000645C18BF7FEA655C29D094EA050F08BF6A
:1003800090EA020F05D054EA000C04BF194610464B
:1003900030BD91EA030F1EBF0021002030BD5FEA8F
:1003A000545C05D14000494128BF41F0004130BDB7
:1003B00014F580043CBF01F5801130BD01F000450B
:1003C00045F0FE4141F470014FF0000030BD7FEA7E
:1003D000645C1ABF194610467FEA655C1CBF0B4679
:1003E000024650EA013406BF52EA033591EA030F90
:1003F00041F4002130BD00BF90F0000F04BF002188
:10040000704730B54FF4806404F132044FF00005BA
:100410004FF0000150E700BF90F0000F04BF002133
:10042000704730B54FF4806404F1320410F0004599
:1004300048BF40424FF000013EE700BF42004FEA94
:10044000E2014FEA31014FEA02701FBF12F07F4311
:1004500093F07F4F81F06051704732F07F4208BFC8
:10046000704793F07F4F04BF41F40021704730B5CF
:100470004FF4607401F0004521F000411CE700BF1B
:1004800050EA010208BF704730B54FF000050AE09E
:1004900050EA010208BF704730B511F0004502D59F
:1004A000404261EB41014FF4806404F132045FEAA1
:1004B000915C3FF4D8AE4FF003025FEADC0C18BF4A
:1004C00003325FEADC0C18BF033202EBDC02C2F13C
:1004D000200300FA03FC20FA02F001FA03FE40EACE
:1004E0000E0021FA02F11444BDE600BF70B54FF0D2
:1004F000FF0C4CF4E06C1CEA11541DBF1CEA1355B0
:1005000094EA0C0F95EA0C0F00F0DEF82C4481EA17
:10051000030621EA4C5123EA4C5350EA013518BF37
:1005200052EA033541F4801143F4801338D0A0FB24
:1005300002CE4FF00005E1FB02E506F00042E0FBD1
:1005400003E54FF00006E1FB03569CF0000F18BFD7
:100550004EF0010EA4F1FF04B6F5007F64F540747F
:1005600004D25FEA4E0E6D4146EB060642EAC62112
:1005700041EA55514FEAC52040EA5E504FEACE2E7F
:10058000B4F1FD0C88BFBCF5E06F1ED8BEF1004F82
:1005900008BF5FEA500E50F1000041EB045170BDFE
:1005A00006F0004646EA010140EA020081EA030142
:1005B000B4EB5C04C2BFD4EB0C0541EA045170BD3E
:1005C00041F480114FF0000E013C00F3AB8014F1B8
:1005D000360FDEBF002001F0004170BDC4F1000401
:1005E000203C35DA0C341BDC04F11404C4F1200582
:1005F00000FA05F320FA04F001FA05F240EA0200DD
:1006000001F0004221F0004110EBD37021FA04F612
:1006100042EB06015EEA430E08BF20EAD37070BDCC
:10062000C4F10C04C4F1200500FA04F320FA05F02B
:1006300001FA04F240EA020001F0004110EBD3702D
:1006400041F100015EEA430E08BF20EAD37070BD9D
:10065000C4F1200500FA05F24EEA020E20FA04F376
:1006600001FA05F243EA020321FA04F001F0004125
:1006700021FA04F220EA020000EBD3705EEA430E96
:1006800008BF20EAD37070BD94F0000F0FD101F0C5
:100690000046400041EB010111F4801F08BF013CFE
:1006A000F7D041EA060195F0000F18BF704703F03C
:1006B0000046520043EB030313F4801F08BF013DC3
:1006C000F7D043EA0603704794EA0C0F0CEA13557F
:1006D00018BF95EA0C0F0CD050EA410618BF52EA39
:1006E0004306D1D181EA030101F000414FF000003F
:1006F00070BD50EA410606BF1046194652EA43064D
:1007000019D094EA0C0F02D150EA013613D195EAC0
:100710000C0F05D152EA03361CBF104619460AD108
:1007200081EA030101F0004141F0FE4141F4700112
:100730004FF0000070BD41F0FE4141F4780170BD02
:1007400070B54FF0FF0C4CF4E06C1CEA11541DBF67
:100750001CEA135594EA0C0F95EA0C0F00F0A7F869
:10076000A4EB050481EA030E52EA03354FEA013196
:1007700000F088804FEA03334FF0805545EA1313A9
:1007800043EA12634FEA022245EA111545EA106571
:100790004FEA00260EF000419D4208BF964244F108
:1007A000FD0404F5407402D25B084FEA3202B61A27
:1007B00065EB03055B084FEA32024FF480104FF4FB
:1007C000002CB6EB020E75EB030E22BFB61A75466F
:1007D00040EA0C005B084FEA3202B6EB020E75EB02
:1007E000030E22BFB61A754640EA5C005B084FEA6A
:1007F0003202B6EB020E75EB030E22BFB61A754637
:1008000040EA9C005B084FEA3202B6EB020E75EB41
:10081000030E22BFB61A754640EADC0055EA060E02
:1008200018D04FEA051545EA16754FEA06164FEA45
:10083000C30343EA52734FEAC2025FEA1C1CC0D1F1
:1008400011F4801F0BD141EA00014FF000004FF07E
:10085000004CB6E711F4801F04BF01430020B4F13F
:10086000FD0C88BFBCF5E06F3FF6AFAEB5EB030CF7
:1008700004BFB6EB020C5FEA500C50F1000041EBF4
:10088000045170BD0EF0004E4EEA113114EB5C04C1
:10089000C2BFD4EB0C0541EA045170BD41F4801194
:1008A0004FF0000E013C90E645EA060E8DE60CEA9C
:1008B000135594EA0C0F08BF95EA0C0F3FF43BAFB9
:1008C00094EA0C0F0AD150EA01347FF434AF95EA70
:1008D0000C0F7FF425AF104619462CE795EA0C0F54
:1008E00006D152EA03353FF4FDAE1046194622E721
:1008F00050EA410618BF52EA43067FF4C5AE50EAFB
:1009000041047FF40DAF52EA43057FF4EBAE12E7EA
:100910004A0011D212F5001211D20DD56FF478737E
:10092000B3EB62520ED44FEAC12343F0004343EAD3
:10093000505323FA02F070474FF00000704750EA1E
:10094000013002D14FF0FF3070474FF00000704788
:1009500080F0004002E000BF81F0004142001FBF74
:100960005FEA410392EA030F7FEA226C7FEA236C7D
:100970006AD04FEA1262D2EB1363C1BFD218414072
:1009800048404140B8BF5B42192B88BF704710F008
:10099000004F40F4000020F07F4018BF404211F0AB
:1009A000004F41F4000121F07F4118BF494292EA13
:1009B000030F3FD0A2F1010241FA03FC10EB0C003F
:1009C000C3F1200301FA03F100F0004302D54942CC
:1009D00060EB4000B0F5000F13D3B0F1807F06D379
:1009E00040084FEA310102F10102FE2A51D2B1F171
:1009F000004F40EBC25008BF20F0010040EA030066
:100A00007047490040EB0000013A28BFB0F5000FE5
:100A1000EDD2B0FA80FCACF1080CB2EB0C0200FA9B
:100A20000CF0AABF00EBC25052421843BCBFD040EA
:100A30001843704792F0000F81F4000106BF80F464
:100A400000000132013BB5E74FEA41037FEA226C27
:100A500018BF7FEA236C21D092EA030F04D092F0F2
:100A6000000F08BF0846704790EA010F1CBF002026
:100A7000704712F07F4F04D1400028BF40F0004083
:100A8000704712F100723CBF00F50000704700F0A3
:100A9000004343F0FE4040F4000070477FEA2262CA
:100AA00016BF08467FEA23630146420206BF5FEA9B
:100AB000412390EA010F40F4800070474FF000039B
:100AC00004E000BF10F0004348BF40425FEA000C62
:100AD00008BF704743F0964301464FF000001CE00A
:100AE00050EA010208BF70474FF000030AE000BF60
:100AF00050EA010208BF704711F0004302D540429E
:100B000061EB41015FEA010C02BF8446014600200F
:100B100043F0B64308BFA3F18053A3F50003BCFA2A
:100B20008CF2083AA3EBC25310DB01FA02FC6344D7
:100B300000FA02FCC2F12002BCF1004F20FA02F2DE
:100B400043EB020008BF20F00100704702F12002D1
:100B500001FA02FCC2F1200250EA4C0021FA02F232
:100B600043EB020008BF20EADC7070474FF0FF0C37
:100B70001CEAD0521EBF1CEAD15392EA0C0F93EA32
:100B80000C0F6FD01A4480EA010C400218BF5FEAD4
:100B900041211ED04FF0006343EA501043EA511147
:100BA000A0FB01310CF00040B1F5000F3EBF490041
:100BB00041EAD3715B0040EA010062F17F02FD2A45
:100BC0001DD8B3F1004F40EBC25008BF20F0010028
:100BD000704790F0000F0CF0004C08BF49024CEA3F
:100BE000502040EA51207F3AC2BFD2F1FF0340EAD1
:100BF000C250704740F400004FF00003013A5DDC42
:100C000012F1190FDCBF00F000407047C2F1000282
:100C1000410021FA02F1C2F1200200FA02FC5FEA6F
:100C2000310040F1000053EA4C0308BF20EADC70B9
:100C3000704792F0000F00F0004C02BF400010F42B
:100C4000000F013AF9D040EA0C0093F0000F01F0D8
:100C5000004C02BF490011F4000F013BF9D041EAFA
:100C60000C018FE70CEAD15392EA0C0F18BF93EAFC
:100C70000C0F0AD030F0004C18BF31F0004CD8D126
:100C800080EA010000F00040704790F0000F17BFAD
:100C900090F0004F084691F0000F91F0004F14D0F3
:100CA00092EA0C0F01D142020FD193EA0C0F03D14B
:100CB0004B0218BF084608D180EA010000F000404E
:100CC00040F0FE4040F40000704740F0FE4040F429
:100CD000400070474FF0FF0C1CEAD0521EBF1CEAC8
:100CE000D15392EA0C0F93EA0C0F69D0A2EB0302E6
:100CF00080EA010C49024FEA402037D04FF0805380
:100D000043EA111143EA10130CF000408B4238BF44
:100D10005B0042F17D024FF4000C8B4224BF5B1A52
:100D200040EA0C00B3EB510F24BFA3EB510340EAA0
:100D30005C00B3EB910F24BFA3EB910340EA9C004E
:100D4000B3EBD10F24BFA3EBD10340EADC001B01BE
:100D500018BF5FEA1C1CE0D1FD2A3FF650AF8B4262
:100D600040EBC25008BF20F0010070470CF0004C6F
:100D70004CEA50207F32C2BFD2F1FF0340EAC2509A
:100D8000704740F400004FF00003013A37E792F05B
:100D9000000F00F0004C02BF400010F4000F013AB9
:100DA000F9D040EA0C0093F0000F01F0004C02BFB4
:100DB000490011F4000F013BF9D041EA0C0195E71D
:100DC0000CEAD15392EA0C0F08D142027FF47DAFB6
:100DD00093EA0C0F7FF470AF084676E793EA0C0FA6
:100DE00004D14B023FF44CAF08466EE730F0004CA4
:100DF00018BF31F0004CCAD130F000427FF45CAF34
:100E000031F000437FF43CAF5FE700BF4FF0FF3CA1
:100E100006E000BF4FF0010C02E000BF4FF0010CF4
:100E20004DF804CD4FEA40024FEA41037FEA226CBD
:100E300018BF7FEA236C11D001B052EA530C18BFDF
:100E400090EA010F58BFB2EB030088BFC81738BF44
:100E50006FEAE17018BF40F0010070477FEA226C32
:100E600002D15FEA402C05D17FEA236CE4D15FEA2E
:100E7000412CE1D05DF8040B704700BF8446084662
:100E80006146FFE70FB5FFF7C9FF002848BF10F123
:100E9000000F0FBD4DF808EDFFF7F4FF0CBF012068
:100EA00000205DF808FB00BF4DF808EDFFF7EAFFF2
:100EB00034BF012000205DF808FB00BF4DF808EDAD
:100EC000FFF7E0FF94BF012000205DF808FB00BFA2
:100ED0004DF808EDFFF7D2FF94BF012000205DF828
:100EE00008FB00BF4DF808EDFFF7C8FF34BF012035
:100EF00000205DF808FB00BF4FEA40024FEA4103C3
:100F00007FEA226C02D15FEA402C08D17FEA236C91
:100F100002D15FEA412C02D14FF0000070474FF040
:100F2000010070474FEA4002B2F1FE4F0FD34FF07D
:100F30009E03B3EB12620DD94FEA002343F0004346
:100F400010F0004F23FA02F018BF404270474FF0F4
:100F50000000704712F1610F01D1420205D110F07B
:100F6000004008BF6FF0004070474FF0000070472E
:100F700042000ED2B2F1FE4F0BD34FF09E03B3EB03
:100F8000126209D44FEA002343F0004323FA02F02F
:100F900070474FF00000704712F1610F01D142021B
:100FA00002D14FF0FF3070474FF00000704700BF94
:100FB0000022427082700122C2700222B1FA81F1D5
:100FC00002710322490901704271704743788B42D4
:100FD0001FD0012941700AD0022910D0C1B90123C4
:100FE000C370022381700371032343717047037838
:100FF00043B1012383700223C3700023F3E7037816
:10100000002BF6D0022383700023C3700123EAE78C
:10101000FEE770470B8882B0ADF800304B8802398C
:10102000ADF80230CB88ADF804300B89ADF806304E
:10103000431C053013F8012F0DF1080C0CEB420294
:1010400032F8082C834221F8022FF3D102B0704706
:1010500010B50C461146FFF7B9FF2146BDE8104018
:10106000FFF7D8BF4FF07F32094B10B5C0E92323FB
:101070004FF47F43A0F89430FF23044680F8963065
:10108000983000F0E4FC002384F8A43010BD00BFC9
:10109000FFFF7F0070B5154604461E46114600F05E
:1010A0004AFC294604F1140000F045FC294604F1ED
:1010B000280000F040FC294604F13C0000F03BFC15
:1010C000294604F1500000F036FC294604F1640082
:1010D00000F031FC294604F1780000F02CFC4FF4BC
:1010E000FA7332464FF4FA6104F1980000F095FC6F
:1010F0002046FFF7B7FF002384F8A5304FF47F4365
:10110000A4F8A63070BD704700F01CBC143000F08D
:1011100019BC08B5503000F01FFC292100F1140360
:10112000B3FBF1F3024613F0FF0002D1101E18BF0B
:10113000012008BD08B5643000F00EFC292100F143
:101140001403B3FBF1F3024613F0FF0002D1101EAB
:1011500018BF012008BD90F8903013B990F98C00A9
:10116000704790F98D00704790F8903013B990F95E
:101170008E00704790F98F00704710B504460DF04F
:1011800047F838B104F13C0000F0E0FB012838BF1B
:101190000120C0B210BD783000F0E0BB783000F024
:1011A000E5BB10B5044600F0A7FB04F1140000F005
:1011B000A3FB04F1280000F09FFB04F13C0000F0C9
:1011C0009BFB04F1500000F0A3FB04F1640000F06D
:1011D0009FFB04F17800BDE8104000F09FBB7F2822
:1011E00007D0002807DA10F1800F06D04042C0B2C5
:1011F000704700207047012070477F20704710B172
:10120000404240B270477F2070477F280FD010F1D6
:10121000310F0EDA10F1780F0DDBFE23783040B27B
:10122000584346232330B0FBF3F0C0B27047FF2091
:101230007047FE20704700207047012805DD40F20E
:10124000FE73984203DC80B270470120704740F281
:10125000FF70704740F2AE73A0F57870C0EBC0200D
:1012600090FBF3F000F58060FFF7E7BFFFF7F2BFF8
:10127000032812DD0C2812DD0F2812DD122812DDE2
:10128000162812DD192812DD1C2812DD1F2812DD98
:101290002128CCBFFF200620704700207047012086
:1012A00070470220704708207047032070470720CE
:1012B00070470420704705207047000005289ABF3A
:1012C000014B185CFF2070472043010805289ABF96
:1012D000014B185CFF207047264301087F2803D08C
:1012E000002803DAC0B2704700207047FF20704723
:1012F0007F2811D010F1320F10DA884210DD6423FC
:10130000401A5843C1F1FF2101F57F01CE31313040
:1013100090FBF1F0C0B27047FF2070476420704727
:1013200000207047014B4840185C70472C4301086F
:1013300052B110B4054C0A4411F8013B58408A429E
:10134000205CF9D110BC7047704700BF2C430108E6
:10135000392808D822280ED9094B2338C0B2C340F7
:1013600003F0010070475F2807D0613819288CBF4F
:10137000002001207047002070470120704700BF07
:1013800001EC7F00F8B5024600245F27451E461D8C
:1013900015F8010FFF2804BF0134E4B2FFF7D8FFAE
:1013A00000B92F70AE42F3D1062C04D119B10B68ED
:1013B00013608B88938000239371F8BD2DE9F84367
:1013C000012500264FF02808DFF82C90471E441D09
:1013D00017F8011F084812F01AFF034610B1A0EBDE
:1013E0000903DBB2A3FB05329E19A742A5FB0853F4
:1013F000EED13046BDE8F8832C44010810B54179A0
:10140000A1F13000C3B2092B07D80523B0FBF3F3D9
:1014100003EB8303C01AC0B210BD044C204612F087
:10142000F6FE0028F1D0001BC0B2EEE72C44010804
:10143000F0B52826084B094F821DB1FBF3F4272C89
:101440008CBF30253D5D03FB141102F8015D824223
:10145000B3FBF6F3F1D1F0BD00801A062C4401086D
:1014600070B50446FEF77EFE002582B2501EABB278
:10147000834204EB030103DAE65C0135302EF6D03B
:10148000D21A2046BDE87040013212F08FBE000033
:101490002DE9F04F0D4699B0164600211A461F4619
:1014A000804612F09DFE00212A2201A8009112F030
:1014B00097FEDFF8CC90DFF8CCA0DFF8CCB005EBDE
:1014C0004606AE4211D16846FEF74CFE30B100F13F
:1014D00060030DEB0300002300F8613C69464046C1
:1014E00012F0DEFE19B0BDE8F08F47F6FF7335F954
:1014F000020B9842E7D0002812DC59460CA812F0E3
:10150000CFFE6846FEF72EFE04460CA8FEF72AFE24
:101510000444A742D5D368460CA912F069FED0E76F
:10152000B0F57A7F0BDA0CA980B210F0C6FF0CA8D8
:10153000FFF796FF51460CA812F05AFEE1E764232C
:101540003230B0FBF3F00CA980B210F0B6FF0CA85B
:10155000FFF786FF0CA8FEF705FE00F15F036B4462
:1015600013F8302C00F160010DEB010000F8302C75
:101570002E2203F8302C0023494600F82F3CDAE7EE
:101580001C4301081743010812430108F0B589B054
:101590006D4600242F468E1CE1B28A4204D839469B
:1015A000FFF776FF09B0F0BD36F82410013425F8B6
:1015B000021BF1E742F21073B0FBF3F2642103FB6C
:1015C0001200B0FBF1F301FB130000EB023000EB63
:1015D000831080B2704742F21071020B00F03F039B
:1015E00001FB02336422C0F3851002FB0030704718
:1015F00042F210732DE9F041B1FBF3F6642703FBCF
:10160000161488B01E49054612F04AFE6946F0B22B
:1016100010F030FF6846FFF723FFB4FBF7F6DFF862
:1016200064806946284612F0E3FD4146284612F0E0
:10163000DFFD07FB16446946F0B210F01BFF684659
:10164000FFF70EFF6946284612F0D2FD41462846B4
:1016500012F0CEFD6946E0B210F00CFF9DF80130AB
:1016600069468DF800309DF8023028468DF801302B
:1016700000238DF8023012F0BBFD08B0BDE8F08108
:10168000095801089F4F010870B50E460021054614
:10169000144612F0A5FD00239AB2944200D870BD02
:1016A000F25C002AFBD0EA540133F5E770B50E4630
:1016B000144600210132054612F092FD00239AB231
:1016C000944200D870BDF25C002AFBD0EA5401338A
:1016D000F5E730B50023044698B2904201D30120CB
:1016E00005E0E55CC85C1DB9B0FA80F0400930BD8A
:1016F0000028FCD0854203F10103EDD00020F6E77D
:101700007D23438043F23903C360002309B2018083
:101710008180C3800372704702680449044B01FB57
:10172000023323F000430360180C7047FD430300AD
:10173000C39E2600F0B5002597B001608580044661
:1017400056222946684612F04BFD0126E27DAA4248
:1017500009D80023802104F1B800A37517B0BDE8B3
:10176000F04012F03DBD2046FFF7D6FFE77900219B
:101770007B1B90FBF3F2EC4602FB13000A46C0B25F
:10178000CBB29F4222D8002300221146277BD0B241
:10179000874226D80029D9D1A2796119033A012AB2
:1017A00005D925B191F9172012BB012BCED90B76A3
:1017B000A26852F82310583305F10E026B4401352C
:1017C00044F8221003F8586CEDB2BFE71CF801EBA7
:1017D000BEF1000F03D18242D6D00132D2B2013124
:1017E000CEE72069805C0132984208BF0121CEE734
:1017F000501E8342DBDB01329342D8DCA6E72DE9A1
:10180000F047154696B0013D0160027104464371F0
:10181000EDB256220021684612F0E2FC022D98BF7C
:101820004FF003094FF0000794F807808ABF4FF08C
:101830000109B8FBF9F800253E464FF0010AE27DA8
:10184000B24209D80023802104F1B800A37516B074
:10185000BDE8F04712F0C4BC2046FFF75DFFA8EBDF
:10186000060390FBF3F2002102FB1300EC460A464C
:10187000C0B2CBB2434506D21CF801EBBEF1000F5B
:1018800029D1824225D10020434528BF43468446C2
:1018900009FB035194F80CE0C9B2C2B296451CD8BA
:1018A000BCF1000FCBD116B1FFB9012BC7D9A219DA
:1018B0001176A2681F4652F8211006F10E0244F874
:1018C000221003F158026A44013602F858ACF6B20D
:1018D000B5E70132D2B20131CBE72269125C0130A7
:1018E0008A4208BF4FF0010CD7E77A1E9342DEDB35
:1018F0007A1C9342DBDCA2E76421D0E90123D31AEE
:10190000C3604B43418A8260B3FBF1F303747047B9
:10191000D0E90123D31AC0E90223704743682BB1F1
:101920006421C2684A43B2FBF3F2D3B203740023CA
:10193000C3604360704700234182C0E902334360C3
:10194000037470474368013343607047007C7047FD
:1019500043680B4443607047C068704711B1C36867
:101960000133C3604368013343607047007C7047B4
:10197000002303808370037270470346007810B120
:1019800000221A707047587810B100225A707047C0
:10199000987810B100229A707047187A08B1002226
:1019A0001A7270470170704701707047417070473C
:1019B00081707047817042607047406870470023B3
:1019C0004360038170470A2310B50446838002F008
:1019D0006BFD2368E0809B6820469847208110BDFE
:1019E000038970B504469BB1858845B1013DADB210
:1019F00085806DB903681B68BDE87040184702F028
:101A000053FDE388C01A238980B2834201D2258125
:101A100070BD236820465B68EEE72DE9F04104467F
:101A200010461D4616468846FFF748F8074606EB5F
:101A30000800FFF743F801463846FFF74BF96560A9
:101A400020602846FFF73EF8A060BDE8F08110B5A1
:101A500004464068FFF736F8A06010BDC0F17F0073
:101A600080B27F2823D8C1F13F0189B23F291ED817
:101A70004FF0010C00B54FEAD10E0D4B00EBCE102C
:101A800080B2A3F81EC0034412F0010F01F0070159
:101A900093F820200CFA01FC15BF4CEA020C22EA54
:101AA0000C0283F820C083F820205DF804FB704707
:101AB000F00200207F2820D83F291ED84FF0010CCB
:101AC00000B54FEAD10E0D4B00EBCE1080B2A3F85B
:101AD0001EC0034412F0010F01F0070193F820200B
:101AE0000CFA01FC15BF4CEA020C22EA0C0283F846
:101AF00020C083F820205DF804FB7047F00200202E
:101B00007F2923D8C0F13F0080B23F281ED84FF074
:101B1000010C00B54FEAD00E0D4B01EBCE1189B28E
:101B2000A3F81EC00B4412F0010F00F0070093F859
:101B300020200CFA00FC15BF4CEA020C22EA0C0231
:101B400083F820C083F820205DF804FB704700BFB5
:101B5000F0020020C1F17F0189B27F2920D83F28FF
:101B60001ED84FF0010C00B54FEAD00E0D4B01EB23
:101B7000CE1189B2A3F81EC00B4412F0010F00F081
:101B8000070093F820200CFA00FC15BF4CEA020C69
:101B900022EA0C0283F820C083F820205DF804FBC1
:101BA000704700BFF002002030B5124C83B0E38BC9
:101BB0001BB125881DB10023E38303B030BD0E4B5C
:101BC000032293E803000090ADF80410284669460C
:101BD00002F0F8FB032228460DEB020102F0F2FBB3
:101BE0004FF48062402004F1200102F001FC002843
:101BF000E1D0E2E7F0020020E442010808B502F07B
:101C000009FC023818BF012008BD00BF104BD88066
:101C100003281AD8DFE800F0191102170D4A4FF017
:101C2000400C80209A60002158804FF480620A485E
:101C3000A3F804C0D98312F0D3BA084A4FF0800C3D
:101C400040209A60EFE7064AF8E7064AE7E700BF58
:101C5000F00200205D1A000810030020551B000848
:101C6000011B0008B51A00084FF0010C044B4FF49B
:101C70008062002103F12000A3F81EC012F0B0BA68
:101C8000F0020020024B80B29B6889B2184700BF67
:101C9000F00200202DE9F04F85B013F1070ABDF9DD
:101CA000384048BF03F10E0A1E46002C4FEAEA03F3
:101CB0000746BDF83C900192029333DD002E31DDE2
:101CC0000C4423B2039300231D46DFF860B0009359
:101CD00000231FFA81FADDE9001202EB010813F07C
:101CE000070F9CB208BFDB104FEA45050CBF18F880
:101CF0000350EDB2E01915F0800F80B204D04A46CF
:101D00005146DBF808309847013423B29E42E6D1B1
:101D1000009B029A0AF1010113440093039B09B24C
:101D20009942D5D105B0BDE8F08F00BFF002002088
:101D3000002A2DE9F8431F4612DB0FD084B222445B
:101D4000DFF850808DB296B2204601343A462946DB
:101D5000D8F80830A4B29847A642F5D1BDE8F88378
:101D60004FF0000CDFF82C80564284B21FFA81F944
:101D70001FFA8CF5601B3A464946D8F8083080B205
:101D8000984705F1010C0FFA8CFCB445F0DBBDE877
:101D9000F88300BFF0020020002A2DE9F8431F4617
:101DA00012DB0FD08CB22244DFF8508085B296B29D
:101DB000214601343A462846D8F80830A4B298475C
:101DC000A642F5D1BDE8F8834FF0000CDFF82C8077
:101DD00056428CB21FFA80F91FFA8CF5611B3A4605
:101DE0004846D8F8083089B2984705F1010C0FFA37
:101DF0008CFCB445F0DBBDE8F88300BFF0020020A6
:101E00002DE9F04F1F1E83B0B4BF07F1010807F1A1
:101E1000FF38002ABDF830A000901FFA88F848DB90
:101E200096B206F1FF339BB2019300F09780BDF8A4
:101E300000904B4DCB464E448CB2B6B258460BF197
:101E4000010B52462146AB681FFA8BFB98475E4553
:101E5000F4D1A0441FFA88F8484609F10109524616
:101E60004146AB681FFA89F998474E45F4D1002FD7
:101E70004EDB1BD026462744BDF80080384DBFB24C
:101E80003146013652464046AB68B6B29847B74233
:101E9000F6D1019B98441FFA88F821460134524636
:101EA0004046AB68A4B29847A742F6D103B0BDE85C
:101EB000F08F4FF0000B531C9BB2294DBDF80090E2
:101EC0008CB2019356421FFA8BFBA9EB0B000BF16E
:101ED000010B52462146AB6880B20FFA8BFB984744
:101EE0005E45F0DCA0441FFA88FB4FF000081FFAA3
:101EF00088F8A9EB080008F1010852465946AB687A
:101F000080B20FFA88F898474645F0DC002FB0DA27
:101F10000023BDF80090124D7F429EB2A11BAB681A
:101F20005246484689B29847731C1BB2BB42F4DB49
:101F3000019B994400231FFA89F91FFA83F8A4EB47
:101F4000080152464846AE6889B2B04708F101031D
:101F50001BB2BB42F1DB03B0BDE8F08F8CB286E769
:101F6000F00200202DE9F04F002B83B00B448B468C
:101F70009146BDF8306001933ADB99421CDA87B292
:101F800007EB02081FFA88F8B9F1000F17DB6FD0D2
:101F90003C46414D1FFA8BFB2046013432465946E0
:101FA000AB68A4B29847A045F6D1019B0BF1010B99
:101FB0000FFA8BFB9B45E7DB03B0BDE8F08F0024F5
:101FC000354DC9F1000A1FFA8BFBA4B2381B01344E
:101FD00032465946AB6880B224B298475445F4DB88
:101FE000019B0BF1010B0FFA8BFB9B45CCDBE3E76D
:101FF0009942E1DD84B2A718B9F1000FBFB219DB35
:1020000040D0A046244D1FFA8BFB404608F1010842
:1020100032465946AB681FFA88F898474745F4D1CD
:10202000019B0BF1FF3B0FFA8BFB5B45C4DAB9F167
:10203000000FE5DA4FF0000A174DC9F100081FFA4A
:102040008BFB1FFA8AFAA4EB0A000AF1010A324656
:102050005946AB6880B20FFA8AFA9847C245F0DB5E
:10206000019B0BF1FF3B0FFA8BFB5B45DFDBA3E72B
:102070001FFA8BFB019B0BF1010B0FFA8BFB9B45AE
:1020800082DB99E71FFA8BFB019B0BF1FF3B0FFAF9
:102090008BFB5B45CBDB8FE7F00200200122014B7D
:1020A0009A837047F00200200022014B9A83704708
:1020B000F0020020014B9861704700BFF002002041
:1020C0000022014B9A617047F00200200122014B6F
:1020D0009A827047F00200200022014B9A827047DA
:1020E000F0020020014B9881704700BFF0020020F1
:1020F000014BD881704700BFF0020020014B98814E
:10210000D9817047F00200200A282DE9F84F53D0FA
:102110001F2841D9DFF804A12038BAF90CB0BAF869
:1021200002300BF106029A42C0B237DA1FFA8BFB7B
:102130000BF10608BAF80E600FFA88F3AAF80C3013
:10214000BAF81C30A6F106091FFA89F900EB400025
:102150000236002B3AD0324F1FFA88F807EB4007BF
:10216000B6B2013FBAF9143017F8015F0BB1ED4375
:10217000EDB24C46214601342A465846DAF808307A
:10218000A4B29847B4424FEA5505F3D10BF1010BC5
:102190001FFA8BFBC345E5D1BDE8F88F0623BAF8DB
:1021A0000E60BAF810204FF0000B16440836B6B295
:1021B0009846AAF80E60C1E70021184AD389108A10
:1021C000918103440833D381BDE8F88F1FFA88F763
:1021D0001FFA86F8124E06EB4006013EBAF914309B
:1021E00016F8015F0BB1ED43EDB24C4615F0010F4F
:1021F0004FEA550505D0214601225846DAF8083045
:1022000098470134A4B24445F0D10BF1010B1FFAF9
:102210008BFBBB45E2D1BDE8F88F00BFF002002088
:10222000804401082DE9F04FDFF87C810A28D8F8B6
:10223000183087B0997A00F081801A7A90427AD368
:102240005C7A844277D348CB841A06EBC40292F9B5
:102250000590B8F81200B8F90C50029313799778EA
:10226000034405EB09003844B8F802C0BFB2049734
:10227000D77892F9062060459BB203926CDCADB230
:102280005A1992B2A8F80C20B8F91420B8F90EB077
:10229000002A73D1B8F81C10012900F08180B2FA2D
:1022A00082FA36F834604FEA5A1A002F43D0049A63
:1022B000002A40D0BDF80C304D441F441FFA8BFB60
:1022C0005B44A9B2BB44002517461FFA83F91FFAE5
:1022D0008BF303910593049BFC1A039BA4B203F1B7
:1022E000FF3B23465A0708BF029B04F1010408BFC5
:1022F0009D5DA4B206F1010C04EB0B0008BF1FFAB0
:102300008CF62B0680B204D552464946D8F80830E0
:1023100098476D00BC42ADB2E3D1049A039B09F12A
:1023200001019B1A9BB20393059B1FFA81F9174485
:102330004B45BFB2CFD107B0BDE8F08F0022B8F84F
:102340000E30B8F81000A8F80C2003440B44A8F88D
:102350000E3007B0BDE8F08F1A46B8F80E00B8F896
:1023600010C0A8F80C2060440144B8F914200FFAFA
:1023700081FB0025A8F80EB0002A8BD002331AB2D8
:1023800001230093039B09F1FF30591E594428444F
:1023900009B200B2BB1CFFF7E5FDB8F914207EE7D7
:1023A000023300921AB2EDE7F0020020034B9B6962
:1023B0000BB1FFF737BFFFF7A7BE00BFF002002049
:1023C00038B50446007878B1084D04E0FFF72AFFDD
:1023D00014F8010F40B1AB69002BF7D1FFF794FE61
:1023E00014F8010F0028F6D138BD00BFF00200201C
:1023F000F8B5204E0446B569002D32D0037895F823
:1024000008C095F809E0002B32D001460022778AF7
:102410009C450AD89E4508D36868A3EB0C0300EBE3
:10242000C30003793A441A4492B211F8013F002BD9
:10243000EED173889B1A03EBD3735B10B3812078C2
:1024400070B13DB1FFF7EEFE14F8010F40B1B56970
:10245000002DF7D1FFF758FE14F8010F0028F6D130
:10246000F8BDFDF77FFE00EB4002520092B2E0E7BC
:102470001A46DEE7F002002070B52E4C82B02080B4
:10248000C8B100214FF4C0254FF480332A4A04F12B
:102490002000C4F80220294AC4E90351A2604FF485
:1024A0008062E180A161A182E36111F099FE0023C5
:1024B000E38302B070BD05463C2001F07DFF202281
:1024C0001F49284601F07EFF4FF480334FF4C022AD
:1024D000E361194B2688C4F80230184BE2602946A4
:1024E0004FF4806204F12000E580A5612561A5829A
:1024F000A36011F075FE002ED9D1124B032293E890
:1025000003000090ADF804103046694601F05AFF10
:10251000032230460DEB020101F054FF4FF48062BC
:10252000402004F1200101F063FF0028BFD002B079
:1025300070BD00BFF002002080004000B51A000806
:10254000C0460108E442010810B50446022980EAA9
:10255000E070A0EBE47068D15AB9002CACBF7F23C7
:102560003F239842A8BF1846002C01DA40F04000F3
:1025700010BD012A1AD1632805DC4000002CF7DACF
:1025800040F48070F4E740F2F54398420CDCFEF72B
:1025900095FA5749FEF7EAFA10F0DEFCFEF7E8FC80
:1025A000400040F00100E9E7FF20E7E7022A40F0A1
:1025B0009C80632805DC8000002CD9DA40F4007090
:1025C000D6E7B0F57A7F0CDAFEF778FA4849FEF7DD
:1025D000CDFA10F0C1FCFEF7CBFC800040F001000A
:1025E000EAE742F20F7398420CD8FEF767FA4149C6
:1025F000FEF7BCFA10F0B0FCFEF7BAFC800040F029
:102600000200D9E73C4B98420CD8FEF757FA3B49F9
:10261000FEF7ACFA10F0A0FCFEF7AAFC800040F038
:102620000300C9E740F2FF10C6E703295DD1012A84
:102630001BD1B0F57A7F05DA4000002C98DA40F41F
:10264000006095E7B0F5205F0CDAFEF737FA28490D
:10265000FEF78CFA10F080FCFEF78AFC400040F098
:102660000100EAE740F2FF70E7E7022A3DD1B0F54A
:102670007A7F06DA8000002CBFF67AAF40F48050F3
:1026800076E742F20F7398420CDCFEF717FA18490E
:10269000FEF76CFA10F060FCFEF76AFC800040F078
:1026A0000100E8E7164B98420CD8FEF707FA1149EB
:1026B000FEF75CFA10F050FCFEF75AFC800040F088
:1026C0000200D8E7B0F57A2F0CD2FEF7F7F90B49E4
:1026D000FEF74CFA10F040FCFEF74AFC800040F098
:1026E0000300C8E740F6FF70C5E7002040E700BFE1
:1026F000CDCCCC3D0AD7233C17F001006F12833AB2
:102700009F8601000023036070470000092928BF4D
:10271000092138B5064B04461B780D468B4202D181
:102720000023036038BD01F0B3FE25712060F9E796
:1027300010070020036810B504460BB9002010BD37
:1027400001F0A6FE2368C01A40F2EE239842F5D9A4
:102750000023054A2360127823799A42EED0034A77
:102760000120D377EBE700BF100700206C070020A3
:10277000FF234371002301718371038183727047CA
:1027800038B5037904460D465BB14179A94208D0BA
:1027900041B101290AD000236571A37155B1012D02
:1027A0000FD038BD03689B689847F4E703680021A1
:1027B000DB68F9E7012123689B6820469847A071F0
:1027C000EFE723682946DB68F7E72DE9F04F077C40
:1027D000C37BBF000C4647EA931703F03F01437CDD
:1027E000857C03F00102C67C47EA822705F00F02D0
:1027F000D20142EA530206F07F031B0143EA15139C
:10280000057D90F815E06D0089B045EAD6150EF00B
:102810000306059345EA4623867D009306F01F05CF
:10282000AD0145EA9E03C57D90F819E0ED000193E6
:1028300045EA5613057E0EF00706029345EA062385
:10284000857E039305F03F06760146EADE03C67EE9
:1028500090F81CE0B60046EA95160EF0010546EA2F
:102860008526457F90F8208005F00F0B4FEACB1BA3
:102870004BEA5E0B90F81EE090F80EC00EF07F0A57
:102880004FEA0A1A4AEA151AC57F49016D0045EA5E
:10289000DE1508F0030E45EA4E2590F821E041EAE6
:1028A000DC010EF01F094FEA891949EA980990F8EE
:1028B0002280407B0CF0070C40EA0C204FEAC8084D
:1028C00048EA5E18049306920791FEF7C3FC079945
:1028D00020800846FEF7BEFC60803846FEF7BAFC52
:1028E000069AA0801046FEF7B5FC059BE0801846CE
:1028F000FEF7B0FC20810098FEF7ACFC60810198E7
:10290000FEF7A8FCA0810298FEF7A4FCE0810398E2
:10291000FEF7A0FC20820498FEF79CFC6082304603
:10292000FEF798FCA0825846FEF794FCE0825046E1
:10293000FEF790FC20832846FEF78CFC6083484617
:10294000FEF788FCA0834046FEF784FC4FF48063CA
:10295000E0832384638409B0BDE8F08F2DE9F04162
:1029600004460F4601F0A0FD4FF00108054623681C
:1029700020461B689847064650B9A37A012B1FD101
:102980002389ED1A40F6C4139D42C8BFA07217E018
:10299000236820465B689847A37AA3B90F2814D10F
:1029A000A4F80A80E37AE2180133DBB2182B107323
:1029B000E3720AD939462046FFF707FF0023A372C6
:1029C0003046BDE8F081012BECD02581CFE782793C
:1029D00022B14379012B01D8FFF7C0BF0020704717
:1029E000704770477047002070477047002070475D
:1029F000002070477047002070470020704700009B
:102A0000054B82B0DA690243DA61DB690340019366
:102A1000019B02B0704700BF00100240054B82B01E
:102A20009A6902439A619B6903400193019B02B03A
:102A3000704700BF0010024000F10C0353E8003F54
:102A400043F0200300F10C0141E80032002AF3D1E9
:102A5000704700F10C0353E8003F43F0800300F19E
:102A60000C0141E80032002AF3D1704700F10C0359
:102A700053E8003F23F0200300F10C0141E800324D
:102A8000002AF3D1704700F10C0353E8003F23F014
:102A9000400300F10C0141E80032002AF3D17047F5
:102AA00000F10C0353E8003F23F0800300F10C0118
:102AB00041E80032002AF3D1704770470288044B86
:102AC0005140C9B233F8113083EA122303807047B2
:102AD000DC8501089AB110B4B0F800C0084C0A4473
:102AE00011F8013B83EA0C03DBB234F81330914256
:102AF00083EA1C2CA0F800C0F2D110BC70477047CC
:102B0000DC8501084FF6FF7337B50446ADF8063093
:102B10004518AC4203D1BDF8060003B030BD14F82F
:102B2000011B0DF10600FFF7C9FFF2E7044B1888FF
:102B3000044B80B21B889BB2C01A18BF012070479B
:102B40000C4200200A4200200023044A1380044A59
:102B50001380044A1380044A138070470A420020FD
:102B60000C4200200E440020104400200120704739
:102B700070470023A0F87032A0F86E32704700232F
:102B8000A0F85C32A0F85A32704700003A4B5A6AFB
:102B9000037A92B263B18389D31A9BB2B3F5FA7FF9
:102BA00084BF00230372837A4F2B84BF00230372F8
:102BB000037A8281082B0FD8DFE803F0050E0E0E92
:102BC0000E0E0F172200EE2901D0C82904D10123CF
:102BD00083720623417503727047837A5A1C03443B
:102BE0008272597507234172F5E7827A531CDBB272
:102BF000024483725175427A9A42EDD20823EAE781
:102C0000837A5A1C034482725975C37D162B04D1F2
:102C1000012380F865300923DDE74369174A03F093
:102C2000FF23934203D1012380F86730F3E7144A6E
:102C300093421CD1837E102B19D1C37E022B08D066
:102C4000052B0DD0012BE6D1027EEE2A08BF80F8BD
:102C50006A30037EEE2BDED1012380F86B30DAE799
:102C6000012380F86830037F80F86930D3E70123BF
:102C700080F86630CFE700BF0004004000C800289D
:102C800000C80032044B1888044B80B21B889BB2EA
:102C9000C01A18BF012070471446002012460020B9
:102CA0000278024B51405B5C03707047A4610108DD
:102CB000FF230370704700BF7047B0F86E32B0F862
:102CC00070229B1A98B21B0444BF00F5006080B2CA
:102CD000003818BF01207047A0F11400EDE703464B
:102CE000B0F87022B0F86E1291421FBF811891F8AF
:102CF0007402B3F8721201321ABF0A40A3F87022AC
:102D000000207047A0F11400E9E770B50B78054684
:102D100003704B780C4643700B78FD2B38D10A2694
:102D20008B788370CB78C3700B7903714B794371C7
:102D30008B7983718B68C3718B68C3F30F23037224
:102D40008B7A4372627804F10C01A81911F0B0FA81
:102D50006378B4F80C213344EA54B4F80C115A1CCB
:102D600092B2090AA954A278981CD20780B20ED553
:102D700004F58872054404F58E7452F8041BA242CF
:102D800045F8041BF9D112780F332A7098B270BD40
:102D900000238B700B79062683704B79C3708B7977
:102DA00003718B684371CDE738B54A780D46352AF3
:102DB000044601F10C010AD811F07AFA6878002172
:102DC000C0F136022044BDE8384011F009BA403560
:102DD00051F8043BA94240F8043BF9D10B88038029
:102DE00038BD38B54A780C461B2A054601F10C015E
:102DF0000AD811F05DFA60780021C0F11C02284465
:102E0000BDE8384011F0ECB9283451F8043BA14238
:102E100045F8043BF9D138BD38B54A780D46082A43
:102E2000044601F10C010AD811F042FA6878002139
:102E3000C0F109022044BDE8384011F0D1B9EB6877
:102E400003604B6843600B7A037238BD38B54A782B
:102E50000C46072A054601F10C010AD811F028FAA0
:102E600060780021C0F108022844BDE8384011F024
:102E7000B7B9E36803604B68436038BD242208B5E6
:102E80000021034811F0ACF90022024B1A7008BD72
:102E900034120020C40900202DE9F04113780446C3
:102EA000037092F80180FD2B0F46154680F80180D3
:102EB00054D10A2693788370D378C3701379037141
:102EC00053794371937983716B7A127A1B0403EB04
:102ED0000223EA79134423F07F43A268A91963F31C
:102EE0001702A26004F10C00424611F0E1F97A7B6E
:102EF000904507D208F10C000021A2EB0802204403
:102F000011F06EF963781E44AB195A78AB5D03EB90
:102F10000223A4F80C31A378DB070ED50236B6B233
:102F2000354404F5887305F10C0255F8041B9542ED
:102F300043F8041BF9D12A781A70BB7A84F821313E
:102F4000FB7A84F822313B7B84F823317B7B84F845
:102F500024313B7884F82031BDE8F08100234380A0
:102F6000937806260371D37843711379837153796B
:102F7000B3E738B54A780C46132A054601F10C012F
:102F80000AD811F095F960780021C0F114022844A4
:102F9000BDE8384011F024B9203451F8043BA14277
:102FA00045F8043BF9D138BD2DE9F04F0C46518866
:102FB0000546B1F58C7F4FF0000085B010D310703E
:102FC000D91CC9B2012995BF01210023518053802A
:102FD0009CBF237011700020287005B0BDE8F08FF1
:102FE00016780E2E00F2918001A757F826F000BF48
:102FF000C12F00082D30000855300008753000083A
:103000000B3100080B3100080B3100080B310008B0
:103010000B3100080B3100080B3100080B310008A0
:103020000B3100080B31000887300008481C508025
:10303000635421789BB2FD2906D10C330A21D38039
:10304000022391801370C6E706210833D380918054
:103050000E23F7E7481C5080D8074FF00000635458
:1030600042BFD1880D31D180012B8CBF0346032391
:103070001370B1E7481C508000208342635414BF92
:1030800003460E23F4E7481C508063545388D188CC
:103090008B4232D3002353801370022369802B703C
:1030A0002378FD2B37D163792B72A3796B72637A06
:1030B000227A1B0403EB0223E27913446B606378EA
:1030C00003F10C026A80A278D10701D519336B8015
:1030D00000264FF4BC720C206968DFF8FC806E811A
:1030E000B31801335B0800FB03F758F80770B942C7
:1030F0001AD25A1EB242F3D818E092889A423FF68A
:103100006AAF01232B70002067E710705080908019
:10311000D0802870F7E7E3782B7223796B7263799C
:103120006B6063780833D2E71E46E3D80C277743F9
:1031300058F80730994227D123782046FD2B0CBF41
:103140004FF00A094FF0060910F801BF474409EB98
:103150000B03591E89B20193FFF7D4FC97F804A022
:10316000ADF80E0051460DF10E00FFF7A7FC019BD4
:10317000E2185278E35C03EB0223BDF80E209BB209
:103180009A4209D0052000E0032028700238012867
:103190008CBF0020012020E7BB79DA0706D5FA7939
:1031A000934582BF04EB09018A5CAA729B0709D58B
:1031B0000C2303FB068362781B7A9A4282BF4C443D
:1031C000E35CEB720C2303FB06835B79022085F83A
:1031D0000CA06B73DAE700BFA46201086FF0200354
:1031E000024803604368FFF727BC00BF004400406B
:1031F00008B5FFF7F3FF0022014B1A7208BD00BFAC
:10320000701C002008B5FFF7E9FF0022014B1A727D
:1032100008BD00BFF00A00206FF0200302480360E1
:103220004368FFF709BC00BF0048004010B50446E2
:10323000FEF71AFD06210020FEF760FF0C48FEF79E
:1032400039FF2046FCF78EFFC0B208284FF01B0064
:1032500008D8FEF74DFF2046FFF7CAF8BDE810403A
:10326000FEF72EBFFEF744FF2046FFF7A9F8F5E76B
:103270008C5A01084FF0320C0A4B0B491A680B4B61
:10328000A1FB0212920C0CFB02F202F5FA72A3FBF4
:1032900002320749920948684B681B1A9A42FBD8C8
:1032A000704700BF6C02002083DE1B43D34D6210C9
:1032B000001000E008B5FFF7DDFF4FF48052014B2E
:1032C0001A6108BD000C01404FF48052014B5A6155
:1032D000FFF7D0BF000C0140034630B587B001AC0A
:1032E00000F11005224618685968083303C2AB4242
:1032F0001446F7D10024094D8DF81440A96801A89F
:10330000FCF726FF10B920B207B030BD01342E2CD7
:1033100005F10C05F2D14FF0FF30F5E73000002049
:1033200010B502780A4BD243D2B244789A5C90F836
:1033300002E062409A5C90F803C082EA0E029A5C56
:10334000017982EA0C029A5C4A40985C10BD00BF89
:10335000A4610108028810B58488531C2340448866
:103360009C421EBF12189171038010BD411A88B291
:103370000B0444BF00F5007080B2704770B5104C6C
:103380000025234626782EB166788E4202D1A67893
:1033900096420BD001350C2D04F10404F2D1002427
:1033A00013F824501DB101340C2CF9D170BD012546
:1033B00003F8245003EB8403D87059709A70F5E732
:1033C000C90900202DE9F8430B465A7A9E7ADF7A24
:1033D000204B0D791B5C0446DB07097A00D50DB93B
:1033E000FFF7CCFF00234FF0010E98461A49194809
:1033F0009C4201F8018B25D02DB90278920702D5A5
:1034000001F801EC1EE04FF0000C144A92F8009015
:10341000B9F1000F0FD092F8039099450BD1002E0F
:10342000EED092F80190B14505D1002FE8D092F886
:103430000290B945E4D00CF1010CBCF10C0F02F183
:103440000402E3D10133DBB2042B00F10100CFD140
:10345000BDE8F883F9090020C5090020C90900204A
:1034600007B503688DF8071001221B690DF10701EC
:10347000984703B05DF804FBF0B5FD23054604460C
:1034800085B005F80C3B8DF8043090F8243103F139
:103490000C020244012B42D80026637066808DF82E
:1034A00005308B7A0DF1050023718DF808308B7A89
:1034B000ADF8066001338B72637909218DF809300C
:1034C000A3798DF80A30A368C3F317031A128DF895
:1034D0000B301B148DF80D308DF80C20FFF712FB0C
:1034E000677829463A46ADF802000DF10200FFF771
:1034F000F1FA94F82311FFF7E1FA94F82421BDF8CA
:1035000002309742A4F80C3110D2314607F10C007A
:10351000D21B204405B0BDE8F04010F061BE12F8A7
:10352000010D0028B8D1013BDBB2B3E705B0F0BD17
:10353000704770B5044608460D46FCF713FE236835
:10354000294682B21B692046BDE87040184708B57D
:10355000FFF7EFFF08BD0120FFF760BA0D4B98425F
:1035600002D10420FFF75ABA0B4B984205D003F55D
:103570008063984203D11020F4E70820F2E7074B5C
:10358000984201D12020EDE7054B984200D07047CA
:103590004020E7E700080140000C01400014014012
:1035A000001801400B4B984203D14FF40060FFF725
:1035B00035BAB0F1804F04D0074B984204D10220B5
:1035C00000E00120FFF71CBA044B984201D104200F
:1035D000F8E77047002C014000040040000800405C
:1035E000064B984203D14FF40070FFF717BA044B13
:1035F000984202D14FF48060F7E770470024014001
:10360000002801402DE9F0410C46154686B00746DA
:103610001022002102A81E469DF8348010F0E0FD23
:1036200001940B2D07D8DFE805F00E0E070A1414DD
:10363000141616161B1DFEE70823029303E0082349
:10364000029301230593032E0ED8DFE806F01E2017
:103650000E1E0123F1E70123029304230493F2E7F2
:103660000923EAE70923F7E7FEE701230393B8F10B
:10367000000F02D03846FFF771FF053D042D0BD82F
:10368000DFE805F007110A0711000323EEE7022324
:10369000ECE7C4F30F247C61384601A90EF072FBFD
:1036A00006B0BDE8F081C4F30F243C61F4E713B524
:1036B0004FF0010C0024CDE9004CFFF7A3FF02B04E
:1036C00010BD000030B50023154687B00446ADF8A4
:1036D0000630FFF767FF042D04D8DFE805F02A2E37
:1036E00004323B00FEE71C4B1C4A1B68B3FBF2F3A1
:1036F0009BB20022013BCDE90221204601A9ADF891
:103700000430049205920EF077FC236823F08003C6
:103710002360A36823F4804323F00703A360636856
:1037200023F070036360A36823F08003A36007B0F5
:1037300030BD094B0A4A1B68D8E7074B094A1B688A
:10374000D4E7054B064A1B68B3FBF2F303EB830394
:103750005B00CDE70123CCE76C02002080A81201BA
:1037600040420F0000127A0010B50446FFF7AAFF8E
:10377000236843F00103236010BD00224FF0FF31A6
:10378000FFF7F2BF1A4B10B55B681A4C23600CF0C0
:1037900035FA19480EF0A6FA18480EF0A3FA1848A0
:1037A0000EF0A0FA17480EF027FD17480EF024FD82
:1037B0000EF06CFB4FF0E022002313615361936124
:1037C00072B64FF0FF319A0002F16042013302F508
:1037D0006142082BC2F88010C2F88011F3D162B6A2
:1037E000034B1B6883F3088823689847FEE700BFF4
:1037F00000F0FF1FC009002000080140000C01403C
:1038000000100140003801400044004030B5002461
:10381000054689B01422214603A8CDE9014410F0E1
:10382000DFFC01A928460EF025FA694608480094F5
:103830000EF004FA4FF46023CDE903340223284646
:1038400003A9CDE9063405940EF029FA09B030BD7C
:1038500000240140F0B4044601F44075184604F118
:103860002C064FF4407393FAA3F3B3FA83F31F27A4
:10387000DD4056F8253001F01F018F4023EA070391
:1038800002F01F0707FA01F10B4346F825300C340C
:103890004FF0007302F0007693FAA3F3B3FA83F3C8
:1038A000DE404FF0F87154F8263002F0F87291FAC9
:1038B000A1F1B1FA81F1072522FA01F105FA01F12E
:1038C00023EA01014FF0F87393FAA3F3B3FA83F3F9
:1038D000DA4095400D4344F8265004990023F0BC8B
:1038E0000122FFF7E4BE014608B5FFF734FEBDE84C
:1038F00008400846FFF774BE0749084A881AEFF3E4
:103900000883521A1A44013A013B984288BF0022A8
:10391000AA2110F065BC00BF005000200004000088
:1039200010B5124C03232046062240F60801FFF78B
:10393000BEFE2046032302220D49FFF7B8FE0323F3
:1039400020461A460B49FFF7B2FE20460323052204
:1039500042F22001FFF7ABFE2046BDE810400323F2
:10396000052241F21001FFF7A2BE00BF000C01408A
:103970000100010402000204024B9868C0F34020D9
:10398000704700BF000C014008B5FFF7F5FF00B914
:1039900008BD00BFF9E700001022024B5A61202247
:1039A0001A617047000C01402022024B5A6110221C
:1039B0001A617047000C014012480F22016921F082
:1039C0000F0192FAA2F20123B2FA82F293400B4362
:1039D00003610D4B5A6822F480725A601A6822F40F
:1039E00080721A60DA6822F48072DA609A6842F4AF
:1039F00080729A60D022054B83F817234FF400029F
:103A00001A607047000001400004014000E100E03E
:103A10004FF48072034B5A611A6842F480721A6044
:103A2000704700BF0004014010B50A4C0023052276
:103A300020460949FFF73BFE00230522204607499F
:103A4000FFF735FE4FF4004363614FF48043636139
:103A500010BD00BF00100140800080044000400401
:103A60000549CB681A04DB4302F0004203F400432B
:103A700013430B61704700BF001001400549CB683C
:103A80001A04DB4302F0804203F4804313430B61CA
:103A9000704700BF00100140104BD86C80B2A0F2FC
:103AA000CF63C62B11D9A0F6EB23C62B0FD9A0F6F6
:103AB0001C13C62B0DD9A0F63D23C62B0BD9C72846
:103AC0008CBF0020012000017047012070470220B8
:103AD0007047042070470820704700BF0024014051
:103AE00010B5054C0023052220460449FFF7DFFDF1
:103AF0004FF40053636110BD00100140200020040A
:103B00004FF40052024B1628CCBF1A615A6170471D
:103B1000001001400C4BD3F8FC2022F08072C3F857
:103B2000FC20D3F8FC2042F08072C3F8FC20A3F5FF
:103B30005D431A6822F001021A601A6842F001021D
:103B40001A6000225A60704700ED00E0064B074AF9
:103B50001B680749B3FBF2F3434310B54C684A684E
:103B6000121B9A42FBD310BD6C02002040420F0092
:103B7000001000E010B504466420FFF7E7FFA368DB
:103B800043F00403A360A3685B07FCD410BD826804
:103B900042F001028260FFF7EDBF000013B50E4C4A
:103BA0002046FFF7A0FE2046FFF730FE40F201134B
:103BB0004FF40071094A20460093094BFFF74AFE73
:103BC0002046FFF7E4FF6420FFF7C0FFA36843F43B
:103BD000A003A36002B010BD0024014008008003D0
:103BE000000C01402DE9F84381464CF250300E465E
:103BF00017461D460CF03AFA88BBB9F1010F06D002
:103C0000B9F1020F0CBF4FF002094FF004094FF059
:103C10000008144A136943F0010313614FEA0814C2
:103C2000C4F12002A4F1200305FA02F227FA04F4F9
:103C3000144325FA03F31C43A4B24CF2503026F887
:103C400018400CF013FA28B908F101085FFA88F35C
:103C50009945E3D8034A136923F001031361BDE8D2
:103C6000F88300BF002002407FB501230022CDE988
:103C7000040301A902A8CDE902230CF033FA0028BD
:103C80000CBF0420052007B05DF804FB0A4608B508
:103C9000014600230220FFF7A5FF00280CBF0420E7
:103CA000052008BD08B5FFF7DFFF031F5842584144
:103CB00008BD08B5FFF7EAFF031F5842584108BD89
:103CC0002DE9F047264B274D01280FBF7D267C2686
:103CD000AA461D460F4614462349244A06BF894674
:103CE0009A4691460CF0A6F931462846FFF7DAFFCE
:103CF00028B900240CF0B0F92046BDE8F087002F69
:103D000008BF4FF478744FF000080334C4F38F04F5
:103D100005F11006AAEB050A1FFA88F39C4209D8A0
:103D20004FF011312846FFF7C4FF041E18BF0124CD
:103D3000A400DFE73FB95AF806104B1C06D108F182
:103D400001080436E8E757F82810F6E74E4505D293
:103D50003046FFF7AEFF0028F1D1CAE70324C9E7D8
:103D600000F0010800F40108FFF70108FFF3010863
:103D700010B50CF05FF97C210848FFF793FF04466B
:103D800038B17D210648FFF78DFF041E18BF0124BE
:103D9000A4000CF061F9204610BD00BF00F001083E
:103DA00000F4010830B5002340F2EF34064D9AB21A
:103DB000914201D8042030BDA34203D05A5DC254C1
:103DC0000133F4E70320F6E710F0010838B50446A4
:103DD0000D4672B60A4601460020FFF771FF62B633
:103DE000042806D172B601202A462146FFF768FF53
:103DF00062B638BD38B5124B1C68D3F80054B4F124
:103E0000113F09D1B5F1113F17D000220120114611
:103E1000BDE83840FFF754BFB5F1113F03D1002290
:103E200011461046F4E7FFF7A3FF042804D12C4005
:103E300001340CBF0220012038BD0420FCE700BF84
:103E400000F00108034B18739A68D207FCD5187B61
:103E5000704700BF0038004038B5441E8D18A94295
:103E600000D138BD14F8010FFFF7ECFF01F8010B8A
:103E7000F5E7084611461A46FFF7EEBF38B5044687
:103E8000054D0144A14200D138BD2878FFF7DAFF83
:103E900004F8010BF6E700BF600200200846114657
:103EA000FFF7ECBF10B5044601448C4200D110BDB1
:103EB00014F8010BFFF7C6FFF7E708461146FFF7B6
:103EC000F1BF000070B58CB0294C2822002102A857
:103ED00010F086F9FFF73FFB4FF48040FEF790FDAE
:103EE0002449204603230622FFF7E1FB062501268D
:103EF0004FF48053204623610A2203231E49CDE953
:103F00000056FFF77FFB204603230A221B49CDE919
:103F10000056FFF777FB032320461A461849CDE9E0
:103F20000056FFF76FFB0822002308924FF48272BD
:103F3000CDE90533CDE909330293039204934FF49D
:103F400000720723A4F55444204602A90B9307925C
:103F50000EF025F8236843F040032360A3689B0715
:103F6000FCD5FF22237B074B1A700CB070BD00BF3D
:103F7000000C014010001004200020048000800488
:103F800040004004600200201C4B10B41A689406E4
:103F900011D5D96888060ED5194C1A485968238856
:103FA00000880133C3F30A0380B298421FBF16484A
:103FB000C9B2C1542380110744BF104B5B6812067D
:103FC00016D50E48C3681B0612D5104B104A198827
:103FD000138889B29BB299420CD013880133C3F382
:103FE0000803138013880B4A9BB2D35CDBB2436097
:103FF00010BC704710BCFEF753BD00BF0038014035
:104000000C4200200A4200200A3A002010440020FE
:104010000E4400200E4200200A490B4A08B50B88C6
:1040200012880133C3F3080392B29A4207D0074AB9
:10403000D05407480B80FEF70CFD012008BD00207E
:10404000FCE700BF104400200E4400200E42002078
:104050000038014038B504464518AC4200D138BD9F
:1040600014F8010BFFF7D8FFF7E708461146FFF7F2
:10407000F1BF0000054B064A1B8810880133C3F3CB
:10408000080380B2181A18BF01207047104400209E
:104090000E44002008B5FFF7EDFFB0FA80F04009AC
:1040A00008BD0000054B064A1B8812889B1A98B26F
:1040B0001B0444BF00F5006080B270470C42002032
:1040C0000A420020FFF7EEBF0848094A018813881A
:1040D00089B29BB29942F9D013880133C3F30A0322
:1040E00013801388034A9BB2D05C70470C420020B7
:1040F0000A4200200A3A0020FFF7E6BF002300B57D
:1041000089B0CDE90633CB1A18BF01231B03CDE9D3
:1041100002320C2301900491034801A905930EF08B
:104120009DF809B05DF804FB0038014010B5064C5D
:10413000E36823F40053E360FFF7E0FFE36843F430
:104140000053E36010BD00BF003801400022084664
:104150001146FFF7EBBF0000F7B5082601272E4CEC
:104160002E4DE3682E4923F40053E360FFF7F3F983
:104170004FF48040FEF752FC284603230A22CDE983
:104180000067FFF73FFA032328461A46CDE9006788
:104190002449FFF737FA00224FF4E1301146FFF7C8
:1041A000ADFFB022236923F490432361636923F0B8
:1041B0002A0363611C4B83F8252320225A60204682
:1041C000FEF76EFCFEF75FFC6FF0400323600024F7
:1041D000164B1C80164B1C80FEF748FC6FF020032A
:1041E0000360144B1C80144B1C80036923F4006390
:1041F0000361436923F008034361036923F48043A7
:104200000361436923F022034361C36843F400530D
:10421000C36003B0F0BD00BF00380140000801409A
:10422000020002040400040400E100E00E44002047
:10423000104400200A4200200C42002008B5FFF77D
:104240008BFF6FF02003034803604368BDE808401C
:10425000FEF7F2BB00380140FFF7F0BF7FB5002446
:104260000125064644F24001FFF775F902230B22AF
:104270002648CDE90045FFF7C5F9022348F2800141
:104280000B22CDE900452148FFF7BCF93168204BEE
:1042900099420AD103F5DE33DA6942F40012DA6199
:1042A000DB6903F400130293029B00238022102099
:1042B000184D194CC5E90133C5E90323C5E9053398
:1042C000C4E90103C4E90323C4E90533EB61E361F5
:1042D0000F4B994218D103F5DE335A69284642F054
:1042E00001025A615B6903F001030393039B0B4BCB
:1042F0002B600BF025FD0A4B2046B5636E622360F0
:104300000BF01EFD7463666204B070BD000C0140CA
:1043100000540040581200209C12002080000240EF
:104320006C00024008B51448144B4FF480420360FF
:104330000023C0E90332124AC0E90533C0E907335C
:10434000C0E901230CF06AF8A0B9F0220D4B83F804
:104350001F234FF00041196083F820230121596089
:1043600083F810234FF48031196083F811234FF440
:1043700000321A6008BD00BFE01200200054004067
:10438000801A060000E100E001480CF001BD00BF0A
:10439000E012002001480DF043B900BFE0120020F8
:1043A00001480BF087BD00BF9C12002001480BF0B4
:1043B00081BD00BF58120020014B1870704700BF2C
:1043C000341300201FB5084B1C784FF0FF33CDE9A4
:1043D0000123012302460091044804FA03F10CF082
:1043E000C5F804B010BD00BF34130020E012002057
:1043F00013B5064B1C780123CDE90012024604FADE
:1044000003F103480CF042F902B010BD3413002050
:10441000E0120020044B0A22197804484FF0FF33C1
:1044200049000CF0F9B900BF34130020E01200205D
:1044300008B5FFF777FF0022014B1A7008BD00BFD7
:1044400034130020024B1A68024B1A60704700BFF9
:104450002446002020100020054A064B19681368E6
:1044600099421DBF0133012013600020704700BF37
:104470002010002024460020034A044B11681B78BA
:104480000B441360704700BF2446002070020020D8
:10449000014B1868704700BF244600200148FFF711
:1044A0006CB900BF00040040014B586A80B27047ED
:1044B0000004004008B5FFF7F1FFBDE80840FFF732
:1044C000C1BF000038B51B4C94220021201D0FF005
:1044D00087FE06232380162363800F23164D0522B3
:1044E0002946A380A01D2C23FDF750F8134A144B36
:1044F0002946C4E90D23134B0522E36304F1400070
:104500002C23FDF743F80223A4F86E304FF48033D8
:10451000236700230C4904F18000C4E91E3384F8AA
:1045200074300FF0BDFE7F2384F89530052384F8A6
:10453000963038BD280900206C5A010802000F008F
:1045400003000500FFFF0F002047010870B5094E6A
:1045500005460C46415C30460FF059FE034628B133
:10456000831B0133DBB2282B28BF0023F35C2B55C0
:1045700070BD00BF7861010870B50C461146064653
:104580000FF08EFE44B10025052130460135FFF7BE
:10459000DDFFEBB29C42F7D870BD000073B5054655
:1045A00005F11106204C0146204A68463601FFF706
:1045B000E3FFB01C694620440FF072FE012304EBB8
:1045C000051226447372A2F81A31142240F2011126
:1045D00002FB05404FF480750322A0F84A30C36403
:1045E00080F85020A0F85230002280F85530A0F812
:1045F0005650A0F8581040F2032084F83420E38489
:10460000A562A08584F82E3084F8303084F83320F9
:10461000C4F83A20C4F83E20C4F84220A4F846105A
:10462000A4F8481002B070BD6C070020E0460108F5
:10463000F7B5054605F111060146AE4AAE4C68468F
:104640003701FFF799FFB81C694627442044FCF75F
:1046500099FE7B7AA94A052B88BF022304EB06103A
:1046600088BF7B721188437A41FA03F3DF070FD4C6
:104670000223437261B14807C1F3800308D441FAB1
:1046800003F7FF07D8B240F1D08104EB061358724C
:1046900004EB051191F81A012B01052802D901201C
:1046A00081F81A01E718508897F81A1140FA01F1B9
:1046B000C90711D4012187F81A1168B18707C0F31F
:1046C000400109D440FA01FC1CF0010FCFB200F008
:1046D000B181E11881F81A71E11891F81B010328E2
:1046E00002D9002081F81B0104EB0616717A01291A
:1046F00003D9042901D000219180E618908896F80A
:104700001B1140FA01F111F001010ED186F81B11C5
:1047100058B110F0010108D140FA01F7FF07CEB2FD
:1047200040F18D81234483F81B61142303FB054171
:1047300091F84A00042802D9012081F84A0003FBBD
:10474000054393F84B10042902D9002183F84B103C
:10475000142303FB0543918E93F84B0041FA00F0BC
:10476000C00712D4012083F84B0071B18807C1F350
:1047700040030AD441FA03F6F707D8B240F1648146
:10478000142303FB054383F84B00142303FB054369
:1047900093F84C10032902D9012183F84C101420FE
:1047A00000FB0540D18E90F84C3041FA03F313F032
:1047B000010310D180F84C3069B111F001030AD126
:1047C00041FA03F6F607D8B240F14381142303FB04
:1047D000054383F84C00142303FB054393F84E1064
:1047E000012902D9002183F84E10142000FB054056
:1047F000118F90F84E3041FA03F313F0010310D1FA
:1048000080F84E3069B111F001030AD141FA03F684
:10481000F707D8B240F12281142303FB054383F844
:104820004E00142303FB054393F84F10022902D9CD
:10483000002183F84F10142000FB0540518F90F8A1
:104840004F3041FA03F313F0010310D180F84F30D9
:1048500069B111F001030AD141FA03F6F607D8B2A3
:1048600040F10181142303FB054383F84F00142317
:1048700003FB054191F84D00022802D9002081F880
:104880004D0003FB054393F85010052902D903217D
:1048900083F85010142303FB054191F852000128BE
:1048A00002D9012081F8520003FB054393F855100B
:1048B000012902D9012183F85510142303FB054374
:1048C00093F85310022902D9002183F853101420C1
:1048D00000FB0540918F90F8533041FA03F313F039
:1048E000010318D180F85330A9B111F0010312D19E
:1048F00006E000BFE04601086C0700202809002000
:1049000041FA03F6F707D8B240F1B280142303FB53
:10491000054383F85300142303FB054191F8560027
:104920000C2802D9002081F8560003FB054393F8B8
:104930004C10012906D193F84F10022904BF002121
:1049400083F84F101423012140F2011003FB0543AB
:1049500083F85710A3F8580094F82630042B01D997
:1049600084F8261094F82730042B02D9002384F809
:104970002730B2F86E0094F8273040FA03F313F0B2
:10498000010F814B0ED1012184F8271050B1860709
:10499000C0F3400106D440FA01F7FF07CEB26CD550
:1049A00083F8276094F82810022902D9002184F89E
:1049B000281094F82910022902D9012184F829101D
:1049C000B2F8701094F8292041FA02F212F00102B4
:1049D0000CD184F8292049B111F0010206D141FA25
:1049E00002F6F607D0B24CD583F8290094F82A20B5
:1049F0000C2A02D9002284F82A2093F832200C2AAB
:104A000002D9002283F8322093F82B20042A02D9FD
:104A1000002283F82B20002210465C4911F9014F37
:104A200014F1780F31DA087031E00133102B7FF484
:104A300026AE2DE6013110297FF444AE4CE601315B
:104A400010297FF469AE70E60133102B7FF492AE2B
:104A50009BE60133102B7FF4B3AEBCE60133102B81
:104A60007FF4D4AEDDE60133102B7FF4F5AEFEE625
:104A70000133102B7FF444AF4DE7013110298AD167
:104A800090E70132102AAAD1B0E7782CCBDC0132B2
:104A9000D2B20C2AC2D1002201203D4911F8014FA7
:104AA0000132022CD2B288BF0870042AF6D193F8E2
:104AB0003420012A02D9002283F83420354AB2F882
:104AC000721093F8342041FA02F212F001020CD174
:104AD00083F8342049B111F0010206D141FA02F401
:104AE000E407D0B211D583F8340093F82C20052ABE
:104AF00002D9032283F82C2093F82D20032A08D80A
:104B00000AD1002283F8342006E00132102AE5D1D0
:104B1000EBE7022283F82D2093F82E20022A02D9F7
:104B2000012283F82E2093F83020022A02D9012294
:104B300083F8302093F833200C2A02D9002283F81E
:104B400033201421FF2201FB05314FF6FF7081F85D
:104B5000512081F8542083F82F2083F831204FF022
:104B6000FF3203EB0515C5F81C21A5F820011A62D8
:104B70009A84A1F85A20A1F85C2083F83500DA86DF
:104B80001A8703B0F0BD00BF6C070020A507002006
:104B9000B10700202809002030B5052804D8DFE837
:104BA00000F01E0423191E23FEE720251F240022E7
:104BB0000F21104B98700338012894BF002001206A
:104BC0001A7119771A74A3F84850A3F84A409873D9
:104BD000987630BD09256F2400220721E9E71425C6
:104BE000322400220A21E4E7352513240122192169
:104BF000DFE700BF100700202DE9F74300F11105A2
:104C0000944F2D0105F10209B94406464846FCF7C8
:104C1000D5FB04218046904C01900DEB0100FDF77F
:104C200071FFC4F80880C4F814804FF001083D44B7
:104C30006B7AE083637007EB061393F81A0184F82C
:104C40005180A4F85280A4F85480FFF7A5FF1423E4
:104C500003FB067393F84A20804B350113F9223089
:104C6000237323766378052B09D8DFE803F0030666
:104C700056585A5C0023637301E084F80D80784B2A
:104C8000617B1B88617603F00102980748BF42F000
:104C90000202A2855A0748BFA28D84F8281044BF9B
:104CA00042F00402A285180742BFA28D42F0100212
:104CB000A285DA0642BFA28D42F02002A2859806A4
:104CC00042BFA38D43F00803A385002384F82A3054
:104CD00021B94846FCF792FB84F82A003D4495F838
:104CE0001B2184F829206AB1E18B02EB021303EB4C
:104CF00003230B444FF01131E383A36801FB02331C
:104D0000A3606361E38B94F828506362052D0CD88F
:104D1000DFE805F00C51531547490223ABE70423A4
:104D2000A9E70523A7E70323A5E7FEE7A378032B5D
:104D300003D8DFE803F003464403FEE71825DFF855
:104D400024C184F820501CE90F008CE80F0040F2C9
:104D5000E2432846A4F84C30FBF7B4FE4FF07F51F5
:104D6000FBF704FFFCF704F94FF47A73B4F848201A
:104D70006D08B3FBF2F3A4F840301423052D38BFBF
:104D8000052503FB067393F85030C0B2A4F84E001B
:104D900084F85050052B3DD8DFE803F01542363932
:104DA0003C3F0225CBE7A378022B08D0052B06D089
:104DB000012B06D0FEE71925C1E70625BFE70C2524
:104DC000BDE71225BBE74FF416536364002384F854
:104DD000563084F85830142303FB067696F84C209E
:104DE000032A03D096F84F30022B02D1012384F816
:104DF0005630511E4B424B4194F8561084F85730B0
:104E000089B1012A0FD1FEE74FF41643DDE74FF4D5
:104E10006143DAE74FF4E133D7E74FF46133D4E786
:104E20004FF49643D1E71420237800FB037393F8E3
:104E30004C30022B07D1012384F8583021B194F86B
:104E400058301BB1FEE709B9012AF8D003B0BDE81C
:104E5000F08300BF6C070020100700206C5A010887
:104E600028090020400700204FF4DE72FF2101488E
:104E70000FF0B6B96C0700204FF4DE710148FEF761
:104E8000A5BF00BF6C0700204FF4DE710148FEF79C
:104E900089BF00BF6C07002008B5FFF7F5FF034B83
:104EA0001878BDE80840FFF7C3BB00BF100700201B
:104EB00038B5FFF7D9FFFEF79DFF04280CD0FFF7A8
:104EC000D3FFFEF797FF042803D1FFF7DDFF042887
:104ED00006D0FFF7C9FF03E0FFF7D6FF0428EED1A5
:104EE00010222F492F480FF09FF92E4C38B1102275
:104EF00020462D490FF098F908B1FFF7B5FFA38AB6
:104F0000B3F5215F28D008D30025E8B20135FFF7BB
:104F100045FB0A2DF9D10023E3774FF421530125F6
:104F2000A38242F6430322691D499A421D484FF06D
:104F300010021CBF012523610FF076F970B1102219
:104F400017491848FCF7A0FB082218491848FCF735
:104F50009BFBFFF791FF03E00025E2E7002DF8D16E
:104F6000E37F1420092B84BF0023E3770023E17F34
:104F70000C4A00FB014494F84C0001330A2B82F8E0
:104F80004C0002F11402F6D10A4C2170FFF79AFA94
:104F90002078FFF74DFB2078BDE83840FFF72CBEA6
:104FA000E74601086C070020F84601080947010898
:104FB0001E09002010070020C01A1628A8BF1620BE
:104FC00030B56FF00805A842B8BF28469DF80C40E0
:104FD000A042C8BF20B2C0B208701844107030BDE3
:104FE00007B5084611461A46142300931123FFF70C
:104FF000E3FF03B05DF804FB0129F7B5054600D9CE
:10500000FEE70B4E0F0106EB0114A3786278F15D09
:1050100004610DF059FCE37928460193A3792279C4
:105020000093E17863790DF076FC03B0F0BD00BF2A
:10503000FC87010838B5836804466BB1024652F814
:10504000183BDD6900F11903A8472046217E0222A2
:10505000BDE838400DF0C1BC38BD000070B58160BE
:10506000897A044686B001B101210DF006FC204684
:105070000DF095FD20460DF06DFD217BFF2903D03D
:10508000FA2220460DF072FDA3685B7A013B042BE7
:1050900004D8DFE803F0043E3E414100FEE7E92288
:1050A000E12120460DF0A0FD012120460DF02FFD4D
:1050B000962120460DF06CFD382120460DF07EFD36
:1050C00020460DF083FDA368204693F90810FFF7F2
:1050D000B1FFA3689D7A15B320461978FFF78CFFBE
:1050E0000022204611460DF0E2FB002340F203228D
:1050F000204600934FF6FF710DF03CFC20464FF622
:10510000FF710DF05EFC204606B0BDE870400DF06A
:105110000EBDDB22D721C4E76F226B21C1E70F4B05
:105120002046DE8B0E4B0B2263614CF250330D494F
:10513000009319230DF068FD0123CDE903335B23B0
:10514000CDE90153102320461946042200950DF0A5
:1051500099FD314620460DF0B9FDC1E7100700204A
:10516000DC870108A086010010B504460DF0DFFCC5
:105170002046BDE810404FF6FF710DF022BC000044
:1051800038B5044603688168DD6900F1180200F152
:10519000190391F90810A847A3689A7A42B11A78BE
:1051A000012A00D9FEE7044B03EB0213236138BD4B
:1051B000024B6361FBE700BFFC870108DC87010845
:1051C00010B50A4CA06858B1236923B9636913B9B3
:1051D0002046FFF7D5FFA3689B7A23B1236998681F
:1051E000A0F57A7010BD63699869F9E7043700206B
:1051F000836810B5044683B103691BB943690BB9D1
:10520000FFF7BEFFA3689B7A1BB12369B3F90C00BB
:1052100010BD6369B3F91C00FAE71846F8E7836824
:1052200010B5044643B103691BB943690BB9FFF7D5
:10523000A7FF94F9190010BD1846FCE790F8D83084
:105240005BB190F8D930074A180102EB03139B6851
:105250001978135853F821007047837D0E3350F8A6
:1052600023007047085A01082DE9F3410446164609
:1052700088469DF824705B22402F4FF000011D46A8
:1052800028BF40270EF0ACFF904BDB8B2380327899
:10529000A37862F30203A3707178DBB2C90001F056
:1052A000080103F0070341EA08111943A17072795C
:1052B000E37862F30003E370B279637962F38613F3
:1052C000637196F90200FBF78AFFE37860F3470306
:1052D000E370F279237962F300032371327A62F387
:1052E000460323713279DBB202F0010203F07F033F
:1052F00043EAC213237132796379C2F3450223F082
:105300003F0313436371A37967F34703A3712B78BA
:10531000AA78E3716B7802F01F0203F0070343EAF7
:10532000C20323726A88637AC2F3451223F03F03F3
:10533000134363722A79DBB202F0030203F03F03E6
:1053400043EA82136372AB88C3F38703A3726A795B
:10535000E37AC2F3800223F001031343E372AA79D4
:10536000DBB202F07F0203F0010343EA4203E3727F
:10537000EA88237BC2F3C31223F00F031343237382
:105380002B7AAA7AE3736B7A02F01F0203F0070309
:1053900043EAC20323746A89637CC2F3451223F093
:1053A0003F03134363742A7BDBB202F0030203F072
:1053B0003F0343EA82136374AB89C3F38703A37487
:1053C0006A7BE37CC2F3800223F001031343E3749E
:1053D000AA7BDBB202F07F0203F0010343EA42033F
:1053E000E374EA89237DC2F3C31223F00F0313434E
:1053F00023752B8ADB0863756B8ADB08A375AB8A80
:10540000DB08E375EB8ADB0823762B8BB3F5C06FE3
:105410004ED2B3F5007F94BF00230123227B63F3B8
:10542000051222736B8BB3F5C06F43D2B3F5007FC7
:1054300094BF00230123227B63F387122273AB8B7B
:10544000B3F5C06F38D2B3F5007F94BF00230123BA
:10545000227D63F305122275EB8BB3F5C06F2DD25D
:10546000B3F5007F94BF00230123227D63F38712ED
:10547000089B22751F4404F11802BB4220D14FF64D
:10548000FF7321460DF106000D22ADF80630FDF741
:1054900021FB2146BDF806304C2221F80D3FFDF7D7
:1054A00019FBBDF80630A4F8593002B0BDE8F08110
:1054B0000223B3E70223BEE70223C9E70223D4E7AE
:1054C00013F8011B02F8011FD7E700BF10070020E7
:1054D00013B59DF81040CDE9003413460A4600216B
:1054E000FFF7C2FE02B010BD13B5144B0288DB8B70
:1054F00004469A421DD1837803F0F003102B01D0AB
:10550000202B18D1A379A52B15D84FF6FF730DF1D9
:10551000060059222146ADF80630FDF7DBFAB4F853
:105520005900BDF80630C01A18BF0120800002B033
:1055300010BD0120FBE70220F9E700BF10070020A3
:1055400030B5374B027893F8261000F1160461F35A
:105550000302027093F8271061F30712027093F8A8
:105560002810427861F30302427093F8291061F326
:105570000712427093F82A10827861F30302827056
:1055800093F83210827961F30302827193F82B1041
:10559000827861F30712827093F83410C27961F354
:1055A0000302C27193F82C10C27861F30302C27037
:1055B00093F82D1061F30712C27093F82E10027940
:1055C00061F303020271427993F8301061F3030230
:1055D000427193F83310827961F30712827103F1FB
:1055E000390100F10A0211F9015F02F8015FA242DC
:1055F000F9D193F84610C27D61F30102C27593F8A8
:10560000471061F38302C27593F8481061F30512E5
:10561000C27593F8493063F38712C27530BD00BF7D
:105620006C0700200278314BC2F3030230B583F8D7
:105630002620027803F13901C2F3031283F82720F0
:10564000427800F11604C2F3030283F8282042785E
:10565000C2F3031283F829208278C2F3030283F88D
:105660002A208279C2F3030283F832208278C2F3BF
:10567000031283F82B20C279C2F3030283F834208B
:10568000C278C2F3030283F82C20C278C2F303125B
:1056900083F82D200279C2F3030283F82E20427989
:1056A000C2F3030283F830208279C2F3031283F835
:1056B000332000F10A0212F9015FA24201F8015FF2
:1056C000F9D1C27DC2F3010283F84620C27DC2F344
:1056D000810283F84720C27DC2F3011283F848207B
:1056E000C27DC2F3811283F8492030BD6C070020CF
:1056F0001FB58DF80C300123019303AB00931346C3
:105700000A460221FFF7B0FD05B05DF804FB00007A
:105710000123F0B5214D044685F8743085B0B0F80A
:105720000900FBF758FFA867B4F80B00FBF753FF1D
:105730006E461422E86704F10D0105F18000FBF7C5
:10574000B5FF94F9213004F1230085F8953094F8E1
:10575000223004F1510785F89630FFF763FF04F11A
:105760004103324618685968083303C2BB421646E3
:10577000F7D12C23082269460948FBF789FE94F8E3
:105780005130A5F86E3094F85230A5F8703094F886
:105790005330A5F8723005B0F0BD00BF28090020D5
:1057A000680900202DE9F0474FF0400992B00DF153
:1057B000080805460E46174600214A4640460EF0A8
:1057C0000FFD2223DFF874A01D4C9AF800100DF194
:1057D0000A0004EB0111062201F589718DF80830E9
:1057E000FBF752FF9AF8001005A804EB011292F89B
:1057F0001A3192F8194103F00F0304F00F0444EA40
:10580000031492F81B3103F00F0344EA0324BDF89C
:10581000103023F47F6323F00F031C43ADF81040D6
:10582000FFF78EFE3B46324602212846CDE900892D
:10583000FFF71AFD12B0BDE8F08700BF1007002087
:105840006C070020034B04491A68044801FB02005E
:1058500018607047000A00200D6619005FF36E3C67
:1058600038B50A4A0A4D13782C78A34203D1013384
:105870002B70287838BD1470FFF7E4FF6FF00043F9
:1058800098423CBF01342C70F3E700BFFD090020B3
:10589000FE09002000230A4A838012688371826017
:1058A000084A83810384136803615368064A43618D
:1058B000136883615368C3614EF6602303607047C9
:1058C000244600200F4701081847010810B5114C65
:1058D0000220FFF761F92046FFF746FC0A21204627
:1058E000FFF7A8FBA36803B9FEE7002120460CF0F0
:1058F000ADFF4FF47A70FEF729F9204601210CF034
:10590000BCFFA36820461978FFF776FB2046FFF717
:105910002BFC10BD0437002090F8203013B980F81C
:105920002130704790F82130013B5BB2002B80F8AA
:105930002130DCBF002380F820307047134B90F8F3
:1059400020201B68CAB182689B1AB3F57A6F01D90F
:10595000012343710379ABB10D4B427B1B781AB124
:10596000022B1CBF032202739A1E534253414373FE
:10597000837953B10323037370478360EAE70123FC
:105980000371F8E74379002BF9D1704724460020D2
:10599000E90A00200346007B821E012A4FF0000224
:1059A00002D893F8201009B91A737047104670474F
:1059B00070B505461A4C5B22002120460EF010FC03
:1059C0002B69184E23606B6931786360164B174D55
:1059D0001B7805EB01119A1E53425341627A01F57F
:1059E000897163F30002627204F10A000622FBF778
:1059F0004BFE3378592105EB031595F81A21237CCA
:105A0000204662F30713237495F81B21637C62F32D
:105A100003036374FDF776F8A4F8590070BD00BF66
:105A20004937002010070020E90A00206C070020F9
:105A30000A4A38B51388044601339BB2502B0D46F1
:105A400001D8138038BD002305491380FDF771FD8F
:105A500029462046FDF76DFDF4E700BF2410002025
:105A60005A4801082DE9F74F1646054688466D4904
:105A7000FDF75FFD31462846FDF75BFD00226A4BCE
:105A8000B8F1010F694C1A8011D14FF400434FF463
:105A90008047636146F2A8102761FEF757F86761F7
:105AA000FEF754F831462846FFF7C2FFF2E7A8F1A7
:105AB00002034FF480420C2B00F2A780DFE803F0D2
:105AC0003141531C07A5A5A56363636363004FF4CD
:105AD00080484FF4004746F2A810C4F81080676170
