:020000040800F2
:10000000005000206D9F0008559F0008579F000872
:10001000599F00085B9F00085D9F000800000000DA
:100020000000000000000000000000005F9F0008CA
:10003000619F000800000000639F0008659F0008A2
:10004000B59F0008B59F0008B59F0008B59F000840
:10005000B59F0008B59F0008B59F0008B59F000830
:10006000B59F0008B59F0008B59F0008B59F000820
:10007000B59F0008B59F0008B59F0008B59F000810
:10008000B59F0008B59F0008B59F0008B59F000800
:10009000B59F0008B59F0008B59F0008658D000852
:1000A000B59F0008B59F0008B59F0008B59F0008E0
:1000B000DD400008B59F0008B59F0008B59F000807
:1000C000B59F0008B59F0008B59F0008B59F0008C0
:1000D000B59F0008C1260008C5230008F156000896
:1000E000B59F0008B59F0008B59F000800000000FC
:1000F0000000000000000000000000000000000000
:0C01000000000000000000005FF808F1A3
:10010C0010B5054C237833B9044B13B10448AFF345
:10011C0000800123237010BDC802002000000000E5
:10012C003CB9000808B5034B1BB103490348AFF3B6
:10013C00008008BD00000000CC0200203CB9000883
:10014C0010F8012B11F8013B012A28BF9A42F7D075
:10015C00D01A7047034613F8012B002AFBD1181A4A
:10016C000138704780F0004002E000BF81F0004190
:10017C0042001FBF5FEA410392EA030F7FEA226C41
:10018C007FEA236C6AD04FEA1262D2EB1363C1BFD1
:10019C00D218414048404140B8BF5B42192B88BF40
:1001AC00704710F0004F40F4000020F07F4018BF63
:1001BC00404211F0004F41F4000121F07F4118BF83
:1001CC00494292EA030F3FD0A2F1010241FA03FC2B
:1001DC0010EB0C00C3F1200301FA03F100F0004313
:1001EC0002D5494260EB4000B0F5000F13D3B0F1DB
:1001FC00807F06D340084FEA310102F10102FE2A4A
:10020C0051D2B1F1004F40EBC25008BF20F00100B9
:10021C0040EA03007047490040EB0000013A28BF58
:10022C00B0F5000FEDD2B0FA80FCACF1080CB2EBDB
:10023C000C0200FA0CF0AABF00EBC2505242184359
:10024C00BCBFD0401843704792F0000F81F40001FE
:10025C0006BF80F400000132013BB5E74FEA4103D1
:10026C007FEA226C18BF7FEA236C21D092EA030F3D
:10027C0004D092F0000F08BF0846704790EA010FB7
:10028C001CBF0020704712F07F4F04D1400028BFE4
:10029C0040F00040704712F100723CBF00F50000C6
:1002AC00704700F0004343F0FE4040F400007047FC
:1002BC007FEA226216BF08467FEA236301464202A8
:1002CC0006BF5FEA412390EA010F40F480007047BB
:1002DC004FF0000304E000BF10F0004348BF404261
:1002EC005FEA000C08BF704743F0964301464FF09D
:1002FC0000001CE050EA010208BF70474FF00003F9
:10030C000AE000BF50EA010208BF704711F0004339
:10031C0002D5404261EB41015FEA010C02BF844609
:10032C000146002043F0B64308BFA3F18053A3F568
:10033C000003BCFA8CF2083AA3EBC25310DB01FAAF
:10034C0002FC634400FA02FCC2F12002BCF1004F33
:10035C0020FA02F243EB020008BF20F001007047C4
:10036C0002F1200201FA02FCC2F1200250EA4C0018
:10037C0021FA02F243EB020008BF20EADC7070475E
:10038C004FF0FF0C1CEAD0521EBF1CEAD15392EA6C
:10039C000C0F93EA0C0F6FD01A4480EA010C400248
:1003AC0018BF5FEA41211ED04FF0006343EA5010A2
:1003BC0043EA5111A0FB01310CF00040B1F5000FE4
:1003CC003EBF490041EAD3715B0040EA010062F193
:1003DC007F02FD2A1DD8B3F1004F40EBC25008BF7D
:1003EC0020F00100704790F0000F0CF0004C08BF9B
:1003FC0049024CEA502040EA51207F3AC2BFD2F168
:10040C00FF0340EAC250704740F400004FF0000375
:10041C00013A5DDC12F1190FDCBF00F000407047AF
:10042C00C2F10002410021FA02F1C2F1200200FAED
:10043C0002FC5FEA310040F1000053EA4C0308BFB4
:10044C0020EADC70704792F0000F00F0004C02BF05
:10045C00400010F4000F013AF9D040EA0C0093F080
:10046C00000F01F0004C02BF490011F4000F013BDA
:10047C00F9D041EA0C018FE70CEAD15392EA0C0F48
:10048C0018BF93EA0C0F0AD030F0004C18BF31F0B3
:10049C00004CD8D180EA010000F00040704790F089
:1004AC00000F17BF90F0004F084691F0000F91F02D
:1004BC00004F14D092EA0C0F01D142020FD193EAF3
:1004CC000C0F03D14B0218BF084608D180EA01007B
:1004DC0000F0004040F0FE4040F40000704740F057
:1004EC00FE4040F4400070474FF0FF0C1CEAD05225
:1004FC001EBF1CEAD15392EA0C0F93EA0C0F69D081
:10050C00A2EB030280EA010C49024FEA402037D0EB
:10051C004FF0805343EA111143EA10130CF00040E2
:10052C008B4238BF5B0042F17D024FF4000C8B42D2
:10053C0024BF5B1A40EA0C00B3EB510F24BFA3EBB2
:10054C00510340EA5C00B3EB910F24BFA3EB910382
:10055C0040EA9C00B3EBD10F24BFA3EBD10340EADC
:10056C00DC001B0118BF5FEA1C1CE0D1FD2A3FF622
:10057C0050AF8B4240EBC25008BF20F001007047D7
:10058C000CF0004C4CEA50207F32C2BFD2F1FF037A
:10059C0040EAC250704740F400004FF00003013AAB
:1005AC0037E792F0000F00F0004C02BF400010F44F
:1005BC00000F013AF9D040EA0C0093F0000F01F063
:1005CC00004C02BF490011F4000F013BF9D041EA85
:1005DC000C0195E70CEAD15392EA0C0F08D14202B8
:1005EC007FF47DAF93EA0C0F7FF470AF084676E78B
:1005FC0093EA0C0F04D14B023FF44CAF08466EE764
:10060C0030F0004C18BF31F0004CCAD130F0004231
:10061C007FF45CAF31F000437FF43CAF5FE700BF89
:10062C0042000ED2B2F1FE4F0BD34FF09E03B3EB50
:10063C00126209D44FEA002343F0004323FA02F07C
:10064C0070474FF00000704712F1610F01D1420268
:10065C0002D14FF0FF3070474FF00000704700BFE1
:10066C000022427082700122C2700222B1FA81F122
:10067C0002710322490901704271704743788B4221
:10068C001FD0012941700AD0022910D0C1B9012311
:10069C00C370022381700371032343717047037885
:1006AC0043B1012383700223C3700023F3E7037863
:1006BC00002BF6D0022383700023C3700123EAE7DA
:1006CC00FEE770470B8882B0ADF800304B880239DA
:1006DC00ADF80230CB88ADF804300B89ADF806309C
:1006EC00431C053013F8012F0DF1080C0CEB4202E2
:1006FC0032F8082C834221F8022FF3D102B0704754
:10070C0010B50C461146FFF7B9FF2146BDE8104065
:10071C00FFF7D8BF4FF07F32094B10B5C0E9232348
:10072C004FF47F43A0F89430FF23044680F89630B2
:10073C00983000F07AFC002384F8A43010BD00BF80
:10074C00FFFF7F0070B5154604461E46114600F0AB
:10075C00E8FB294604F1140000F0E3FB294604F100
:10076C00280000F0DEFB294604F13C0000F0D9FB28
:10077C00294604F1500000F0D4FB294604F1640032
:10078C0000F0CFFB294604F1780000F0CAFB4FF4CF
:10079C00FA7332464FF4FA6104F1980000F02BFC26
:1007AC002046FFF7B7FF002384F8A5304FF47F43B2
:1007BC00A4F8A63070BD704700F0BABB143000F03E
:1007CC00B7BB90F8903013B990F98C00704790F942
:1007DC008D00704790F8903013B990F98E007047E7
:1007EC0090F98F00704710B5044608F0CBFB38B178
:1007FC0004F13C0000F0A0FB012838BF0120C0B27E
:10080C0010BD783000F0A0BB10B5044600F06AFBB8
:10081C0004F1140000F066FB04F1280000F062FB08
:10082C0004F13C0000F05EFB04F1500000F066FBAC
:10083C0004F1640000F062FB04F17800BDE81040A4
:10084C0000F062BB7F2807D0002807DA10F1800F78
:10085C0006D04042C0B2704700207047012070475C
:10086C007F20704710B1404240B270477F207047E4
:10087C007F280FD010F1310F0EDA10F1780F0DDB4D
:10088C00FE23783040B2584346232330B0FBF3F0BC
:10089C00C0B27047FF207047FE20704700207047A1
:1008AC00012805DD40F2FE73984203DC80B27047EC
:1008BC000120704740F2FF70704740F2AE73A0F514
:1008CC007870C0EBC02090FBF3F000F58060FFF770
:1008DC00E7BF0000014B4840185C704764B9000842
:1008EC0052B110B4054C0A4411F8013B58408A42ED
:1008FC00205CF9D110BC7047704700BF64B9000888
:10090C00392808D822280ED9094B2338C0B2C34045
:10091C0003F0010070475F2807D0613819288CBF9D
:10092C00002001207047002070470120704700BF55
:10093C0001EC7F00F8B5024600245F27451E461DDA
:10094C0015F8010FFF2804BF0134E4B2FFF7D8FFFC
:10095C0000B92F70AE42F3D1062C04D119B10B683B
:10096C0013608B88938000239371F8BD2DE9F843B5
:10097C00012500264FF02808DFF82C90471E441D57
:10098C0017F8011F08480AF074FF034610B1A0EBDA
:10099C000903DBB2A3FB05329E19A742A5FB085342
:1009AC00EED13046BDE8F88364BA000810B5417941
:1009BC00A1F13000C3B2092B07D80523B0FBF3F328
:1009CC0003EB8303C01AC0B210BD044C20460AF0DE
:1009DC0050FF0028F1D0001BC0B2EEE764BA00084B
:1009EC00F0B52826084B094F821DB1FBF3F4272CD8
:1009FC008CBF30253D5D03FB141102F8015D824272
:100A0C00B3FBF6F3F1D1F0BD00801A0664BA00080E
:100A1C0070B50446FFF79EFB002582B2501EABB2A8
:100A2C00834204EB030103DAE65C0135302EF6D089
:100A3C00D21A2046BDE8704001320AF0E9BE00002F
:100A4C002DE9F04F0D4699B0164600211A461F4667
:100A5C0080460AF0F7FE00212A2201A800910AF034
:100A6C00F1FEDFF8CC90DFF8CCA0DFF8CCB005EBD2
:100A7C004606AE4211D16846FFF76CFB30B100F16F
:100A8C0060030DEB0300002300F8613C694640460F
:100A9C000AF038FF19B0BDE8F08F47F6FF7335F94F
:100AAC00020B9842E7D0002812DC59460CA80AF039
:100ABC0029FF6846FFF74EFB04460CA8FFF74AFBDC
:100ACC000444A742D5D368460CA90AF0C3FED0E76C
:100ADC00B0F57A7F0BDA0CA980B20AF026FA0CA8D2
:100AEC00FFF796FF51460CA80AF0B4FEE1E7642329
:100AFC003230B0FBF3F00CA980B20AF016FA0CA855
:100B0C00FFF786FF0CA8FFF725FB00F15F036B4492
:100B1C0013F8302C00F160010DEB010000F8302CC3
:100B2C002E2203F8302C0023494600F82F3CDAE73C
:100B3C005EB9000859B9000854B90008F0B589B07D
:100B4C006D4600242F468E1CE1B28A4204D83946E9
:100B5C00FFF776FF09B0F0BD36F82410013425F804
:100B6C00021BF1E742F21071020B00F03F0301FB94
:100B7C0002336422C0F3851002FB00307047000082
:100B8C0042F210732DE9F041B1FBF3F6642703FB3D
:100B9C00161488B01E4905460AF0B4FE6946F0B238
:100BAC000AF0A0F96846FFF733FFB4FBF7F6DFF85D
:100BBC006480694628460AF04DFE414628460AF0F4
:100BCC0049FE07FB16446946F0B20AF08BF96846F9
:100BDC00FFF71EFF694628460AF03CFE41462846B0
:100BEC000AF038FE6946E0B20AF07CF99DF8013053
:100BFC0069468DF800309DF8023028468DF801309A
:100C0C0000238DF802300AF025FE08B0BDE8F08113
:100C1C005DCA000862B9000870B50E460021054691
:100C2C0014460AF00FFE00239AB2944200D870BD0D
:100C3C00F25C002AFBD0EA540133F5E770B50E469E
:100C4C0014460021013205460AF0FCFD00239AB23D
:100C5C00944200D870BDF25C002AFBD0EA540133F8
:100C6C00F5E730B50023044698B2904201D3012039
:100C7C0005E0E55CC85C1DB9B0FA80F0400930BDF8
:100C8C000028FCD0854203F10103EDD00020F6E7EB
:100C9C007D23438043F23903C360002309B20180F2
:100CAC008180C3800372704702680449044B01FBC6
:100CBC00023323F000430360180C7047FD4303001C
:100CCC00C39E2600F0B5002597B0016085800446D0
:100CDC005622294668460AF0B5FD0126E27DAA4255
:100CEC0009D80023802104F1B800A37517B0BDE822
:100CFC00F0400AF0A7BD2046FFF7D6FFE7790021A8
:100D0C007B1B90FBF3F2EC4602FB13000A46C0B2CD
:100D1C00CBB29F4222D8002300221146277BD0B2AF
:100D2C00874226D80029D9D1A2796119033A012A20
:100D3C0005D925B191F9172012BB012BCED90B7611
:100D4C00A26852F82310583305F10E026B4401359A
:100D5C0044F8221003F8586CEDB2BFE71CF801EB15
:100D6C00BEF1000F03D18242D6D00132D2B2013192
:100D7C00CEE72069805C0132984208BF0121CEE7A2
:100D8C00501E8342DBDB01329342D8DCA6E7000025
:100D9C002DE9F04F154697B0013D016002710446F4
:100DAC004371EDB256220021684699460AF04AFD7D
:100DBC00022D98BF4FF0030A4FF0000794F80780FC
:100DCC008ABF4FF0010AB8FBFAF800253E46DFF85F
:100DDC0000B1E27DB24209D80023802104F1B800B1
:100DEC00A37517B0BDE8F04F0AF02CBD2046FFF7F5
:100DFC005BFFA8EB060390FBF3F202FB130300204E
:100E0C00EC460246DBB2C1B2414506D21CF801EBFE
:100E1C00BEF1000F1FD19A421BD10022414528BFC1
:100E2C00414694460AFB015094F80CE0C0B2D3B290
:100E3C009E4512D8BCF1000FCBD1A36809F1FF3C41
:100E4C0053F82020BCF1030F18D8DFE80CF00E1279
:100E5C002D300132D2B20130D5E723699B5C0132CF
:100E6C00834208BF4FF0010CE1E7DFF868C09444FF
:100E7C0001E002EB0B0C184A9445AAD916B1FFB944
:100E8C000129A6D9A219107653F8202006F10E03D9
:100E9C0044F82320012201F158036B4416440F46F9
:100EAC0003F8582CF6B294E7DFF830C0DFE7A2F570
:100EBC003D02DFF82CC0A2F59D42443A6245DCE7C6
:100ECC007A1E9142DEDB7A1C9142DBDC81E700BFAB
:100EDC00776245FFC54E47FF3BB10100287643FFC3
:100EEC003CB101006421D0E90123D31AC3604B4308
:100EFC00418A8260B3FBF1F303747047D0E901239C
:100F0C00D31AC0E90223704743682BB16421C2682D
:100F1C004A43B2FBF3F2D3B203740023C3604360C1
:100F2C00704700234182C0E9023343600374704769
:100F3C004368013343607047007C704743680B443F
:100F4C0043607047C068704711B1C3680133C36018
:100F5C00436801334360704700230380837003723E
:100F6C0070470346007810B100221A707047587809
:100F7C0010B100225A707047987810B100229A7004
:100F8C007047187A08B100221A7270478170704746
:100F9C008170426070474068704700234360038152
:100FAC0070470A2310B50446838001F00DFD2368B9
:100FBC00E0809B6820469847208110BD038970B55E
:100FCC0004469BB1858845B1013DADB285806DB9B4
:100FDC0003681B68BDE87040184701F0F5FCE38816
:100FEC00C01A238980B2834201D2258170BD236847
:100FFC0020465B68EEE72DE9F041044610461D469D
:10100C0016468846FFF764F9074606EB0800FFF71B
:10101C005FF901463846FFF767FA6560206028469D
:10102C00FFF75AF9A060BDE8F08110B5044640689E
:10103C00FFF752F9A06010BD002303607047000059
:10104C00092928BF092138B5064B04461B780D46E3
:10105C008B4202D10023036038BD01F0A9FC25713D
:10106C002060F9E7E4020020036810B504460BB9D0
:10107C00002010BD01F09CFC2368C01A40F2EE2346
:10108C009842F5D90023054A2360127823799A42B5
:10109C00EED0034A0120D377EBE700BFE402002037
:1010AC0040030020FF2343710023017183710381EE
:1010BC008372704738B5037904460D465BB14179AC
:1010CC00A94208D041B101290AD000236571A3714E
:1010DC0055B1012D0FD038BD03689B689847F4E7D4
:1010EC0003680021DB68F9E7012123689B6820462F
:1010FC009847A071EFE723682946DB68F7E72DE9ED
:10110C00F04F077CC37BBF000C4647EA931703F0F4
:10111C003F01437C857C03F00102C67C47EA8227B1
:10112C0005F00F02D20142EA530206F07F031B01C5
:10113C0043EA1513057D90F815E06D0089B045EA7A
:10114C00D6150EF00306059345EA4623867D0093DB
:10115C0006F01F05AD0145EA9E03C57D90F819E028
:10116C00ED00019345EA5613057E0EF00706029337
:10117C0045EA0623857E039305F03F06760146EA91
:10118C00DE03C67E90F81CE0B60046EA95160EF01B
:10119C00010546EA8526457F90F8208005F00F0B67
:1011AC004FEACB1B4BEA5E0B90F81EE090F80EC09A
:1011BC000EF07F0A4FEA0A1A4AEA151AC57F49014E
:1011CC006D0045EADE1508F0030E45EA4E2590F851
:1011DC0021E041EADC010EF01F094FEA891949EAC6
:1011EC00980990F82280407B0CF0070C40EA0C2008
:1011FC004FEAC80848EA5E18049306920791FFF775
:10120C005CFB079920800846FFF757FB6080384647
:10121C00FFF753FB069AA0801046FFF74EFB059B89
:10122C00E0801846FFF749FB20810098FFF745FB4B
:10123C0060810198FFF741FBA0810298FFF73DFB0D
:10124C00E0810398FFF739FB20820498FFF735FB08
:10125C0060823046FFF731FBA0825846FFF72DFB2A
:10126C00E0825046FFF729FB20832846FFF725FB39
:10127C0060834846FFF721FBA0834046FFF71DFB28
:10128C004FF48063E0832384638409B0BDE8F08F5E
:10129C002DE9F04104460F4601F096FB4FF0010892
:1012AC000546236820461B689847064650B9A37A22
:1012BC00012B1FD12389ED1A40F6C4139D42C8BFE0
:1012CC00A07217E0236820465B689847A37AA3B9FD
:1012DC000F2814D1A4F80A80E37AE2180133DBB2A8
:1012EC00182B1073E3720AD939462046FFF707FF13
:1012FC000023A3723046BDE8F081012BECD0258190
:10130C00CFE7827922B14379012B01D8FFF7C0BF17
:10131C000020704770477047704700207047704737
:10132C000020704700207047704700207047002055
:10133C0070470000054B82B0DA690243DA61DB6961
:10134C0003400193019B02B0704700BF00100240A4
:10135C00054B82B09A6902439A619B6903400193E1
:10136C00019B02B0704700BF0010024000F10C035B
:10137C0053E8003F43F0200300F10C0141E8003238
:10138C00002AF3D1704700F10C0353E8003F23F01F
:10139C00200300F10C0141E80032002AF3D1704720
:1013AC0000F10C0353E8003F23F0800300F10C0123
:1013BC0041E80032002AF3D1704770470288044B91
:1013CC005140C9B233F8113083EA122303807047BD
:1013DC00B8E700089AB110B4B0F800C0084C0A4441
:1013EC0011F8013B83EA0C03DBB234F81330914261
:1013FC0083EA1C2CA0F800C0F2D110BC70477047D7
:10140C00B8E700084FF6FF7337B50446ADF8063061
:10141C004518AC4203D1BDF8060003B030BD14F83A
:10142C00011B0DF10600FFF7C9FFF2E7044B18880A
:10143C00044B80B21B889BB2C01A18BF01207047A6
:10144C00542A0020522A00200023044A1380044A04
:10145C001380044A1380044A13807047522A0020D8
:10146C00542A0020562C0020582C002000207047B5
:10147C00044B1888044B80B21B889BB2C01A18BF4F
:10148C00012070475C2E00205A2E0020044B188837
:10149C00044B80B21B889BB2C01A18BF0120704746
:1014AC0064320020623200200278024B51405B5CB7
:1014BC0003707047CCD30008FF230370704700BF44
:1014CC00704770B50B78054603704B780C4643702B
:1014DC000B78FD2B38D10A268B788370CB78C370B0
:1014EC000B7903714B7943718B7983718B68C37161
:1014FC008B68C3F30F2303728B7A4372627804F107
:10150C000C01A8190AF006FA6378B4F80C213344DC
:10151C00EA54B4F80C115A1C92B2090AA954A278D4
:10152C00981CD20780B20ED504F58872054404F5D8
:10153C008E7452F8041BA24245F8041BF9D11278A0
:10154C000F332A7098B270BD00238B700B7906266E
:10155C0083704B79C3708B7903718B684371CDE7C2
:10156C00242208B5002103480AF06CF90022024B32
:10157C001A7008BDCC080020980500202DE9F04118
:10158C0013780446037092F80180FD2B0F46154624
:10159C0080F8018054D10A2693788370D378C37075
:1015AC001379037153794371937983716B7A127A3E
:1015BC001B0403EB0223EA79134423F07F43A26854
:1015CC00A91963F31702A26004F10C0042460AF059
:1015DC00A1F97A7B904507D208F10C000021A2EB0F
:1015EC00080220440AF02EF963781E44AB195A788D
:1015FC00AB5D03EB0223A4F80C31A378DB070ED50B
:10160C000236B6B2354404F5887305F10C0255F870
:10161C00041B954243F8041BF9D12A781A70BB7A43
:10162C0084F82131FB7A84F822313B7B84F8233116
:10163C007B7B84F824313B7884F82031BDE8F08141
:10164C0000234380937806260371D3784371137972
:10165C0083715379B3E700002DE9F04F0C465188A4
:10166C000546B1F58C7F4FF0000085B010D310709B
:10167C00D91CC9B2012995BF012100235180538087
:10168C009CBF237011700020287005B0BDE8F08F4E
:10169C0016780E2E00F2918001A757F826F000BFA5
:1016AC007D160008E916000811170008311700080C
:1016BC00C7170008C7170008C7170008C717000886
:1016CC00C7170008C7170008C7170008C717000876
:1016DC00C7170008C717000843170008481C50809C
:1016EC00635421789BB2FD2906D10C330A21D38097
:1016FC00022391801370C6E706210833D3809180B2
:10170C000E23F7E7481C5080D8074FF000006354B5
:10171C0042BFD1880D31D180012B8CBF03460323EE
:10172C001370B1E7481C508000208342635414BFEF
:10173C0003460E23F4E7481C508063545388D18829
:10174C008B4232D3002353801370022369802B7099
:10175C002378FD2B37D163792B72A3796B72637A63
:10176C00227A1B0403EB0223E27913446B60637847
:10177C0003F10C026A80A278D10701D519336B8072
:10178C0000264FF4BC720C206968DFF8FC806E8177
:10179C00B31801335B0800FB03F758F80770B94224
:1017AC001AD25A1EB242F3D818E092889A423FF6E7
:1017BC006AAF01232B70002067E710705080908077
:1017CC00D0802870F7E7E3782B7223796B726379FA
:1017DC006B6063780833D2E71E46E3D80C27774357
:1017EC0058F80730994227D123782046FD2B0CBF9F
:1017FC004FF00A094FF0060910F801BF474409EBF6
:10180C000B03591E89B20193FFF7FCFD97F804A056
:10181C00ADF80E0051460DF10E00FFF7CFFD019B08
:10182C00E2185278E35C03EB0223BDF80E209BB266
:10183C009A4209D0052000E00320287002380128C4
:10184C008CBF0020012020E7BB79DA0706D5FA7996
:10185C00934582BF04EB09018A5CAA729B0709D5E8
:10186C000C2303FB068362781B7A9A4282BF4C449A
:10187C00E35CEB720C2303FB06835B79022085F897
:10188C000CA06B73DAE700BFCCD400086FF0200318
:10189C00024803604368FFF769BD00BF0048004081
:1018AC004FF0320C0A4B0B491A680B4BA1FB02127E
:1018BC00920C0CFB02F202F5FA72A3FB02320749FE
:1018CC00920948684B681B1A9A42FBD8704700BFB4
:1018DC006802002083DE1B43D34D6210001000E031
:1018EC0008B5FFF7DDFF1022014B1A6108BD00BFE0
:1018FC00000801401022024B5A61FFF7D1BF00BF14
:10190C0000080140034630B587B001AC00F110056A
:10191C00224618685968083303C2AB421446F7D103
:10192C000024094D8DF81440A96801A8FEF708FCA5
:10193C0010B920B207B030BD01342E2C05F10C05C6
:10194C00F2D14FF0FF30F5E73000002010B50278EF
:10195C000A4BD243D2B244789A5C90F802E06240CF
:10196C009A5C90F803C082EA0E029A5C017982EAD2
:10197C000C029A5C4A40985C10BD00BFCCD30008A6
:10198C0070B5104C0025234626782EB166788E4211
:10199C0002D1A67896420BD001350C2D04F104042B
:1019AC00F2D1002413F824501DB101340C2CF9D1C0
:1019BC0070BD012503F8245003EB8403D8705970D3
:1019CC009A70F5E79D0500202DE9F8430B465A7AED
:1019DC009E7ADF7A204B0D791B5C0446DB07097A73
:1019EC0000D50DB9FFF7CCFF00234FF0010E984640
:1019FC001A4919489C4201F8018B25D02DB902785F
:101A0C00920702D501F801EC1EE04FF0000C144ACD
:101A1C0092F80090B9F1000F0FD092F8039099450D
:101A2C000BD1002EEED092F80190B14505D1002FCC
:101A3C00E8D092F80290B945E4D00CF1010CBCF15D
:101A4C000C0F02F10402E3D10133DBB2042B00F1E1
:101A5C000100CFD1BDE8F883CD0500209905002009
:101A6C009D05002007B503688DF8071001221B693E
:101A7C000DF10701984703B05DF804FBF0B5FD23A9
:101A8C000546044685B005F80C3B8DF8043090F8FB
:101A9C00243103F10C020244012B42D8002663705E
:101AAC0066808DF805308B7A0DF1050023718DF869
:101ABC0008308B7AADF8066001338B72637909219B
:101ACC008DF80930A3798DF80A30A368C3F3170396
:101ADC001A128DF80B301B148DF80D308DF80C206C
:101AEC00FFF790FC677829463A46ADF802000DF1F5
:101AFC000200FFF76FFC94F82311FFF75FFC94F8DA
:101B0C002421BDF802309742A4F80C3110D2314692
:101B1C0007F10C00D21B204405B0BDE8F04009F0E1
:101B2C0091BE12F8010D0028B8D1013BDBB2B3E72E
:101B3C0005B0F0BD70B5044608460D46FEF70AFB2D
:101B4C002368294682B21B692046BDE870401847BD
:101B5C0008B5FFF7EFFF08BD0120FFF7F9BB000048
:101B6C000D4B984202D10420FFF7F2BB0B4B98426D
:101B7C0005D003F58063984203D11020F4E70820C8
:101B8C00F2E7074B984201D12020EDE7054B984234
:101B9C0000D070474020E7E700080140000C0140EE
:101BAC0000140140001801400B4B984203D14FF434
:101BBC000060FFF7CDBBB0F1804F04D0074B9842CB
:101BCC0004D1022000E00120FFF7B4BB044B984283
:101BDC0001D10420F8E77047002C014000040040BC
:101BEC00000800402DE9F0410C46154686B007462A
:101BFC001022002102A81E469DF8348009F022FE16
:101C0C0001940B2D07D8DFE805F00E0E070A14140B
:101C1C00141616161B1DFEE70823029303E0082377
:101C2C00029301230593032E0ED8DFE806F01E2045
:101C3C000E1E0123F1E70123029304230493F2E720
:101C4C000923EAE70923F7E7FEE701230393B8F139
:101C5C00000F02D03846FFF783FF053D042D0BD84B
:101C6C00DFE805F007110A0711000323EEE7022352
:101C7C00ECE7C4F30F247C61384601A908F0BAFDE7
:101C8C0006B0BDE8F081C4F30F243C61F4E713B552
:101C9C004FF0010C0024CDE9004CFFF7A3FF02B07C
:101CAC0010BD000030B50023154687B00446ADF8D2
:101CBC000630FFF779FF042D04D8DFE805F02A2E53
:101CCC0004323B00FEE71C4B1C4A1B68B3FBF2F3CF
:101CDC009BB20022013BCDE90221204601A9ADF8BF
:101CEC0004300492059208F0BFFE236823F08003B1
:101CFC002360A36823F4804323F00703A360636885
:101D0C0023F070036360A36823F08003A36007B023
:101D1C0030BD094B0A4A1B68D8E7074B094A1B68B8
:101D2C00D4E7054B064A1B68B3FBF2F303EB8303C2
:101D3C005B00CDE70123CCE76802002080A81201EC
:101D4C0040420F0000127A0010B50446FFF7AAFFBC
:101D5C00236843F00103236010BD00224FF0FF31D4
:101D6C00FFF7F2BF1A4B10B55B681A4C236008F0F2
:101D7C001DF9194808F0EEFC184808F0EBFC18485F
:101D8C0008F0E8FC174808F06FFF174808F06CFFE4
:101D9C0008F0B4FD4FF0E02200231361536193610E
:101DAC0072B64FF0FF319A0002F16042013302F536
:101DBC006142082BC2F88010C2F88011F3D162B6D0
:101DCC00034B1B6883F3088823689847FEE700BF22
:101DDC0000F0FF1F9405002000080140000C01409A
:101DEC000010014000380140004400400749084AF7
:101DFC00881AEFF30883521A1A44013A013B9842AD
:101E0C0088BF0022AA2109F01DBD00BF0050002090
:101E1C000004000010B5124C03232046062240F6A5
:101E2C000801FFF734FF2046032302220D49FFF778
:101E3C002EFF032320461A460B49FFF728FF2046A6
:101E4C000323052240F20221FFF721FF2046BDE8C3
:101E5C0010400323052240F20111FFF718BF00BF09
:101E6C00000C01400100010402000204024B9868BE
:101E7C00C0F34020704700BF000C014008B5FFF7CD
:101E8C00F5FF00B908BD00BFF9E700000122024BC5
:101E9C005A6102221A617047000C01400222024B67
:101EAC005A6101221A617047000C014012480F223E
:101EBC00016921F00F0192FAA2F20123B2FA82F227
:101ECC0093400B4303610D4B5A6822F480725A60A5
:101EDC001A6822F480721A60DA6822F48072DA606E
:101EEC009A6842F480729A60D022054B83F81723CB
:101EFC004FF400021A6070470000014000040140DA
:101F0C0000E100E04FF48072034B5A611A6842F40E
:101F1C0080721A60704700BF0004014010B50A4C73
:101F2C000023052220460949FFF7B1FE00230522B4
:101F3C0020460749FFF7ABFE4FF4004363614FF4B3
:101F4C008043636110BD00BF00100140800080041D
:101F5C00400040040549CB681A04DB4302F0004200
:101F6C0003F4004313430B61704700BF00100140A2
:101F7C000549CB681A04DB4302F0804203F480432A
:101F8C0013430B61704700BF0010014010B5054CA6
:101F9C000023052220460449FFF779FE4FF48053B5
:101FAC00636110BD00080140100010044FF4805212
:101FBC00024B1628CCBF1A615A61704700080140C9
:101FCC000C4BD3F8FC2022F08072C3F8FC20D3F821
:101FDC00FC2042F08072C3F8FC20A3F55D431A6824
:101FEC0022F001021A601A6842F001021A60002203
:101FFC005A60704700ED00E0064B074A1B68074922
:10200C00B3FBF2F3434310B54C684A68121B9A4277
:10201C00FBD310BD6802002040420F00001000E00E
:10202C002DE9F84381464CF250300E4617461D46BA
:10203C0008F0A2F888BBB9F1010F06D0B9F1020F74
:10204C000CBF4FF002094FF004094FF00008144A7E
:10205C00136943F0010313614FEA0814C4F1200221
:10206C00A4F1200305FA02F227FA04F4144325FA2A
:10207C0003F31C43A4B24CF2503026F8184008F07D
:10208C007BF828B908F101085FFA88F39945E3D881
:10209C00034A136923F001031361BDE8F88300BF01
:1020AC00002002407FB501230022CDE9040301A9E1
:1020BC0002A8CDE9022308F09BF800280CBF0420ED
:1020CC00052007B05DF804FB0A4608B5014600235D
:1020DC000220FFF7A5FF00280CBF0420052008BD37
:1020EC0008B5FFF7DFFF031F5842584108BD08B57C
:1020FC00FFF7EAFF031F5842584108BD2DE9F0478E
:10210C00264B274D01280FBF7D267C26AA461D464F
:10211C000F4614462349244A06BF89469A469146DF
:10212C0008F00EF831462846FFF7DAFF28B90024EC
:10213C0008F018F82046BDE8F087002F08BF4FF4D0
:10214C0078744FF000080334C4F38F0405F11006C3
:10215C00AAEB050A1FFA88F39C4209D84FF01131FB
:10216C002846FFF7C4FF041E18BF0124A400DFE7B4
:10217C003FB95AF806104B1C06D108F10108043679
:10218C00E8E757F82810F6E74E4505D23046FFF73A
:10219C00AEFF0028F1D1CAE70324C9E700F001081B
:1021AC0000F40108FFF70108FFF3010810B507F070
:1021BC00C7FF7C210848FFF793FF044638B17D2107
:1021CC000648FFF78DFF041E18BF0124A40007F07A
:1021DC00C9FF204610BD00BF00F0010800F4010843
:1021EC0030B5002340F2EF34064D9AB2914201D83B
:1021FC00042030BDA34203D05A5DC2540133F4E72E
:10220C000320F6E710F0010838B504460D4672B607
:10221C000A4601460020FFF771FF62B6042806D17A
:10222C0072B601202A462146FFF768FF62B638BD18
:10223C0038B5124B1C68D3F80054B4F1113F09D1D6
:10224C00B5F1113F17D0002201201146BDE83840EE
:10225C00FFF754BFB5F1113F03D1002211461046D0
:10226C00F4E7FFF7A3FF042804D12C4001340CBF82
:10227C000220012038BD0420FCE700BF00F001085B
:10228C00034B18739A68D207FCD5187B704700BFB4
:10229C000030014038B5441E8D18A94200D138BD1C
:1022AC0014F8010FFFF7ECFF01F8010BF5E70846F6
:1022BC0011461A46FFF7EEBF38B50446054D0144EA
:1022CC00A14200D138BD2878FFF7DAFF04F8010BE2
:1022DC00F6E700BF6402002008461146FFF7ECBF8A
:1022EC0010B5044601448C4200D110BD14F8010B0A
:1022FC00FFF7C6FFF7E708461146FFF7F1BF0000EE
:10230C00F0B50625012610278DB0294C2822002176
:10231C0002A809F097FAFFF71FFC4FF48050FFF763
:10232C0017F841F21001204603230622FFF7AFFCF9
:10233C002046276103230A2242F22001CDE90056F0
:10234C00FFF750FC204603230A2248F28001CDE916
:10235C000056FFF747FC032320461A4644F240017F
:10236C00CDE90056FFF73EFC00234FF48272CDE915
:10237C000533CDE909330293039204934FF40072B1
:10238C00072304F52054204602A90B9308970792C3
:10239C0008F03DFB236843F040032360A3689B07D0
:1023AC00FCD5FF22237B034B1A700DB0F0BD00BF90
:1023BC0000080140640200201C4B10B41A689406FB
:1023CC0011D5D96888060ED5194C1A485968238836
:1023DC0000880133C3F30A0380B298421FBF16482A
:1023EC00C9B2C1542380110744BF104B5B6812065D
:1023FC0016D50E48C3681B0612D5104B104A198807
:10240C00138889B29BB299420CD013880133C3F361
:10241C000803138013880B4A9BB2D35CDBB2436076
:10242C0010BC704710BCFEF7BBBF00BF004400409F
:10243C00542A0020522A002052220020582C00201E
:10244C00562C0020562A00200F49104A0B8812885F
:10245C000133C3F3080392B29A4212D00C4AD054FF
:10246C004FF040220B8002F20C4353E8003F43F044
:10247C00800302F20C4040E800310029F3D1012026
:10248C0070470020704700BF582C0020562C0020AD
:10249C00562A002038B504464518AC4200D138BD48
:1024AC0014F8010BFFF7D0FFF7E708461146FFF7CA
:1024BC00F1BF0000054B064A1B8810880133C3F39B
:1024CC00080380B2181A18BF01207047582C00203E
:1024DC00562C002008B5FFF7EDFFB0FA80F040094C
:1024EC0008BD0000054B064A1B8812889B1A98B23F
:1024FC001B0444BF00F5006080B27047542A0020D2
:10250C00522A0020FFF7EEBF0848094A01881388B9
:10251C0089B29BB29942F9D013880133C3F30A03F1
:10252C0013801388034A9BB2D05C7047542A002056
:10253C00522A002052220020FFF7E6BF002300B5EC
:10254C0089B0CDE90633CB1A18BF01231B03CDE9A3
:10255C0002320C2301900491034801A9059308F061
:10256C00B5FB09B05DF804FB0044004010B5064C07
:10257C00E36823F40053E360FFF7E0FFE36843F400
:10258C000053E36010BD00BF004400400022084629
:10259C001146FFF7EBBF000073B5374C0825E36815
:1025AC00012623F40053E360FFF7D6FA4FF4003012
:1025BC00FEF7C0FE00F1804003230A2240F20441E2
:1025CC00CDE90056A0F57840FFF70CFB032340F64D
:1025DC0008011A46CDE900562848FFF703FB0022F4
:1025EC004FF4E1301146FFF7A9FFB022236923F421
:1025FC0090432361636923F02A036361204B83F8C2
:10260C00262340225A602046FEF7CAFE4FF0402295
:10261C0002F20C4353E8003F23F0400302F20C415A
:10262C0041E80035002DF3D16FF040032360154BCA
:10263C0011481D80144B1D80FEF7A5FE6FF0200382
:10264C002360124B1D80124B1D80236923F4006301
:10265C002361636923F008036361236923F48043D6
:10266C002361636923F022036361E36843F400533D
:10267C00E36002B070BD00BF0044004000080140A0
:10268C0000E100E0562C0020582C0020522A00209B
:10269C00542A002008B5FFF77FFF6FF02003034892
:1026AC0003604368BDE80840FEF760BE004400408C
:1026BC00FFF7F0BF1C4B10B41A68940611D5D968FB
:1026CC0088060ED5194C1A4859682388008801339E
:1026DC00C3F3080380B298421FBF1648C9B2C15455
:1026EC002380110744BF104B5B68120616D50E48A9
:1026FC00C3681B0612D5104B104A1988138889B26F
:10270C009BB299420CD013880133C3F30803138096
:10271C0013880B4A9BB2D35CDBB2436010BC70478E
:10272C0010BCFEF73DBE00BF003801405C2E0020FF
:10273C005A2E00205A2C0020603000205E300020E1
:10274C005E2E00200E490F4A0B8812880133C3F30A
:10275C00080392B29A4211D00B4AD0540B4A0B8008
:10276C0002F60C0353E8003F43F0800302F60C0022
:10277C0040E800310029F3D1012070470020704758
:10278C00603000205E3000205E2E002000300140C2
:10279C0038B504464518AC4200D138BD14F8010BCD
:1027AC00FFF7D0FFF7E708461146FFF7F1BF00002F
:1027BC00054B064A1B8810880133C3F3080380B20B
:1027CC00181A18BF01207047603000205E300020BE
:1027DC0008B5FFF7EDFFB0FA80F0400908BD000026
:1027EC000848094A0188138889B29BB29942F9D0EA
:1027FC0013880133C3F3080313801388034A9BB275
:10280C00D05C70475C2E00205A2E00205A2C0020E1
:10281C00FFF7E6BF002300B589B0CDE90633CB1A2C
:10282C0018BF01231B03CDE902320C230190049144
:10283C00034801A9059308F049FA09B05DF804FBB7
:10284C000038014073B5354C0825E368012623F4A4
:10285C000053E360FFF780F94FF48040FEF778FDFA
:10286C0000F1804003230A22CDE900562C4900F5E3
:10287C004840FFF7B7F90323CDE900561A4629491A
:10288C002948FFF7AFF900224FF4E1301146FFF76A
:10289C00C1FFB022236923F490432361636923F0C1
:1028AC002A036361214B83F8252320225A6020469A
:1028BC00FEF776FD1E4A02F60C0353E8003F23F0A8
:1028CC00400302F60C0141E80035002DF3D16FF006
:1028DC0040032360174B11481D80174B1D80FEF7DA
:1028EC0052FD6FF020032360144B1D80144B1D8090
:1028FC00236923F400632361636923F00803636194
:10290C00236923F480432361636923F02203636109
:10291C00E36843F40053E36002B070BD003801403B
:10292C0002000204040004040008014000E100E07D
:10293C00003001405E300020603000205A2E002014
:10294C005C2E002008B5FFF77DFF6FF020030348D5
:10295C0003604368BDE80840FEF708BD003801403D
:10296C00FFF7F0BF024B1A68024B1A60704700BFAA
:10297C0074320020B8060020054A064B196813680B
:10298C0099421DBF0133012013600020704700BF26
:10299C00B806002074320020034A044B11681B78DF
:1029AC000B441360704700BF743200206C0200208F
:1029BC00014B1868704700BF743200200148FFF7C4
:1029CC00CCB900BF00040040014B586A80B270477C
:1029DC000004004008B5FFF7F1FFBDE80840FFF721
:1029EC00C1BF000038B51B4C94220021201D08F0FB
:1029FC0029FF012323800F23174D052229466380CD
:102A0C00A380A01D2C23FEF799F8144A144B2946D9
:102A1C00C4E90D23134B0522E36304F140002C237E
:102A2C00FEF78CF80223A4F86E304FF48033236742
:102A3C0000230D4904F18000C4E91E3384F874307E
:102A4C0008F060FF7F2384F89530052384F89630D6
:102A5C0038BD00BFFC040020ACCC0008020005000F
:102A6C0003000100FFFF0F00FCBA000870B5094E0F
:102A7C0005460C46415C304608F0FBFE034628B187
:102A8C00831B0133DBB2282B28BF0023F35C2B55AF
:102A9C0070BD00BFA0D3000870B50D4611460446AA
:102AAC00164608F02FFF2DB3013D082D08D8DFE89E
:102ABC0005F00511131517191B1D1F003523637124
:102ACC00627973799A4215D12046BDE87040052190
:102ADC00FFF7CCBF6123F2E76623F0E76B23EEE749
:102AEC007023ECE77523EAE77A23E8E73123E6E77E
:102AFC003223E4E770BD000073B5054605F11106FD
:102B0C00214C0146214A68463601FFF7C5FFB01C2F
:102B1C006946204408F0F6FE002304EB0512264417
:102B2C007372A2F81A31142202FB0540032202250B
:102B3C0040F201114FF4807680F850200122A0F869
:102B4C004A50C564A0F8522080F85520A0F8566071
:102B5C00A0F8581040F2032084F83430E584A662C3
:102B6C00A08584F82E2084F8302084F83330C4F803
:102B7C003A30C4F83E30C4F84230A4F84610A4F8F9
:102B8C00481002B070BD00BF40030020BCBA000862
:102B9C00F7B5054605F111060146AD4AAD4C684640
:102BAC003701FFF779FFB81C694620442744FDF72D
:102BBC00C1FE7B7AA84A052B88BF002304EB0610C4
:102BCC0088BF7B721188437A41FA03F313F0010337
:102BDC000DD1437259B111F0010308D141FA03F739
:102BEC00FF07D8B240F1D08104EB0613587204EB06
:102BFC00051191F81A012B01052802D9002081F842
:102C0C001A01E718508897F81A1140FA01F111F0DF
:102C1C0001010FD187F81A1160B110F0010109D12F
:102C2C0040FA01FC1CF0010FCFB200F0B281E118A8
:102C3C0081F81A71E11891F81B01032802D90020C0
:102C4C0081F81B0104EB0616717A012903D90429BA
:102C5C0001D000219180E618908896F81B1140FA5B
:102C6C0001F111F001010ED186F81B1158B110F0D1
:102C7C00010108D140FA01F7FF07CEB240F18E8175
:102C8C00234483F81B61142303FB054191F84A008C
:102C9C00042802D9022081F84A0003FB054393F86B
:102CAC004B10042902D9002183F84B10142303FB89
:102CBC000543918E93F84B0041FA00F0C00712D4F3
:102CCC00012083F84B0071B18807C1F340030AD48B
:102CDC0041FA03F6F707D8B240F16581142303FBE0
:102CEC00054383F84B00142303FB054393F84C1066
:102CFC00032902D9022183F84C10142000FB054053
:102D0C00D18E90F84C3041FA03F313F0010310D13B
:102D1C0080F84C3069B111F001030AD141FA03F685
:102D2C00F607D8B240F14481142303FB054383F822
:102D3C004C00142303FB054393F84E10012902D9D0
:102D4C00002183F84E10142000FB0540118F90F8E1
:102D5C004E3041FA03F313F0010310D180F84E30DA
:102D6C0069B111F001030AD141FA03F6F707D8B2A1
:102D7C0040F12381142303FB054383F84E001423F5
:102D8C0003FB054393F84F10022902D9002183F865
:102D9C004F10142000FB0540518F90F84F3041FA32
:102DAC0003F313F0010310D180F84F3069B111F027
:102DBC0001030AD141FA03F6F607D8B240F10281B9
:102DCC00142303FB054383F84F00142303FB054135
:102DDC0091F84D00022802D9002081F84D0003FB28
:102DEC00054393F85010052902D9032183F850109C
:102DFC00142303FB054191F85200012802D901204C
:102E0C0081F8520003FB054393F85510012902D9B0
:102E1C00012183F85510142303FB054393F8531039
:102E2C00022902D9002183F85310142000FB05401D
:102E3C00918F90F8533041FA03F313F0010318D13A
:102E4C0080F85330A9B111F0010312D106E000BF94
:102E5C00BCBA000840030020FC04002041FA03F631
:102E6C00F707D8B240F1B380142303FB054383F872
:102E7C005300142303FB054191F856000C2802D98A
:102E8C00002081F8560003FB054393F84C100129F0
:102E9C0006D193F84F10022904BF002183F84F107C
:102EAC001423012103FB054383F8571040F2011151
:102EBC00A3F8581094F82630042B02D9022384F876
:102ECC00263094F82730042B02D9002384F82730BD
:102EDC00B2F86E0094F8273040FA03F313F0010FA8
:102EEC00804B0ED1012184F8271050B18607C0F316
:102EFC00400106D440FA01F7FF07CEB26CD583F837
:102F0C00276094F82810022902D9002184F828108F
:102F1C0094F82910022902D9012184F82910B2F859
:102F2C00701094F8292041FA02F212F001020CD12F
:102F3C0084F8292049B111F0010206D141FA02F6B8
:102F4C00F607D0B24CD583F8290094F82A200C2A25
:102F5C0002D9002284F82A2093F832200C2A02D9B4
:102F6C00002283F8322093F82B20042A02D9002265
:102F7C0083F82B20002210465B4911F9014F14F104
:102F8C00780F31DA087031E00133102B7FF426AE64
:102F9C002DE6013110297FF443AE4BE601311029A7
:102FAC007FF468AE6FE60133102B7FF491AE9AE696
:102FBC000133102B7FF4B2AEBBE60133102B7FF440
:102FCC00D3AEDCE60133102B7FF4F4AEFDE6013317
:102FDC00102B7FF443AF4CE7013110298AD190E7D5
:102FEC000132102AAAD1B0E7782CCBDC0132D2B254
:102FFC000C2AC2D1002201203C4911F8014F0132A8
:10300C00022CD2B288BF0870042AF6D193F834206F
:10301C00012A02D9002283F83420354AB2F8721002
:10302C0093F8342041FA02F212F001020CD183F829
:10303C00342049B111F0010206D141FA02F4E4073F
:10304C00D0B211D583F8340093F82C20052A02D97C
:10305C00032283F82C2093F82D20032A08D80AD1B8
:10306C00002283F8342006E00132102AE5D1EBE788
:10307C00022283F82D2093F82E20022A02D9012255
:10308C0083F82E2093F83020022A02D9012283F8EB
:10309C00302093F833200C2A02D9002283F83320F5
:1030AC001421FF2201FB05314FF6FF7081F85120EE
:1030BC0081F8542083F82F2083F831204FF0FF3211
:1030CC0003EB0515C5F81C21A5F820011A629A849A
:1030DC00A1F85A20A1F85C2083F83500DA861A870B
:1030EC0003B0F0BD400300207903002085030020CD
:1030FC00FC04002030B5052804D8DFE800F01E04DD
:10310C0023191E23FEE7024620251F240F21104BF6
:10311C0098700338012894BF002001201A71197788
:10312C001A74A3F84850A3F84A409873987630BDA7
:10313C0009256F2400220721E9E7142532240022F7
:10314C000A21E4E73525132402221921DFE700BF09
:10315C00E40200202DE9F74300F11105824E2D0108
:10316C0005F10209B14407464846FDF7FFFB04216F
:10317C0080467E4C01900DEB0100FEF743F9C4F83C
:10318C000880C4F814804FF0010835446B7AE08352
:10319C00637006EB071393F81A0184F85180A4F8B6
:1031AC005280A4F85480FFF7A5FF142303FB076398
:1031BC0093F84A206E4B3D0113F92230237323768A
:1031CC006378052B09D8DFE803F0030656585A5CE0
:1031DC000023637301E084F80D80664B617B1B88D0
:1031EC00617603F00102980748BF42F00202A28503
:1031FC005A0748BFA28D84F8281044BF42F004023D
:10320C00A285180742BFA28D42F01002A285DA06F1
:10321C0042BFA28D42F02002A285980642BFA38D28
:10322C0043F00803A385002384F82A3021B94846CB
:10323C00FDF7BCFB84F82A00354495F81B2184F873
:10324C0029206AB1E18B02EB021303EB03230B443D
:10325C004FF01131E383A36801FB0233A360636178
:10326C00E38B94F828506362052D0CD8DFE805F049
:10327C000C51531547490223ABE70423A9E7052357
:10328C00A7E70323A5E7FEE7A378032B03D8DFE822
:10329C0003F003464403FEE71825DFF8DCC084F88E
:1032AC0020501CE90F008CE80F0040F2E243284646
:1032BC00A4F84C30FDF710F84FF07F51FDF760F893
:1032CC00FDF7AEF94FF47A73B4F848206D08B3FBF0
:1032DC00F2F3A4F840301423052D38BF052503FB69
:1032EC00076797F85030C0B2A4F84E0084F85050DD
:1032FC00052B30D8DFE803F01535292C2F320225A9
:10330C00CBE7A378022B08D0052B06D0012B06D0D7
:10331C00FEE71925C1E70625BFE70C25BDE71225F9
:10332C00BBE74FF41653636400231422A4F8563001
:10333C00237802FB036696F84C309A1E5342534195
:10334C0084F8583003B0BDE8F0834FF41643EAE735
:10335C004FF46143E7E74FF4E133E4E74FF46133B3
:10336C00E1E74FF49643DEE740030020E40200203F
:10337C00ACCC0008FC040020140300204FF4DE72D7
:10338C00FF21014808F05EBA400300204FF4DE71C3
:10339C000148FEF739BF00BF400300204FF4DE7137
:1033AC000148FEF71DBF00BF4003002008B5FFF722
:1033BC00F5FF034B1878BDE80840FFF7E9BB00BFE9
:1033CC00E402002038B5FFF7D9FFFEF731FF0428DF
:1033DC000CD0FFF7D3FFFEF72BFF042803D1FFF728
:1033EC00DDFF042806D0FFF7C9FF03E0FFF7D6FF87
:1033FC000428EED110222F492F4808F047FA2E4C02
:10340C0038B1102220462D4908F040FA08B1FFF7D8
:10341C00B5FFA38AB3F5215F28D008D30025E8B205
:10342C000135FFF769FB0A2DF9D10023E3774FF43F
:10343C0021530125A38242F6430322691D499A4276
:10344C001D484FF010021CBF0125236108F01EFA25
:10345C0070B1102217491848FDF7DEFB08221849F5
:10346C001848FDF7D9FBFFF791FF03E00025E2E7D1
:10347C00002DF8D1E37F1420092B84BF0023E377C0
:10348C000023E17F0C4A00FB014494F84C0001330B
:10349C000A2B82F84C0002F11402F6D10A4C21706E
:1034AC00FFF7A0FA2078FFF773FB2078BDE83840CF
:1034BC00FFF750BEC3BA000840030020D4BA00087E
:1034CC00E5BA0008F2040020E402002010B5C01A8E
:1034DC009DF80840123080F30500A042C8BF20B20E
:1034EC00C0B2123B08701844107010BD07B50846E6
:1034FC0011461A46122300931B23FFF7E7FF03B074
:10350C005DF804FB0229F7B5054600D9FEE70B4E22
:10351C000F0106EB0114A3786278F15DC46007F02B
:10352C0005FFE37928460193A37922790093E1788A
:10353C00637907F024FF03B0F0BD00BFCCE90008AD
:10354C0038B5836804466BB1024652F8143BDD690A
:10355C0000F11503A8472046217D2022BDE8384004
:10356C0007F068BF38BD00007FB58D7A04468160D6
:10357C0075B3012107F0B0FE0121204607F0C9FF09
:10358C000121204607F0DFFFA368204693F90810BD
:10359C00FFF7D6FFA36820461978FFF7B3FF002288
:1035AC002046114607F0B5FE002344F203022046E4
:1035BC0000934FF6FF7107F0FEFE20464FF6FF71A9
:1035CC0007F020FF204604B0BDE8704007F0ADBF07
:1035DC00032107F081FE2046012107F09AFF2046C7
:1035EC00012107F0B0FFA368204693F90810FFF7FC
:1035FC00A7FFA3682A465E680C4B204623618621F0
:10360C00102307F0C5FF46F6E823CDE902535B23F0
:10361C002046CDE9005304221023702107F0C7FF88
:10362C002A463146204607F0ECFFB8E7B8E9000817
:10363C0010B5044607F079FF2046BDE810404FF660
:10364C00FF7107F0DFBE000038B5044603688168DF
:10365C00DD6900F1140200F1150391F90810A84777
:10366C00A3689A7A42B11A78022A00D9FEE7044B71
:10367C0003EB0213E36038BD024B2361FBE700BF91
:10368C00CCE90008B8E9000810B50A4CA06858B19C
:10369C00E36823B9236913B92046FFF7D5FFA36864
:1036AC009B7A23B1E3689868A0F57A7010BD236902
:1036BC00D868F9E758210020836810B5044643B157
:1036CC00C3681BB903690BB9FFF7BEFF94F915006A
:1036DC0010BD1846FCE7000090F8D8305BB190F8AC
:1036EC00D930074A180102EB03139B681978135859
:1036FC0053F821007047837D0E3350F82300704738
:10370C004CCC00082DE9F3410446164688469DF83A
:10371C0024705B22402F4FF000011D4628BF40272C
:10372C0008F090F8904BDB8B23803278A37862F30F
:10373C000203A3707178DBB2C90001F0080103F039
:10374C00070341EA08111943A1707279E37862F317
:10375C000003E370B279637962F38613637196F9AF
:10376C000200FDF76FF8E37860F34703E370F2793A
:10377C00237962F300032371327A62F346032371D7
:10378C003279DBB202F0010203F07F0343EAC21389
:10379C00237132796379C2F3450223F03F0313435B
:1037AC006371A37967F34703A3712B78AA78E3714C
:1037BC006B7802F01F0203F0070343EAC203237283
:1037CC006A88637AC2F3451223F03F031343637292
:1037DC002A79DBB202F0030203F03F0343EA8213BF
:1037EC006372AB88C3F38703A3726A79E37AC2F37B
:1037FC00800223F001031343E372AA79DBB202F0D7
:10380C007F0203F0010343EA4203E372EA88237B5D
:10381C00C2F3C31223F00F03134323732B7AAA7A38
:10382C00E3736B7A02F01F0203F0070343EAC2034F
:10383C0023746A89637CC2F3451223F03F0313435C
:10384C0063742A7BDBB202F0030203F03F0343EA0A
:10385C0082136374AB89C3F38703A3746A7BE37C21
:10386C00C2F3800223F001031343E374AA7BDBB29F
:10387C0002F07F0203F0010343EA4203E374EA8996
:10388C00237DC2F3C31223F00F03134323752B8A3A
:10389C00DB0863756B8ADB08A375AB8ADB08E37501
:1038AC00EB8ADB0823762B8BB3F5C06F4ED2B3F5C6
:1038BC00007F94BF00230123227B63F30512227344
:1038CC006B8BB3F5C06F43D2B3F5007F94BF00236D
:1038DC000123227B63F387122273AB8BB3F5C06F8A
:1038EC0038D2B3F5007F94BF00230123227D63F30C
:1038FC0005122275EB8BB3F5C06F2DD2B3F5007F9B
:10390C0094BF00230123227D63F38712089B227549
:10391C001F4404F11802BB4220D14FF6FF7321461D
:10392C000DF106000D22ADF80630FDF753FD2146D2
:10393C00BDF806304C2221F80D3FFDF74BFDBDF8CC
:10394C000630A4F8593002B0BDE8F0810223B3E789
:10395C000223BEE70223C9E70223D4E713F8011BB5
:10396C0002F8011FD7E700BFE402002013B59DF851
:10397C001040CDE9003413460A460021FFF7C2FE81
:10398C0002B010BD13B5144B0288DB8B04469A426F
:10399C001DD1837803F0F003102B01D0202B18D10C
:1039AC00A379A52B15D84FF6FF730DF106005922FC
:1039BC002146ADF80630FDF70DFDB4F85900BDF801
:1039CC000630C01A18BF0120800002B010BD0120C3
:1039DC00FBE70220F9E700BFE402002030B5374BCB
:1039EC00027893F8261000F1160461F303020270BA
:1039FC0093F8271061F30712027093F8281042789D
:103A0C0061F30302427093F8291061F307124270BC
:103A1C0093F82A10827861F30302827093F83210C3
:103A2C00827961F30302827193F82B10827861F32F
:103A3C000712827093F83410C27961F30302C271D9
:103A4C0093F82C10C27861F30302C27093F82D1016
:103A5C0061F30712C27093F82E10027961F303021E
:103A6C000271427993F8301061F30302427193F8BA
:103A7C003310827961F30712827103F1390100F17D
:103A8C000A0211F9015F02F8015FA242F9D193F821
:103A9C004610C27D61F30102C27593F8471061F3C1
:103AAC008302C27593F8481061F30512C27593F83E
:103ABC00493063F38712C27530BD00BF400300204C
:103ACC000278314BC2F3030230B583F8262002781A
:103ADC0003F13901C2F3031283F82720427800F175
:103AEC001604C2F3030283F828204278C2F30312AF
:103AFC0083F829208278C2F3030283F82A20827982
:103B0C00C2F3030283F832208278C2F3031283F8E3
:103B1C002B20C279C2F3030283F83420C278C2F39B
:103B2C00030283F82C20C278C2F3031283F82D20F1
:103B3C000279C2F3030283F82E204279C2F3030206
:103B4C0083F830208279C2F3031283F8332000F11A
:103B5C000A0212F9015FA24201F8015FF9D1C27D9C
:103B6C00C2F3010283F84620C27DC2F3810283F8BE
:103B7C004720C27DC2F3011283F84820C27DC2F3F4
:103B8C00811283F8492030BD400300201FB58DF809
:103B9C000C300123019303AB009313460A46022118
:103BAC00FFF7B0FD05B05DF804FB00000123F0B594
:103BBC00214D044685F8743085B0B0F80900FCF747
:103BCC00D1FFA867B4F80B00FCF7CCFF6E461422AB
:103BDC00E86704F10D0105F18000FDF72FF894F969
:103BEC00213004F1230085F8953094F8223004F14B
:103BFC00510785F89630FFF763FF04F14103324615
:103C0C0018685968083303C2BB421646F7D12C23F7
:103C1C00082269460948FCF713FF94F85130A5F8BF
:103C2C006E3094F85230A5F8703094F85330A5F8F3
:103C3C00723005B0F0BD00BFFC0400203C05002034
:103C4C002DE9F0474FF0400992B00DF108080546F8
:103C5C000E46174600214A46404607F0F3FD222344
:103C6C00DFF874A01D4C9AF800100DF10A0004EB5B
:103C7C000111062201F589718DF80830FCF7CCFF93
:103C8C009AF8001005A804EB011292F81A3192F878
:103C9C00194103F00F0304F00F0444EA031492F8E3
:103CAC001B3103F00F0344EA0324BDF8103023F456
:103CBC007F6323F00F031C43ADF81040FFF78EFE1B
:103CCC003B46324602212846CDE90089FFF71AFD12
:103CDC0012B0BDE8F08700BFE402002040030020D2
:103CEC00034B04491A68044801FB02001860704732
:103CFC00D40500200D6619005FF36E3C38B50A4AF6
:103D0C000A4D13782C78A34203D101332B702878F9
:103D1C0038BD1470FFF7E4FF6FF0004398423CBFCE
:103D2C0001342C70F3E700BFD1050020D205002030
:103D3C0000230A4A8380126883718260084A838157
:103D4C000384136803615368064A436113688361F3
:103D5C005368C3614EF660230360704774320020D1
:103D6C00EBBA0008F4BA000810B5124C0220FFF7A9
:103D7C00C1F92046FFF75CFC6FF07F012046FFF78E
:103D8C00DFFBA36803B9FEE70021204607F08DFA9C
:103D9C004FF47A70FEF730F92046012107F09CFAB7
:103DAC00A36820461978FFF7ADFB2046FFF740FCCF
:103DBC0010BD00BF5821002090F8203013B980F8B6
:103DCC002130704790F82130013B5BB2002B80F81A
:103DDC002130DCBF002380F820307047134B90F863
:103DEC0020201B68CAB182689B1AB3F57A6F01D97F
:103DFC00012343710379ABB10D4B427B1B781AB194
:103E0C00022B1CBF032202739A1E5342534143736D
:103E1C00837953B10323037370478360EAE701236B
:103E2C000371F8E74379002BF9D170477432002005
:103E3C00B10600200346007B821E012A4FF00002CF
:103E4C0002D893F8201009B91A73704710467047BE
:103E5C0070B505461A4C5B220021204607F0F2FC97
:103E6C002B69184E23606B6931786360164B174DC4
:103E7C001B7805EB01119A1E53425341627A01F5EE
:103E8C00897163F30002627204F10A000622FCF7E6
:103E9C00C3FE3378592105EB031595F81A21237CC1
:103EAC00204662F30713237495F81B21637C62F39D
:103EBC0003036374FDF7A6FAA4F8590070BD00BFA4
:103ECC0099210020E4020020B106002040030020CC
:103EDC000A4A38B51388044601339BB2502B0D4661
:103EEC0001D8138038BD002305491380FDF722FE4D
:103EFC0029462046FDF71EFEF4E700BFBC06002055
:103F0C0036BC00082DE9F74F1646054688466D4924
:103F1C00FDF710FE31462846FDF70CFE00226A4BD9
:103F2C00B8F1010F694C1A8011D14FF400434FF4D2
:103F3C008047636146F2A8102761FEF75DF8676160
:103F4C00FEF75AF831462846FFF7C2FFF2E7A8F110
:103F5C0002034FF480420C2B00F2A780DFE803F041
:103F6C003141531C07A5A5A56363636363004FF43C
:103F7C0080484FF4004746F2A810C4F810806761DF
:103F8C00FEF73AF8C4F814802761FEF735F831468D
:103F9C002846FFF79DFFEEE74FF480484FF40047AB
:103FAC0046F2A810C4F810802761FEF725F8C4F873
:103FBC0014806761FEF720F831462846FFF788FF2A
:103FCC00EEE74FF40047626146F2A8102761FEF756
:103FDC0013F86761FEF710F831462846FFF778FFB3
:103FEC00F2E74FF400434FF48047236146F2A810E8
:103FFC002761FEF701F86761FDF7FEFF31462846A1
:10400C00FFF766FFF2E74FF40047226146F2A81073
:10401C002761FDF7F1FF6761FDF7EEFF314628469A
:10402C00FFF756FFF2E700274FF4004B4FF480499F
:10403C00A8F1090A5FFA8AFA0423574538BFC4F875
:10404C0010B0019346F2A810C4F81090FDF7D4FFFD
:10405C00C4F81490FDF7D0FF31462846FFF738FF1F
:10406C00019B013B13F0FF03EBD10423C4F814B004
:10407C00019346F2A810C4F81090FDF7BDFFC4F8E8
:10408C001490FDF7B9FF31462846FFF721FF019B3D
:10409C00013B13F0FF03EBD10137A8F10803FFB28A
:1040AC00DBB2BB4238BF0027C6E74FF400432261A6
:1040BC0023614CF25030FDF79FFF31462846FFF745
:1040CC0007FFF6E736BC0008BC06002000100140D4
:1040DC006FF001024FF0804308491A610A88013AD7
:1040EC0092B20A800A8892B23AB9DA6822F00102D6
:1040FC00DA601A6822F001021A6070470E0600207E
:10410C004FF080436FF001021A61DA6822F001026D
:10411C00DA601A6822F001021A60704700B589B0A3
:10412C00FFF7EEFF40F2022101230A221648FDF7A9
:10413C00AEFD00224FF47A714FF08040FDF7B2FDD6
:10414C000023CDE9013303936023022200934FF443
:10415C0080730492CDE9052310216A464FF080400C
:10416C00079306F0B9FC4FF08042936923F4806307
:10417C009361E022054B83F81C234FF080521A60A8
:10418C0009B05DF804FB00BF0008014000E100E04D
:10419C00084BB3FBF1F14FF08043D96249089963A6
:1041AC001A6842F001021A601A6A42F010021A628E
:1041BC00704700BF40420F000E484FF08043B0FBE9
:1041CC00F1F051434FF47A72B1FBF2F10A4AD86222
:1041DC0089B24008986311801A6842F001021A6093
:1041EC001A6A42F010021A62DA6842F00102DA60CE
:1041FC00704700BF40420F000E06002019B94FF463
:10420C00FA71FFF7C5BF182905D84FF4FA724FF4AD
:10421C00FA71FFF7D1BF4A2901D8FA22F7E76329CF
:10422C0001D83222F3E7FFF76BBF4FF080431868D9
:10423C0000F00100704710B50446FFF7F6FF38B9DF
:10424C002046BDE8104028224FF4FA71FFF7B4BFA6
:10425C0010BD10B5044694F9013008468B4201D1CB
:10426C00237823B901232370FDF7A0FE607010BDE5
:10427C0008B5437802789A4213D0042B8ABF0423E2
:10428C0003700370027888BF4370064B064813F91D
:10429C002210064B19731976836813B11972FFF744
:1042AC004FF908BDACCC000858210020E4020020D6
:1042BC0010B50AB9437010BD541E0B2CFBD8033239
:1042CC00D2B231F8122040F27E618A4207D95AB23A
:1042DC0022EAE2729A42C8BF5AB24270EBE7B2F5D8
:1042EC00C17F02D29A1E52B2F2E740F2D4418A4206
:1042FC0004D95AB2032A06DCDA1EF4E7B2F54B7F76
:10430C0003D35A1EEFE70122E4E70022E2E70000A4
:10431C0037B50C461D4668B907480DF106020DF17C
:10432C00070107F0E6F82B4622469DF806100248D6
:10433C0006F095FF03B030BD5821002070B50D4636
:10434C0016461C460146B0B9FDF7A0FD0C48334695
:10435C002A4606F05DFF4FF6FF71094807F052F848
:10436C0022010748012192B207F074F8BDE87040B1
:10437C007D20FDF741BE0248FFF75AF970BD00BF22
:10438C005821002037B50C4638B91548836833B925
:10439C00812281F88E3081F88C2003B030BD9D7A5B
:1043AC0095B101F18E020DF1060107F07DF8BDF912
:1043BC000630002B0FDB4FF6FF73ADF80630BDF85F
:1043CC00063084F88C30E8E70DF1060107F04FF960
:1043DC0084F88E50EBE77F33F1DA4FF68173ECE71C
:1043EC005821002070B50D460646104C5B23224622
:1043FC0021462846FFF78CFFD6E906132068626831
:10440C009A4208BF88420ED120465921FCF7FAFF88
:10441C00B4F85940231A5C425C4128460449FFF722
:10442C00B1FF601C70BD0024F7E700BF9E1F002089
:10443C00B02000200A4608B501460148FFF762FD8E
:10444C002C000020164600B591B0044668461D4667
:10445C0007F058FA1849684607F0FCF9304606F0A0
:10446C0005FE0146684607F0F5F91449684607F061
:10447C00F1F9134B684653F8251007F0EBF9114985
:10448C00684607F0E7F9104D9DF84830684655F836
:10449C00231007F0DFF90D49684607F0DBF99DF8AA
:1044AC004C30684655F8231007F0D4F96A4621467B
:1044BC000748FFF727FD00BFFDBA000804BB000842
:1044CC000000002009BB00081C00002010BB0008E5
:1044DC002C00002000230370837043700371437120
:1044EC00C3707047002203784271022B04D0032B57
:1044FC0009D0012B16D0FEE7012303714371837899
:10450C004370C370704783784278991AA3EB020208
:10451C0018BF012112F0060F14BF012200220171F5
:10452C004271EDE70271704702788170002A0CBF6E
:10453C00022203220270FFF7D5BF00002822074B8E
:10454C0002FB00339B681A78542A05D15878A0F1E5
:10455C00780358425841704700207047C0CC00087F
:10456C002822074B02FB00339B681A78522A05D18C
:10457C005878A0F178035842584170470020704792
:10458C00C0CC00082822074B02FB00339B681A782A
:10459C00542A04D15878783818BF0120704701206C
:1045AC00704700BFC0CC0008282343430A4A10B50B
:1045BC00D1580446FFF7D4FF40B92046FFF7BEFFA1
:1045CC00064B1B7820B1142202FB0311084610BDC8
:1045DC0001EB0311FAE700BFC0CC0008E402002095
:1045EC002B2838B505461AD828220E4B4CB202FBA4
:1045FC0000331B79022B0DD0FE2B10D1FFF7D4FF0B
:10460C000378E4B2A3420AD004702846BDE83840CF
:10461C00FFF7B8BFFFF7C8FF90F90030F2E70020B2
:10462C0038BD00BFC0CC00082B2838B504460D4659
:10463C0019D828220D4B02FB00331B79FF2B12D10A
:10464C00FFF7B2FF06222946FCF70BFB58B92046B0
:10465C00FFF7AAFF29460622FCF7F0FA2046BDE830
:10466C003840FFF78FBF002038BD00BFC0CC00081A
:10467C002DE9F0430746282041431546394A012BC2
:10468C0002EB0100046A87B025D15258364B9A428E
:10469C0035D0A3F1CE018A4233D03449F23B9A4251
:1046AC0008BF0C46FF234FF0000801268DF80030A0
:1046BC002046FBF74FFD5FFA88F9484529D806F1EB
:1046CC0018036B44AE4203F8188C30D800203870B5
:1046DC0007B0BDE8F083022BE4D15258224B9A422A
:1046EC0011D0591C8A4210D0A3F1CE018A420ED0AF
:1046FC00A3F1F2018A420AD01D49EC3BCFE71D4CD5
:10470C00D0E71A4CCEE71C4CCCE71C4CCAE71C4C2F
:10471C00C8E714F809302C2B06D106F118036B44AA
:10472C00013603F8188CF6B208F10108C0E705F160
:10473C0018030DEB0305002315F8182C15F9175C5D
:10474C000132D2B29918C9B2A94207EB030003DBBC
:10475C00002303700120BBE7615C0133DBB2017005
:10476C00F0E700BFC0CC00085904002017BB0008BC
:10477C004BBB000868BB0008EDBB0008CBBB0008B6
:10478C00A1BB00082822054B02FB00335B6A0BB16E
:10479C00188870474FF6FF70704700BFC0CC0008F8
:1047AC0028220B4B70B502FB00331E6A3046FBF718
:1047BC00D1FC002201461446D5B2631CA942D8B2E2
:1047CC0000D870BD735D01322C2B08BF0446F3E793
:1047DC00C0CC000828220F4B014602FB00331B798A
:1047EC0010B5FE2B14D1FFF7CDFF04460846FFF79A
:1047FC00D7FF002201461046D3B2994200D810BD13
:10480C0044FA02F3DB0744BF431CD8B20132F3E78E
:10481C00FF20F4E7C0CC00082DE9F04F4FF0000A60
:10482C0004460F46D1461C4E93B04FF0000BD6F801
:10483C0008805FFA8AF50DE018F80300019206F083
:10484C00DDFFC3B2202B08BF5F23019A0BF1010BD4
:10485C0002F8403C5FFA8BF340460193FBF77AFC7D
:10486C00019B03F1480298426A44E5D8394602F8A4
:10487C00409C02A8FBF764FC48B10AF1010ABAF1AA
:10488C002C0F06F12806D0D10025284600E0012087
:10489C00257013B0BDE8F08FC0CC000828232DE99B
:1048AC00F0411D4E044603FB016633790D46FE2B89
:1048BC00174618D0FF2B21D0022B28D10846FFF722
:1048CC0073FE214690F9000006F073FB35692B78D6
:1048DC003BB11249204606F0BDFF2946204606F0A2
:1048EC00B9FF012015E00846FFF75EFE3B4629465E
:1048FC0002782046BDE8F041FFF7BABE0846FFF744
:10490C0053FE062201462046FCF798F9E9E7002001
:10491C002070BDE8F08100BFC0CC00082DBD0008A0
:10492C00F8B5164628220024174B074602FB06331F
:10493C001A790D46022A047003D0FE2A13D02046A1
:10494C00F8BD93F918209142F9DB93F91C30994288
:10495C00F5DC4FF00001304665F30701FFF740FE30
:10496C0001243870EBE70029E9DB3046FFF718FF2C
:10497C00A842E4DD3046FFF705FF40FA05F313F0DB
:10498C000100E6D10446DAE7C0CC00082DE9F84373
:10499C000023174628220370114B064602FB0733EF
:1049AC001B790C46FF2B03D000252846BDE8F88365
:1049BC000846FBF7CFFB0628F6D104F1FF3804F1CB
:1049CC00050918F8010FFBF79BFF05460028EBD0F3
:1049DC00C845F6D121463846FFF726FE3070E4E78D
:1049EC00C0CC00084FF0280CF8B500270E4E04463A
:1049FC000CFB026636790B46FE2E1546077003D06B
:104A0C00FF2E0BD0022E0DD1184606F063FE2A465F
:104A1C0001462046BDE8F840FFF782BFBDE8F840EC
:104A2C00FFF7B4BF3846F8BDC0CC000810B504463B
:104A3C000846B2B9FBF7BAFF042812D8DFE800F039
:104A4C0003090B0D0F000849204606F05BFF0120FF
:104A5C0010BD0649F8E70649F6E70649F4E70649AA
:104A6C00F2E70020F4E700BF1ABC00081FBC0008E6
:104A7C0024BC000829BC00082FBC000810B5044653
:104A8C000068FDF757F802492068FDF753F810BD90
:104A9C0035BC00080B1E18BF0123122A14D91D2A7D
:104AAC0014D9312A8CBF082205220371002301601E
:104ABC0080F885304371C0F8883080F88C3080F8ED
:104ACC008D20A0F88E3070470122EEE70322ECE730
:104ADC0090F88530642B08D8C2180133DBB25171C1
:104AEC0080F88530184400234371704708B50530B1
:104AFC00FBF726FBB0FA80F0400908BD2DE9F04326
:104B0C00064691B0084688461546FBF723FB06F18E
:104B1C00050904464846FBF71DFBE4B2631CC7B20B
:104B2C00BB4203DB002011B0BDE8F08322464146B6
:104B3C00484606F0ABFE0028F4D12246231D1E4445
:104B4C00BA4203461BD3002400F140036B4403F824
:104B5C00404C0028E6D09DF800303D2BE2D13023AC
:104B6C0068468DF80030FBF7F5FA2346DAB290422E
:104B7C0012D8684606F0AEFD28600120D3E716F87F
:104B8C00011F202905D0403301306B44C0B203F81B
:104B9C00401C0132D2B2D3E740326A4412F8402CA6
:104BAC000133303A092AE1D9BCE7000010B50D4BAE
:104BBC0004461B78022B0ED10B4B93F8742052B188
:104BCC00DB6FB3F5215F07D20849FFF757FF0849A0
:104BDC002046FFF753FF10BDFDD00649FFF74EFFEF
:104BEC000549F5E7B1060020FC04002038BC00089C
:104BFC006EBC0008A4BC0008DABC000810B5044662
:104C0C00FFF7D4FF20680749FCF7A2FF064B20688A
:104C1C0019783031C9B2FCF725FF20460349FFF75C
:104C2C002DFF10BD10BD0008E4020020FCBA0008E6
:104C3C002DE9F04743798046702B0F46164690B00D
:104C4C0071D18379202B6ED1C07906F0CFFD00286D
:104C5C005CD000254FF0020A2C4608F105094846A5
:104C6C00FBF778FA824522D305F140030DEB0305DF
:104C7C00002305F8403CC4B3E8461D4618F8010B68
:104C8C0006F0BCFD78550135EBB2A342F6D30025F6
:104C9C003D550134E4B26846FBF75CFA6719FFB284
:104CAC00874206EB050334D300221A702DE008EB83
:104CBC000A035B793D2B0ED0202B07D005F1400168
:104CCC006A1C0DEB010505F8403CD5B20AF1010355
:104CDC005FFA83FAC3E72C46F0E705F140036B4417
:104CEC0013F8400C06F08AFD78556846FBF732FA4B
:104CFC00E5B2A84207EB050304F10104EDD800224C
:104D0C0030460A491A7006F0FDFD012010B0BDE8CE
:104D1C00F08707F140020DEB020717F8402C013524
:104D2C00EDB21A70B7E70020F0E700BF1ABD00081B
:104D3C002DE9FF4728232C4E044603FB01663379EB
:104D4C000D46FE2B20D0FF2B4BD0022B2DD196F9EC
:104D5C00185026490068FCF7FBFE2846694606F009
:104D6C0028F969462046FFF789FE96F91C50204920
:104D7C002068FCF7EDFE6946284606F01AF96946EC
:104D8C002046FFF77BFE10E00846FFF7FBFC0027F0
:104D9C008046DFF86090DFF860A0FEB20123324657
:104DAC0029466846FFF764FC10B904B0BDE8F087EB
:104DBC00BBB248FA03F3DB0711D549462068FCF770
:104DCC00C7FE06F130012068C9B2FCF74BFE514614
:104DDC002068FCF7BDFE69462046FFF74FFE013701
:104DEC00DBE70649CDE700BFC0CC00081CBD0008BE
:104DFC0024BD00082CBD00082FBD000833BD0008E1
:104E0C00F0B504468BB008460D46FFF7E3FC254988
:104E1C0006462068FCF79CFE2823234F206803FBE2
:104E2C000577B968FCF794FE20492068FCF790FEE2
:104E3C002EB91F492046FFF721FE0BB0F0BD012211
:104E4C00294602A8FFF72AFD206802A9FCF780FE7C
:104E5C003B79FE2B03D0FF2B1AD01649EAE72846E4
:104E6C00FFF7A2FB057814492068FCF771FE05F1E9
:104E7C0030012068C9B2FCF7F5FD10492068FCF739
:104E8C0067FE012EE9D10E492068FCF761FEE4E7CC
:104E9C000C4B68465A7802A9FFF7C8FD0028DCD0F5
:104EAC006946F1E72CBD0008C0CC00082FBD0008F6
:104EBC0042BD0008FCBA000852BD000840BD000805
:104ECC0055BD0008E402002070B590F88E30044601
:104EDC006BB990F88F30012B01D9032B07D1214BE3
:104EEC001B78022B03D020461F49FFF7C7FD002576
:104EFC001C4E94F88E102B2903D9002384F88C3087
:104F0C0020E04B1C84F88E3094F88F30012B09D1A3
:104F1C000846FFF713FB0028EBD10846FFF720FBF0
:104F2C0038B1E6E7022B0ED10846FFF707FB002845
:104F3C00DFD02046FFF764FF013594F88D30EDB2D9
:104F4C00AB42D6D270BD032B08D10846FFF708FB45
:104F5C000028CED03378022BDFD1EAE7002BF9D032
:104F6C00E7E700BFB106002064BD000838B53D4B33
:104F7C0004461A6890F88C30012B71D1D0F8883027
:104F8C00D31AB3F5FA7F6BD3374DC0F88820284677
:104F9C00FBF729FC06F042F801462068FCF7D8FD27
:104FAC0032492068FCF7D4FD05F11400FBF7C4FF6F
:104FBC0006F034F801462068FCF7CAFD2C4920683D
:104FCC00FCF7C6FD95F8940006F028F80146206819
:104FDC00FCF7BEFD27492068FCF7BAFD95F98C005B
:104FEC0006F026F801462068FCF7B2FD224920683D
:104FFC00FCF7AEFD95F9920006F01AF80146206810
:10500C00FCF7A6FD1B492068FCF7A2FD95F98E0064
:10501C0006F00EF801462068FCF79AFD1749206847
:10502C00FCF796FD05F15000FBF78CFF80B206F003
:10503C0009F801462068FCF78BFD0E492068FCF747
:10504C0087FD05F16400FBF77DFF80B205F0FAFFE8
:10505C0001462068FCF77CFD20460949FFF70EFD50
:10506C0038BD00BF74320020B020002081BD000884
:10507C0083BD000886BD000884BD000889BD0008FA
:10508C008CBD000830B5044695B0FFF78FFD1D4967
:10509C002068FCF75DFD1C498B785BB1023108A8D8
:1050AC0006F030FC19492068FCF752FD206808A96D
:1050BC00FCF74EFD20461649FFF7E0FC1549206829
:1050CC00FCF746FD144B1B78022B18D1134D95F8A9
:1050DC00743093B1206805F18001FCF739FD0B4960
:1050EC002068FCF735FDA96F6846FBF749FD69465A
:1050FC002046FFF7C3FC15B030BD0949F8E7094954
:10510C00F6E700BF8EBD00081C09002086BD000814
:10511C00FCBA0008AEBD0008B1060020FC0400205B
:10512C00B5BD00086ABD00082DE9F0430446002710
:10513C002E4EDFF8BC80DFF8BC9091B094F88D2037
:10514C00FBB29A4208D994F88E50F37D0137AB42EA
:10515C0005D8002384F88C3011B0BDE8F0832846C4
:10516C0005F05CFF01462068FCF7F2FC4146206824
:10517C00FCF7EEFC7319187E05F050FF0146206811
:10518C00FCF7E6FC0E351C492068FCF7E1FC56F8F0
:10519C00250005F061FF01462068FCF7D9FC174992
:1051AC002068FCF7D5FC164908A806F0ABFB56F8AE
:1051BC002500FBF78DF84946FBF7E2F806F066FA96
:1051CC00FBF72EFA694605F0BEFE6846FBF720FC9D
:1051DC0069462068FCF7BCFC204608A9FFF74EFC8A
:1051EC0094F88E30013384F88E30A7E7C006002087
:1051FC00CABD000800005039D1BD0008DBBD000855
:10520C00E1BD00082DE9F04104460025244E254F50
:10521C00DFF8948094F88D20EBB29A423ED994F842
:10522C008E30102B37D8DFE803F00913181A1C1E28
:10523C0020222426282A2C2E303234002046FFF738
:10524C00B5FC94F88E300135013384F88E30E1E7EB
:10525C0016492046FFF712FCF3E71549F9E7154903
:10526C00F7E71549F5E71549F3E71549F1E715494E
:10527C00EFE71549EDE71549EBE71549E9E715495E
:10528C00E7E71549E5E71549E3E74146E1E7394624
:10529C00DFE73146DDE7002384F88C30BDE8F08190
:1052AC0051C000081AC00008EDBF0008E6BD000898
:1052BC0006BE000830BE000855BE00087DBE0008C2
:1052CC00A1BE0008C5BE0008EEBE000817BF00084E
:1052DC005BBF00087DBF00089FBF0008BEBF000871
:1052EC002DE9F0430379044693B0C3B190F88C30A8
:1052FC00013B032B19D8DFE803F00252575C00681E
:10530C0003685B69984768B1206803689B69984794
:10531C0000232046AA4984F88C30FFF7AFFB13B06A
:10532C00BDE8F0832046FFF721FEA64B1E6894F8DB
:10533C0085308BB1D4F88830F31AB3F5FA6F0BD9EA
:10534C002046A149FFF79AFB2046A049FFF796FBA0
:10535C00002384F8853063719B4FDFF87482DFF88B
:10536C007492206803685B6998470028D7D020683E
:10537C0003689B6998470A280546C4F888601DD0C5
:10538C000D281BD02C2819D03B2817D0014620689B
:10539C00FCF768FB29462046FFF79AFBE1E713B0C0
:1053AC00BDE8F043FFF72EBF13B0BDE8F043FFF7A5
:1053BC008BBD13B0BDE8F043FFF7B6BE39462046AF
:1053CC00FFF75CFB41462046FFF790FB50B10223F0
:1053DC0084F88C30002384F88E30002384F88530D8
:1053EC006371BEE749462046FFF780FB0028EED1EB
:1053FC0020467949FFF77AFB0028E8D12046774907
:10540C00FFF774FB054618B12046FFF73BFEE4E7B7
:10541C0020467349FFF76AFB40B12046FFF7EEFBCD
:10542C000323A4F88E5084F88C30D6E720466D49BF
:10543C00FFF75CFB50B12046FFF7E0FB032384F839
:10544C008C304FF48073A4F88E30C6E72046664942
:10545C00FFF74CFB40B12046FFF7D0FB032384F849
:10546C008C304FF40073EEE720466049FFF73EFBAB
:10547C0040B12046FFF7C2FB032384F88C304FF475
:10548C004073E0E720460AAA02A9FFF7D1FB0028E7
:10549C0046D002A90DF10200FFF7BEF920B954491C
:1054AC002046FFF7EBFA98E7524B1B78022B06D0FD
:1054BC009DF80200FFF754F808B14F49F0E79DF84A
:1054CC0028303F2B0DD12046FFF798FB9DF802505A
:1054DC0020462946FFF794FC29462046FFF728FC76
:1054EC007BE70BB94549DBE79DF802500AA92A4630
:1054FC000DF10300FFF776FA08B94149D0E72046D1
:10550C00FFF77CFB29462046FFF77AFC9DF8033019
:10551C00002B3FF462AF05213A48FBF737FD5CE7FF
:10552C0020463949FFF7E2FA90B106213548FBF7DE
:10553C002DFD2046FFF762FB2E4B1B78022B05D06E
:10554C002D492046FFF79AFA3049A9E73049A7E7D9
:10555C0020463049FFF7CAFA28B101212948FBF748
:10556C0015FD2D499CE720462C49FFF7BFFA90B159
:10557C0007212448FBF70AFD2046FFF73FFB1D4B94
:10558C001B78022B05D01C492046FFF777FA2449DB
:10559C0086E7244984E72046234901AAFFF7AEFA9F
:1055AC0000285AD0019D092D01D9204978E72046C1
:1055BC00FFF724FB1E4B1B789D423DD11D496FE725
:1055CC0093C0000874320020ADC00008AFC00008C2
:1055DC005DCB0008B9C000081ABD00085DCA000800
:1055EC00BEC00008C1C00008C6C00008CCC000087E
:1055FC00D2C00008B106002064BD0008EEC000084F
:10560C0006C100087821002019C1000820C100083B
:10561C0037C100084BC1000850C1000867C1000821
:10562C006EC1000887C100089DC10008A9C100080F
:10563C00E4020020CDC100082A460A211C48FBF7D1
:10564C00A7FC1C492068FCF783FA05F13001C9B2AC
:10565C002068FCF707FA184922E720461749FFF79C
:10566C0045FA054640B101231549204684F88C3093
:10567C00FFF704FA134913E720461349FFF736FAEC
:10568C0028B1042384F88E5084F88C30A5E620468B
:10569C000E49FFF72BFA08B103213DE794F885106A
:1056AC000B4A0C4B00290CBF11461946F8E600BFFB
:1056BC0078210020E2C10008FCBA00080BC20008E7
:1056CC00F8C1000811C200082EC2000838C2000838
:1056DC0079C0000885C000080148FFF701BE00BF73
:1056EC00180600200D4B10B51868810611D5DA6824
:1056FC0092060ED50A4C0B495A6823880988013347
:10570C00C3F3080389B299421FBF0749D2B2CA54E6
:10571C002380030744BF014B5B6810BD0048004069
:10572C006432002062320020623000200848094AAE
:10573C000188138889B29BB29942F9D0138801333E
:10574C00C3F3080313801388034A9BB2D05C7047E1
:10575C00643200206232002062300020FFF7E6BF86
:10576C00002300B589B0CDE90633CB1A18BF01234D
:10577C001B03CDE902320C2301900491034801A9CB
:10578C00059305F0A3FA09B05DF804FB004800404E
:10579C0010B5064CE36823F40053E360FFF7E0FF19
:1057AC00E36843F40053E36010BD00BF00480040C1
:1057BC00012808B503D1BDE80840FCF767B80348D9
:1057CC00FBF7E1FD6FF02003036008BD00480040CB
:1057DC0010B50C460020FFF7EBFF44B14FF400521C
:1057EC004FF480610348FFF7D3FFFCF74FF801201B
:1057FC0010BD00BFA086010010B50C460020FFF7BD
:10580C00D7FF44B14FF400524FF480610348FFF7C7
:10581C00BFFFFCF73BF8012010BD00BFA0860100C4
:10582C0013B5244C2449E36823F40053E360FCF7DC
:10583C0093F94FF48020FBF77DFD08230122CDE97D
:10584C00003203231D481A46FCF7CCF900221C48F1
:10585C001146FFF785FFF022236923F4904323615F
:10586C00636923F02A036361164B83F82723802294
:10587C005A602046FBF787FD6FF02003236000235E
:10588C00114A1380114A1380236923F400632361A6
:10589C00636923F008036361236923F48043236164
:1058AC00636923F022036361E36843F40053E3600C
:1058BC0002B010BD0048004008000804000C014074
:1058CC00A086010000E100E062320020643200207A
:1058DC0023289ABF014B185C0220704726CC000885
:1058EC00003818BF0120014B187070479805002034
:1058FC002DE9F041002A4AD1042B00F2A1809EB27E
:10590C00002B42D04FF0800EFF254C4C0F8894F8A2
:10591C001EC0C35D013223EA0C03C355A37F1FFADB
:10592C0082FC5B08A3773BB90B8801330B8084F8AE
:10593C001EE00B88C554A37FB1F8008010F80870E6
:10594C0027EA030300F80830A37F5B08A3773BB971
:10595C000B8801330B8084F81EE00B88C554A37FA1
:10596C00B1F8008010F8087027EA030300F808303B
:10597C00A37F5B08A37733B90B8801330B8084F8C2
:10598C001EE00B88C5546645C0D8BDE8F081FF2ADF
:10599C00FBD1032B00F249819EB2002BF5D00025E0
:1059AC008027264CB1F800C094F81EE010F80C309B
:1059BC00013523EA0E0300F80C30A37F5B08A377B4
:1059CC0033B90B8801330B80A7770B88C254A37FA4
:1059DC00B1F800801FFA85FC10F808E02EEA0303EA
:1059EC0000F80830A37F5B08A37733B90B88013329
:1059FC000B80A7770B88C254A37F5B08A37733B9BE
:105A0C000B8801330B80A7770B88C254A37FB1F8A6
:105A1C00008010F808E02EEA030300F80830A37F9A
:105A2C005B08A3772BB90B8801330B80A7770B8806
:105A3C00C2546645B6D8BDE8F08100BFCC08002042
:105A4C000D889A4C425DA67F03F5C06322EA0602DC
:105A5C004255A27F5208A2773AB90A88FF25013233
:105A6C000A808022A2770A8885540D88A67F425D21
:105A7C0022EA06024255A27F5208A2773AB90A8856
:105A8C00FF2501320A808022A2770A888554A27FE2
:105A9C005208A2773AB90A88FF2501320A8080227F
:105AAC00A2770A888554A27F5208A2773AB90A884D
:105ABC00FF2501320A808022A2770A8885540D883E
:105ACC00A67F425D22EA06024255A27F5208A277C7
