:020000040800F2
:100000000050002025F400080DF400080FF400084B
:1000100011F4000813F4000815F4000800000000B3
:1000200000000000000000000000000017F40008BD
:1000300019F40008000000001BF400081DF400087B
:100040006DF400086DF400086DF400086DF400080C
:100050006DF400086DF400086DF400086DF40008FC
:100060006DF400086DF400086DF400086DF40008EC
:100070006DF400086DF400086DF400086DF40008DC
:100080000D3C0008193C00086DF400086DF40008F0
:100090006DF400086DF400086DF400086DF40008BC
:1000A0006DF40008915400086DF400086DF4000828
:1000B0006DF400086DF400086DF40008F53B0008CD
:1000C000013C00086DF400086DF400086DF40008B0
:1000D0006DF40008F5370008BD6A0008C9970008EC
:1000E00035D800086DF400086DF400080000000029
:1000F0000000000000000000000000000000000000
:0C01000000000000000000005FF808F1A3
:10010C0010B5054C237833B9044B13B10448AFF345
:10011C0000800123237010BDD002002000000000DD
:10012C00503A010808B5034B1BB103490348AFF320
:10013C00008008BD00000000D4020020503A0108E5
:10014C0010F8012B11F8013B012A28BF9A42F7D075
:10015C00D01A7047034613F8012B002AFBD1181A4A
:10016C000138704780F0004002E000BF81F0004190
:10017C0042001FBF5FEA410392EA030F7FEA226C41
:10018C007FEA236C6AD04FEA1262D2EB1363C1BFD1
:10019C00D218414048404140B8BF5B42192B88BF40
:1001AC00704710F0004F40F4000020F07F4018BF63
:1001BC00404211F0004F41F4000121F07F4118BF83
:1001CC00494292EA030F3FD0A2F1010241FA03FC2B
:1001DC0010EB0C00C3F1200301FA03F100F0004313
:1001EC0002D5494260EB4000B0F5000F13D3B0F1DB
:1001FC00807F06D340084FEA310102F10102FE2A4A
:10020C0051D2B1F1004F40EBC25008BF20F00100B9
:10021C0040EA03007047490040EB0000013A28BF58
:10022C00B0F5000FEDD2B0FA80FCACF1080CB2EBDB
:10023C000C0200FA0CF0AABF00EBC2505242184359
:10024C00BCBFD0401843704792F0000F81F40001FE
:10025C0006BF80F400000132013BB5E74FEA4103D1
:10026C007FEA226C18BF7FEA236C21D092EA030F3D
:10027C0004D092F0000F08BF0846704790EA010FB7
:10028C001CBF0020704712F07F4F04D1400028BFE4
:10029C0040F00040704712F100723CBF00F50000C6
:1002AC00704700F0004343F0FE4040F400007047FC
:1002BC007FEA226216BF08467FEA236301464202A8
:1002CC0006BF5FEA412390EA010F40F480007047BB
:1002DC004FF0000304E000BF10F0004348BF404261
:1002EC005FEA000C08BF704743F0964301464FF09D
:1002FC0000001CE050EA010208BF70474FF00003F9
:10030C000AE000BF50EA010208BF704711F0004339
:10031C0002D5404261EB41015FEA010C02BF844609
:10032C000146002043F0B64308BFA3F18053A3F568
:10033C000003BCFA8CF2083AA3EBC25310DB01FAAF
:10034C0002FC634400FA02FCC2F12002BCF1004F33
:10035C0020FA02F243EB020008BF20F001007047C4
:10036C0002F1200201FA02FCC2F1200250EA4C0018
:10037C0021FA02F243EB020008BF20EADC7070475E
:10038C004FF0FF0C1CEAD0521EBF1CEAD15392EA6C
:10039C000C0F93EA0C0F6FD01A4480EA010C400248
:1003AC0018BF5FEA41211ED04FF0006343EA5010A2
:1003BC0043EA5111A0FB01310CF00040B1F5000FE4
:1003CC003EBF490041EAD3715B0040EA010062F193
:1003DC007F02FD2A1DD8B3F1004F40EBC25008BF7D
:1003EC0020F00100704790F0000F0CF0004C08BF9B
:1003FC0049024CEA502040EA51207F3AC2BFD2F168
:10040C00FF0340EAC250704740F400004FF0000375
:10041C00013A5DDC12F1190FDCBF00F000407047AF
:10042C00C2F10002410021FA02F1C2F1200200FAED
:10043C0002FC5FEA310040F1000053EA4C0308BFB4
:10044C0020EADC70704792F0000F00F0004C02BF05
:10045C00400010F4000F013AF9D040EA0C0093F080
:10046C00000F01F0004C02BF490011F4000F013BDA
:10047C00F9D041EA0C018FE70CEAD15392EA0C0F48
:10048C0018BF93EA0C0F0AD030F0004C18BF31F0B3
:10049C00004CD8D180EA010000F00040704790F089
:1004AC00000F17BF90F0004F084691F0000F91F02D
:1004BC00004F14D092EA0C0F01D142020FD193EAF3
:1004CC000C0F03D14B0218BF084608D180EA01007B
:1004DC0000F0004040F0FE4040F40000704740F057
:1004EC00FE4040F4400070474FF0FF0C1CEAD05225
:1004FC001EBF1CEAD15392EA0C0F93EA0C0F69D081
:10050C00A2EB030280EA010C49024FEA402037D0EB
:10051C004FF0805343EA111143EA10130CF00040E2
:10052C008B4238BF5B0042F17D024FF4000C8B42D2
:10053C0024BF5B1A40EA0C00B3EB510F24BFA3EBB2
:10054C00510340EA5C00B3EB910F24BFA3EB910382
:10055C0040EA9C00B3EBD10F24BFA3EBD10340EADC
:10056C00DC001B0118BF5FEA1C1CE0D1FD2A3FF622
:10057C0050AF8B4240EBC25008BF20F001007047D7
:10058C000CF0004C4CEA50207F32C2BFD2F1FF037A
:10059C0040EAC250704740F400004FF00003013AAB
:1005AC0037E792F0000F00F0004C02BF400010F44F
:1005BC00000F013AF9D040EA0C0093F0000F01F063
:1005CC00004C02BF490011F4000F013BF9D041EA85
:1005DC000C0195E70CEAD15392EA0C0F08D14202B8
:1005EC007FF47DAF93EA0C0F7FF470AF084676E78B
:1005FC0093EA0C0F04D14B023FF44CAF08466EE764
:10060C0030F0004C18BF31F0004CCAD130F0004231
:10061C007FF45CAF31F000437FF43CAF5FE700BF89
:10062C004FF0FF3C06E000BF4FF0010C02E000BFB2
:10063C004FF0010C4DF804CD4FEA40024FEA410354
:10064C007FEA226C18BF7FEA236C11D001B052EA0A
:10065C00530C18BF90EA010F58BFB2EB030088BFD0
:10066C00C81738BF6FEAE17018BF40F0010070473F
:10067C007FEA226C02D15FEA402C05D17FEA236C21
:10068C00E4D15FEA412CE1D05DF8040B704700BF68
:10069C00844608466146FFE70FB5FFF7C9FF0028FF
:1006AC0048BF10F1000F0FBD4DF808EDFFF7F4FF38
:1006BC000CBF012000205DF808FB00BF4DF808EDD1
:1006CC00FFF7EAFF34BF012000205DF808FB00BFF4
:1006DC004DF808EDFFF7E0FF94BF012000205DF816
:1006EC0008FB00BF4DF808EDFFF7D2FF94BF0120C7
:1006FC0000205DF808FB00BF4DF808EDFFF7C8FFC0
:10070C0034BF012000205DF808FB00BF4FEA400217
:10071C004FEA41037FEA226C02D15FEA402C08D1F8
:10072C007FEA236C02D15FEA412C02D14FF000002A
:10073C0070474FF0010070474FEA4002B2F1FE4F94
:10074C000FD34FF09E03B3EB12620DD94FEA002387
:10075C0043F0004310F0004F23FA02F018BF404260
:10076C0070474FF00000704712F1610F01D1420247
:10077C0005D110F0004008BF6FF0004070474FF0FB
:10078C000000704742000ED2B2F1FE4F0BD34FF077
:10079C009E03B3EB126209D44FEA002343F00043EB
:1007AC0023FA02F070474FF00000704712F1610F0E
:1007BC0001D1420202D14FF0FF3070474FF00000E0
:1007CC00704700BF0022427082700122C270022268
:1007DC00B1FA81F10271032249090170427170472B
:1007EC0043788B421FD0012941700AD0022910D0C6
:1007FC00C1B90123C37002238170037103234371B8
:10080C007047037843B1012383700223C370002324
:10081C00F3E70378002BF6D0022383700023C37018
:10082C000123EAE7FEE770470B8882B0ADF8003091
:10083C004B880239ADF80230CB88ADF804300B8907
:10084C00ADF80630431C053013F8012F0DF1080CE0
:10085C000CEB420232F8082C834221F8022FF3D120
:10086C0002B0704710B50C461146FFF7B9FF214690
:10087C00BDE81040FFF7D8BF4FF07F32094B10B5E1
:10088C00C0E923234FF47F43A0F89430FF230446A0
:10089C0080F89630983000F012FD002384F8A430D4
:1008AC0010BD00BFFFFF7F0070B5154604461E4605
:1008BC00114600F078FC294604F1140000F073FC9A
:1008CC00294604F1280000F06EFC294604F13C0096
:1008DC0000F069FC294604F1500000F064FC294644
:1008EC0004F1640000F05FFC294604F1780000F08C
:1008FC005AFC4FF4FA7332464FF4FA6104F1980043
:10090C0000F0C3FC2046FFF7B7FF002384F8A530A6
:10091C004FF47F43A4F8A63070BD704700F04ABC7A
:10092C00143000F047BC08B5503000F04DFC2921C4
:10093C0000F11403B3FBF1F3024613F0FF0002D1F4
:10094C00101E18BF012008BD08B5643000F03CFC37
:10095C00292100F11403B3FBF1F3024613F0FF005D
:10096C0002D1101E18BF012008BD90F8903013B9A9
:10097C0090F98C00704790F98D00704790F890308A
:10098C0013B990F98E00704790F98F00704710B52D
:10099C0004460DF06FF838B104F13C0000F00EFC89
:1009AC00012838BF0120C0B210BD783000F00EBC59
:1009BC00783000F013BC10B5044600F0D5FB04F100
:1009CC00140000F0D1FB04F1280000F0CDFB04F181
:1009DC003C0000F0C9FB04F1500000F0D1FB04F125
:1009EC00640000F0CDFB04F17800BDE8104000F08D
:1009FC00CDBB7F2807D0002807DA10F1800F06D076
:100A0C004042C0B2704700207047012070477F20E1
:100A1C00704710B1404240B270477F2070477F282A
:100A2C000FD010F1310F0EDA10F1780F0DDBFE2321
:100A3C00783040B2584346232330B0FBF3F0C0B2B9
:100A4C007047FF207047FE20704700207047012838
:100A5C0005DD40F2FE73984203DC80B27047012042
:100A6C00704740F2FF70704740F2AE73A0F578709B
:100A7C00C0EBC02090FBF3F000F58060FFF7E7BF00
:100A8C00FFF7F2BF032812DD0C2812DD0F2812DD50
:100A9C00122812DD162812DD192812DD1C2812DD91
:100AAC001F2812DD2128CCBFFF2006207047002014
:100ABC0070470120704702207047082070470320C0
:100ACC0070470720704704207047052070470000CE
:100ADC0005289ABF014B185CFF207047A43A010807
:100AEC0005289ABF014B185CFF207047AA3A0108F1
:100AFC007F2803D0002803DAC0B27047002070476B
:100B0C00FF2070477F2811D010F1320F10DA884285
:100B1C0010DD6423401A5843C1F1FF2101F57F0118
:100B2C00CE31313090FBF1F0C0B27047FF207047EE
:100B3C006420704700207047014B4840185C704798
:100B4C00B03A010852B110B4054C0A4411F8013BFB
:100B5C0058408A42205CF9D110BC7047704700BFE6
:100B6C00B03A0108392808D822280ED9094B233865
:100B7C00C0B2C34003F0010070475F2807D0613852
:100B8C0019288CBF002001207047002070470120DD
:100B9C00704700BF01EC7F00F8B5024600245F27C8
:100BAC00451E461D15F8010FFF2804BF0134E4B2A1
:100BBC00FFF7D8FF00B92F70AE42F3D1062C04D149
:100BCC0019B10B6813608B88938000239371F8BD67
:100BDC002DE9F843012500264FF02808DFF82C906A
:100BEC00471E441D17F8011F084812F0CCFE03469F
:100BFC0010B1A0EB0903DBB2A3FB05329E19A7428F
:100C0C00A5FB0853EED13046BDE8F883B03B010894
:100C1C0010B54179A1F13000C3B2092B07D80523D7
:100C2C00B0FBF3F303EB8303C01AC0B210BD044C4A
:100C3C00204612F0A8FE0028F1D0001BC0B2EEE74F
:100C4C00B03B0108F0B52826084B094F821DB1FBBB
:100C5C00F3F4272C8CBF30253D5D03FB141102F8F7
:100C6C00015D8242B3FBF6F3F1D1F0BD00801A06B0
:100C7C00B03B010870B50446FFF76CFA002582B250
:100C8C00501EABB2834204EB030103DAE65C013580
:100C9C00302EF6D0D21A2046BDE87040013212F048
:100CAC0041BE00002DE9F04F0D4699B016460021CB
:100CBC001A461F46804612F04FFE00212A2201A838
:100CCC00009112F049FEDFF8CC90DFF8CCA0DFF8F1
:100CDC00CCB005EB4606AE4211D16846FFF73AFAA6
:100CEC0030B100F160030DEB0300002300F8613C10
:100CFC006946404612F090FE19B0BDE8F08F47F6F9
:100D0C00FF7335F9020B9842E7D0002812DC5946E4
:100D1C000CA812F081FE6846FFF71CFA04460CA8DA
:100D2C00FFF718FA0444A742D5D368460CA912F071
:100D3C001BFED0E7B0F57A7F0BDA0CA980B210F06D
:100D4C00F0FF0CA8FFF796FF51460CA812F00CFE12
:100D5C00E1E764233230B0FBF3F00CA980B210F061
:100D6C00E0FF0CA8FFF786FF0CA8FFF7F3F900F1E2
:100D7C005F036B4413F8302C00F160010DEB0100A4
:100D8C0000F8302C2E2203F8302C0023494600F8B2
:100D9C002F3CDAE7A03A01089B3A0108963A010881
:100DAC00F0B589B06D4600242F468E1CE1B28A4204
:100DBC0004D83946FFF776FF09B0F0BD36F8241099
:100DCC00013425F8021BF1E742F21073B0FBF3F289
:100DDC00642103FB1200B0FBF1F301FB130000EBE9
:100DEC00023000EB831080B2704742F21071020B9C
:100DFC0000F03F0301FB02336422C0F3851002FBB9
:100E0C000030704742F210732DE9F041B1FBF3F65C
:100E1C00642703FB161488B01E49054612F0FCFD2E
:100E2C006946F0B210F05AFF6846FFF723FFB4FB97
:100E3C00F7F6DFF864806946284612F095FD4146C6
:100E4C00284612F091FD07FB16446946F0B210F0EB
:100E5C0045FF6846FFF70EFF6946284612F084FDF1
:100E6C004146284612F080FD6946E0B210F036FF8C
:100E7C009DF8013069468DF800309DF80230284607
:100E8C008DF8013000238DF8023012F06DFD08B0A2
:100E9C00BDE8F0818D4F01082347010870B50E465F
:100EAC0000210546144612F057FD00239AB29442D5
:100EBC0000D870BDF25C002AFBD0EA540133F5E790
:100ECC0070B50E46144600210132054612F044FD61
:100EDC0000239AB2944200D870BDF25C002AFBD079
:100EEC00EA540133F5E730B50023044698B290423A
:100EFC0001D3012005E0E55CC85C1DB9B0FA80F0B7
:100F0C00400930BD0028FCD0854203F10103EDD02F
:100F1C000020F6E77D23438043F23903C3600023AE
:100F2C0009B201808180C380037270470268044952
:100F3C00044B01FB023323F000430360180C704791
:100F4C00FD430300C39E2600F0B5002597B0016059
:100F5C008580044656222946684612F0FDFC01267F
:100F6C00E27DAA4209D80023802104F1B800A375C0
:100F7C0017B0BDE8F04012F0EFBC2046FFF7D6FFEB
:100F8C00E77900217B1B90FBF3F2EC4602FB13008C
:100F9C000A46C0B2CBB29F4222D80023002211468F
:100FAC00277BD0B2874226D80029D9D1A2796119E2
:100FBC00033A012A05D925B191F9172012BB012B4F
:100FCC00CED90B76A26852F82310583305F10E02D5
:100FDC006B44013544F8221003F8586CEDB2BFE7AE
:100FEC001CF801EBBEF1000F03D18242D6D00132C6
:100FFC00D2B20131CEE72069805C0132984208BF41
:10100C000121CEE7501E8342DBDB01329342D8DC58
:10101C00A6E700002DE9F04F154697B0013D0160A1
:10102C00027104464371EDB256220021684699467E
:10103C0012F092FC022D98BF4FF0030A4FF00007FC
:10104C0094F807808ABF4FF0010AB8FBFAF8002524
:10105C003E46DFF800B1E27DB24209D80023802180
:10106C0004F1B800A37517B0BDE8F04F12F074BCD2
:10107C002046FFF75BFFA8EB060390FBF3F202FBA5
:10108C0013030020EC460246DBB2C1B2414506D246
:10109C001CF801EBBEF1000F1FD19A421BD10022AC
:1010AC00414528BF414694460AFB015094F80CE098
:1010BC00C0B2D3B29E4512D8BCF1000FCBD1A368FD
:1010CC0009F1FF3C53F82020BCF1030F18D8DFE8DE
:1010DC000CF00E122D300132D2B20130D5E723695B
:1010EC009B5C0132834208BF4FF0010CE1E7DFF853
:1010FC0068C0944401E002EB0B0C184A9445AAD941
:10110C0016B1FFB90129A6D9A219107653F82020DF
:10111C0006F10E0344F82320012201F158036B441D
:10112C0016440F4603F8582CF6B294E7DFF830C09B
:10113C00DFE7A2F53D02DFF82CC0A2F59D42443A50
:10114C006245DCE77A1E9142DEDB7A1C9142DBDCE5
:10115C0081E700BF776245FFC54E47FF3BB10100F9
:10116C00287643FF3CB101006421D0E90123D31A56
:10117C00C3604B43418A8260B3FBF1F30374704745
:10118C00D0E90123D31AC0E90223704743682BB17D
:10119C006421C2684A43B2FBF3F2D3B20374002356
:1011AC00C3604360704700234182C0E9023343604F
:1011BC00037470474368013343607047007C704789
:1011CC0043680B4443607047C068704711B1C368F3
:1011DC000133C3604368013343607047007C704740
:1011EC00002303808370037270470346007810B1AC
:1011FC0000221A707047587810B100225A7070474C
:10120C00987810B100229A707047187A08B10022B1
:10121C001A727047017070470170704741707047C7
:10122C00817070478170426070474068704700233E
:10123C004360038170470A2310B50446838002F093
:10124C0063FD2368E0809B6820469847208110BD91
:10125C00038970B504469BB1858845B1013DADB29B
:10126C0085806DB903681B68BDE87040184702F0B3
:10127C004BFDE388C01A238980B2834201D22581B9
:10128C0070BD236820465B68EEE72DE9F04104460B
:10129C0010461D4616468846FFF71AF8074606EB19
:1012AC000800FFF715F801463846FFF71DF9656091
:1012BC0020602846FFF710F8A060BDE8F08110B55B
:1012CC0004464068FFF708F8A06010BDC0F17F002D
:1012DC0080B27F2823D8C1F13F0189B23F291ED8A3
:1012EC004FF0010C00B54FEAD10E0D4B00EBCE10B8
:1012FC0080B2A3F81EC0034412F0010F01F00701E5
:10130C0093F820200CFA01FC15BF4CEA020C22EADF
:10131C000C0283F820C083F820205DF804FB704792
:10132C00F00200207F2820D83F291ED84FF0010C56
:10133C0000B54FEAD10E0D4B00EBCE1080B2A3F8E6
:10134C001EC0034412F0010F01F0070193F8202096
:10135C000CFA01FC15BF4CEA020C22EA0C0283F8D1
:10136C0020C083F820205DF804FB7047F0020020B9
:10137C007F2923D8C0F13F0080B23F281ED84FF000
:10138C00010C00B54FEAD00E0D4B01EBCE1189B21A
:10139C00A3F81EC00B4412F0010F00F0070093F8E5
:1013AC0020200CFA00FC15BF4CEA020C22EA0C02BD
:1013BC0083F820C083F820205DF804FB704700BF41
:1013CC00F0020020C1F17F0189B27F2920D83F288B
:1013DC001ED84FF0010C00B54FEAD00E0D4B01EBAF
:1013EC00CE1189B2A3F81EC00B4412F0010F00F00D
:1013FC00070093F820200CFA00FC15BF4CEA020CF5
:10140C0022EA0C0283F820C083F820205DF804FB4C
:10141C00704700BFF002002030B5124C83B0E38B54
:10142C001BB125881DB10023E38303B030BD0E4BE7
:10143C00032293E803000090ADF804102846694697
:10144C0002F0F0FB032228460DEB020102F0EAFB4E
:10145C004FF48062402004F1200102F0F9FB0028D7
:10146C00E1D0E2E7F0020020683A010808B502F08A
:10147C0001FC023818BF012008BD00BF104BD880FA
:10148C0003281AD8DFE800F0191102170D4A4FF0A3
:10149C00400C80209A60002158804FF480620A48EA
:1014AC00A3F804C0D98312F057BA084A4FF0800C45
:1014BC0040209A60EFE7064AF8E7064AE7E700BFE4
:1014CC00F0020020D912000810030020D1130008EC
:1014DC007D130008311300084FF0010C044B4FF43E
:1014EC008062002103F12000A3F81EC012F034BA70
:1014FC00F0020020024B80B29B6889B2184700BFF3
:10150C00F00200202DE9F04F85B013F1070ABDF968
:10151C00384048BF03F10E0A1E46002C4FEAEA037E
:10152C000746BDF83C900192029333DD002E31DD6D
:10153C000C4423B2039300231D46DFF860B00093E4
:10154C0000231FFA81FADDE9001202EB010813F007
:10155C00070F9CB208BFDB104FEA45050CBF18F80B
:10156C000350EDB2E01915F0800F80B204D04A465A
:10157C005146DBF808309847013423B29E42E6D13D
:10158C00009B029A0AF1010113440093039B09B2D8
:10159C009942D5D105B0BDE8F08F00BFF002002014
:1015AC00002A2DE9F8431F4612DB0FD084B22244E7
:1015BC00DFF850808DB296B2204601343A46294667
:1015CC00D8F80830A4B29847A642F5D1BDE8F88304
:1015DC004FF0000CDFF82C80564284B21FFA81F9D0
:1015EC001FFA8CF5601B3A464946D8F8083080B291
:1015FC00984705F1010C0FFA8CFCB445F0DBBDE803
:10160C00F88300BFF0020020002A2DE9F8431F46A2
:10161C0012DB0FD08CB22244DFF8508085B296B228
:10162C00214601343A462846D8F80830A4B29847E7
:10163C00A642F5D1BDE8F8834FF0000CDFF82C8002
:10164C0056428CB21FFA80F91FFA8CF5611B3A4690
:10165C004846D8F8083089B2984705F1010C0FFAC2
:10166C008CFCB445F0DBBDE8F88300BFF002002031
:10167C002DE9F04F1F1E83B0B4BF07F1010807F12D
:10168C00FF38002ABDF830A000901FFA88F848DB1C
:10169C0096B206F1FF339BB2019300F09780BDF830
:1016AC0000904B4DCB464E448CB2B6B258460BF123
:1016BC00010B52462146AB681FFA8BFB98475E45DF
:1016CC00F4D1A0441FFA88F8484609F101095246A2
:1016DC004146AB681FFA89F998474E45F4D1002F63
:1016EC004EDB1BD026462744BDF80080384DBFB2D8
:1016FC003146013652464046AB68B6B29847B742BF
:10170C00F6D1019B98441FFA88F8214601345246C1
:10171C004046AB68A4B29847A742F6D103B0BDE8E7
:10172C00F08F4FF0000B531C9BB2294DBDF800906D
:10173C008CB2019356421FFA8BFBA9EB0B000BF1F9
:10174C00010B52462146AB6880B20FFA8BFB9847CF
:10175C005E45F0DCA0441FFA88FB4FF000081FFA2E
:10176C0088F8A9EB080008F1010852465946AB6805
:10177C0080B20FFA88F898474645F0DC002FB0DAB3
:10178C000023BDF80090124D7F429EB2A11BAB68A6
:10179C005246484689B29847731C1BB2BB42F4DBD5
:1017AC00019B994400231FFA89F91FFA83F8A4EBD3
:1017BC00080152464846AE6889B2B04708F10103A9
:1017CC001BB2BB42F1DB03B0BDE8F08F8CB286E7F5
:1017DC00F00200202DE9F04F002B83B00B448B4618
:1017EC009146BDF8306001933ADB99421CDA87B21E
:1017FC0007EB02081FFA88F8B9F1000F17DB6FD05E
:10180C003C46414D1FFA8BFB20460134324659466B
:10181C00AB68A4B29847A045F6D1019B0BF1010B24
:10182C000FFA8BFB9B45E7DB03B0BDE8F08F002480
:10183C00354DC9F1000A1FFA8BFBA4B2381B0134D9
:10184C0032465946AB6880B224B298475445F4DB13
:10185C00019B0BF1010B0FFA8BFB9B45CCDBE3E7F8
:10186C009942E1DD84B2A718B9F1000FBFB219DBC0
:10187C0040D0A046244D1FFA8BFB404608F10108CE
:10188C0032465946AB681FFA88F898474745F4D159
:10189C00019B0BF1FF3B0FFA8BFB5B45C4DAB9F1F3
:1018AC00000FE5DA4FF0000A174DC9F100081FFAD6
:1018BC008BFB1FFA8AFAA4EB0A000AF1010A3246E2
:1018CC005946AB6880B20FFA8AFA9847C245F0DBEA
:1018DC00019B0BF1FF3B0FFA8BFB5B45DFDBA3E7B7
:1018EC001FFA8BFB019B0BF1010B0FFA8BFB9B453A
:1018FC0082DB99E71FFA8BFB019B0BF1FF3B0FFA85
:10190C008BFB5B45CBDB8FE7F00200200122014B08
:10191C009A837047F00200200022014B9A83704793
:10192C00F0020020014B9861704700BFF0020020CC
:10193C000022014B9A617047F00200200122014BFA
:10194C009A827047F00200200022014B9A82704765
:10195C00F0020020014B9881704700BFF00200207C
:10196C00014BD881704700BFF0020020014B9881D9
:10197C00D9817047F00200200A282DE9F84F53D086
:10198C001F2841D9DFF804A12038BAF90CB0BAF8F5
:10199C0002300BF106029A42C0B237DA1FFA8BFB07
:1019AC000BF10608BAF80E600FFA88F3AAF80C309F
:1019BC00BAF81C30A6F106091FFA89F900EB4000B1
:1019CC000236002B3AD0324F1FFA88F807EB40074B
:1019DC00B6B2013FBAF9143017F8015F0BB1ED4301
:1019EC00EDB24C46214601342A465846DAF8083006
:1019FC00A4B29847B4424FEA5505F3D10BF1010B51
:101A0C001FFA8BFBC345E5D1BDE8F88F0623BAF866
:101A1C000E60BAF810204FF0000B16440836B6B220
:101A2C009846AAF80E60C1E70021184AD389108A9B
:101A3C00918103440833D381BDE8F88F1FFA88F7EE
:101A4C001FFA86F8124E06EB4006013EBAF9143026
:101A5C0016F8015F0BB1ED43EDB24C4615F0010FDA
:101A6C004FEA550505D0214601225846DAF80830D0
:101A7C0098470134A4B24445F0D10BF1010B1FFA85
:101A8C008BFBBB45E2D1BDE8F88F00BFF002002014
:101A9C00043C01082DE9F04FDFF87C810A28D8F8C6
:101AAC00183087B0997A00F081801A7A90427AD3F4
:101ABC005C7A844277D348CB841A06EBC40292F941
:101ACC000590B8F81200B8F90C5002931379977876
:101ADC00034405EB09003844B8F802C0BFB20497C0
:101AEC00D77892F9062060459BB203926CDCADB2BC
:101AFC005A1992B2A8F80C20B8F91420B8F90EB003
:101B0C00002A73D1B8F81C10012900F08180B2FAB8
:101B1C0082FA36F834604FEA5A1A002F43D0049AEE
:101B2C00002A40D0BDF80C304D441F441FFA8BFBEB
:101B3C005B44A9B2BB44002517461FFA83F91FFA70
:101B4C008BF303910593049BFC1A039BA4B203F142
:101B5C00FF3B23465A0708BF029B04F1010408BF50
:101B6C009D5DA4B206F1010C04EB0B0008BF1FFA3B
:101B7C008CF62B0680B204D552464946D8F808306C
:101B8C0098476D00BC42ADB2E3D1049A039B09F1B6
:101B9C0001019B1A9BB20393059B1FFA81F9174411
:101BAC004B45BFB2CFD107B0BDE8F08F0022B8F8DB
:101BBC000E30B8F81000A8F80C2003440B44A8F819
:101BCC000E3007B0BDE8F08F1A46B8F80E00B8F822
:101BDC0010C0A8F80C2060440144B8F914200FFA86
:101BEC0081FB0025A8F80EB0002A8BD002331AB264
:101BFC0001230093039B09F1FF30591E59442844DB
:101C0C0009B200B2BB1CFFF7E5FDB8F914207EE762
:101C1C00023300921AB2EDE7F0020020034B9B69ED
:101C2C000BB1FFF737BFFFF7A7BE00BFF0020020D4
:101C3C0038B50446007878B1084D04E0FFF72AFF68
:101C4C0014F8010F40B1AB69002BF7D1FFF794FEEC
:101C5C0014F8010F0028F6D138BD00BFF0020020A7
:101C6C00F8B5204E0446B569002D32D0037895F8AE
:101C7C0008C095F809E0002B32D001460022778A83
:101C8C009C450AD89E4508D36868A3EB0C0300EB6F
:101C9C00C30003793A441A4492B211F8013F002B65
:101CAC00EED173889B1A03EBD3735B10B38120784E
:101CBC0070B13DB1FFF7EEFE14F8010F40B1B569FC
:101CCC00002DF7D1FFF758FE14F8010F0028F6D1BC
:101CDC00F8BDFEF73FFA00EB4002520092B2E0E78B
:101CEC001A46DEE7F002002070B52E4C82B0208040
:101CFC00C8B100214FF4C0254FF480332A4A04F1B7
:101D0C002000C4F80220294AC4E90351A2604FF410
:101D1C008062E180A161A182E36111F01DFE0023CC
:101D2C00E38302B070BD05463C2001F075FF202214
:101D3C001F49284601F076FF4FF480334FF4C02240
:101D4C00E361194B2688C4F80230184BE26029462F
:101D5C004FF4806204F12000E580A5612561A58225
:101D6C00A36011F0F9FD002ED9D1124B032293E898
:101D7C0003000090ADF804103046694601F052FFA4
:101D8C00032230460DEB020101F04CFF4FF4806250
:101D9C00402004F1200101F05BFF0028BFD002B00D
:101DAC0070BD00BFF002002080004000311300081D
:101DBC00443E0108683A010810B50446022980EA3D
:101DCC00E070A0EBE47068D15AB9002CACBF7F2353
:101DDC003F239842A8BF1846002C01DA40F040007F
:101DEC0010BD012A1AD1632805DC4000002CF7DA5B
:101DFC0040F48070F4E740F2F54398420CDCFEF7B7
:101E0C0067FA5749FEF7BCFA10F062FCFEF7BAFC11
:101E1C00400040F00100E9E7FF20E7E7022A40F02C
:101E2C009C80632805DC8000002CD9DA40F400701B
:101E3C00D6E7B0F57A7F0CDAFEF74AFA4849FEF796
:101E4C009FFA10F045FCFEF79DFC800040F001006D
:101E5C00EAE742F20F7398420CD8FEF739FA41497F
:101E6C00FEF78EFA10F034FCFEF78CFC800040F08C
:101E7C000200D9E73C4B98420CD8FEF729FA3B49B3
:101E8C00FEF77EFA10F024FCFEF77CFC800040F09C
:101E9C000300C9E740F2FF10C6E703295DD1012A10
:101EAC001BD1B0F57A7F05DA4000002C98DA40F4AB
:101EBC00006095E7B0F5205F0CDAFEF709FA2849C7
:101ECC00FEF75EFA10F004FCFEF75CFC400040F0FC
:101EDC000100EAE740F2FF70E7E7022A3DD1B0F5D6
:101EEC007A7F06DA8000002CBFF67AAF40F480507F
:101EFC0076E742F20F7398420CDCFEF7E9F91849C9
:101F0C00FEF73EFA10F0E4FBFEF73CFC800040F0DC
:101F1C000100E8E7164B98420CD8FEF7D9F91149A5
:101F2C00FEF72EFA10F0D4FBFEF72CFC800040F0EC
:101F3C000200D8E7B0F57A2F0CD2FEF7C9F90B499D
:101F4C00FEF71EFA10F0C4FBFEF71CFC800040F0FC
:101F5C000300C8E740F6FF70C5E7002040E700BF6C
:101F6C00CDCCCC3D0AD7233C17F001006F12833A3D
:101F7C009F8601000023036070470000092928BFD9
:101F8C00092138B5064B04461B780D468B4202D10D
:101F9C000023036038BD01F0ABFE25712060F9E72A
:101FAC0010070020036810B504460BB9002010BDC3
:101FBC0001F09EFE2368C01A40F2EE239842F5D938
:101FCC000023054A2360127823799A42EED0034A03
:101FDC000120D377EBE700BF100700206C0700202F
:101FEC00FF23437100230171837103818372704756
:101FFC0038B5037904460D465BB14179A94208D046
:10200C0041B101290AD000236571A37155B1012D8D
:10201C000FD038BD03689B689847F4E7036800212C
:10202C00DB68F9E7012123689B6820469847A0717B
:10203C00EFE723682946DB68F7E72DE9F04F077CCB
:10204C00C37BBF000C4647EA931703F03F01437C68
:10205C00857C03F00102C67C47EA822705F00F025B
:10206C00D20142EA530206F07F031B0143EA151327
:10207C00057D90F815E06D0089B045EAD6150EF097
:10208C000306059345EA4623867D009306F01F055B
:10209C00AD0145EA9E03C57D90F819E0ED00019372
:1020AC0045EA5613057E0EF00706029345EA062311
:1020BC00857E039305F03F06760146EADE03C67E75
:1020CC0090F81CE0B60046EA95160EF0010546EABB
:1020DC008526457F90F8208005F00F0B4FEACB1B2F
:1020EC004BEA5E0B90F81EE090F80EC00EF07F0AE3
:1020FC004FEA0A1A4AEA151AC57F49016D0045EAEA
:10210C00DE1508F0030E45EA4E2590F821E041EA71
:10211C00DC010EF01F094FEA891949EA980990F879
:10212C002280407B0CF0070C40EA0C204FEAC808D8
:10213C0048EA5E18049306920791FEF795FC0799FE
:10214C0020800846FEF790FC60803846FEF78CFC39
:10215C00069AA0801046FEF787FC059BE080184687
:10216C00FEF782FC20810098FEF77EFC60810198CE
:10217C00FEF77AFCA0810298FEF776FCE0810398CA
:10218C00FEF772FC20820498FEF76EFC60823046EB
:10219C00FEF76AFCA0825846FEF766FCE0825046C9
:1021AC00FEF762FC20832846FEF75EFC60834846FF
:1021BC00FEF75AFCA0834046FEF756FC4FF48063B2
:1021CC00E0832384638409B0BDE8F08F2DE9F041EE
:1021DC0004460F4601F098FD4FF0010805462368B0
:1021EC0020461B689847064650B9A37A012B1FD18D
:1021FC002389ED1A40F6C4139D42C8BFA07217E0A4
:10220C00236820465B689847A37AA3B90F2814D19A
:10221C00A4F80A80E37AE2180133DBB2182B1073AE
:10222C00E3720AD939462046FFF707FF0023A37251
:10223C003046BDE8F081012BECD02581CFE78279C7
:10224C0022B14379012B01D8FFF7C0BF00207047A2
:10225C0070477047704700207047704700207047E8
:10226C000020704770470020704700207047000026
:10227C00054B82B0DA690243DA61DB6903400193F2
:10228C00019B02B0704700BF00100240054B82B0AA
:10229C009A6902439A619B6903400193019B02B0C6
:1022AC00704700BF0010024000F10C0353E8003FE0
:1022BC0043F0200300F10C0141E80032002AF3D175
:1022CC00704700F10C0353E8003F43F0800300F12A
:1022DC000C0141E80032002AF3D1704700F10C03E5
:1022EC0053E8003F23F0200300F10C0141E80032D9
:1022FC00002AF3D1704700F10C0353E8003F23F0A0
:10230C00400300F10C0141E80032002AF3D1704780
:10231C0000F10C0353E8003F23F0800300F10C01A3
:10232C0041E80032002AF3D1704770470288044B11
:10233C005140C9B233F8113083EA1223038070473D
:10234C00CC7D01089AB110B4B0F800C0084C0A4416
:10235C0011F8013B83EA0C03DBB234F813309142E1
:10236C0083EA1C2CA0F800C0F2D110BC7047704757
:10237C00CC7D01084FF6FF7337B50446ADF8063037
:10238C004518AC4203D1BDF8060003B030BD14F8BB
:10239C00011B0DF10600FFF7C9FFF2E7044B18888B
:1023AC00044B80B21B889BB2C01A18BF0120704727
:1023BC0008420020064200200023044A1380044AED
:1023CC001380044A1380044A13807047064200208D
:1023DC00084200200A4400200C44002001207047D1
:1023EC0070470023A0F87032A0F86E3270470023BB
:1023FC00A0F85C32A0F85A32704700003A4B5A6A87
:10240C00037A92B263B18389D31A9BB2B3F5FA7F84
:10241C0084BF00230372837A4F2B84BF0023037283
:10242C00037A8281082B0FD8DFE803F0050E0E0E1D
:10243C000E0E0F172200EE2901D0C82904D101235A
:10244C0083720623417503727047837A5A1C0344C6
:10245C008272597507234172F5E7827A531CDBB2FD
:10246C00024483725175427A9A42EDD20823EAE70C
:10247C00837A5A1C034482725975C37D162B04D17E
:10248C00012380F865300923DDE74369174A03F01F
:10249C00FF23934203D1012380F86730F3E7144AFA
:1024AC0093421CD1837E102B19D1C37E022B08D0F2
:1024BC00052B0DD0012BE6D1027EEE2A08BF80F849
:1024CC006A30037EEE2BDED1012380F86B30DAE725
:1024DC00012380F86830037F80F86930D3E701234B
:1024EC0080F86630CFE700BF0004004000C8002829
:1024FC0000C80032044B1888044B80B21B889BB276
:10250C00C01A18BF01207047104600200E4600204C
:10251C000278024B51405B5C0370704728590108EC
:10252C00FF230370704700BF7047B0F86E32B0F8ED
:10253C0070229B1A98B21B0444BF00F5006080B255
:10254C00003818BF01207047A0F11400EDE70346D6
:10255C00B0F87022B0F86E1291421FBF811891F83A
:10256C007402B3F8721201321ABF0A40A3F8702237
:10257C0000207047A0F11400E9E770B50B78054610
:10258C0003704B780C4643700B78FD2B38D10A2620
:10259C008B788370CB78C3700B7903714B79437153
:1025AC008B7983718B68C3718B68C3F30F230372B0
:1025BC008B7A4372627804F10C01A81911F034FA89
:1025CC006378B4F80C213344EA54B4F80C115A1C57
:1025DC0092B2090AA954A278981CD20780B20ED5DF
:1025EC0004F58872054404F58E7452F8041BA2425B
:1025FC0045F8041BF9D112780F332A7098B270BDCC
:10260C0000238B700B79062683704B79C3708B7902
:10261C0003718B684371CDE738B54A780D46352A7E
:10262C00044601F10C010AD811F0FEF9687800217A
:10263C00C0F136022044BDE8384011F08DB9403568
:10264C0051F8043BA94240F8043BF9D10B880380B4
:10265C0038BD38B54A780C461B2A054601F10C01E9
:10266C000AD811F0E1F960780021C0F11C0228446D
:10267C00BDE8384011F070B9283451F8043BA14240
:10268C0045F8043BF9D138BD38B54A780D46082ACF
:10269C00044601F10C010AD811F0C6F96878002142
:1026AC00C0F109022044BDE8384011F055B9EB687F
:1026BC0003604B6843600B7A037238BD38B54A78B7
:1026CC000C46072A054601F10C010AD811F0ACF9A9
:1026DC0060780021C0F108022844BDE8384011F0B0
:1026EC003BB9E36803604B68436038BD242208B5EE
:1026FC000021034811F030F90022024B1A7008BD7A
:10270C0034120020C40900202DE9F041137804464E
:10271C00037092F80180FD2B0F46154680F801805E
:10272C0054D10A2693788370D378C37013790371CC
:10273C0053794371937983716B7A127A1B0403EB8F
:10274C000223EA79134423F07F43A268A91963F3A7
:10275C001702A26004F10C00424611F065F97A7B75
:10276C00904507D208F10C000021A2EB080220448E
:10277C0011F0F2F863781E44AB195A78AB5D03EB99
:10278C000223A4F80C31A378DB070ED50236B6B2BF
:10279C00354404F5887305F10C0255F8041B954279
:1027AC0043F8041BF9D12A781A70BB7A84F82131CA
:1027BC00FB7A84F822313B7B84F823317B7B84F8D1
:1027CC0024313B7884F82031BDE8F081002343802C
:1027DC00937806260371D3784371137983715379F7
:1027EC00B3E738B54A780C46132A054601F10C01BB
:1027FC000AD811F019F960780021C0F114022844AC
:10280C00BDE8384011F0A8B8203451F8043BA1427F
:10281C0045F8043BF9D138BD2DE9F04F0C465188F1
:10282C000546B1F58C7F4FF0000085B010D31070C9
:10283C00D91CC9B2012995BF0121002351805380B5
:10284C009CBF237011700020287005B0BDE8F08F7C
:10285C0016780E2E00F2918001A757F826F000BFD3
:10286C003D280008A9280008D1280008F1280008F4
:10287C00872900088729000887290008872900086C
:10288C00872900088729000887290008872900085C
:10289C00872900088729000803290008481C508054
:1028AC00635421789BB2FD2906D10C330A21D380C5
:1028BC00022391801370C6E706210833D3809180E0
:1028CC000E23F7E7481C5080D8074FF000006354E4
:1028DC0042BFD1880D31D180012B8CBF034603231D
:1028EC001370B1E7481C508000208342635414BF1E
:1028FC0003460E23F4E7481C508063545388D18858
:10290C008B4232D3002353801370022369802B70C7
:10291C002378FD2B37D163792B72A3796B72637A91
:10292C00227A1B0403EB0223E27913446B60637875
:10293C0003F10C026A80A278D10701D519336B80A0
:10294C0000264FF4BC720C206968DFF8FC806E81A5
:10295C00B31801335B0800FB03F758F80770B94252
:10296C001AD25A1EB242F3D818E092889A423FF615
:10297C006AAF01232B70002067E7107050809080A5
:10298C00D0802870F7E7E3782B7223796B72637928
:10299C006B6063780833D2E71E46E3D80C27774385
:1029AC0058F80730994227D123782046FD2B0CBFCD
:1029BC004FF00A094FF0060910F801BF474409EB24
:1029CC000B03591E89B20193FFF7D4FC97F804A0AE
:1029DC00ADF80E0051460DF10E00FFF7A7FC019B60
:1029EC00E2185278E35C03EB0223BDF80E209BB295
:1029FC009A4209D0052000E00320287002380128F3
:102A0C008CBF0020012020E7BB79DA0706D5FA79C4
:102A1C00934582BF04EB09018A5CAA729B0709D516
:102A2C000C2303FB068362781B7A9A4282BF4C44C8
:102A3C00E35CEB720C2303FB06835B79022085F8C5
:102A4C000CA06B73DAE700BF285A01086FF0200363
:102A5C00024803604368FFF727BC00BF00440040F6
:102A6C0008B5FFF7F3FF0022014B1A7208BD00BF37
:102A7C00701C002008B5FFF7E9FF0022014B1A7209
:102A8C0008BD00BFF00A00206FF02003024803606D
:102A9C004368FFF709BC00BF0048004010B504466E
:102AAC00FEF71AFD06210020FEF760FF0C48FEF72A
:102ABC0039FF2046FDF74EFBC0B208284FF01B0033
:102ACC0008D8FEF74DFF2046FFF7CAF8BDE81040C6
:102ADC00FEF72EBFFEF744FF2046FFF7A9F8F5E7F7
:102AEC00105201084FF0320C0A4B0B491A680B4B71
:102AFC00A1FB0212920C0CFB02F202F5FA72A3FB80
:102B0C0002320749920948684B681B1A9A42FBD853
:102B1C00704700BF6C02002083DE1B43D34D621054
:102B2C00001000E008B5FFF7DDFF1022014B1A6121
:102B3C0008BD00BF000801401022024B5A61FFF78C
:102B4C00D1BF00BF00080140034630B587B001ACCF
:102B5C0000F11005224618685968083303C2AB42CD
:102B6C001446F7D10024094D8DF81440A96801A82A
:102B7C00FDF7E6FA10B920B207B030BD01342E2CA7
:102B8C0005F10C05F2D14FF0FF30F5E730000020D5
:102B9C0010B502780A4BD243D2B244789A5C90F8C2
:102BAC0002E062409A5C90F803C082EA0E029A5CE2
:102BBC00017982EA0C029A5C4A40985C10BD00BF15
:102BCC0028590108028810B58488531C2340448876
:102BDC009C421EBF12189171038010BD411A88B21D
:102BEC000B0444BF00F5007080B2704770B5104CF8
:102BFC000025234626782EB166788E4202D1A6781F
:102C0C0096420BD001350C2D04F10404F2D10024B2
:102C1C0013F824501DB101340C2CF9D170BD0125D1
:102C2C0003F8245003EB8403D87059709A70F5E7BD
:102C3C00C90900202DE9F8430B465A7A9E7ADF7AAF
:102C4C00204B0D791B5C0446DB07097A00D50DB9C6
:102C5C00FFF7CCFF00234FF0010E98461A49194894
:102C6C009C4201F8018B25D02DB90278920702D530
:102C7C0001F801EC1EE04FF0000C144A92F80090A1
:102C8C00B9F1000F0FD092F8039099450BD1002E9B
:102C9C00EED092F80190B14505D1002FE8D092F812
:102CAC000290B945E4D00CF1010CBCF10C0F02F10F
:102CBC000402E3D10133DBB2042B00F10100CFD1CC
:102CCC00BDE8F883F9090020C5090020C9090020D6
:102CDC0007B503688DF8071001221B690DF1070178
:102CEC00984703B05DF804FBF0B5FD230546044698
:102CFC0085B005F80C3B8DF8043090F8243103F1C5
:102D0C000C020244012B42D80026637066808DF8B9
:102D1C0005308B7A0DF1050023718DF808308B7A14
:102D2C00ADF8066001338B72637909218DF8093097
:102D3C00A3798DF80A30A368C3F317031A128DF820
:102D4C000B301B148DF80D308DF80C20FFF712FB97
:102D5C00677829463A46ADF802000DF10200FFF7FC
:102D6C00F1FA94F82311FFF7E1FA94F82421BDF855
:102D7C0002309742A4F80C3110D2314607F10C0006
:102D8C00D21B204405B0BDE8F04010F0E5BD12F8B0
:102D9C00010D0028B8D1013BDBB2B3E705B0F0BDA3
:102DAC00704770B5044608460D46FDF7D3F9236805
:102DBC00294682B21B692046BDE87040184708B509
:102DCC00FFF7EFFF08BD0120FFF760BA0D4B9842EB
:102DDC0002D10420FFF75ABA0B4B984205D003F5E9
:102DEC008063984203D11020F4E70820F2E7074BE8
:102DFC00984201D12020EDE7054B984200D0704756
:102E0C004020E7E700080140000C0140001401409D
:102E1C00001801400B4B984203D14FF40060FFF7B0
:102E2C0035BAB0F1804F04D0074B984204D1022040
:102E3C0000E00120FFF71CBA044B984201D104209A
:102E4C00F8E77047002C01400004004000080040E7
:102E5C00064B984203D14FF40070FFF717BA044B9E
:102E6C00984202D14FF48060F7E77047002401408C
:102E7C00002801402DE9F0410C46154686B0074666
:102E8C001022002102A81E469DF8348010F064FD2B
:102E9C0001940B2D07D8DFE805F00E0E070A141469
:102EAC00141616161B1DFEE70823029303E00823D5
:102EBC00029301230593032E0ED8DFE806F01E20A3
:102ECC000E1E0123F1E70123029304230493F2E77E
:102EDC000923EAE70923F7E7FEE701230393B8F197
:102EEC00000F02D03846FFF771FF053D042D0BD8BB
:102EFC00DFE805F007110A0711000323EEE70223B0
:102F0C00ECE7C4F30F247C61384601A90EF06EFB8C
:102F1C0006B0BDE8F081C4F30F243C61F4E713B5AF
:102F2C004FF0010C0024CDE9004CFFF7A3FF02B0D9
:102F3C0010BD000030B50023154687B00446ADF82F
:102F4C000630FFF767FF042D04D8DFE805F02A2EC2
:102F5C0004323B00FEE71C4B1C4A1B68B3FBF2F32C
:102F6C009BB20022013BCDE90221204601A9ADF81C
:102F7C000430049205920EF073FC236823F0800356
:102F8C002360A36823F4804323F00703A3606368E2
:102F9C0023F070036360A36823F08003A36007B081
:102FAC0030BD094B0A4A1B68D8E7074B094A1B6816
:102FBC00D4E7054B064A1B68B3FBF2F303EB830320
:102FCC005B00CDE70123CCE76C02002080A8120146
:102FDC0040420F0000127A0010B50446FFF7AAFF1A
:102FEC00236843F00103236010BD00224FF0FF3132
:102FFC00FFF7F2BF1A4B10B55B681A4C23600CF04C
:10300C0031FA19480EF0A2FA18480EF09FFA184837
:10301C000EF09CFA17480EF023FD17480EF020FD19
:10302C000EF068FB4FF0E0220023136153619361B3
:10303C0072B64FF0FF319A0002F16042013302F593
:10304C006142082BC2F88010C2F88011F3D162B62D
:10305C00034B1B6883F3088823689847FEE700BF7F
:10306C0000F0FF1FC009002000080140000C0140C7
:10307C0000100140003801400044004030B50024ED
:10308C00054689B01422214603A8CDE9014410F06D
:10309C0063FC01A928460EF021FA69460848009401
:1030AC000EF000FA4FF46023CDE9033402232846D6
:1030BC0003A9CDE9063405940EF025FA09B030BD0C
:1030CC0000240140F0B4044601F44075184604F1A4
:1030DC002C064FF4407393FAA3F3B3FA83F31F2730
:1030EC00DD4056F8253001F01F018F4023EA07031D
:1030FC0002F01F0707FA01F10B4346F825300C3498
:10310C004FF0007302F0007693FAA3F3B3FA83F353
:10311C00DE404FF0F87154F8263002F0F87291FA54
:10312C00A1F1B1FA81F1072522FA01F105FA01F1B9
:10313C0023EA01014FF0F87393FAA3F3B3FA83F384
:10314C00DA4095400D4344F8265004990023F0BC16
:10315C000122FFF7E4BE014608B5FFF734FEBDE8D7
:10316C0008400846FFF774BE0749084A881AEFF36F
:10317C000883521A1A44013A013B984288BF002234
:10318C00AA2110F0E9BB00BF005000200004000091
:10319C0010B5124C0323204606221149FFF7BFFE3F
:1031AC002046032302220F49FFF7B9FE03232046D2
:1031BC001A4604F580640C49FFF7B1FE2046032340
:1031CC00052240F20221FFF7AAFE2046BDE810407E
:1031DC000323052240F20111FFF7A1BE00080140B4
:1031EC00800080040800080410001004024B98684A
:1031FC00C0F30030704700BF0008014008B5FFF76E
:10320C00F5FF00B908BD00BFF9E700000122024B31
:10321C005A6102221A617047000C01400222024BD3
:10322C005A6101221A617047000C0140104A4FF498
:10323C007041136923F4704391FAA1F113610D4BA2
:10324C005A6822F400625A601A6822F400621A600A
:10325C00DA6822F40062DA609A6842F400629A60DA
:10326C00D022054B83F828234FF480725A607047A4
:10327C00000001400004014000E100E04FF4006256
:10328C00034B5A611A6842F400621A60704700BF1F
:10329C000004014010B50A4C0023052220460949C0
:1032AC00FFF73DFE0023052220460749FFF737FEB6
:1032BC004FF4004363614FF48043636110BD00BF62
:1032CC000010014080008004400040040549CB6898
:1032DC001A04DB4302F0004203F4004313430B6176
:1032EC00704700BF001001400549CB681A04DB434E
:1032FC0002F0804203F4804313430B61704700BF1C
:10330C0000100140104BD86C80B2A0F2CF63C62BDA
:10331C0011D9A0F6EB23C62B0FD9A0F61C13C62B84
:10332C000DD9A0F63D23C62B0BD9C7288CBF002086
:10333C0001200001704701207047022070470420D3
:10334C0070470820704700BF0024014010B5054CA1
:10335C000023052220460449FFF7E1FD4FF40053FA
:10336C00636110BD00100140200020044FF4005296
:10337C00024B1628CCBF1A615A61704700100140ED
:10338C000C4BD3F8FC2022F08072C3F8FC20D3F84D
:10339C00FC2042F08072C3F8FC20A3F55D431A6850
:1033AC0022F001021A601A6842F001021A6000222F
:1033BC005A60704700ED00E0064B074A1B6807494E
:1033CC00B3FBF2F3434310B54C684A68121B9A42A4
:1033DC00FBD310BD6C02002040420F00001000E037
:1033EC0010B504466420FFF7E7FFA36843F004031D
:1033FC00A360A3685B07FCD410BD826842F0010295
:10340C008260FFF7EDBF000013B50F4C2046FFF7AD
:10341C00A2FE2046FFF732FE40F201134FF000727D
:10342C004FF4007120460093084BFFF74BFE2046EB
:10343C00FFF7E3FF6420FFF7BFFFA36843F4A0038B
:10344C00A36002B010BD00BF002401400008014081
:10345C002DE9F84381464CF250300E4617461D4676
:10346C000CF038FA88BBB9F1010F06D0B9F1020F94
:10347C000CBF4FF002094FF004094FF00008144A3A
:10348C00136943F0010313614FEA0814C4F12002DD
:10349C00A4F1200305FA02F227FA04F4144325FAE6
:1034AC0003F31C43A4B24CF2503026F818400CF035
:1034BC0011FA28B908F101085FFA88F39945E3D8A5
:1034CC00034A136923F001031361BDE8F88300BFBD
:1034DC00002002407FB501230022CDE9040301A99D
:1034EC0002A8CDE902230CF031FA00280CBF04200D
:1034FC00052007B05DF804FB0A4608B50146002319
:10350C000220FFF7A5FF00280CBF0420052008BDF2
:10351C0008B5FFF7DFFF031F5842584108BD08B537
:10352C00FFF7EAFF031F5842584108BD2DE9F04749
:10353C00264B274D01280FBF7D267C26AA461D460B
:10354C000F4614462349244A06BF89469A4691469B
:10355C000CF0A4F931462846FFF7DAFF28B900240D
:10356C000CF0AEF92046BDE8F087002F08BF4FF4F1
:10357C0078744FF000080334C4F38F0405F110067F
:10358C00AAEB050A1FFA88F39C4209D84FF01131B7
:10359C002846FFF7C4FF041E18BF0124A400DFE770
:1035AC003FB95AF806104B1C06D108F10108043635
:1035BC00E8E757F82810F6E74E4505D23046FFF7F6
:1035CC00AEFF0028F1D1CAE70324C9E700F00108D7
:1035DC0000F40108FFF70108FFF3010810B50CF027
:1035EC005DF97C210848FFF793FF044638B17D2133
:1035FC000648FFF78DFF041E18BF0124A4000CF031
:10360C005FF9204610BD00BF00F0010800F401086E
:10361C0030B5002340F2EF34064D9AB2914201D8F6
:10362C00042030BDA34203D05A5DC2540133F4E7E9
:10363C000320F6E710F0010838B504460D4672B6C3
:10364C000A4601460020FFF771FF62B6042806D136
:10365C0072B601202A462146FFF768FF62B638BDD4
:10366C0038B5124B1C68D3F80054B4F1113F09D192
:10367C00B5F1113F17D0002201201146BDE83840AA
:10368C00FFF754BFB5F1113F03D10022114610468C
:10369C00F4E7FFF7A3FF042804D12C4001340CBF3E
:1036AC000220012038BD0420FCE700BF00F0010817
:1036BC00034B18739A68D207FCD5187B704700BF70
:1036CC000030014038B5441E8D18A94200D138BDD8
:1036DC0014F8010FFFF7ECFF01F8010BF5E70846B2
:1036EC0011461A46FFF7EEBF38B50446054D0144A6
:1036FC00A14200D138BD2878FFF7DAFF04F8010B9E
:10370C00F6E700BF6002002008461146FFF7ECBF49
:10371C0010B5044601448C4200D110BD14F8010BC5
:10372C00FFF7C6FFF7E708461146FFF7F1BF0000A9
:10373C00F0B50625012610278DB0294C2822002132
:10374C0002A810F009F9FFF73EFB4FF48050FEF78A
:10375C009DFD41F21001204603230622FFF7DFFBFB
:10376C002046276103230A2242F22001CDE90056AC
:10377C00FFF780FB204603230A2248F28001CDE9A3
:10378C000056FFF777FB032320461A4644F240010C
:10379C00CDE90056FFF76EFB00234FF48272CDE9A2
:1037AC000533CDE909330293039204934FF400726D
:1037BC00072304F52054204602A90B93089707927F
:1037CC000EF021F8236843F040032360A3689B07A5
:1037DC00FCD5FF22237B034B1A700DB0F0BD00BF4C
:1037EC0000080140600200201C4B10B41A689406BB
:1037FC0011D5D96888060ED5194C1A4859682388F2
:10380C0000880133C3F30A0380B298421FBF1648E5
:10381C00C9B2C1542380110744BF104B5B68120618
:10382C0016D50E48C3681B0612D5104B104A1988C2
:10383C00138889B29BB299420CD013880133C3F31D
:10384C000803138013880B4A9BB2D35CDBB2436032
:10385C0010BC704710BCFEF75BBD00BF00380140C8
:10386C000842002006420020063A00200C440020AA
:10387C000A4400200A4200200A490B4A08B50B886A
:10388C0012880133C3F3080392B29A4207D0074A55
:10389C00D05407480B80FEF714FD012008BD002012
:1038AC00FCE700BF0C4400200A4400200A42002020
:1038BC000038014038B504464518AC4200D138BD3B
:1038CC0014F8010BFFF7D8FFF7E708461146FFF78E
:1038DC00F1BF0000054B064A1B8810880133C3F367
:1038EC00080380B2181A18BF012070470C4400203E
:1038FC000A44002008B5FFF7EDFFB0FA80F040094C
:10390C0008BD0000054B064A1B8812889B1A98B20A
:10391C001B0444BF00F5006080B2704708420020D1
:10392C0006420020FFF7EEBF0848094A01881388B9
:10393C0089B29BB29942F9D013880133C3F30A03BD
:10394C0013801388034A9BB2D05C70470842002056
:10395C0006420020063A0020FFF7E6BF002300B520
:10396C0089B0CDE90633CB1A18BF01231B03CDE96F
:10397C0002320C2301900491034801A905930EF027
:10398C00A1F809B05DF804FB0038014010B5064CF5
:10399C00E36823F40053E360FFF7E0FFE36843F4CC
:1039AC000053E36010BD00BF003801400022084600
:1039BC001146FFF7EBBF0000F7B5082601272E4C88
:1039CC002E4DE3682E4923F40053E360FFF7FBF917
:1039DC004FF48040FEF75AFC284603230A22CDE917
:1039EC000067FFF747FA032328461A46CDE900671C
:1039FC002449FFF73FFA00224FF4E1301146FFF75C
:103A0C00ADFFB022236923F490432361636923F053
:103A1C002A0363611C4B83F8252320225A6020461D
:103A2C00FEF776FCFEF767FC6FF040032360002482
:103A3C00164B1C80164B1C80FEF750FC6FF02003BD
:103A4C000360144B1C80144B1C80036923F400632B
:103A5C000361436923F008034361036923F4804342
:103A6C000361436923F022034361C36843F40053A9
:103A7C00C36003B0F0BD00BF003801400008014036
:103A8C00020002040400040400E100E00A440020E7
:103A9C000C440020064200200842002008B5FFF725
:103AAC008BFF6FF02003034803604368BDE80840B8
:103ABC00FEF7FABB00380140FFF7F0BF7FB50024DA
:103ACC000125064644F24001FFF77DF902230B2243
:103ADC002648CDE90045FFF7CDF9022348F28001D5
:103AEC000B22CDE900452148FFF7C4F93168204B82
:103AFC0099420AD103F5DE33DA6942F40012DA6135
:103B0C00DB6903F400130293029B00238022102034
:103B1C00184D194CC5E90133C5E90323C5E9053333
:103B2C00C4E90103C4E90323C4E90533EB61E36190
:103B3C000F4B994218D103F5DE335A69284642F0EF
:103B4C0001025A615B6903F001030393039B0B4B66
:103B5C002B600BF029FD0A4B2046B5636E62236087
:103B6C000BF022FD7463666204B070BD000C014062
:103B7C0000540040581200209C120020800002408B
:103B8C006C00024008B51448144B4FF4804203609B
:103B9C000023C0E90332124AC0E90533C0E90733F8
:103BAC00C0E901230CF06EF8A0B9F0220D4B83F89C
:103BBC001F234FF00041196083F820230121596025
:103BCC0083F810234FF48031196083F811234FF4DC
:103BDC0000321A6008BD00BFE01200200054004003
:103BEC00801A060000E100E001480CF005BD00BFA2
:103BFC00E012002001480DF047B900BFE012002090
:103C0C0001480BF08BBD00BF9C12002001480BF04B
:103C1C0085BD00BF58120020014B1870704700BFC3
:103C2C00341300201FB5084B1C784FF0FF33CDE93F
:103C3C000123012302460091044804FA03F10CF01D
:103C4C00C9F804B010BD00BF34130020E0120020EE
:103C5C0013B5064B1C780123CDE90012024604FA79
:103C6C0003F103480CF046F902B010BD34130020E8
:103C7C00E0120020044B0A22197804484FF0FF335D
:103C8C0049000CF0FDB900BF34130020E0120020F5
:103C9C0008B5FFF777FF0022014B1A7008BD00BF73
:103CAC0034130020024B1A68024B1A60704700BF95
:103CBC002046002020100020054A064B1968136886
:103CCC0099421DBF0133012013600020704700BFD3
:103CDC002010002020460020034A044B11681B785A
:103CEC000B441360704700BF204600207002002078
:103CFC00014B1868704700BF204600200148FFF7B1
:103D0C0074B900BF00040040014B586A80B2704780
:103D1C000004004008B5FFF7F1FFBDE80840FFF7CD
:103D2C00C1BF000038B51B4C94220021201D0FF0A0
:103D3C0013FE012323800F23174D05222946638090
:103D4C00A380A01D2C23FDF72BF8144A144B2946F5
:103D5C00C4E90D23134B0522E36304F140002C232B
:103D6C00FDF71EF80223A4F86E304FF4803323675E
:103D7C0000230D4904F18000C4E91E3384F874302B
:103D8C000FF04AFE7F2384F89530052384F8963093
:103D9C0038BD00BF28090020F051010802000F00B7
:103DAC0003000500FFFF0F00A43E010870B5094E8B
:103DBC0005460C46415C30460FF0E5FD034628B144
:103DCC00831B0133DBB2282B28BF0023F35C2B555C
:103DDC0070BD00BFFC58010870B50D461146044675
:103DEC0016460FF019FE2DB3013D082D08D8DFE85B
:103DFC0005F00511131517191B1D1F0035236371D1
:103E0C00627973799A4215D12046BDE8704005213C
:103E1C00FFF7CCBF6123F2E76623F0E76B23EEE7F5
:103E2C007023ECE77523EAE77A23E8E73123E6E72A
:103E3C003223E4E770BD000073B5054605F11106A9
:103E4C00214C0146214A68463601FFF7C5FFB01CDC
:103E5C00694620440FF0E0FD002304EB05122644D4
:103E6C007372A2F81A311422032102FB05400226B8
:103E7C0001224FF4807580F8501040F20111A0F827
:103E8C004A60C264A0F8522080F85520A0F8565021
:103E9C00A0F8581040F2032084F83430E684A56270
:103EAC00A08584F82E2084F8302084F83330C4F8B0
:103EBC003A30C4F83E30C4F84230A4F84610A4F8A6
:103ECC00481002B070BD00BF6C070020643E0108B2
:103EDC00F7B5054605F111060146AD4AAD4C6846ED
:103EEC003701FFF779FFB81C694620442744FCF7DB
:103EFC0053FE7B7AA84A052B88BF002304EB0610DF
:103F0C0088BF7B721188437A41FA03F313F00103E3
:103F1C000DD1437259B111F0010308D141FA03F7E5
:103F2C00FF07D8B240F1D08104EB0613587204EBB2
:103F3C00051191F81A012B01052802D9002081F8EE
:103F4C001A01E718508897F81A1140FA01F111F08C
:103F5C0001010FD187F81A1160B110F0010109D1DC
:103F6C0040FA01FC1CF0010FCFB200F0B281E11855
:103F7C0081F81A71E11891F81B01032802D900206D
:103F8C0081F81B0104EB0616717A012903D9042967
:103F9C0001D000219180E618908896F81B1140FA08
:103FAC0001F111F001010ED186F81B1158B110F07E
:103FBC00010108D140FA01F7FF07CEB240F18E8122
:103FCC00234483F81B61142303FB054191F84A0039
:103FDC00042802D9022081F84A0003FB054393F818
:103FEC004B10042902D9002183F84B10142303FB36
:103FFC000543918E93F84B0041FA00F0C00712D4A0
:10400C00012083F84B0071B18807C1F340030AD437
:10401C0041FA03F6F707D8B240F16581142303FB8C
:10402C00054383F84B00142303FB054393F84C1012
:10403C00032902D9012183F84C10142000FB054000
:10404C00D18E90F84C3041FA03F313F0010310D1E8
:10405C0080F84C3069B111F001030AD141FA03F632
:10406C00F607D8B240F14481142303FB054383F8CF
:10407C004C00142303FB054393F84E10012902D97D
:10408C00002183F84E10142000FB0540118F90F88E
:10409C004E3041FA03F313F0010310D180F84E3087
:1040AC0069B111F001030AD141FA03F6F707D8B24E
:1040BC0040F12381142303FB054383F84E001423A2
:1040CC0003FB054393F84F10022902D9002183F812
:1040DC004F10142000FB0540518F90F84F3041FADF
:1040EC0003F313F0010310D180F84F3069B111F0D4
:1040FC0001030AD141FA03F6F607D8B240F1028166
:10410C00142303FB054383F84F00142303FB0541E1
:10411C0091F84D00022802D9002081F84D0003FBD4
:10412C00054393F85010052902D9032183F8501048
:10413C00142303FB054191F85200012802D90120F8
:10414C0081F8520003FB054393F85510012902D95D
:10415C00012183F85510142303FB054393F85310E6
:10416C00022902D9002183F85310142000FB0540CA
:10417C00918F90F8533041FA03F313F0010318D1E7
:10418C0080F85330A9B111F0010312D106E000BF41
:10419C00643E01086C0700202809002041FA03F650
:1041AC00F707D8B240F1B380142303FB054383F81F
:1041BC005300142303FB054191F856000C2802D937
:1041CC00002081F8560003FB054393F84C1001299D
:1041DC0006D193F84F10022904BF002183F84F1029
:1041EC001423012103FB054383F8571040F20111FE
:1041FC00A3F8581094F82630042B02D9022384F823
:10420C00263094F82730042B02D9002384F8273069
:10421C00B2F86E0094F8273040FA03F313F0010F54
:10422C00804B0ED1012184F8271050B18607C0F3C2
:10423C00400106D440FA01F7FF07CEB26CD583F8E3
:10424C00276094F82810022902D9002184F828103C
:10425C0094F82910022902D9012184F82910B2F806
:10426C00701094F8292041FA02F212F001020CD1DC
:10427C0084F8292049B111F0010206D141FA02F665
:10428C00F607D0B24CD583F8290094F82A200C2AD2
:10429C0002D9002284F82A2093F832200C2A02D961
:1042AC00002283F8322093F82B20042A02D9002212
:1042BC0083F82B20002210465B4911F9014F14F1B1
:1042CC00780F31DA087031E00133102B7FF426AE11
:1042DC002DE6013110297FF443AE4BE60131102954
:1042EC007FF468AE6FE60133102B7FF491AE9AE643
:1042FC000133102B7FF4B2AEBBE60133102B7FF4ED
:10430C00D3AEDCE60133102B7FF4F4AEFDE60133C3
:10431C00102B7FF443AF4CE7013110298AD190E781
:10432C000132102AAAD1B0E7782CCBDC0132D2B200
:10433C000C2AC2D1002201203C4911F8014F013254
:10434C00022CD2B288BF0870042AF6D193F834201C
:10435C00012A02D9002283F83420354AB2F87210AF
:10436C0093F8342041FA02F212F001020CD183F8D6
:10437C00342049B111F0010206D141FA02F4E407EC
:10438C00D0B211D583F8340093F82C20052A02D929
:10439C00032283F82C2093F82D20032A08D80AD165
:1043AC00002283F8342006E00132102AE5D1EBE735
:1043BC00022283F82D2093F82E20022A02D9012202
:1043CC0083F82E2093F83020022A02D9012283F898
:1043DC00302093F833200C2A02D9002283F83320A2
:1043EC001421FF2201FB05314FF6FF7081F851209B
:1043FC0081F8542083F82F2083F831204FF0FF32BE
:10440C0003EB0515C5F81C21A5F820011A629A8446
:10441C00A1F85A20A1F85C2083F83500DA861A87B7
:10442C0003B0F0BD6C070020A5070020B1070020E9
:10443C002809002030B5052804D8DFE800F01E0458
:10444C0023191E23FEE7024620251F240F21104BA3
:10445C0098700338012894BF002001201A71197735
:10446C001A74A3F84850A3F84A409873987630BD54
:10447C0009256F2400220721E9E7142532240022A4
:10448C000A21E4E73525132402221921DFE700BFB6
:10449C00100700202DE9F74300F11105944F2D0171
:1044AC0005F10209B94406464846FCF791FB042184
:1044BC008046904C01900DEB0100FDF75BFFC4F8BA
:1044CC000880C4F814804FF001083D446B7AE083F7
:1044DC00637007EB061393F81A0184F85180A4F863
:1044EC005280A4F85480FFF7A5FF142303FB067336
:1044FC0093F84A20804B350113F92230237323762D
:10450C006378052B09D8DFE803F0030656585A5C8C
:10451C000023637301E084F80D80784B617B1B886A
:10452C00617603F00102980748BF42F00202A285AF
:10453C005A0748BFA28D84F8281044BF42F00402E9
:10454C00A285180742BFA28D42F01002A285DA069E
:10455C0042BFA28D42F02002A285980642BFA38DD5
:10456C0043F00803A385002384F82A3021B9484678
:10457C00FCF74EFB84F82A003D4495F81B2184F887
:10458C0029206AB1E18B02EB021303EB03230B44EA
:10459C004FF01131E383A36801FB0233A360636125
:1045AC00E38B94F828506362052D0CD8DFE805F0F6
:1045BC000C51531547490223ABE70423A9E7052304
:1045CC00A7E70323A5E7FEE7A378032B03D8DFE8CF
:1045DC0003F003464403FEE71825DFF824C184F8F2
:1045EC0020501CE90F008CE80F0040F2E2432846F3
:1045FC00A4F84C30FBF770FE4FF07F51FBF7C0FE78
:10460C00FCF7C0F84FF47A73B4F848206D08B3FB8C
:10461C00F2F3A4F840301423052D38BF052503FB15
:10462C00067393F85030C0B2A4F84E0084F8505082
:10463C00052B3DD8DFE803F0154236393C3F022507
:10464C00CBE7A378022B08D0052B06D0012B06D084
:10465C00FEE71925C1E70625BFE70C25BDE71225A6
:10466C00BBE74FF416536364002384F8563084F888
:10467C005830142303FB067696F84C20032A03D0FB
:10468C0096F84F30022B02D1012384F85630511E7C
:10469C004B424B4194F8561084F8573089B1012A9B
:1046AC000FD1FEE74FF41643DDE74FF46143DAE731
:1046BC004FF4E133D7E74FF46133D4E74FF496432B
:1046CC00D1E71420237800FB037393F84C30022BB2
:1046DC0007D1012384F8583021B194F858301BB11C
:1046EC00FEE709B9012AF8D003B0BDE8F08300BF9A
:1046FC006C07002010070020F05101082809002049
:10470C00400700204FF4DE72FF2101480FF024B95E
:10471C006C0700204FF4DE710148FEF78DBF00BF1F
:10472C006C0700204FF4DE710148FEF771BF00BF2B
:10473C006C07002008B5FFF7F5FF034B1878BDE8B0
:10474C000840FFF7C5BB00BF1007002038B5FFF7C6
:10475C00D9FFFEF785FF04280CD0FFF7D3FFFEF737
:10476C007FFF042803D1FFF7DDFF042806D0FFF7F5
:10477C00C9FF03E0FFF7D6FF0428EED110222F4922
:10478C002F480FF00DF92E4C38B1102220462D4930
:10479C000FF006F908B1FFF7B5FFA38AB3F5215F57
:1047AC0028D008D30025E8B20135FFF745FB0A2DC8
:1047BC00F9D10023E3774FF421530125A38242F66C
:1047CC00430322691D499A421D484FF010021CBF39
:1047DC00012523610FF0E4F870B110221749184835
:1047EC00FCF75CFB082218491848FCF757FBFFF74D
:1047FC0091FF03E00025E2E7002DF8D1E37F1420C0
:10480C00092B84BF0023E3770023E17F0C4A00FBD4
:10481C00014494F84C0001330A2B82F84C0002F14D
:10482C001402F6D10A4C2170FFF77CFA2078FFF7BE
:10483C004FFB2078BDE83840FFF72CBE6B3E0108DB
:10484C006C0700207C3E01088D3E01081E090020EB
:10485C001007002010B5C01A9DF80840123080F3E4
:10486C000500A042C8BF20B2C0B2123B0870184469
:10487C00107010BD07B5084611461A461223009356
:10488C001B23FFF7E7FF03B05DF804FB0229F7B524
:10489C00054600D9FEE70B4E0F0106EB0114A37879
:1048AC006278F15DC4600DF03DFCE379284601931C
:1048BC00A37922790093E17863790DF05CFC03B065
:1048CC00F0BD00BFE07F010838B5836804466BB1CA
:1048DC00024652F8143BDD6900F11503A847204647
:1048EC00217D2022BDE838400DF0A0BC38BD000071
:1048FC007FB58D7A0446816075B301210DF0E8FB1C
:10490C00012120460DF001FD012120460DF017FD7F
:10491C00A368204693F90810FFF7D6FFA36820463A
:10492C001978FFF7B3FF0022204611460DF0EDFB7E
:10493C00002344F20302204600934FF6FF710DF062
:10494C0036FC20464FF6FF710DF058FC204604B0A3
:10495C00BDE870400DF0E5BC03210DF0B9FB20461D
:10496C0001210DF0D2FC204601210DF0E8FCA368DA
:10497C00204693F90810FFF7A7FFA3682A465E6844
:10498C000C4B20462361862110230DF0FDFC46F6CE
:10499C00E823CDE902535B232046CDE900530422E2
:1049AC00102370210DF0FFFC2A46314620460DF0F5
:1049BC0024FDB8E7CC7F010810B504460DF0B1FC1E
:1049CC002046BDE810404FF6FF710DF017BC0000FB
:1049DC0038B5044603688168DD6900F1140200F102
:1049EC00150391F90810A847A3689A7A42B11A786E
:1049FC00022A00D9FEE7044B03EB0213E36038BD37
:104A0C00024B2361FBE700BFE07F0108CC7F01086C
:104A1C0010B50A4CA06858B1E36823B9236913B9DF
:104A2C002046FFF7D5FFA3689B7A23B1E36898680B
:104A3C00A0F57A7010BD2369D868F9E70437002017
:104A4C00836810B5044683B1C3681BB903690BB9FD
:104A5C00FFF7BEFFA3689B7A1BB1E368B3F90C00A8
:104A6C0010BD2369B3F91000FAE71846F8E783681C
:104A7C0010B5044643B1C3681BB903690BB9FFF702
:104A8C00A7FF94F9150010BD1846FCE790F8D83034
:104A9C005BB190F8D930074A180102EB03139B68FD
:104AAC001978135853F821007047837D0E3350F852
:104ABC00230070478C5101082DE9F341044616463A
:104ACC0088469DF824705B22402F4FF000011D4654
:104ADC0028BF40270EF040FF904BDB8B23803278B1
:104AEC00A37862F30203A3707178DBB2C90001F002
:104AFC00080103F0070341EA08111943A170727908
:104B0C00E37862F30003E370B279637962F386139E
:104B1C00637196F90200FBF76CFFE37860F34703CF
:104B2C00E370F279237962F300032371327A62F332
:104B3C00460323713279DBB202F0010203F07F03EA
:104B4C0043EAC213237132796379C2F3450223F02D
:104B5C003F0313436371A37967F34703A3712B7866
:104B6C00AA78E3716B7802F01F0203F0070343EAA3
:104B7C00C20323726A88637AC2F3451223F03F039F
:104B8C00134363722A79DBB202F0030203F03F0392
:104B9C0043EA82136372AB88C3F38703A3726A7907
:104BAC00E37AC2F3800223F001031343E372AA7980
:104BBC00DBB202F07F0203F0010343EA4203E3722B
:104BCC00EA88237BC2F3C31223F00F03134323732E
:104BDC002B7AAA7AE3736B7A02F01F0203F00703B5
:104BEC0043EAC20323746A89637CC2F3451223F03F
:104BFC003F03134363742A7BDBB202F0030203F01E
:104C0C003F0343EA82136374AB89C3F38703A37432
:104C1C006A7BE37CC2F3800223F001031343E37449
:104C2C00AA7BDBB202F07F0203F0010343EA4203EA
:104C3C00E374EA89237DC2F3C31223F00F031343F9
:104C4C0023752B8ADB0863756B8ADB08A375AB8A2B
:104C5C00DB08E375EB8ADB0823762B8BB3F5C06F8F
:104C6C004ED2B3F5007F94BF00230123227B63F364
:104C7C00051222736B8BB3F5C06F43D2B3F5007F73
:104C8C0094BF00230123227B63F387122273AB8B27
:104C9C00B3F5C06F38D2B3F5007F94BF0023012366
:104CAC00227D63F305122275EB8BB3F5C06F2DD209
:104CBC00B3F5007F94BF00230123227D63F3871299
:104CCC00089B22751F4404F11802BB4220D14FF6F9
:104CDC00FF7321460DF106000D22ADF80630FDF7ED
:104CEC0031FB2146BDF806304C2221F80D3FFDF773
:104CFC0029FBBDF80630A4F8593002B0BDE8F081AC
:104D0C000223B3E70223BEE70223C9E70223D4E759
:104D1C0013F8011B02F8011FD7E700BF1007002092
:104D2C0013B59DF81040CDE9003413460A46002116
:104D3C00FFF7C2FE02B010BD13B5144B0288DB8B1B
:104D4C0004469A421DD1837803F0F003102B01D056
:104D5C00202B18D1A379A52B15D84FF6FF730DF185
:104D6C00060059222146ADF80630FDF7EBFAB4F8EF
:104D7C005900BDF80630C01A18BF0120800002B0DF
:104D8C0010BD0120FBE70220F9E700BF100700204F
:104D9C0030B5374B027893F8261000F1160461F306
:104DAC000302027093F8271061F30712027093F854
:104DBC002810427861F30302427093F8291061F3D2
:104DCC000712427093F82A10827861F30302827002
:104DDC0093F83210827961F30302827193F82B10ED
:104DEC00827861F30712827093F83410C27961F300
:104DFC000302C27193F82C10C27861F30302C270E3
:104E0C0093F82D1061F30712C27093F82E100279EB
:104E1C0061F303020271427993F8301061F30302DB
:104E2C00427193F83310827961F30712827103F1A6
:104E3C00390100F10A0211F9015F02F8015FA24287
:104E4C00F9D193F84610C27D61F30102C27593F853
:104E5C00471061F38302C27593F8481061F3051291
:104E6C00C27593F8493063F38712C27530BD00BF29
:104E7C006C0700200278314BC2F3030230B583F883
:104E8C002620027803F13901C2F3031283F827209C
:104E9C00427800F11604C2F3030283F8282042780A
:104EAC00C2F3031283F829208278C2F3030283F839
:104EBC002A208279C2F3030283F832208278C2F36B
:104ECC00031283F82B20C279C2F3030283F8342037
:104EDC00C278C2F3030283F82C20C278C2F3031207
:104EEC0083F82D200279C2F3030283F82E20427935
:104EFC00C2F3030283F830208279C2F3031283F8E1
:104F0C00332000F10A0212F9015FA24201F8015F9D
:104F1C00F9D1C27DC2F3010283F84620C27DC2F3EF
:104F2C00810283F84720C27DC2F3011283F8482026
:104F3C00C27DC2F3811283F8492030BD6C0700207A
:104F4C001FB58DF80C300123019303AB009313466E
:104F5C000A460221FFF7B0FD05B05DF804FB000026
:104F6C000123F0B5214D044685F8743085B0B0F8B6
:104F7C000900FBF73AFFA867B4F80B00FBF735FF05
:104F8C006E461422E86704F10D0105F18000FBF771
:104F9C0097FF94F9213004F1230085F8953094F8AB
:104FAC00223004F1510785F89630FFF763FF04F1C6
:104FBC004103324618685968083303C2BB4216468F
:104FCC00F7D12C23082269460948FBF76BFE94F8AD
:104FDC005130A5F86E3094F85230A5F8703094F832
:104FEC005330A5F8723005B0F0BD00BF2809002081
:104FFC00680900202DE9F0474FF0400992B00DF1FF
:10500C00080805460E46174600214A4640460EF053
:10501C00A3FC2223DFF874A01D4C9AF800100DF1AC
:10502C000A0004EB0111062201F589718DF8083094
:10503C00FBF734FF9AF8001005A804EB011292F864
:10504C001A3192F8194103F00F0304F00F0444EAEB
:10505C00031492F81B3103F00F0344EA0324BDF848
:10506C00103023F47F6323F00F031C43ADF8104082
:10507C00FFF78EFE3B46324602212846CDE90089D9
:10508C00FFF71AFD12B0BDE8F08700BF1007002033
:10509C006C070020034B04491A68044801FB02000A
:1050AC0018607047000A00200D6619005FF36E3C13
:1050BC0038B50A4A0A4D13782C78A34203D1013330
:1050CC002B70287838BD1470FFF7E4FF6FF00043A5
:1050DC0098423CBF01342C70F3E700BFFD0900205F
:1050EC00FE09002000230A4A8380126883718260C3
:1050FC00084A83810384136803615368064A436139
:10510C00136883615368C3614EF660230360704774
:10511C0020460020933E01089C3E010810B5124C1D
:10512C000220FFF787F92046FFF746FC6FF07F015E
:10513C002046FFF7C9FBA36803B9FEE70021204610
:10514C000CF0AFFF4FF47A70FEF736F920460121D0
:10515C000CF0BEFFA36820461978FFF797FB20469A
:10516C00FFF72AFC10BD00BF0437002090F8203058
:10517C0013B980F82130704790F82130013B5BB2B5
:10518C00002B80F82130DCBF002380F820307047E2
:10519C00134B90F820201B68CAB182689B1AB3F598
:1051AC007A6F01D9012343710379ABB10D4B427B6B
:1051BC001B781AB1022B1CBF032202739A1E534296
:1051CC0053414373837953B1032303737047836053
:1051DC00EAE701230371F8E74379002BF9D1704713
:1051EC0020460020E90A00200346007B821E012A8B
:1051FC004FF0000202D893F8201009B91A737047C7
:10520C001046704770B505461A4C5B2200212046AB
:10521C000EF0A2FB2B69184E23606B69317863602A
:10522C00164B174D1B7805EB01119A1E5342534137
:10523C00627A01F5897163F30002627204F10A006B
:10524C000622FBF72BFE3378592105EB031595F855
:10525C001A21237C204662F30713237495F81B2133
:10526C00637C62F303036374FDF784F8A4F85900BC
:10527C0070BD00BF4537002010070020E90A002050
:10528C006C0700200A4A38B51388044601339BB2D8
:10529C00502B0D4601D8138038BD002305491380CF
:1052AC00FDF77FFD29462046FDF77BFDF4E700BFA7
:1052BC0024100020DE3F01082DE9F74F1646054665
:1052CC0088466D49FDF76DFD31462846FDF769FDB1
:1052DC0000226A4BB8F1010F694C1A8011D14FF4BE
:1052EC0000434FF48047636146F2A8102761FEF734
:1052FC0063F86761FEF760F831462846FFF7C2FF96
:10530C00F2E7A8F102034FF480420C2B00F2A780C5
:10531C00DFE803F03141531C07A5A5A56363636364
:10532C0063004FF480484FF4004746F2A810C4F8CD
:10533C0010806761FEF740F8C4F814802761FEF70F
:10534C003BF831462846FFF79DFFEEE74FF48048C7
:10535C004FF4004746F2A810C4F810802761FEF7FE
:10536C002BF8C4F814806761FEF726F831462846FE
:10537C00FFF788FFEEE74FF40047626146F2A81092
:10538C002761FEF719F86761FEF716F831462846D3
:10539C00FFF778FFF2E74FF400434FF480472361A7
:1053AC0046F2A8102761FEF707F86761FEF704F8CC
:1053BC0031462846FFF766FFF2E74FF400472261BB
:1053CC0046F2A8102761FDF7F7FF6761FDF7F4FFC0
:1053DC0031462846FFF756FFF2E700274FF4004B03
:1053EC004FF48049A8F1090A5FFA8AFA0423574559
:1053FC0038BFC4F810B0019346F2A810C4F810904E
:10540C00FDF7DAFFC4F81490FDF7D6FF31462846B5
:10541C00FFF738FF019B013B13F0FF03EBD1042393
:10542C00C4F814B0019346F2A810C4F81090FDF71C
:10543C00C3FFC4F81490FDF7BFFF31462846FFF7B1
:10544C0021FF019B013B13F0FF03EBD10137A8F1C6
:10545C000803FFB2DBB2BB4238BF0027C6E74FF4EC
:10546C000043226123614CF25030FDF7A5FF314619
:10547C002846FFF707FFF6E7DE3F0108241000205F
:10548C00001001406FF00102094B0A491A610A88A9
:10549C00013A92B20A800A8892B23AB9DA6822F0DA
:1054AC000102DA601A6822F001021A60704700BF2C
:1054BC00002C0140460A00206FF00102054B1A61D6
:1054CC00DA6822F00102DA601A6822F001021A602E
:1054DC00704700BF002C014010B5214C88B0FFF77D
:1054EC00EBFF204901230A221F48FDF718FD204637
:1054FC0000224FF47A71FDF71DFD0023CDE9013335
:10550C0003936023022200934FF480730492CDE93D
:10551C00052301216A46204607930CF0D9F9134A5A
:10552C00D2F8183C23F00403C2F8183CA2F5005240
:10553C00536823F0E06323F0C00343F0E06343F0CF
:10554C0040035360E022636C43F400436364084BF4
:10555C0083F819234FF000721A6008B010BD00BF19
:10556C00002C014001000104000801400020014012
:10557C0000E100E0074BB3FBF1F1074BD96249089E
:10558C0059631A6842F001021A601A6A42F0010269
:10559C001A62704740420F00002C01404FF47A739E
:1055AC000B48B0FBF1F05143B1FBF3F1094B0A4A44
:1055BC00D862400858631963012111801A680A43A4
:1055CC001A601A6A0A431A62DA680A43DA60704788
:1055DC0040420F00002C0140460A002019B94FF43C
:1055EC00FA71FFF7C7BF182905D84FF4FA724FF4B8
:1055FC00FA71FFF7D3BF4A2901D8FA22F7E76329DA
:10560C0001D83222F3E7FFF757BF0000024B1868AE
:10561C0000F00100704700BF002C014010B504469B
:10562C00FFF7F4FF38B92046BDE8104028224FF4AC
:10563C00FA71FFF7B3BF10BD10B5044694F90130F1
:10564C0008468B4201D1237823B901232370FDF73F
:10565C008DFE607010BD000008B5437802789A4248
:10566C0013D0042B8ABF042303700370027888BF05
:10567C004370064B064813F92210064B1973197622
:10568C00836813B11972FFF71FF908BDF0510108B7
:10569C00043700201007002010B50AB9437010BD64
:1056AC00541E0B2CFBD80332D2B231F8122040F22C
:1056BC007E618A4207D95AB222EAE2729A42C8BF84
:1056CC005AB24270EBE7B2F5C17F02D29A1E52B2C7
:1056DC00F2E740F2D4418A4204D95AB2032A06DCDA
:1056EC00DA1EF4E7B2F54B7F03D35A1EEFE7012223
:1056FC00E4E70022E2E7000037B50C461D4668B926
:10570C0007480DF106020DF107010CF0EEFD2B46DA
:10571C0022469DF8061002480CF09DFC03B030BDEB
:10572C000437002070B50D4616461C460146B0B92C
:10573C00FDF76CFD0C4833462A460CF065FC4FF621
:10574C00FF7109480CF05AFD22010748012192B261
:10575C000CF07CFDBDE870407D20FDF72DBE0248AD
:10576C00FFF72AF970BD00BF0437002037B50C468F
:10577C0038B91548836833B9812281F88E3081F8A5
:10578C008C2003B030BD9D7A95B101F18E020DF1E4
:10579C0006010CF085FDBDF90630002B0FDB4FF632
:1057AC00FF73ADF80630BDF8063084F88C30E8E7AE
:1057BC000DF106010CF057FE84F88E50EBE77F33A9
:1057CC00F1DA4FF68173ECE70437002070B50D4623
:1057DC000646104C5B23224621462846FFF78CFFD9
:1057EC00D6E90613206862689A4208BF88420ED137
:1057FC0020465921FCF7BEFDB4F85940231A5C42EF
:10580C005C4128460449FFF7B1FF601C70BD0024C1
:10581C00F7E700BF4A3500205C3600200A4608B581
:10582C0001460148FFF748FD2C000020164600B544
:10583C0091B0044668461D460EF0EEF818496846CD
:10584C000EF092F830460CF00DFB014668460EF057
:10585C008BF8144968460EF087F8134B684653F8DA
:10586C0025100EF081F8114968460EF07DF8104DA8
:10587C009DF84830684655F823100EF075F80D4920
:10588C0068460EF071F89DF84C30684655F82310B8
:10589C000EF06AF86A4621460748FFF70DFD00BF77
:1058AC00A53E0108AC3E010800000020B13E0108F5
:1058BC001C000020B83E01082C00002000230370BF
:1058CC008370437003714371C37070470022037877
:1058DC004271022B04D0032B09D0012B16D0FEE70A
:1058EC0001230371437183784370C37070478378CD
:1058FC004278991AA3EB020218BF012112F0060F8D
:10590C0014BF0122002201714271EDE70271704750
:10591C0002788170002A0CBF022203220270FFF76A
:10592C00D5BF00002822074B02FB00339B681A7876
:10593C00542A05D15878A0F1780358425841704741
:10594C00002070471C5201082822074B02FB003331
:10595C009B681A78522A05D15878A0F178035842DE
:10596C0058417047002070471C5201082822074BF1
:10597C0002FB00339B681A78542A04D15878783883
:10598C0018BF012070470120704700BF1C5201084E
:10599C00282343430A4A10B5D1580446FFF7D4FFD5
:1059AC0040B92046FFF7BEFF064B1B7820B11422EE
:1059BC0002FB0311084610BD01EB0311FAE700BF0F
:1059CC001C520108100700202B2838B505461AD8A0
:1059DC0028220E4B4CB202FB00331B79022B0DD04C
:1059EC00FE2B10D1FFF7D4FF0378E4B2A3420AD008
:1059FC0004702846BDE83840FFF7B8BFFFF7C8FF72
:105A0C0090F90030F2E7002038BD00BF1C520108AD
:105A1C002B2838B504460D4619D828220D4B02FB0D
:105A2C0000331B79FF2B12D1FFF7B2FF0622294658
:105A3C00FBF759FA58B92046FFF7AAFF2946062268
:105A4C00FBF73EFA2046BDE83840FFF78FBF002039
:105A5C0038BD00BF1C5201082DE9F0430746282031
:105A6C0041431546394A012B02EB0100046A87B009
:105A7C0025D15258364B9A4235D0A3F1CE018A42E9
:105A8C0033D03449F23B9A4208BF0C46FF234FF007
:105A9C00000801268DF800302046FAF75BFB5FFA10
:105AAC0088F9484529D806F118036B44AE4203F82F
:105ABC00188C30D80020387007B0BDE8F083022B6A
:105ACC00E4D15258224B9A4211D0591C8A4210D020
