:020000040800F2
:1000000000000120F5DB0008DFDB0008E1DB000871
:10001000E3DB0008E5DB0008E7DB00080000000088
:10002000000000000000000000000000E9DB000804
:10003000EBDB000800000000EDDB0008EFDB000850
:1000400045DC000845DC000845DC000845DC00080C
:1000500045DC000845DC000845DC000845DC0008FC
:1000600045DC000845DC000845DC000845DC0008EC
:1000700045DC000845DC000845DC000845DC0008DC
:1000800045DC000845DC000845DC000845DC0008CC
:100090000000000045DC000845DC000845DC0008E5
:1000A00045DC000845DC000845DC000845DC0008AC
:1000B00045DC000845DC000845DC000845DC00089C
:1000C00045DC000845DC000845DC000845DC00088C
:1000D0000D3300081D63000845DC000845DC0008FE
:1000E00045DC000845DC000845DC000845DC00086C
:1000F00045DC0008000000000000000045DC0008AE
:1001000045DC000845DC0008F1C4000845DC0008B7
:1001100045DC000845DC000845DC000845DC00083B
:1001200045DC000845DC000845DC000845DC00082B
:0801300045DC000845DC000875
:1001380010B5054C237833B9044B13B10448AFF319
:1001480000800123237010BDD802002000000000A9
:10015800140F010808B5034B1BB103490348AFF35B
:10016800008008BD00000000DC020020140F010818
:1001780010F8012B11F8013B012A28BF9A42F7D049
:10018800D01A7047034613F8012B002AFBD1181A1E
:100198000138704781F0004102E000BF83F000435E
:1001A80030B54FEA41044FEA430594EA050F08BF0A
:1001B80090EA020F1FBF54EA000C55EA020C7FEACE
:1001C800645C7FEA655C00F0E2804FEA5454D4EB4B
:1001D8005555B8BF6D420CDD2C4480EA020281EA15
:1001E800030382EA000083EA010180EA020281EA4D
:1001F8000303362D88BF30BD11F0004F4FEA01319F
:100208004FF4801C4CEA113102D0404261EB4101AD
:1002180013F0004F4FEA03334CEA133302D0524233
:1002280063EB430394EA050F00F0A780A4F10104EF
:10023800D5F1200E0DDB02FA0EFC22FA05F2801829
:1002480041F1000103FA0EF2801843FA05F359410F
:100258000EE0A5F120050EF1200E012A03FA0EFC8E
:1002680028BF4CF0020C43FA05F3C01851EBE371B8
:1002780001F0004507D54FF0000EDCF1000C7EEBD5
:1002880000006EEB0101B1F5801F1BD3B1F5001F13
:100298000CD349085FEA30004FEA3C0C04F1010432
:1002A8004FEA445212F5800F80F09A80BCF1004F5B
:1002B80008BF5FEA500C50F1000041EB045141EADD
:1002C800050130BD5FEA4C0C404141EB0101013CA6
:1002D80028BFB1F5801FE9D291F0000F04BF014695
:1002E8000020B1FA81F308BF2033A3F10B03B3F167
:1002F80020020CDA0C3208DD02F1140CC2F10C02F7
:1003080001FA0CF021FA02F10CE002F11402D8BF54
:10031800C2F1200C01FA02F120FA0CFCDCBF41EA20
:100328000C019040E41AA2BF01EB0451294330BDEF
:100338006FEA04041F3C1CDA0C340EDC04F11404CC
:10034800C4F1200220FA04F001FA02F340EA0300A3
:1003580021FA04F345EA030130BDC4F10C04C4F1E9
:10036800200220FA02F001FA04F340EA03002946C9
:1003780030BD21FA04F0294630BD94F0000F83F413
:10038800801306BF81F480110134013D4EE77FEAF6
:10039800645C18BF7FEA655C29D094EA050F08BF42
:1003A80090EA020F05D054EA000C04BF1946104623
:1003B80030BD91EA030F1EBF0021002030BD5FEA67
:1003C800545C05D14000494128BF41F0004130BD8F
:1003D80014F580043CBF01F5801130BD01F00045E3
:1003E80045F0FE4141F470014FF0000030BD7FEA56
:1003F800645C1ABF194610467FEA655C1CBF0B4651
:10040800024650EA013406BF52EA033591EA030F67
:1004180041F4002130BD00BF90F0000F04BF00215F
:10042800704730B54FF4806404F132044FF0000592
:100438004FF0000150E700BF90F0000F04BF00210B
:10044800704730B54FF4806404F1320410F0004571
:1004580048BF40424FF000013EE700BF42004FEA6C
:10046800E2014FEA31014FEA02701FBF12F07F43E9
:1004780093F07F4F81F06051704732F07F4208BFA0
:10048800704793F07F4F04BF41F40021704730B5A7
:100498004FF4607401F0004521F000411CE700BFF3
:1004A80050EA010208BF704730B54FF000050AE076
:1004B80050EA010208BF704730B511F0004502D577
:1004C800404261EB41014FF4806404F132045FEA79
:1004D800915C3FF4D8AE4FF003025FEADC0C18BF22
:1004E80003325FEADC0C18BF033202EBDC02C2F114
:1004F800200300FA03FC20FA02F001FA03FE40EAA6
:100508000E0021FA02F11444BDE600BF70B54FF0A9
:10051800FF0C4CF4E06C1CEA11541DBF1CEA135587
:1005280094EA0C0F95EA0C0F00F0DEF82C4481EAEF
:10053800030621EA4C5123EA4C5350EA013518BF0F
:1005480052EA033541F4801143F4801338D0A0FBFC
:1005580002CE4FF00005E1FB02E506F00042E0FBA9
:1005680003E54FF00006E1FB03569CF0000F18BFAF
:100578004EF0010EA4F1FF04B6F5007F64F5407457
:1005880004D25FEA4E0E6D4146EB060642EAC621EA
:1005980041EA55514FEAC52040EA5E504FEACE2E57
:1005A800B4F1FD0C88BFBCF5E06F1ED8BEF1004F5A
:1005B80008BF5FEA500E50F1000041EB045170BDD6
:1005C80006F0004646EA010140EA020081EA03011A
:1005D800B4EB5C04C2BFD4EB0C0541EA045170BD16
:1005E80041F480114FF0000E013C00F3AB8014F190
:1005F800360FDEBF002001F0004170BDC4F10004D9
:10060800203C35DA0C341BDC04F11404C4F1200559
:1006180000FA05F320FA04F001FA05F240EA0200B4
:1006280001F0004221F0004110EBD37021FA04F6EA
:1006380042EB06015EEA430E08BF20EAD37070BDA4
:10064800C4F10C04C4F1200500FA04F320FA05F003
:1006580001FA04F240EA020001F0004110EBD37005
:1006680041F100015EEA430E08BF20EAD37070BD75
:10067800C4F1200500FA05F24EEA020E20FA04F34E
:1006880001FA05F243EA020321FA04F001F00041FD
:1006980021FA04F220EA020000EBD3705EEA430E6E
:1006A80008BF20EAD37070BD94F0000F0FD101F09D
:1006B8000046400041EB010111F4801F08BF013CD6
:1006C800F7D041EA060195F0000F18BF704703F014
:1006D8000046520043EB030313F4801F08BF013D9B
:1006E800F7D043EA0603704794EA0C0F0CEA135557
:1006F80018BF95EA0C0F0CD050EA410618BF52EA11
:100708004306D1D181EA030101F000414FF0000016
:1007180070BD50EA410606BF1046194652EA430624
:1007280019D094EA0C0F02D150EA013613D195EA98
:100738000C0F05D152EA03361CBF104619460AD1E0
:1007480081EA030101F0004141F0FE4141F47001EA
:100758004FF0000070BD41F0FE4141F4780170BDDA
:1007680070B54FF0FF0C4CF4E06C1CEA11541DBF3F
:100778001CEA135594EA0C0F95EA0C0F00F0A7F841
:10078800A4EB050481EA030E52EA03354FEA01316E
:1007980000F088804FEA03334FF0805545EA131381
:1007A80043EA12634FEA022245EA111545EA106549
:1007B8004FEA00260EF000419D4208BF964244F1E0
:1007C800FD0404F5407402D25B084FEA3202B61AFF
:1007D80065EB03055B084FEA32024FF480104FF4D3
:1007E800002CB6EB020E75EB030E22BFB61A754647
:1007F80040EA0C005B084FEA3202B6EB020E75EBDA
:10080800030E22BFB61A754640EA5C005B084FEA41
:100818003202B6EB020E75EB030E22BFB61A75460E
:1008280040EA9C005B084FEA3202B6EB020E75EB19
:10083800030E22BFB61A754640EADC0055EA060EDA
:1008480018D04FEA051545EA16754FEA06164FEA1D
:10085800C30343EA52734FEAC2025FEA1C1CC0D1C9
:1008680011F4801F0BD141EA00014FF000004FF056
:10087800004CB6E711F4801F04BF01430020B4F117
:10088800FD0C88BFBCF5E06F3FF6AFAEB5EB030CCF
:1008980004BFB6EB020C5FEA500C50F1000041EBCC
:1008A800045170BD0EF0004E4EEA113114EB5C0499
:1008B800C2BFD4EB0C0541EA045170BD41F480116C
:1008C8004FF0000E013C90E645EA060E8DE60CEA74
:1008D800135594EA0C0F08BF95EA0C0F3FF43BAF91
:1008E80094EA0C0F0AD150EA01347FF434AF95EA48
:1008F8000C0F7FF425AF104619462CE795EA0C0F2C
:1009080006D152EA03353FF4FDAE1046194622E7F8
:1009180050EA410618BF52EA43067FF4C5AE50EAD2
:1009280041047FF40DAF52EA43057FF4EBAE12E7C2
:100938004A0011D212F5001211D20DD56FF4787356
:10094800B3EB62520ED44FEAC12343F0004343EAAB
:10095800505323FA02F070474FF00000704750EAF6
:10096800013002D14FF0FF3070474FF00000704760
:1009780080F0004002E000BF81F0004142001FBF4C
:100988005FEA410392EA030F7FEA226C7FEA236C55
:100998006AD04FEA1262D2EB1363C1BFD21841404A
:1009A80048404140B8BF5B42192B88BF704710F0E0
:1009B800004F40F4000020F07F4018BF404211F083
:1009C800004F41F4000121F07F4118BF494292EAEB
:1009D800030F3FD0A2F1010241FA03FC10EB0C0017
:1009E800C3F1200301FA03F100F0004302D54942A4
:1009F80060EB4000B0F5000F13D3B0F1807F06D351
:100A080040084FEA310102F10102FE2A51D2B1F148
:100A1800004F40EBC25008BF20F0010040EA03003D
:100A28007047490040EB0000013A28BFB0F5000FBD
:100A3800EDD2B0FA80FCACF1080CB2EB0C0200FA73
:100A48000CF0AABF00EBC25052421843BCBFD040C2
:100A58001843704792F0000F81F4000106BF80F43C
:100A680000000132013BB5E74FEA41037FEA226CFF
:100A780018BF7FEA236C21D092EA030F04D092F0CA
:100A8800000F08BF0846704790EA010F1CBF0020FE
:100A9800704712F07F4F04D1400028BF40F000405B
:100AA800704712F100723CBF00F50000704700F07B
:100AB800004343F0FE4040F4000070477FEA2262A2
:100AC80016BF08467FEA23630146420206BF5FEA73
:100AD800412390EA010F40F4800070474FF0000373
:100AE80004E000BF10F0004348BF40425FEA000C3A
:100AF80008BF704743F0964301464FF000001CE0E2
:100B080050EA010208BF70474FF000030AE000BF37
:100B180050EA010208BF704711F0004302D5404275
:100B280061EB41015FEA010C02BF844601460020E7
:100B380043F0B64308BFA3F18053A3F50003BCFA02
:100B48008CF2083AA3EBC25310DB01FA02FC6344AF
:100B580000FA02FCC2F12002BCF1004F20FA02F2B6
:100B680043EB020008BF20F00100704702F12002A9
:100B780001FA02FCC2F1200250EA4C0021FA02F20A
:100B880043EB020008BF20EADC7070474FF0FF0C0F
:100B98001CEAD0521EBF1CEAD15392EA0C0F93EA0A
:100BA8000C0F6FD01A4480EA010C400218BF5FEAAC
:100BB80041211ED04FF0006343EA501043EA51111F
:100BC800A0FB01310CF00040B1F5000F3EBF490019
:100BD80041EAD3715B0040EA010062F17F02FD2A1D
:100BE8001DD8B3F1004F40EBC25008BF20F0010000
:100BF800704790F0000F0CF0004C08BF49024CEA17
:100C0800502040EA51207F3AC2BFD2F1FF0340EAA8
:100C1800C250704740F400004FF00003013A5DDC19
:100C280012F1190FDCBF00F000407047C2F100025A
:100C3800410021FA02F1C2F1200200FA02FC5FEA47
:100C4800310040F1000053EA4C0308BF20EADC7091
:100C5800704792F0000F00F0004C02BF400010F403
:100C6800000F013AF9D040EA0C0093F0000F01F0B0
:100C7800004C02BF490011F4000F013BF9D041EAD2
:100C88000C018FE70CEAD15392EA0C0F18BF93EAD4
:100C98000C0F0AD030F0004C18BF31F0004CD8D1FE
:100CA80080EA010000F00040704790F0000F17BF85
:100CB80090F0004F084691F0000F91F0004F14D0CB
:100CC80092EA0C0F01D142020FD193EA0C0F03D123
:100CD8004B0218BF084608D180EA010000F0004026
:100CE80040F0FE4040F40000704740F0FE4040F401
:100CF800400070474FF0FF0C1CEAD0521EBF1CEAA0
:100D0800D15392EA0C0F93EA0C0F69D0A2EB0302BD
:100D180080EA010C49024FEA402037D04FF0805357
:100D280043EA111143EA10130CF000408B4238BF1C
:100D38005B0042F17D024FF4000C8B4224BF5B1A2A
:100D480040EA0C00B3EB510F24BFA3EB510340EA78
:100D58005C00B3EB910F24BFA3EB910340EA9C0026
:100D6800B3EBD10F24BFA3EBD10340EADC001B0196
:100D780018BF5FEA1C1CE0D1FD2A3FF650AF8B423A
:100D880040EBC25008BF20F0010070470CF0004C47
:100D98004CEA50207F32C2BFD2F1FF0340EAC25072
:100DA800704740F400004FF00003013A37E792F033
:100DB800000F00F0004C02BF400010F4000F013A91
:100DC800F9D040EA0C0093F0000F01F0004C02BF8C
:100DD800490011F4000F013BF9D041EA0C0195E7F5
:100DE8000CEAD15392EA0C0F08D142027FF47DAF8E
:100DF80093EA0C0F7FF470AF084676E793EA0C0F7E
:100E080004D14B023FF44CAF08466EE730F0004C7B
:100E180018BF31F0004CCAD130F000427FF45CAF0B
:100E280031F000437FF43CAF5FE700BF4FF0FF3C79
:100E380006E000BF4FF0010C02E000BF4FF0010CCC
:100E48004DF804CD4FEA40024FEA41037FEA226C95
:100E580018BF7FEA236C11D001B052EA530C18BFB7
:100E680090EA010F58BFB2EB030088BFC81738BF1C
:100E78006FEAE17018BF40F0010070477FEA226C0A
:100E880002D15FEA402C05D17FEA236CE4D15FEA06
:100E9800412CE1D05DF8040B704700BF844608463A
:100EA8006146FFE70FB5FFF7C9FF002848BF10F1FB
:100EB800000F0FBD4DF808EDFFF7F4FF0CBF012040
:100EC80000205DF808FB00BF4DF808EDFFF7EAFFCA
:100ED80034BF012000205DF808FB00BF4DF808ED85
:100EE800FFF7E0FF94BF012000205DF808FB00BF7A
:100EF8004DF808EDFFF7D2FF94BF012000205DF800
:100F080008FB00BF4DF808EDFFF7C8FF34BF01200C
:100F180000205DF808FB00BF4FEA40024FEA41039A
:100F28007FEA226C02D15FEA402C08D17FEA236C69
:100F380002D15FEA412C02D14FF0000070474FF018
:100F4800010070474FEA4002B2F1FE4F0FD34FF055
:100F58009E03B3EB12620DD94FEA002343F000431E
:100F680010F0004F23FA02F018BF404270474FF0CC
:100F78000000704712F1610F01D1420205D110F053
:100F8800004008BF6FF0004070474FF00000704706
:100F980042000ED2B2F1FE4F0BD34FF09E03B3EBDB
:100FA800126209D44FEA002343F0004323FA02F007
:100FB80070474FF00000704712F1610F01D14202F3
:100FC80002D14FF0FF3070474FF00000704700BF6C
:100FD8000022427082700122C270B1FA81F10222AD
:100FE80049090271032201704271704743788B42AC
:100FF8001FD0012941700AD0022910D0C1B901239C
:10100800C37081700223037103234371704703780F
:1010180043B1012383700223C3700023F3E70378ED
:10102800002BF6D0022383700023C3700123EAE764
:10103800FEE7704782B00B88ADF800304B88ADF8FA
:1010480002308B88ADF80430CB88ADF80630023911
:10105800431C053013F8012F0DF1080C0CEB42026C
:10106800834232F8082C21F8022FF3D102B07047DE
:1010780010B50C461146FFF7B9FF2146BDE81040F0
:10108800FFF7D8BF0A4B10B54FF07F32C0E92323D2
:101098004FF47F43A0F89430FF2380F8963004463D
:1010A800983000F0E3FC002384F8A43010BD00BFA2
:1010B800FFFF7F0070B51146154604461E4600F036
:1010C8004BFC294604F1140000F046FC294604F1C3
:1010D800280000F041FC294604F13C0000F03CFCEB
:1010E800294604F1500000F037FC294604F1640059
:1010F80000F032FC294604F1780000F02DFC4FF492
:10110800FA7332464FF4FA6104F1980000F094FC47
:101118002046FFF7B7FF002384F8A5304FF47F433C
:10112800A4F8A63070BD704700F01DBC143000F064
:101138001ABC08B5503000F020FC292100F1140336
:101148000246B3FBF1F313F0FF0002D1101E18BFE3
:10115800012008BD08B5643000F00FFC292100F11A
:1011680014030246B3FBF1F313F0FF0002D1101E83
:1011780018BF012008BD90F8903013B990F98C0081
:10118800704790F98D00704790F8903013B990F936
:101198008E00704790F98F00704710B504460BF029
:1011A800C3FA38B104F13C0000F0E1FB012838BF74
:1011B8000120C0B210BD783000F0E1BB783000F0FB
:1011C800E6BB10B5044600F0A8FB04F1140000F0DB
:1011D800A4FB04F1280000F0A0FB04F13C0000F09F
:1011E8009CFB04F1500000F0A4FB04F1640000F043
:1011F800A0FB04F17800BDE8104000F0A0BB7F28F8
:1012080007D0002807DA10F1800F06D04042C0B29C
:10121800704700207047012070477F20704710B149
:10122800404240B270477F2070477F280FD010F1AE
:10123800310F0EDA10F1780F0DDB7830FE2340B253
:10124800584323304623B0FBF3F0C0B27047FF2069
:101258007047FE20704700207047012805DD40F2E6
:10126800FE73984203DC80B270470120704740F259
:10127800FF707047A0F57870C0EBC02040F2AE73E5
:1012880090FBF3F000F58060FFF7E7BFFFF7F2BFD0
:10129800032812DD0C2812DD0F2812DD122812DDBA
:1012A800162812DD192812DD1C2812DD1F2812DD70
:1012B8002128CCBFFF20062070470020704701205E
:1012C80070470220704708207047032070470720A6
:1012D80070470420704705207047000005289ABF12
:1012E800014B185CFF207047700F010805289ABF52
:1012F800014B185CFF207047760F01087F2803D048
:10130800002803DAC0B2704700207047FF207047FA
:101318007F2811D010F1320F10DA884210DD401A00
:101328006423C1F1FF21584301F57F01CE313130EB
:1013380090FBF1F0C0B27047FF20704764207047FF
:1013480000207047014B4840185C70477C0F01082B
:1013580052B110B4054C0A4411F8013B58408A4276
:10136800205CF9D110BC7047704700BF7C0F0108A2
:10137800392808D822280ED9094B2338C0B2C340CF
:1013880003F0010070475F2807D0613819288CBF27
:10139800002001207047002070470120704700BFDF
:1013A80001EC7F00F8B50246451E461D00245F2764
:1013B80015F8010FFF2804BF0134E4B2FFF7D8FF86
:1013C80000B92F70AE42F3D1062C04D119B10B68C5
:1013D80013608B88938000239371F8BD2DE9F8433F
:1013E800DFF83490471E441D012500264FF02808D9
:1013F80017F8011F08480FF02AFD034610B1A0EBAB
:101408000903DBB2A3FB05329E19A742A5FB0853CB
:10141800EED13046BDE8F8837C10010810B541795B
:10142800A1F13000C3B2092B07D80523B0FBF3F3B1
:1014380003EB8303C01AC0B210BD044C20460FF062
:1014480006FD0028F1D0001BC0B2EEE77C100108B1
:10145800F0B5094B094F821D2826B1FBF3F4272C60
:1014680094BF3D5D302502F8015D824203FB1411F3
:10147800B3FBF6F3F1D1F0BD00801A067C10010829
:1014880070B50446FEF77EFE82B20023551E98B260
:10149800A84214FA83F104DA265C302E03F1010322
:1014A800F5D0121A01322046BDE870400FF09EBCFC
:1014B8002DE9F04F0D4699B0164600211A461F46F1
:1014C80080460FF0ADFC00212A2201A800910FF000
:1014D800A7FCDFF8CC90DFF8CCA0DFF8CCB005EBA8
:1014E8004606AE4211D16846FEF74CFE30B100F117
:1014F80060030DEB0300002300F8613C6946404699
:101508000FF0EEFC19B0BDE8F08F35F9020B47F685
:10151800FF739842E7D0002812DC59460CA80FF058
:10152800DFFC6846FEF72EFE04460CA8FEF72AFEEE
:101538000444A742D5D30CA968460FF079FCD0E73C
:10154800B0F57A7F0BDA0CA980B20DF0D8FD0CA8A3
:10155800FFF796FF51460CA80FF06AFCE1E76423F9
:101568000CA93230B0FBF3F080B20DF0C8FD0CA826
:10157800FFF786FF0CA8FEF705FE00F15F036B443A
:1015880000F160010DEB010013F8302C00F8302C4D
:101598002E2203F8302C002300F82F3C4946DAE7C6
:1015A8006A0F0108650F0108600F0108F0B589B0DE
:1015B8006D4600242F468E1CE1B28A4204D8394673
:1015C800FFF776FF09B0F0BD36F8241025F8021BA6
:1015D8000134F1E742F210736421B0FBF3F203FB2C
:1015E8001200B0FBF1F301FB130000EB023000EB3B
:1015F800831080B27047020B00F03F0342F2107173
:1016080001FB0233C0F38510642202FB00307047EF
:101618002DE9F04142F2107388B0B1FBF3F603FBF9
:1016280016141F49DFF87C8005460FF059FC6946FF
:10163800F0B20DF041FD6846FFF722FF69462846E3
:101648000FF0F6FB414628460FF0F2FB6427694687
:10165800B4FBF7F6F0B20DF02FFD6846FFF710FF68
:10166800694628460FF0E4FB07FB16444146284626
:101678000FF0DEFB6946E0B20DF01EFD9DF801306B
:101688008DF800309DF802308DF80130694600234E
:1016980028468DF802300FF0CBFB08B0BDE8F0818A
:1016A800692101086E0F010870B50E460021054634
:1016B80014460FF0B5FB00239AB2944200D870BDCF
:1016C800F25C002AFBD0EA540133F5E770B50E4608
:1016D80014460021013205460FF0A2FB00239AB2FE
:1016E800944200D870BDF25C002AFBD0EA54013362
:1016F800F5E730B50023044698B2904201D30120A3
:1017080005E0E55CC85C1DB9B0FA80F0400930BD61
:101718000028FCD0854203F10103EDD00020F6E754
:101728007D23438043F2390309B2C360002301805B
:101738008180C3800372704702680449044B01FB2F
:10174800023323F000430360180C7047FD43030085
:10175800C39E2600F0B5002597B001608580044639
:101768005622294668460FF05BFB0126E27DAA4215
:1017780009D80023802104F1B800A37517B0BDE88B
:10178800F0400FF04DBB2046FFF7D6FFE7797B1BF3
:10179800002190FBF3F202FB1300C0B2EC460A46AC
:1017A800CBB29F4223D800230022277B1146D0B218
:1017B800874227D80029D9D1A279033A012A04EB14
:1017C800050105D925B191F9172012BB012BCDD9F7
:1017D8000B76A26852F82310583305F10E026B44B9
:1017E800013544F8221003F8586CEDB2BEE71CF836
:1017F80001EBBEF1000F03D18242D5D00132D2B243
:101808000131CDE72069805C0132984208BF01218F
:10181800CDE7501E8342DBDB01329342D8DCA5E7DB
:101828002DE9F047154696B0013D01600271044666
:101838004371EDB25622002168460FF0F1FA0027F5
:10184800022D84BF4FF0010900253E464FF0010AE2
:1018580094F807809CBF4FF00309B8FBF9F8E27DC4
:10186800B24209D80023802104F1B800A37516B04C
:10187800BDE8F0470FF0D4BA2046FFF75DFFA8EBAC
:101888000603002190FBF3F202FB1300C0B2EC4602
:101898000A46CBB2434506D21CF801EBBEF1000F55
:1018A8002AD1824226D1434528BF434603FB09512A
:1018B800002094F80CE001F0FF018446C2B296457E
:1018C8001CD8BCF1000FCAD116B1FFB9012BC6D97B
:1018D800A2191F461176A26852F8211006F10E02CD
:1018E800013644F8221003F158026A44F6B202F8AD
:1018F80058ACB4E70132D2B20131CAE72269125CAE
:1019080001308A4208BF4FF0010CD7E77A1E934294
:10191800DEDB7A1C9342DBDCA1E7D0E901236421FA
:10192800D31AC36082604B43418AB3FBF1F303745B
:101938007047D0E90123D31AC0E9022370474368EE
:101948002BB1C26864214A43B2FBF3F2D3B20374E9
:101958000023C360436070470023C0E9023341821B
:101968004360037470474368013343607047007CE9
:10197800704743680B4443607047C068704711B1B3
:10198800C3680133C3604368013343607047007C18
:101998007047002303808370037270470346007802
:1019A80010B100221A707047587810B100225A708E
:1019B8007047987810B100229A707047187A08B169
:1019C80000221A7270470170704701707047817069
:1019D80070478170426070474068704700234360D9
:1019E800038170470A2310B50446838001F074FE12
:1019F8002368E0809B6820469847208110BD0389B2
:101A080070B504469BB1858845B1013DADB285806E
:101A18006DB903681B68BDE87040184701F05CFEAB
:101A2800E388C01A238980B2834201D2258170BD20
:101A3800236820465B68EEE72DE9F041044610462E
:101A48001D4616468846FFF749F8074606EB080084
:101A5800FFF744F801463846FFF74CF96560206007
:101A68002846FFF73FF8A060BDE8F08110B50446AE
:101A78004068FFF737F8A06010BD000010B50229D4
:101A8800044680EAE070A0EBE47068D15AB9002CF3
:101A9800ACBF7F233F239842A8BF1846002C01DA29
:101AA80040F0400010BD012A1AD1632805DC40002F
:101AB800002CF7DA40F48070F4E740F2F5439842DE
:101AC8000CDCFFF70BF85749FFF760F80EF064F8E5
:101AD800FFF75EFA400040F00100E9E7FF20E7E782
:101AE800022A40F09C80632805DC8000002CD9DAAB
:101AF80040F40070D6E7B0F57A7F0CDAFEF7EEFF17
:101B08004849FFF743F80EF047F8FFF741FA80001D
:101B180040F00100EAE742F20F7398420CD8FEF752
:101B2800DDFF4149FFF732F80EF036F8FFF730FADB
:101B3800800040F00200D9E73C4B98420CD8FEF7F1
:101B4800CDFF3B49FFF722F80EF026F8FFF720FA01
:101B5800800040F00300C9E740F2FF10C6E7032900
:101B68005DD1012A1BD1B0F57A7F05DA4000002C3F
:101B780098DA40F4006095E7B0F5205F0CDAFEF7DC
:101B8800ADFF2849FFF702F80EF006F8FFF700FA54
:101B9800400040F00100EAE740F2FF70E7E7022A60
:101BA8003DD1B0F57A7F06DA8000002CBFF67AAF17
:101BB80040F4805076E742F20F7398420CDCFEF74F
:101BC8008DFF1849FEF7E2FF0DF0E6FFFFF7E0F999
:101BD800800040F00100E8E7164B98420CD8FEF769
:101BE8007DFF1149FEF7D2FF0DF0D6FFFFF7D0F9C0
:101BF800800040F00200D8E7B0F57A2F0CD2FEF74B
:101C08006DFF0B49FEF7C2FF0DF0C6FFFFF7C0F9E5
:101C1800800040F00300C8E740F6FF70C5E70020E9
:101C280040E700BFCDCCCC3D0AD7233C17F00100DC
:101C38006F12833A9F8601000023036070470000FB
:101C480038B5084B09291B7828BF09218B4204465F
:101C58000D4602D10023036038BD01F031FD257126
:101C68002060F9E7F4020020036810B504460BB9B8
:101C7800002010BD01F024FD2368C01A40F2EE23B5
:101C88009842F5D90023054A2360127823799A42AD
:101C9800EED0034A0120D377EBE700BFF40200201F
:101CA80050030020FF2343710023017183710381D6
:101CB8008372704738B5037904460D465BB14179A4
:101CC800A94208D041B101290AD00023A371657146
:101CD80055B1012D0FD038BD03689B689847F4E7CC
:101CE80003680021DB68F9E723689B680121204627
:101CF8009847A071EFE723682946DB68F7E72DE9E5
:101D0800F04F077CC37B857CC67C90F815E090F883
:101D1800208090F80EC0BF000C4647EA931703F0E6
:101D28003F01437C03F0010247EA822705F00F02D6
:101D3800D20142EA530206F07F031B0143EA15135E
:101D4800057D89B06D0045EAD6150EF003060593AA
:101D580045EA4623867D009306F01F05AD0145EA56
:101D68009E03C57D90F819E00193ED0045EA5613EE
:101D7800057E02930EF0070645EA0623857E039347
:101D880005F03F06760146EADE03C67E90F81CE0C1
:101D98000493B60046EA95160EF0010546EA852634
:101DA800457F069205F00F0B4FEACB1B4BEA5E0B03
:101DB80090F81EE00EF07F0A4FEA0A1A4AEA151A4E
:101DC800C57F6D0045EADE1508F0030E45EA4E258D
:101DD80090F821E00EF01F094FEA891949EA98099D
:101DE800490190F82280407B41EADC010CF0070CA5
:101DF80040EA0C204FEAC80848EA5E180791FFF746
:101E080039FA079920800846FFF734FA6080384687
:101E1800FFF730FA069AA0801046FFF72BFA059BC9
:101E2800E0801846FFF726FA20810098FFF722FA8B
:101E380060810198FFF71EFAA0810298FFF71AFA4D
:101E4800E0810398FFF716FA20820498FFF712FA48
:101E580060823046FFF70EFAA0825846FFF70AFA6A
:101E6800E0825046FFF706FA20832846FFF702FA79
:101E780060834846FFF7FEF9A0834046FFF7FAF96A
:101E88004FF48063E0832384638409B0BDE8F08F56
:101E98002DE9F04104460F4601F01EFC4FF0010801
:101EA8000546236820461B689847064650B9A37A1A
:101EB800012B1FD12389ED1A40F6C4139D42C8BFD8
:101EC800A07217E0236820465B689847A37AA3B9F5
:101ED8000F2814D1A4F80A80E37AE2180133DBB2A0
:101EE800182B1073E3720AD939462046FFF707FF0B
:101EF8000023A3723046BDE8F081012BECD0258188
:101F0800CFE7827922B14379012B01D8FFF7C0BF0F
:101F1800002070477047704770470020704770472F
:101F2800002070470020704770470020704700204D
:101F380070474FF0B04382B0DA6C0243DA64DB6C6E
:101F480003400193019B02B070474FF0B04382B049
:101F58009A6D02439A659B6D03400193019B02B001
:101F680070474FF0B04382B01A6E02431A661B6E78
:101F780003400193019B02B0704750E8003F43F0D3
:101F8800800340E80032002AF7D1704750E8003F4C
:101F980023F0200340E80032002AF7D1704750E8C8
:101FA800003F23F0400340E80032002AF7D1704791
:101FB80050E8003F23F0800340E80032002AF7D1C0
:101FC800704770470288044B5140C9B233F811304A
:101FD80083EA122303807047683E01089AB110B45F
:101FE800B0F800C0084C0A4411F8013B83EA0C031E
:101FF800DBB2914234F8133083EA1C2CA0F800C0FD
:10200800F2D110BC70477047683E010837B54FF6EB
:10201800FF730446ADF806304518AC4203D1BDF84D
:10202800060003B030BD14F8011B0DF10600FFF7E0
:10203800C9FFF2E701207047074B1B784BB9074BE4
:102048001888074B1B8880B29BB2C01A18BF0120A2
:1020580070470020704700BF30000020DC3D0020A2
:10206800DA3D0020704700000649074A0B881288AD
:102078000133C3F3080392B29A421EBF034AD054F5
:102088000B807047D4330020D2330020D231002097
:102098000023A0F87032A0F86E3270470023A0F831
:1020A8005C32A0F85A3270473A4B5A6A037A92B2B5
:1020B80063B18389D31A9BB2B3F5FA7F84BF002337
:1020C8000372837A4F2B84BF00230372037A8281C1
:1020D800082B0FD8DFE803F0050E0E0E0E0E0F17B3
:1020E8002200EE2901D0C82904D101238372417549
:1020F800062303727047837A5A1C03448272597507
:1021080041720723F5E7827A531C0244DBB28372DB
:102118005175427A9A42EDD20823EAE7837A5A1C2B
:10212800034482725975C37D162B04D1012380F8AC
:1021380065300923DDE74369174A03F0FF2393421B
:1021480003D1012380F86730F3E7144A93421CD186
:10215800837E102B19D1C37E022B08D0052B0DD0FE
:10216800012BE6D1027EEE2A08BF80F86A30037E92
:10217800EE2BDED1012380F86B30DAE7012380F8FB
:102188006830037F80F86930D3E7012380F8663030
:10219800CFE700BF0044014000C8002800C8003253
:1021A800044B1888044B1B8880B29BB2C01A18BF16
:1021B80001207047D4330020D23300200278024B2C
:1021C80051405B5C03707047E82A0108FF230370E5
:1021D800704700BF7047B0F86E32B0F870229B1A93
:1021E80098B21B0444BF00F5006080B2003818BFE5
:1021F80001207047A0F11400EDE7B0F87022B0F8A4
:102208006E12914203461FBF8118013291F8740281
:10221800B3F872121ABF0A40A3F870220020704760
:10222800A0F11400E9E770B50B7803704B784370A0
:102238000B78FD2B05460C4638D18B788370CB780C
:10224800C3700B7903714B7943718B7983718B68F8
:10225800C3718B68C3F30F2303728B7A43720A2608
:10226800627804F10C01A8190EF042FE6378B4F804
:102278000C213344981CEA545A1CB4F80C1192B23D
:10228800090AA954A278D20780B20ED504F588723B
:10229800054404F58E7452F8041B45F8041BA24249
:1022A800F9D112782A700F3398B270BD00238B7061
:1022B8000B7983704B79C3708B7903718B68437189
:1022C8000626CDE738B54A78352A0D46044601F189
:1022D8000C010AD80EF00CFE68780021C0F1360215
:1022E8002044BDE838400EF09BBD403551F8043B12
:1022F80040F8043BA942F9D10B88038038BD38B5B2
:102308004A781B2A0C46054601F10C010AD80EF042
:10231800EFFD60780021C0F11C022844BDE8384078
:102328000EF07EBD283451F8043B45F8043BA14229
:10233800F9D138BD38B54A78082A0D46044601F166
:102348000C010AD80EF0D4FD68780021C0F109020A
:102358002044BDE838400EF063BDEB6803604B686D
:1023680043600B7A037238BD38B54A78072A0C46A1
:10237800054601F10C010AD80EF0BAFD607800217B
:10238800C0F108022844BDE838400EF049BDE368B2
:1023980003604B68436038BD08B524220348002118
:1023A8000EF03EFD024B00221A7008BDE40C00201E
:1023B800A80500202DE9F0411378037092F80180F8
:1023C80080F80180FD2B04460F46154654D19378BA
:1023D8008370D378C37013790371537943719379F8
:1023E80083716B7A127A1B0403EB0223EA79134494
:1023F80023F07F430A26A26863F31702A260A91993
:10240800424604F10C000EF073FD7A7B904507D22A
:1024180008F10C00A2EB0802002120440EF000FD98
:1024280063781E44AB195A78AB5D03EB0223A4F81A
:102438000C31A378DB070ED5023615FA86F304F5BE
:10244800887203F10C0153F8040B42F8040B8B4219
:10245800F9D11B781370BB7A84F82131FB7A84F8A0
:1024680022313B7B84F823317B7B84F824313B7811
:1024780084F82031BDE8F08100234380937803710C
:10248800D37843711379837153790626B3E738B546
:102498004A78132A0C46054601F10C010AD80EF0B9
:1024A80027FD60780021C0F114022844BDE83840B7
:1024B8000EF0B6BC203451F8043B45F8043BA14269
:1024C800F9D138BD2DE9F04F0C465188B1F58C7F14
:1024D800054685B04FF0000010D31070D91CC9B262
:1024E800012995BF01210023518053809CBF23708F
:1024F80011700020287005B0BDE8F08F16780E2EF8
:1025080000F2908001A757F826F000BFE5240008E4
:102518005125000879250008972500082D26000870
:102528002D2600082D2600082D2600082D26000837
:102538002D2600082D2600082D2600082D26000827
:102548002D260008A9250008481C508063542178CE
:10255800FD299BB206D10C330A21D3809180022336
:102568001370C6E708330621D38091800E23F7E75E
:10257800481C50806354D80742BFD1880D31D180A0
:102588000020012B8CBF034603231370B2E7481CBD
:10259800508000208342635414BF03460E23F4E79F
:1025A800481C508063545388D1888B4232D300230F
:1025B8005380137002232B7069802378FD2B37D149
:1025C80063792B72A3796B72637A227A1B0403EB0B
:1025D8000223E27913446B60637803F10C026A808A
:1025E800A278D10701D519336B8000266968DFF816
:1025F80000816E814FF4BC720C20B31801335B0864
:1026080000FB03F758F80770B9421AD25A1EB242B3
:10261800F3D818E092889A423FF66BAF01232B70EB
:10262800002068E7107050809080D0802870F7E70D
:10263800E3782B7223796B7263796B606378083364
:10264800D2E71E46E3D80C27774358F8073099425B
:1026580027D123782046FD2B10F801BF0CBF4FF07F
:102668000A094FF0060909EB0B03591E89B24744C2
:102678000193FFF7CBFC97F804A0ADF80E00514684
:102688000DF10E00FFF79EFC019BE218E35C527807
:1026980003EB0223BDF80E209BB29A4209D0052015
:1026A80000E003202870023801288CBF0020012098
:1026B80021E7BB79DA0706D5FA79934582BF04EB9F
:1026C80009018A5CAA729B0709D50C2303FB0683C0
:1026D80062781B7A9A4282BF4C44E35CEB720C230B
:1026E80003FB068385F80CA05B796B730220DAE79D
:1026F800E82B0108084B5B6A4FF0402202F5806323
:1027080053E8003F43F0200302F5806040E80031C1
:102718000029F3D1704700BF004400400A4A0B4B20
:1027280012680B49A3FB02323220920C00FB02F222
:10273800084B486802F5FA72A3FB023292094B680B
:102748001B1A9A42FBD870477002002083DE1B4395
:10275800001000E0D34D621030B587B0034601ACDD
:1027680000F1100518685968224603C20833AB42C5
:102778001446F7D10024094D8DF81440A96801A822
:10278800FDF7F6FC10B920B207B030BD01342E2C8D
:1027980005F10C05F2D14FF0FF30F5E734000020C9
:1027A80002780A4B90F801C08178D243D2B29A5C81
:1027B80082EA0C0290F803C09A5C4A40995C02795C
:1027C80081EA0C01595C4A40985C7047E82A010884
:1027D800028810B58488531C234044889C421EBF3D
:1027E80012189171038010BD411A88B20B0444BFBE
:1027F80000F5007080B2704770B5104C0025234674
:1028080026782EB166788E4202D1A67896420BD0F1
:1028180001350C2D04F10404F2D1002413F82450DE
:102828001DB101340C2CF9D170BD012503F82450D9
:1028380003EB8403D87059709A70F5E7AD05002052
:102848002DE9F8430B460D795A7A9E7ADF7A204BA8
:10285800097A1B5CDB07044600D50DB9FFF7CCFFEE
:1028680000231C491A4898464FF0010E9C4201F873
:10287800018B25D02DB90278920702D501F801EC19
:102888001EE0154A4FF0000C92F80090B9F1000FC5
:102898000FD092F8039099450BD1002EEED092F804
:1028A8000190B14505D1002FE8D092F80290B945C2
:1028B800E4D00CF1010CBCF10C0F02F10402E3D1DD
:1028C8000133DBB2042B00F10100CFD1BDE8F8835E
:1028D800DD050020A9050020AD05002007B5036827
:1028E8008DF807101B6901220DF10701984703B005
:1028F8005DF804FBF0B50546FD2305F80C3B85B0F3
:1029080004468DF8043090F8243103F10C02024497
:10291800012B42D80026637066808DF805308B7ACB
:1029280023718DF808308B7AADF8066001338B720D
:1029380063798DF80930A3798DF80A30A368C3F359
:1029480017031A128DF80B3009211B140DF105001D
:102958008DF80D308DF80C20FFF758FB6778ADF82F
:1029680002003A4629460DF10200FFF737FB94F8BA
:102978002311FFF727FB94F82421BDF80230A4F8AF
:102988000C31974210D207F10C00D21B314620447B
:1029980005B0BDE8F0400EF043BA12F8010D00286A
:1029A800B8D1013BDBB2B3E705B0F0BD704700001A
:1029B800044AD2F8903023F40043C2F89030FFF76D
:1029C800ADBE00BF0004005808B5FFF7A7FE044AD3
:1029D800D2F8903043F40043C2F8903008BD00BFED
:1029E80000040058054B1B783BB9054A1380054A7B
:1029F8001380054A1380054A138070473000002071
:102A0800DA3D0020DC3D0020DE3F0020E03F0020D2
:102A1800064B1B7843B1064A00231380054A1380EE
:102A2800054A1380054A1380704700BF3000002014
:102A3800DA3D0020DC3D0020DE3F0020E03F0020A2
:102A4800074B084A5B6A02F5006353E8003F43F00E
:102A5800200302F5006040E800310029F3D17047F7
:102A68000038014000300140064B187840B1064B51
:102A78001888064B1B8880B29BB2C01A18BF012069
:102A8800704700BF30000020DC3D0020DA3D002008
:102A980070B5044608460D46FDF774FB236882B2FC
:102AA800294620461B69BDE87040184708B5FFF75E
:102AB800EFFF08BDB0F1904F02D10120FFF739BAFE
:102AC800084B984205D003F58063984203D104204F
:102AD800F4E70220F2E7044B984201D18020EDE7A9
:102AE800704700BF00040048001C00480C4B984287
:102AF80003D14FF40060FFF734BAB0F1804F05D02E
:102B0800084B984205D14FF40030F4E70120FFF755
:102B18001CBA054B984202D14FF48020EBE770476E
:102B2800002C014000440140004801402DE9F043D9
:102B380087B00E46054614460021142201A89DF8C8
:102B480038809DF83C901F460EF06AF900960B2CD1
:102B580007D8DFE804F007070A121414141616162B
:102B68001A1CFEE70323019301E002230493032FB9
:102B780011D8DFE807F0111321110123F6E701232B
:102B8800F1E7012301930393F1E70223EBE7022323
:102B980001930123F7E7FEE702230293B8F1100F30
:102BA8000CD8DFE808F02D2D0C11131517191B1D73
:102BB8001F21232527292B000123EEE7FEE7012308
:102BC8000593022301931EE00223F9E70323F7E7A5
:102BD8000423F5E70523F3E70623F1E70723EFE7E7
:102BE8000823EDE70923EBE70A23E9E70B23E7E7E7
:102BF8000C23E5E70D23E3E70E23E1E70F23DFE7E7
:102C0800B8F1000FDDD1B9F1000F02D02846FFF767
:102C180051FF053C042C05D8DFE804F0030B04033E
:102C28000B00AE62694628460BF0A4FE07B0BDE86B
:102C3800F083AE61F6E713B54FF0010C0024CDE93F
:102C4800004CFFF773FF02B010BD000007B50E4837
:102C5800FFF79CF9036823F001030360436843F41A
:102C680000434360036843F0010303600821002325
:102C7800CDE900130A2203234FF09040FFF756FFD7
:102C880003B05DF804FB00BF0044004030B587B0D6
:102C9800002315460446ADF80630FFF727FF042D3C
:102CA80004D8DFE805F02E3204363F00FEE71E4B5D
:102CB8001E4A1B68B3FBF2F39BB20022CDE9022146
:102CC800013B01A92046ADF80430049205920CF0AE
:102CD8007DF8236823F080032360A36823F4A033DE
:102CE80023F00703A360636823F0700363606368DD
:102CF80023F470036360A36823F08003A36007B024
:102D080030BD094B0A4A1B68D4E7074B094A1B68C0
:102D1800D0E7054B064A1B68B3FBF2F303EB8303CA
:102D28005B00C9E70123C8E77002002080A81201F0
:102D380040420F0000127A0010B50446FFF7A6FFC4
:102D4800236843F00103236010BD00224FF0FF31D8
:102D5800FFF7F2BF1A4B10B51A4C5B6823600AF0F4
:102D68006FFF4FF090400BF0C7FD17480BF0C4FD04
:102D780016480BF0C1FD16480CF062F815480CF027
:102D88005FF80BF055FF4FF0E02200231361536109
:102D9800936172B64FF0FF319A0002F1604202F57A
:102DA80061420133082BC2F88010C2F88011F3D1B8
:102DB80062B6034B1B6883F3088823689847FEE7CD
:102DC8000000FF1FA4050020000400480008004878
:102DD80000380140004400400749084A881AEFF3C8
:102DE8000883521A1A44013A013B984288BF0022CC
:102DF800AA210EF015B800BF000001200004000051
:102E0800044B5A69586910F0020018BFC2F38000D9
:102E1800704700BF000400584FF0B042D2F8943019
:102E280043F40043C2F894304FF47A7300BF013B77
:102E38009BB2002BFAD14FF0B043D3F8942022F480
:102E48000042C3F89420D3F894205204FBD40C4BCE
:102E5800D3F8902022F40042C3F890204FF47A72FD
:102E680000BF013A92B2002AFAD1D3F8902042F476
:102E78000042C3F890204FF400629A61704700BF87
:102E88000004005810B50323052240214FF090405C
:102E9800FFF7D1FEBDE810400323052280214FF043
:102EA8009040FFF7C8BE08B5FFF7AAFF003818BF63
:102EB800012008BD08B5FFF7F6FF00B908BD00BF3F
:102EC800F9E74FF0904380229A6240229A61704756
:102ED8004FF0904340229A6280229A617047000026
:102EE800024B4FF480225A60704700BF00E100E0B7
:102EF8000023032202214FF09040FFF79CBE4FF0C1
:102F08009043186980F00200C0F340007047000049
:102F180010B5074C0023204605221021FFF78BFE31
:102F280020460023BDE8104005220821FFF783BE94
:102F38000004004805494B691A04DB4302F4801277
:102F480003F0100313438B61704700BF000400486F
:102F580005494B691A04DB4302F4002203F0080315
:102F680013438B61704700BF0004004808B5032273
:102F7800002302214FF09040FFF75DFE102200234E
:102F88004FF090410869800758BF013302F1FF32C2
:102F980058BFDBB212F0FF02F4D1082B024A8CBFF3
:102FA80000230123137008BD300000200C4BD3F818
:102FB800FC2022F08072C3F8FC20D3F8FC2042F0F9
:102FC8008072C3F8FC20A3F55D431A6822F0010261
:102FD8001A601A6842F001021A6000225A607047AB
:102FE80000ED00E00649074B074A1B68B3FBF2F304
:102FF80010B54C6843434A68121B9A42FBD310BD74
:10300800001000E07002002040420F001FB50223AC
:10301800CDE9013101A80123694603930AF07AFF3B
:1030280000280CBF0420052005B05DF804FB01460C
:1030380008B501200AF028FF00280CBF042005204D
:1030480008BD08B5FFF7E2FF031F5842584108BD05
:1030580008B5FFF7ECFF031F5842584108BD0000B0
:103068002DE9F047294B2A4D01280E4614462949D7
:10307800294A0FBF7D277C27AA461D4606BF8846DA
:103088009A4690460AF0B4FE39462846FFF7D9FF1B
:1030980028B900240AF0BEFE2046BDE8F087002EBD
:1030A80008BF4FF4FC64073424F0070405F1100747
:1030B800B1463444AAEB050AA1450BD14FF01132B1
:1030C8004FF0FF332846FFF7C3FF041E18BF012443
:1030D800A400DFE76EB90AEB0703D3E90023B3F1D5
:1030E800FF3F08BFB2F1FF3F06D1083709F10809D1
:1030F800E2E7D9E90023F2E7B84505D93846FFF7F2
:10310800A7FF0028F1D1C4E70324C3E700E00308C0
:1031180000E80308FFEF0308FFE7030810B50AF00B
:1031280067FE09487C21FFF78CFF044638B1074841
:103138007D21FFF786FF041E18BF0124A4000AF0B2
:1031480069FE204610BD00BF00E0030800E8030840
:1031580030B5084D002340F2EF749AB2914201D87D
:10316800042030BDA34203D05A5DC2540133F4E7B2
:103178000320F6E710E0030838B504460D4672B69A
:103188000A4601460020FFF76BFF62B6042806D105
:1031980072B601202A462146FFF762FF62B638BDA3
:1031A80038B5124B1C68D3F80058B4F1113F09D157
:1031B800B5F1113F17D0002211460120BDE8384073
:1031C800FFF74EBFB5F1113F03D10022114610465B
:1031D800F4E7FFF7A3FF042804D12C4001340CBF07
:1031E8000220012038BD0420FCE700BF00E00308EE
:1031F800044B9A689107FCD518739A68D207FCD5D6
:10320800187B70470000015870B50C46451E8E1893
:10321800B44200D170BD15F8010FFFF7E9FF04F8BB
:10322800010BF5E7084611461A46FFF7EDBF000007
:1032380070B5064E04464518A54200D170BD3078D9
:10324800FFF7D6FF04F8010BF6E700BF6402002081
:1032580008461146FFF7ECBF38B504464518AC429E
:1032680000D138BD14F8010BFFF7C2FFF7E7084695
:103278001146FFF7F1BF000010B58CB028220021DD
:1032880002A80DF0CDFD4FF0B0431C4C5A6E42F031
:1032980001025A665B6E03F001030193019BFFF77D
:1032A800BBFD082208924FF48272002303924FF468
:1032B8000072CDE90533CDE909330293079207235C
:1032C8004FF4E06202A920460B9304920BF044FDF0
:1032D800636823F010036360636823F00803636086
:1032E800236843F040032360A3689B07FCD5237B36
:1032F800034BFF221A700CB010BD00BF000001582C
:10330800640200201B4B10B4DC69A00611D51A68B2
:1033180091060ED5184819495A6A03880988013355
:10332800C3F30A0389B299421FBF1549D2B2CA54DE
:10333800038010481F232206036215D503681B0665
:1033480012D5104B104A1988138889B29BB299423A
:103358000CD013880133C3F30803138013880B4A76
:103368009BB2D35CDBB2836210BC704710BCFEF723
:103378001FBE00BF00380140DC3D0020DA3D0020C0
:10338800DA350020E03F0020DE3F0020DE3D00204F
:103398000A490B4A08B50B8812880133C3F308039E
:1033A80092B29A4207D0074AD05407480B80FEF7DA
:1033B800E4FD012008BD0020FCE700BFE03F00203D
:1033C800DE3F0020DE3D00200038014038B50446CD
:1033D8004518AC4200D138BD14F8010BFFF7D8FFEF
:1033E800F7E70000034B1B78084611460BB9FFF7B7
:1033F800EDBF704730000020034B1B78084611468C
:103408000BB1FFF7E3BF704730000020054B064AB9
:103418001B8810880133C3F3080380B2181A18BF39
:1034280001207047E03F0020DE3F002008B5044B34
:10343800187820B1FFF7EAFFB0FA80F0400908BD1C
:103448003000002008B5054B1B782BB9FFF7DEFFCD
:10345800B0FA80F0400908BD0020FCE730000020E9
:10346800054B064A1B8812889B1A98B21B0444BF56
:1034780000F5006080B27047DC3D0020DA3D002096
:10348800024B187808B1FFF7EBBF704730000020F7
:103498000848094A0188138889B29BB29942F9D031
:1034A80013880133C3F30A0313801388034A9BB2BA
:1034B800D05C7047DC3D0020DA3D0020DA35002082
:1034C800024B187808B1FFF7E3BF704730000020BF
:1034D800034B1B780BB9FFF7DBBF0020704700BF19
:1034E8003000002070B588B00C460646154600210D
:1034F800202268460DF094FC231E18BF01231B03ED
:10350800CDE9023569460C230348019604940593D6
:103518000BF0BAFC08B070BD0038014010B5064C7D
:10352800236823F001032360FFF7DCFF236843F0DF
:103538000103236010BD00BF00380140044B1B7815
:1035480008461BB100221146FFF7E8BF704700BFCD
:103558003000002000221146FFF7E0BF73B5324C5F
:10356800236823F001032360082501264FF48040D7
:10357800FEF7F7FC4FF40071CDE9005603230A2249
:103588004FF09040FFF7D2FA03231A46CDE90056D0
:103598004FF480614FF09040FFF7C8FA00221146BF
:1035A8004FF4E130FFF79EFF636823F490436360B4
:1035B800A36823F02A03A3601C4BB02283F82423BA
:1035C80010225A602046FEF7F3FCFEF7E8FC402381
:1035D8002362174B00211980164B1980FEF7D6FC81
:1035E800154B1980154B1980636823F400636360D9
:1035F800A36823F00803A360636823F4804363602F
:10360800A36823F02203A360A36843F48053A36054
:10361800236833432360E3699A02FCD5E3695B02BC
:10362800F9D502B070BD00BF0038014000E100E0EC
:10363800DE3F0020E03F0020DA3D0020DC3D002096
:1036480008B5FFF78BFFBDE80840FFF7F9B90000A0
:1036580008B5FFF7F5FFFFF789FC054B1B782BB979
:10366800BDE808404FF4E130FFF774BF08BD00BF64
:1036780030000020024B1A68024B1A60704700BFE6
:10368800F03F0020D00A0020054A064B196813684D
:1036980099421DBF0133012013600020704700BF0D
:1036A800D00A0020F03F0020034A044B11681B7821
:1036B8000B441360704700BFF03F002074020020E5
:1036C800014B1868704700BFF03F00200148FFF722
:1036D8003CBB00BF00440140014B586A80B27047B0
:1036E8000044014008B5FFF7F1FFBDE80840FFF7C7
:1036F800C1BF000038B51C4C1C4D94220021201D70
:103708000DF08EFB06232380162363800F23A380EE
:1037180005222C232946A01DFDF748FF144A154B06
:10372800C4E90D234FF47023E36305222C232946B3
:1037380004F14000FDF73AFF0223A4F86E304FF47D
:10374800803323670C49002304F18000C4E91E3349
:1037580084F874300DF0C4FB7F2384F8953005237A
:1037680084F8963038BD00BF0C050020C823010836
:1037780002000F00030005001411010870B5094E7E
:1037880005460C46415C30460DF061FB034628B106
:10379800831B0133DBB2282B28BF0023F35C2B5596
:1037A80070BD00BFBC2A010870B50C46114606461C
:1037B8000DF096FB44B10025052130460135FFF791
:1037C800DDFFEBB29C42F7D870BD000073B505462B
:1037D80005F11106214C224A014636016846FFF7D9
:1037E800E3FFB01C694620440DF07AFB264404EB45
:1037F800051201237372A2F81A31142202FB054044
:1038080040F2011102264FF480750322A0F84A60A5
:10381800C36480F85020A0F85230002280F8553058
:10382800A0F85650A0F8581040F2032084F834202D
:10383800E684A562A08584F82E3084F8303084F8B8
:103848003320C4F83A20C4F83E20C4F84220A4F833
:103858004610A4F8481002B070BD00BF5003002005
:10386800D4100108F7B50546AF4CB04A05F111066A
:10387800014637016846FFF797FFB81C2744694699
:103888002044FDF78FFD7B7AA94A052B88BF0223C8
:1038980004EB061088BF7B721188437A41FA03F360
:1038A800DF070FD40223437261B14807C1F38003D5
:1038B80008D441FA03F7FF07D8B240F1D18104EBED
:1038C8000613587204EB05112B0191F81A0105280B
:1038D80002D9012081F81A01E718508897F81A11BF
:1038E80040FA01F1C90711D4012187F81A1168B10A
:1038F8008707C0F3400109D440FA01FC1CF0010F0E
:10390800CFB200F0B281E11881F81A71E11891F88C
:103918001B01032802D9002081F81B0104EB0616BD
:10392800717A012903D9042901D000219180E61870
:10393800908896F81B1140FA01F111F001010ED19F
:1039480086F81B1158B110F0010108D140FA01F7AF
:10395800FF07CEB240F18E81234483F81B61142304
:1039680003FB054191F84A00042802D9022081F896
:103978004A0003FB054393F84B10042902D90021A0
:1039880083F84B10142303FB0543918E93F84B00E7
:1039980041FA00F0C00712D4012083F84B0071B13E
:1039A8008807C1F340030AD441FA03F6F707D8B2EF
:1039B80040F16581142303FB054383F84B0014236E
:1039C80003FB054393F84C10032902D9012183F81E
:1039D8004C10142000FB0540D18E90F84C3041FA71
:1039E80003F313F0010310D180F84C3069B111F0E2
:1039F80001030AD141FA03F6F607D8B240F144812F
:103A0800142303FB054383F84C00142303FB0543ED
:103A180093F84E10012902D9002183F84E10142082
:103A280000FB0540118F90F84E3041FA03F313F074
:103A3800010310D180F84E3069B111F001030AD1A9
:103A480041FA03F6F707D8B240F12381142303FBA8
:103A5800054383F84E00142303FB054393F84F10E6
:103A6800022902D9002183F84F10142000FB0540D9
:103A7800518F90F84F3041FA03F313F0010310D13E
:103A880080F84F3069B111F001030AD141FA03F609
:103A9800F607D8B240F10281142303FB054383F8EB
:103AA8004F00142303FB054191F84D00022802D969
:103AB800002081F84D0003FB054393F850100529B9
:103AC80002D9032183F85010142303FB054191F810
:103AD8005200012802D9012081F8520003FB054356
:103AE80093F85510012902D9012183F855101423A0
:103AF80003FB054393F85310022902D9002183F8E8
:103B08005310142000FB0540918F90F8533041FA70
:103B180003F313F0010318D180F85330A9B111F061
:103B2800010312D106E000BF50030020D4100108A1
:103B38000C05002041FA03F6F707D8B240F1B3802C
:103B4800142303FB054383F85300142303FB0541A7
:103B580091F856000C2802D9002081F8560003FB82
:103B6800054393F84C10012906D193F84F10022908
:103B780004BF002183F84F10142303FB05430121E0
:103B880083F8571040F20111A3F8581094F8263022
:103B9800042B02D9022384F8263094F82730042B0A
:103BA80002D9002384F82730B2F86E0094F8273041
:103BB80040FA03F313F0010F804B0ED1012184F872
:103BC800271050B18607C0F3400106D440FA01F728
:103BD800FF07CEB26CD583F8276094F82810022925
:103BE80002D9002184F8281094F82910022902D952
:103BF800012184F82910B2F8701094F8292041FAAC
:103C080002F212F001020CD184F8292049B111F016
:103C1800010206D141FA02F6F607D0B24CD583F874
:103C2800290094F82A200C2A02D9002284F82A2094
:103C380093F832200C2A02D9002283F8322093F814
:103C48002B20042A02D9002283F82B2000225C4969
:103C5800104611F9014F14F1780F31DA087031E08C
:103C68000133102B7FF425AE2CE6013110297FF4A7
:103C780043AE4BE6013110297FF468AE6FE601339D
:103C8800102B7FF491AE9AE60133102B7FF4B2AE7D
:103C9800BBE60133102B7FF4D3AEDCE60133102BE7
:103CA8007FF4F4AEFDE60133102B7FF443AF4CE70D
:103CB800013110298AD190E70132102AAAD1B0E740
:103CC800782CCBDC0132D2B20C2AC2D13D49002279
:103CD800012011F8014F0132022CD2B288BF0870BE
:103CE800042AF6D193F83420012A02D9002283F855
:103CF8003420354AB2F8721093F8342041FA02F2AF
:103D080012F001020CD183F8342049B111F00102FC
:103D180006D141FA02F4E407D0B211D583F8340091
:103D280093F82C20052A02D9032283F82C2093F833
:103D38002D20032A08D80AD1002283F8342006E06F
:103D48000132102AE5D1EBE7022283F82D2093F8FF
:103D58002E20022A02D9012283F82E2093F830203F
:103D6800022A02D9012283F8302093F833200C2A42
:103D780002D9002283F83320142101FB0531FF22E8
:103D880003EB05154FF6FF7081F8512081F8542098
:103D980083F82F2083F831204FF0FF32C5F81C211B
:103DA800A5F820011A629A84A1F85A20A1F85C208B
:103DB80083F83500DA861A8703B0F0BD5003002077
:103DC80089030020950300200C05002030B5052844
:103DD80004D8DFE800F01E0423191E23FEE720257F
:103DE8001F2400220F21104B98700338012894BF1C
:103DF800002001201A7119771A74A3F84850A3F803
:103E08004A409873987630BD09256F24002207210F
:103E1800E9E71425322400220A21E4E73525132492
:103E280001221921DFE700BFF40200202DE9F74342
:103E380000F11105944F954C2D0105F10209B94483
:103E480006464846FDF7CAFA3D44042180460190DB
:103E58000DEB0100FEF7DAF86B7A637007EB0613D7
:103E6800E083C4F8088093F81A01C4F814804FF06E
:103E7800010884F85180A4F85280A4F85480FFF710
:103E8800A5FF142303FB0673350193F84A20804BE2
:103E980013F92230237323766378052B09D8DFE8DA
:103EA80003F0030656585A5C0023637301E084F854
:103EB8000D80784B617B1B88617603F001029807BF
:103EC80048BF42F00202A2855A0748BFA28D84F873
:103ED800281044BF42F00402A285180742BFA28DF1
:103EE80042F01002A285DA0642BFA28D42F02002FB
:103EF800A285980642BFA38D43F00803A38500233B
:103F080084F82A3021B94846FDF788FA84F82A004F
:103F18003D4495F81B2184F829206AB1E18B02EB16
:103F2800021303EB03230B44E383A3684FF011311F
:103F380001FB0233A360636194F82850E38B63624A
:103F4800052D0CD8DFE805F00C515315474902231D
:103F5800ABE70423A9E70523A7E70323A5E7FEE7C3
:103F6800A378032B03D8DFE803F003464403FEE7F6
:103F78001825DFF824C184F820501CE90F008CE8CC
:103F88000F0040F2E2432846A4F84C30FCF7AAFDA3
:103F98004FF07F51FCF7FAFDFCF7FAFFB4F8482020
:103FA8004FF47A73B3FBF2F3A4F84030142303FB05
:103FB80006736D08052D93F85030C0B238BF05253B
:103FC800A4F84E0084F85050052B3DD8DFE803F0E4
:103FD800154236393C3F0225CBE7A378022B08D09F
:103FE800052B06D0012B06D0FEE71925C1E70625CB
:103FF800BFE70C25BDE71225BBE74FF416536364F2
:10400800002384F8563084F85830142303FB0676CE
:1040180096F84C20032A03D096F84F30022B02D191
:10402800012384F85630511E4B424B4194F85610E8
:1040380084F8573089B1012A0FD1FEE74FF41643AF
:10404800DDE74FF46143DAE74FF4E133D7E74FF4A4
:104058006133D4E74FF49643D1E72378142000FB6B
:10406800037393F84C30022B07D1012384F858309E
:1040780021B194F858301BB1FEE709B9012AF8D0EC
:1040880003B0BDE8F08300BF50030020F402002015
:10409800C82301080C0500202403002002484FF41F
:1040A800DE72FF210CF0BCBE5003002002484FF422
:1040B800DE71FFF761B800BF5003002002484FF4DB
:1040C800DE71FFF745B800BF5003002008B5FFF7C1
:1040D800F5FF034B1878BDE80840FFF7C3BB00BFE6
:1040E800F402002038B5FFF7D9FFFFF759F8042884
:1040F8000CD0FFF7D3FFFFF753F8042803D1FFF7DD
:10410800DDFF042806D0FFF7C9FF03E0FFF7D6FF5D
:104118000428EED12F4930482F4C10220CF0A4FE71
:1041280038B12E49102220460CF09EFE08B1FFF748
:10413800B5FFA38AB3F5215F28D008D30025E8B2DC
:104148000135FFF743FB0A2DF9D10023E3774FF43C
:104158002153A382012522691E491F4842F64303C1
:104168009A424FF010021CBF236101250CF07CFE1F
:1041780070B1184918481022FDF796FA18491948DD
:104188000822FDF791FAFFF791FF03E00025E2E727
:10419800002DF8D1E37F104A092B84BF0023E37771
:1041A800E17F1420002300FB0144013394F84C0004
:1041B80082F84C000A2B02F11402F6D10A4C217045
:1041C800FFF798FA2078FFF74DFB2078BDE83840D4
:1041D800FFF72CBEDB10010850030020EC1001088B
:1041E800FD10010802050020F402002030B5C01AB5
:1041F8001628A8BF16206FF00805A8429DF80C40A5
:10420800B8BF2846A042C8BF20B2C0B20870184440
:10421800107030BD07B5084611461A46162300939C
:104228000023FFF7E3FF03B05DF804FB0129F7B5AE
:10423800054600D9FEE70B4E06EB01131C460F019D
:104248006278F15D03619B780BF060F9E379019383
:10425800A379009322796379E17828460BF07DF9F8
:1042680003B0F0BD8840010838B5836804466BB1D7
:10427800024652F8183BDD6900F11903A847217E70
:1042880020460222BDE838400BF0C9B938BD00000D
:1042980070B58160897A86B0044601B101210BF0BE
:1042A8000EF920460BF09DFA20460BF075FA217B9B
:1042B800FF2903D0FA2220460BF07AFAA3685B7A2A
:1042C800013B042B04D8DFE803F0043E3E414100E3
:1042D800FEE7E922E12120460BF0A8FA0121204659
:1042E8000BF037FA962120460BF074FA3821204655
:1042F8000BF086FA20460BF08BFAA368204693F958
:104308000810FFF7B1FFA3689D7A15B31978204606
:10431800FFF78CFF0022114620460BF0EAF8002335
:10432800009340F2032220464FF6FF710BF044F948
:1043380020464FF6FF710BF066F9204606B0BDE83F
:1043480070400BF016BADB22D721C4E76F226B212D
:10435800C1E70F4B0F49DE8B0F4B63614CF25033B3
:104368000093204619230B220BF06EFA0123CDE9A6
:1043780003335B23CDE901531023194620460095EA
:1043880004220BF09FFA314620460BF0BFFAC1E732
:10439800F4020020A08601006840010810B5044618
:1043A8000BF0E7F920464FF6FF71BDE810400BF01F
:1043B8002AB9000038B58168036891F90810DD69E9
:1043C800044600F1190300F11802A847A3689A7A75
:1043D80042B11A78012A00D9FEE7044B03EB021315
:1043E800236138BD024B6361FBE700BF88400108C9
:1043F8006840010810B50A4CA06858B1236923B970
:10440800636913B92046FFF7D5FFA3689B7A23B1E8
:1044180023699868A0F57A7010BD63699869F9E70F
:10442800D4300020836810B5044683B103691BB9F2
:1044380043690BB9FFF7BEFFA3689B7A1BB12369D9
:10444800B3F90C0010BD6369B3F91C00FAE718460C
:10445800F8E7836810B5044643B103691BB943699B
:104468000BB9FFF7A7FF94F9190010BD1846FCE730
:1044780090F8D8305BB190F8D930074A180102EBB0
:1044880003139B681978135853F821007047837DEC
:104498000E3350F823007047682301082DE9F341D3
:1044A8009DF824701646402F88464FF05B024FF067
:1044B800000104461D4628BF40270CF0B1FC904B74
:1044C800DB8B23803278A37862F30203A3707178C0
:1044D800C90001F00801DBB203F0070341EA081143
:1044E8001943A1707279E37862F30003E370B2793B
:1044F800637962F38613637196F90200FCF77FFE15
:10450800E37860F34703E370F279237962F30003F9
:104518002371327A62F3460323713279DBB202F0F7
:10452800010203F07F0343EAC213237132796379EE
:10453800C2F3450223F03F0313436371A37967F382
:104548004703A3712B78AA78E3716B7802F01F02F6
:1045580003F0070343EAC20323726A88637AC2F34B
:10456800451223F03F03134363722A79DBB202F04A
:10457800030203F03F0343EA82136372AB88C3F379
:104588008703A3726A79E37AC2F3800223F00103F6
:104598001343E372AA79DBB202F07F0203F001034E
:1045A80043EA4203E372EA88237BC2F3C31223F08F
:1045B8000F03134323732B7AAA7AE3736B7A02F0FF
:1045C8001F0203F0070343EAC20323746A89637C6A
:1045D800C2F3451223F03F03134363742A7BDBB213
:1045E80002F0030203F03F0343EA82136374AB89CA
:1045F800C3F38703A3746A7BE37CC2F3800223F0CE
:1046080001031343E374AA7BDBB202F07F0203F0D9
:10461800010343EA4203E374EA89237DC2F3C31228
:1046280023F00F03134323752B8ADB0863756B8A0A
:10463800DB08A375AB8ADB08E375EB8ADB08237616
:104648002B8BB3F5C06F4ED2B3F5007F94BF002318
:104658000123227B63F3051222736B8BB3F5C06FC2
:1046680043D2B3F5007F94BF00230123227B63F379
:1046780087122273AB8BB3F5C06F38D2B3F5007FC6
:1046880094BF00230123227D63F305122275EB8B6F
:10469800B3F5C06F2DD2B3F5007F94BF002301237B
:1046A800227D63F38712089B22751F4404F11802C8
:1046B800BB4220D14FF6FF7321460DF106000D22B3
:1046C800ADF80630FDF78AFC2146BDF8063021F822
:1046D8000D3F4C22FDF782FCBDF80630A4F8593096
:1046E80002B0BDE8F0810223B3E70223BEE702234C
:1046F800C9E70223D4E713F8011B02F8011FD7E723
:10470800F402002013B59DF81040CDE9003413469B
:104718000A460021FFF7C2FE02B010BD13B5144BC4
:104728000288DB8B9A4204461DD1837803F0F0039C
:10473800102B01D0202B18D1A379A52B15D84FF613
:10474800FF730DF1060059222146ADF80630FDF73A
:1047580045FCB4F85900BDF80630C01A18BF01204E
:10476800800002B010BD0120FBE70220F9E700BF7E
:10477800F402002030B5374B027893F8261061F325
:104788000302027093F8271061F30712027093F87E
:104798002810427861F30302427093F8291061F3FC
:1047A8000712427093F82A10827861F3030282702C
:1047B80093F83210827961F30302827193F82B1017
:1047C800827861F30712827093F83410C27961F32A
:1047D8000302C27193F82C10C27861F30302C2700D
:1047E80093F82D1061F30712C27093F82E10027916
:1047F80061F303020271427993F8301061F3030206
:10480800427193F83310827961F30712827103F1D0
:10481800390100F10A0200F1160411F9015F02F8EA
:10482800015FA242F9D193F84610C27D61F30102FB
:10483800C27593F8471061F38302C27593F8481064
:1048480061F30512C27593F8493063F38712C27594
:1048580030BD00BF500300200278314BC2F3030281
:1048680030B583F826200278C2F3031283F8272094
:104878004278C2F3030283F828204278C2F3031275
:1048880083F829208278C2F3030283F82A208279E8
:10489800C2F3030283F832208278C2F3031283F84A
:1048A8002B20C279C2F3030283F83420C278C2F302
:1048B800030283F82C20C278C2F3031283F82D2058
:1048C8000279C2F3030283F82E204279C2F303026D
:1048D80083F830208279C2F3031283F8332003F17E
:1048E800390100F10A0200F1160412F9015F01F81A
:1048F800015FA242F9D1C27DC2F3010283F84620CA
:10490800C27DC2F3810283F84720C27DC2F301123F
:1049180083F84820C27DC2F3811283F8492030BD54
:10492800500300201FB58DF80C300123019303AB11
:10493800009313460A460221FFF7B0FD05B05DF863
:1049480004FB0000F0B5224D012385F874300446BD
:1049580085B0B0F80900FCF74EFEA867B4F80B0064
:10496800FCF749FE1422E86704F10D0105F1800007
:10497800FCF7ACFE94F9213085F8953094F8223094
:1049880085F8963004F12300FFF766FF6E4604F1C0
:10499800410304F1510718685968324603C20833C5
:1049A800BB421646F7D10B482C2308226946FCF770
:1049B8007FFD94F85130A5F86E3094F85230A5F880
:1049C800703094F85330A5F8723005B0F0BD00BFD0
:1049D8000C0500204C0500202DE9F04792B0DFF8C7
:1049E80090A0244C0DF108084FF0400905460E46EA
:1049F800174600214A4640460CF012FA9AF8001071
:104A080004EB011122230DF10A00062201F5897138
:104A18008DF80830FCF748FE9AF8001004EB0112F4
:104A280005A892F81A3192F8194103F00F0304F01F
:104A38000F0444EA031492F81B3103F00F0344EA0D
:104A48000324BDF8103023F47F6323F00F031C43C5
:104A5800ADF81040FFF78EFECDE900893B4632469F
:104A680002212846FFF71AFD12B0BDE8F08700BF03
:104A7800F402002050030020034B04491A6804483C
:104A880001FB020018607047E40500200D6619005C
:104A98005FF36E3C38B50A4A0A4D13782C78A34266
:104AA80003D101332B70287838BD1470FFF7E4FF69
:104AB8006FF0004398423CBF01342C70F3E700BF0D
:104AC800E1050020E20500200A4A126882600A4ACD
:104AD800002383808371838103841368036153688F
:104AE800064A4361136883615368C3614EF66023C5
:104AF80003607047F03F0020031101080C11010802
:104B080010B5124C0220FFF761F92046FFF746FC6A
:104B18006FF07F012046FFF7A7FBA36803B9FEE704
:104B2800002120460AF0B4FC4FF47A70FEF75AFAD6
:104B3800204601210AF0C3FCA36820461978FFF734
:104B480075FB2046FFF72AFC10BD00BFD4300020BB
:104B580008B590F8203002468BB9FEF7D0F910B9A5
:104B680082F8210008BD92F8213001335BB2312B65
:104B780082F82130F6DD012382F82030F2E7FEF7D3
:104B8800BEF918B1322382F82130EBE792F82130D0
:104B9800013B5BB2002B82F82130D8BF82F820009D
:104BA800E0E70000134B90F820201B68CAB1826828
:104BB8009B1AB3F57A6F01D9012343710379ABB11D
:104BC8000D4B427B1B781AB1022B1CBF03220273C8
:104BD8009A1E534253414373837953B1032303739A
:104BE80070478360EAE701230371F8E74379002BF4
:104BF800F9D17047F03F0020BD0600200346007B36
:104C0800821E012A4FF0000202D893F8201009B939
:104C18001A7370471046704770B51B4C1B4E0546FB
:104C28005B22002120460CF0FBF82B6923606B699E
:104C38006360174B174D1B7831789A1E53425341C6
:104C4800627A05EB011163F30002627201F5897162
:104C5800062204F10A00FCF727FD337805EB03155B
:104C6800237C95F81A2162F30713237495F81B2106
:104C7800637C592162F3030320466374FDF7C6F988
:104C8800A4F8590070BD00BF19310020F4020020BB
:104C9800BD060020500300200A4A38B513880133A6
:104CA8009BB2502B04460D4601D8138038BD002313
:104CB80005491380FDF7ECFE29462046FDF7E8FE7E
:104CC800F4E700BFD40A00204E1201082DE9F84F7E
:104CD800154604460F466B496B4EFDF7D9FE29462B
:104CE8002046FDF7D5FE694B0022012F1A800FD10F
:104CF8001023B362082746F2A810B761FEF772F9CD
:104D0800B762FEF76FF929462046FFF7C5FFF2E7BD
:104D1800BB1E08220C2B00F2A880DFE803F031410B
:104D2800521C07A6A6A6626262626200564E4FF047
:104D380008081027C6F8188046F2A810B762FEF7D0
:104D480051F9C6F82880B761FEF74CF92946204684
:104D5800FFF7A2FFEDE74C4E4FF008081027C6F802
:104D6800188046F2A810B761FEF73CF9C6F828800B
:104D7800B762FEF737F929462046FFF78DFFEDE7C2
:104D8800B262414E102746F2A810B761FEF72AF921
:104D9800B762FEF727F929462046FFF77DFFF2E7BD
:104DA8001023B361384E082746F2A810B761FEF702
:104DB80019F9B762FEF716F929462046FFF76CFF86
:104DC800F2E7B261304E102746F2A810B761FEF73D
:104DD80009F9B762FEF706F929462046FFF75CFF96
:104DE800F2E7A7F1090BDFF8A0805FFA8BFB00263A
:104DF8004FF0080A5E453CBF1023C8F818304FF042
:104E0800040946F2A810C8F818A0FEF7EBF8C8F88D
:104E180028A0FEF7E7F809F1FF3929462046FFF7F1
:104E28003BFF19F0FF09ECD11023C8F828304FF0E8
:104E3800040946F2A810C8F818A0FEF7D3F8C8F875
:104E480028A0FEF7CFF809F1FF3929462046FFF7D9
:104E580023FF19F0FF09ECD10136A7F10803F6B2D8
:104E6800DBB2B34238BF0026C4E71023B261B36196
:104E78004CF25030FEF7B6F829462046FFF70CFFF3
:104E8800F6E700BF4E12010800040048D40A0020CB
:104E980008B5437802789A4213D0042B8ABF0423BA
:104EA80003700370027888BF4370064B064813F9F5
:104EB8002210064B19731976836813B11972FFF71C
:104EC800D3F908BDC8230108D4300020F40200201B
:104ED80010B50AB9437010BD541E0B2CFBD8033211
:104EE800D2B231F8122040F27E618A4207D95AB212
:104EF80022EAE2729A42C8BF5AB24270EBE7B2F5B0
:104F0800C17F02D29A1E52B2F2E740F2D4418A42DD
:104F180004D95AB2032A06DCDA1EF4E7B2F54B7F4D
:104F280003D35A1EEFE70122E4E70022E2E700007C
:104F380037B50C461D4668B907480DF106020DF154
:104F480007010AF0C5FB9DF8061003482B462246C8
:104F58000AF06FFA03B030BDD430002070B50D46AA
:104F680016461C460146A0B9FDF7ABFF0B48334671
:104F78002A460AF037FA09484FF6FF710AF043FB50
:104F88000648A1010AF058FBBDE870407D20FEF7F5
:104F980029B80248FFF702FA70BD00BFD4300020DC
:104FA80037B50C4638B91A48836833B9812281F875
:104FB8008C2081F88E3003B030BD9D7ADDB101F1CF
:104FC8008E020DF106010AF06DFB94F98E30002B6C
:104FD80004DABDF806201344ADF80630BDF90630F2
:104FE800002B0FDB4FF6FF73ADF80630BDF8063027
:104FF80084F88C30DFE70DF106010AF098FC84F89C
:105008008E50EBE77F33F1DA4FF68173ECE700BFA0
:10501800D430002070B5114C0D4606465B2322465D
:1050280021462846FFF784FFD6E906132068626800
:105038009A4208BF88420ED120465921FCF7E6FF64
:10504800B4F85940231A5C425C4128460449FFF7EA
:10505800A7FF601C70BD0024F7E700BF1A2F0020CF
:105068002C3000200A4608B501460148FFF72EFEFD
:105078002C00002000B591B00446684616461D462F
:105088000BF02EFF184968460BF0D2FE30460AF0A6
:10509800D7F8014668460BF0CBFE144968460BF07A
:1050A800C7FE134B684653F82510124D0BF0C0FE8F
:1050B800114968460BF0BCFE9DF84830684655F823
:1050C80023100BF0B5FE0D4968460BF0B1FE9DF8B4
:1050D8004C30684655F823100BF0AAFE08486A467B
:1050E8002146FFF7F3FD00BF151101081C11010847
:1050F800000000201C0000202111010828110108CF
:105108002C000020002303708370437003714371E7
:10511800C370704703780022022B427104D0032B1E
:1051280009D0012B16D0FEE7012303714371837860
:105138004370C370704783784278991AA3EB0202D0
:1051480018BF012112F0060F14BF012200220171BD
:105158004271EDE70271704702788170002A0CBF36
:10516800022203220270FFF7D5BF0000074B282256
:1051780002FB00339B681A78542A05D15878A0F1AD
:10518800780358425841704700207047DC230108D3
:10519800074B282202FB00339B681A78522A05D154
:1051A8005878A0F17803584258417047002070475A
:1051B800DC230108074B282202FB00339B681A787E
:1051C800542A04D15878783818BF01207047012034
:1051D800704700BFDC23010828230B4A434310B55E
:1051E800D1580446FFF7D4FF48B92046FFF7BEFF61
:1051F800064B1B7828B103EB830301EB83010846B8
:1052080010BD01EB0311FAE7DC230108F4020020CA
:105218002B2838B505461AD80E4B282202FB003336
:105228004CB21B79022B0DD0FE2B10D1FFF7D4FF07
:105238000378E4B2A3420AD004702846BDE8384097
:10524800FFF7B8BFFFF7C8FF90F90030F2E700207A
:1052580038BD00BFDC2301082B2838B504460D46AD
:1052680019D80E4B282202FB00331B79FF2B12D1D1
:10527800FFF7B2FF06222946FCF73BFA58B9204649
:10528800FFF7AAFF29460622FCF720FA2046BDE8C8
:105298003840FFF78FBF002038BD00BFDC2301086E
:1052A8002DE9F043074615462820394A414350184E
:1052B800012B046A87B025D15258364B9A4235D013
:1052C800A3F1CE018A4233D03349F23B9A4208BF58
:1052D8000C46FF238DF800304FF0000801262046C9
:1052E800FAF750FF5FFA88F9484529D806F11803FC
:1052F8006B44AE4203F8188C30D80020387007B0E1
:10530800BDE8F083022BE4D15258224B9A4211D0C7
:10531800591C8A4210D0A3F1CE018A420ED0A3F1C3
:10532800F2018A420AD01D49EC3BCFE71C4CD0E77A
:10533800194CCEE71B4CCCE71B4CCAE71B4CC8E703
:1053480014F809302C2B06D106F118036B440136EA
:1053580003F8188CF6B208F10108C0E705F1180344
:105368000DEB0305002315F8182C15F9175C01320D
:10537800D2B29918C9B2A94207EB030003DB002394
:1053880003700120BBE7615C01700133DBB2F0E719
:10539800DC230108690400202F11010863110108AA
:1053A8008011010805120108E3110108B91101086B
:1053B800054B282202FB00335B6A0BB11888704743
:1053C8004FF6FF70704700BFDC2301080B4B282203
:1053D80002FB003370B51E6A3046FAF7D3FE00228E
:1053E80001461446D5B2631CA942D8B200D870BD94
:1053F800735D01322C2B08BF0446F3E7DC23010858
:105408000F4B282202FB003310B51B79FE2B0146F7
:1054180014D1FFF7CDFF04460846FFF7D7FF002257
:1054280001461046D3B2994200D810BD44FA02F39F
:10543800DB0744BF431CD8B20132F3E7FF20F4E78F
:10544800DC2301082DE9F04F4FF0000A1D4E93B000
:1054580004460F46D146D6F808805FFA8AF54FF021
:10546800000B0DE018F8030001920BF0B5FCC3B275
:10547800019A202B08BF5F2302F8403C0BF1010B77
:105488005FFA8BF340460193FAF77CFE019B03F128
:10549800480298426A44E5D802F8409C394602A876
:1054A800FAF766FE48B10AF1010ABAF12C0F06F1C3
:1054B8002806D0D10025284600E00120257013B029
:1054C800BDE8F08FDC2301082DE9F0411D4E2823AB
:1054D80003FB016604463379FE2B0D46174618D0A8
:1054E800FF2B21D0022B28D10846FFF775FE214655
:1054F80090F9000009F047FE35692B783BB1124955
:1055080020460BF095FC294620460BF091FC012023
:1055180015E00846FFF760FE3B460278294620461C
:10552800BDE8F041FFF7BCBE0846FFF755FE06226E
:1055380001462046FCF7CAF8E9E700202070BDE8DC
:10554800F08100BFDC23010845130108F8B5194BA9
:105558001646282202FB063300241A790470022A10
:1055680007460D4603D0FE2A13D02046F8BD93F90E
:1055780018209142F9DB93F91C309942F5DC4FF081
:10558800000165F307013046FFF742FE0124387039
:10559800EBE70029E9DB3046FFF718FFA842E4DD16
:1055A8003046FFF705FF40FA05F313F00100E6D196
:1055B8000446DAE7DC2301082DE9F84300230370E9
:1055C800124B1746282202FB073306461B79FF2B8E
:1055D8000C4603D000252846BDE8F8830846FAF7AC
:1055E800D1FD0628F6D104F1FF3804F1050918F8B1
:1055F800010FFBF7BDFE05460028EBD0C845F6D1E4
:1056080021463846FFF728FE3070E4E7DC2301081E
:10561800F8B5104E4FF0280C0CFB026600273679BF
:105628000770FE2E04460B46154603D0FF2E0BD0FE
:10563800022E0DD118460BF03BFB2A4601462046A8
:10564800BDE8F840FFF782BFBDE8F840FFF7B4BFF8
:105658003846F8BDDC23010810B504460846B2B93F
:10566800FBF7DCFE042812D8DFE800F003090B0D75
:105678000F00084920460BF033FC012010BD0649F5
:10568800F8E70649F6E70649F4E70649F2E7002095
:10569800F4E700BF32120108371201083C12010872
:1056A800411201084712010810B504460068FDF7C9
:1056B800EFF902492068FDF7EBF910BD4D1201081A
:1056C8000B1E18BF0123122A14D91D2A14D9312AF6
:1056D8008CBF0822052203710023016080F8853001
:1056E8004371C0F8883080F88C3080F88D20A0F89D
:1056F8008E3070470122EEE70322ECE790F8853000
:10570800642B08D8C2180133DBB2517180F8853098
:10571800184400234371704708B50530FAF728FD8F
:10572800B0FA80F0400908BD2DE9F043064691B073
:10573800084688461546FAF725FD06F10509044688
:105748004846FAF71FFDE4B2631CC7B2BB4203DB4D
:10575800002011B0BDE8F0832246414648460BF0D0
:1057680083FB0028F4D1231D22461E44BA42034677
:105778001BD300F140036B44002403F8404C00287D
:10578800E6D09DF800303D2BE2D1302368468DF8F5
:105798000030FAF7F7FC2346DAB2904212D868468E
:1057A8000BF086FA28600120D3E716F8011F20299C
:1057B80005D040336B440130C0B203F8401C0132BD
:1057C800D2B2D3E740326A44013312F8402C303A5F
:1057D800092AE1D9BCE7000010B50D4B1B78022B54
:1057E80004460ED10B4B93F8742052B1DB6FB3F51E
:1057F800215F07D20849FFF757FF08492046FFF7FE
:1058080053FF10BDFDD00649FFF74EFF0549F5E7E8
:10581800BD0600200C050020501201088612010860
:10582800BC120108F212010810B50446FFF7D4FFB4
:1058380020680749FDF73AF9064B20681978303196
:10584800C9B2FDF74BF804492046FFF72DFF10BDFC
:1058580028130108F4020020141101082DE9F0476B
:105868004379702B90B080460F46164671D18379E4
:10587800202B6ED1C0790BF0A7FA00285CD0002548
:105888004FF0020A2C4608F105094846FAF77AFC57
:10589800824522D305F140030DEB0305002305F8EB
:1058A800403CC4B3E8461D4618F8010B0BF094FAC7
:1058B80078550135EBB2A342F6D300253D550134A6
:1058C800E4B26846FAF75EFC6719FFB2874206EB56
:1058D800050334D300221A702DE008EB0A035B7924
:1058E8003D2B0ED0202B07D005F140016A1C0DEB93
:1058F800010505F8403CD5B20AF101035FFA83FAC5
:10590800C3E72C46F0E705F140036B4413F8400C5D
:105918000BF062FA78556846FAF734FCE5B2A8420B
:1059280007EB050304F10104EDD800220A491A70B7
:1059380030460BF0D5FA012010B0BDE8F08707F12A
:1059480040020DEB0207013517F8402C1A70EDB232
:10595800B7E70020F0E700BF321301082DE9FF4741
:105968002C4E282303FB016604463379FE2B0D4693
:1059780020D0FF2B4BD0022B2DD196F91850264959
:105988000068FDF793F82846694609F0FCFB69466C
:105998002046FFF789FE96F91C5020492068FDF73C
:1059A80085F86946284609F0EEFB69462046FFF768
:1059B8007BFE10E00846FFF7FBFCDFF86490DFF899
:1059C80064A080460027FEB2012332462946684675
:1059D800FFF766FC10B904B0BDE8F087BBB248FA1F
:1059E80003F3DB0711D520684946FDF75FF806F198
:1059F80030012068C9B2FCF771FF20685146FDF7F5
:105A080055F869462046FFF74FFE0137DBE70649A0
:105A1800CDE700BFDC230108341301083C1301085B
:105A280044130108471301084B130108F0B5044655
:105A38008BB008460D46FFF7E3FC254F254906467F
:105A48002068FDF733F8282303FB05772068B96839
:105A5800FDF72CF820492068FDF728F82EB91F49D2
:105A68002046FFF721FE0BB0F0BD0122294602A80F
:105A7800FFF72AFD206802A9FDF718F83B79FE2BED
:105A880003D0FF2B1AD01649EAE72846FFF7A4FBF4
:105A9800057814492068FDF709F805F130012068F8
:105AA800C9B2FCF71BFF10492068FCF7FFFF012E65
:105AB800E9D10E492068FCF7F9FFE4E70C4B02A98D
:105AC8005A786846FFF7C8FD0028DCD06946F1E738
